S00C0000627462722E737265636E
S1134000E03F0010B1970000059800005D800000BB
S113401085800000AD800000D58000000000000015
S113402000000000000000000000000005980000EF
S113403005980000000000000598000005980000A5
S113404005980000A15A000005980000059800009A
S113405005980000059800000598000005980000E8
S113406005980000059800000598000005980000D8
S113407005980000059800000598000005980000C8
S113408005980000059800000598000005980000B8
S1134090059800007D7A000005980000059800004E
S11340A0AD97000005980000FD95000005980000FC
S11340B00598000005980000059800000598000088
S11340C00598000005980000059800000348044B7B
S11340D0834202D0034B03B1184770478401001098
S11340E08401001000000000054806490B1AD90F8E
S11340F001EBA301491002D0034B03B118477047E9
S113410084010010840100100000000010B5064C6A
S1134110237843B9FFF7DAFF044B13B10448AFF334
S113412000800123237010BD8801001000000000EE
S113413010E2000008B5044B1BB104490448AFF376
S11341400080BDE80840CFE7000000008C010010AB
S113415010E2000070B50D4E0D4D761BB61006D062
S11341600024013455F8043B9847A642F9D1094E7E
S1134170094D0AF04DF8761BB61006D00024013420
S113418055F8043B9847A642F9D170BD1CE20000E3
S11341901CE2000020E200001CE20000F0B48607EC
S11341A046D0541E002A3CD0CAB2034602E014F1A1
S11341B0FF3436D303F8012B9D07F8D1032C29D9FA
S11341C0CDB245EA05250F2C45EA054533D9A4F1BE
S11341D01006360903F1200707EB061703F1100256
S11341E042E9045542E902551032BA42F8D1721C30
S11341F014F00C0F03EB021204F00F0613D0331F5C
S113420023F003030433134442F8045B9342FBD1C9
S113421006F003042CB1C9B21C4403F8011B9C42F0
S1134220FBD1F0BC704734461346002CF3D1F8E7B9
S113423014460346C2E71A462646E0E770B49DF8E2
S113424020400399A40004F00405C1F381542C43D5
S1134250150A03F0030302704570150C120E43EAAD
S11342608103C2708A09BDF8146085700371069DCC
S11342708B0B42719DF8102064F06F0483719DF8DC
S11342801C30290AC4710272340A2A0C46728472E0
S1134290C57201734273837370BC704710B4837B1F
S11342A04C0903F0070343EAC1034A0BC1F3445129
S11342B0C473837310BC0274417470472DE9F04FCA
S11342C0437905798479C2799B0143EA950343EAEA
S11342D084339205447C867B02F4400290F80FC03C
S11342E01343620590F80880077C90F80AE002F016
S11342F07874407AF20842EA4C124FEAE37B40EACF
S11343000E2042EA4732224343EA086306F00704D8
S113431040EA0B000B608A600C734860BDE8F08FC4
S1134320F0B400234FF400060546094C09480A4935
S113433046FA03F22A4203F1010303D0D4E90072DE
S113434078405140182B04F10804F1D1F0BC7047B7
S113435010C800007E0E82C7020000B02DE9F04FA5
S113436085B092F801E05F4E17794FEA9E0536F862
S113437015A0BD083F0107F030070191394692F8B6
S113438002B092F803C092F805900BF03F044FEA94
S11343908C07137836F814404FEA0E1E07F03C07DA
S11343A036F8158047EA9B1709F03F0592F806B0E6
S11343B00EF0300E36F815504EEA131ED2790AEB81
S11343C00403240144EA8A0436F81EE043444FEA15
S11343D08B0A36F817702B4441EA1C1C12010AF0B0
S11343E03C0A36F81CC0734402F030022D014AEA3C
S11343F0991945EA88053B4436F8198042EA1B1BA3
S113440003EB0C0236F81B3044EA0E0E45EA0C0CA2
S113441042444EEA87171A444CEA881EFFB25FFAF8
S11344208EFCDBB2B2F5803F0446019D8DF80C7022
S11344308DF80DC08DF80E3051D24268002A38D163
S11344404FEA034E4EEA0C2E4EEA070ECEF38726B1
S11344500EF00702CEF3C213CEF3C3012A70EE703E
S11344606970AB702378204ACEF3090ED05C1F4DDF
S11344708EEA000202F01F02AB5C83EA501383EA67
S11344805E1E0EF01F0E15F80E0086EA53135840F8
S113449010F07F0023D13A22154D01EB410315F8AA
S11344A0136005EB43076761626286B105B0BDE83E
S11344B0F08F03A904F10C030846122200F076FAE7
S11344C09DF80C709DF80DC09DF80E30B8E70948B2
S11344D004F0A0FE3046656105B0BDE8F08F4FF0F2
S11344E0FF30E3E7B4D6000054D9000034D700000D
S11344F05CC90000D0C800002DE9F04182B0054637
S11345001646547892782F78DFF81CC13078E4008E
S1134510D20102F4607204F078041CF807E014433A
S113452000F007000443DFF804C184EA0E0000F041
S11345301F001CF800200F4682EA5E1282EA541122
S113454001F01F011CF80100696880EA521244EA74
S11345508224220CADF8044098468DF8062001AC64
S113456000294AD1214612230422384687F80080C4
S113457000F098FD3A236B627178284E01F00F0227
S113458002EB420216F8124006EB42026A6154B38F
S1134590518811B1089B002B3CD0A868537898B17E
S11345A0A9610B442B62517909B102332B62127950
S11345B032B9DB004133DB08EB6102B0BDE8F081C6
S11345C003EB43039B00F5E7012B1ED0022BE7D13D
S11345D008980088C0F3C900A861814236BF002151
S11345E01B18A961DEE70E4804F014FEA9686E6189
S11345F001B1214632460B46D2E72146204612221B
S113460005F10C0300F0D2F9ACE708980078C00873
S1134610A861E2E71146034803F0FCFC5CC9000012
S1134620D0C80000E0C8000054D9000034D700000E
S11346302DE9F04395B0866AD0F820C00446BCEB5F
S113464006000D4645D0A268991966693ABB777988
S11346502FB3022823D9A0F10208B8F1500F17464E
S113466028BF4FF05008B4F80EE0DFF89C90CF5DFF
S1134670013287EA0E07FFB239F8177092B29045FB
S113468087EA1E2E1746F2D89C44A4F80EE00CF8D4
S113469002EC276AE2893B44120A03F8012C5028F1
S11346A028BF502063680746E9464FEAC00803BBA9
S11346B03379626A83B905EBD20049463B4602F07E
S11346C0070200F03BF9D4E9093038444344C4E913
S11346D0093015B0BDE8F083434605EBD2004946E6
S11346E002F0070207EB470800F098F94FEA880840
S11346F0E9E7424604F10C03484600F057F93379E0
S1134700626A002BD7D0E7E754D700002DE9F84FB1
S1134710476904467A880E46002A63D0D0F8288078
S1134720B8F1000F5BD0056A002D00F0B380A845F6
S113473058D0A5EB08050A2D28BF0A2501EB080A65
S1134740626A0A99D2EBC10000F1A180397900298B
S11347504BD005EB4501B0EB810F4FEA81095EDBDD
S11347604FEAC50B194650465B4600F071FB63687F
S1134770002B48D0504604F10C035A46514600F031
S113478015F9D4E909304B440544C4E90935B8F1B5
S1134790000F41D161694A880AB1002E7DD0A36817
S11347A048781BB901286BD002285DD0A26110445F
S11347B020624A790AB1023020620A79002A51D073
S11347C000EB400292004132D208E2610BB97A79DF
S11347D042BB854234BF00200120BDE8F88F8A46E1
S11347E00A25ADE70120BDE8F88FB0EBC50F4FEA0D
S11347F0C50914DB194650462B4600F07DF8636862
S1134800CB46002BB6D1D4E909304B440544C4E966
S11348100935B8F1000FBDD0A368206AD6E702209D
S1134820BDE8F88FB4F810C0811EA94294BFCCEB48
S11348300101CCEB05010029CBD01A46E789DFF84A
S11348406CE06644B25C01337A40D2B23EF8122086
S11348509BB2994282EA17271A46F3D8614421820F
S1134860E781B6E7C200AEE7B6F800C0CCF3C90CE6
S1134870C4F818C0624536BF00226044A26197E7BD
S113488096F800C04FEADC0CC4F818C0F2E70448FC
S113489003F0C0FB034803F0BDFB034803F0BAFB7D
S11348A01CC9000000C90000E0C8000054D7000083
S11348B038B5836A046AA34216D383688BB9436903
S11348C05B7973B1214411F8015C11F8023CC08991
S11348D0023C43EA052398420CBF082000201480C0
S11348E038BD0020148038BD22461946014803F023
S11348F091FB00BF3CC9000038B59BB1C2F3C705AA
S113490012F0070229440ED0022A11D10138CA1824
S11349100B7811F8014F9B0843EA8413914200F885
S1134920013FF5D138BD1A46BDE8384005F0CABE8E
S11349301146014803F06EFBBCC90000F8B58C4673
S113494023B3C2F3C70412F0070200EB040E20D015
S1134950022A24D10978025D42EA8102591E0255D5
S113496015D0654676460CF1FF321A442C7815F8BA
S1134970017FA40944EA8704954206F8014FF5D162
S11349808C449CF8002092090EF80320F8BD012302
S1134990F7E71A467046BDE8F84005F093BE1146A5
S11349A0014803F037FB00BFD8C900002DE9F043EC
S11349B01C785FEAE20904F07F0402F0070811D0D2
S11349C04D1E154F05EB090E461E15F8012F17F85D
S11349D004C075453C4482EA0C0294F8004406F88D
S11349E0012FF2D1B8F1000F13D001250A4A11F8B2
S11349F00910165D05FA08F508F1FF3802EBC8182E
S1134A00444481EA0602691E0A4094F8804000F892
S1134A1009201C70BDE8F083F4C90000F0B5744CA3
S1134A2003F10905A4FB0535ED08D5EB05153AD0CE
S1134A300024704E04F00703E708062B00F2B98047
S1134A40DFE803F0AFA69D948B820400CB5D01EBFD
S1134A50070C9CF801709B0943EA8703F71897F841
S1134A6080C402F0070743EA8C234FEAD20C062FD6
S1134A7000F2AE80DFE807F06155463728190400DC
S1134A8010F80C7000EB0C0E47EA831700F80C705A
S1134A909F089B0A8EF801708EF802300A34A542F2
S1134AA002F10F02C6D80020F0BD10F80C7000EB24
S1134AB00C0E47EA431700F80C70DF08DB0A8EF887
S1134AC001708EF80230E9E710F80C7000EB0C0E60
S1134AD047EA031700F80C701F091B0B8EF80170CE
S1134AE08EF80230DAE710F80C7000EB0C0E47EA8F
S1134AF0C30700F80C705F095B0B8EF801708EF829
S1134B000230CBE710F80C7000EB0C0E47EA830779
S1134B1000F80C709F099B0B8EF801708EF8023020
S1134B20BCE710F80C7000EB0C0E47EA4307DB09F6
S1134B3000F80C708EF80130B0E700F80C3000EB90
S1134B400C071B0A7B70A9E7CB195B78CF5DDB00F0
S1134B5003F47E7343EA571380E7CB195B78CF5D88
S1134B601B0103F47C7343EA171377E7CB195B78D3
S1134B70CF5D5B0103F4787343EAD7036EE7CB1987
S1134B805B78CF5D9B0103F4707343EA970365E799
S1134B90CB195B78CF5DDB0103F4607343EA570301
S1134BA05CE7CB195B78CF5D1B0203F440733B4396
S1134BB054E701EB070CCB5D9CF802709CF801C034
S1134BC0DB097F0243EA4C0307F400773B4345E7E4
S1134BD010F80C7000EB0C0E47EAC31700F80C70C9
S1134BE05F085B0A8EF801708EF8023056E700BF4A
S1134BF0CDCCCCCCF4C900002DE9F04F8BB0844669
S1134C004D7A48798E79029591F804E0050204966C
S1134C1005F4FE454EEA050E049D8B784A78C009DA
S1134C2091F803A04E7B40EA4500029D91F80BB039
S1134C308F7A4FEA530992010192CC79039649EA9B
S1134C40CA120E7B6D09009245EAC7074FEA1B158D
S1134C5091F80080019A45EA06164FEA4429009D1E
S1134C6009F4FC49CDF804E042EA980240EA09005C
S1134C7091F80880C5F3090507950990039D0198EB
S1134C80A40991F80EE044EA8804C2F309080594E3
S1134C90CDF82080EC08C0F30908DFF8B0A144EA9D
S1134CA04E1EC97BCDF81880079C4FEA83380AEB67
S1134CB004002C0308F4804804F4E04442EA0802A7
S1134CC03443C6F30908089EC7F309094903CDF81C
S1134CD010900AEB060390F88094069E01F4C040FD
S1134CE00099CDF80C8093F880840AEB060389EAD6
S1134CF09126059988EA9228049A93F880540AEB3D
S1134D00010393F880140AEB0203019A4FEACB2BB8
S1134D1085EA9225039A0BF4F04B47EA0B0793F8C4
S1134D2080B40AEB020393F88094029B8BEA972BDE
S1134D305940099BCEF30907C3F309024EEA000E5A
S1134D400AEB020089EA942406F01F0690F8809486
S1134D500AEB46060AEB070090F88004019789EAFB
S1134D609329B6F88078079B08F01F080AEB4808D7
S1134D705F4080EA9E2E089BB8F8800805F01F0566
S1134D800AEB45055840B5F88068069B0EF01F0EE7
S1134D9001F01F010BF01F0B04F01F0409F01F09A1
S1134DA00AEB4B0B0AEB49090AEB41010AEB4404F9
S1134DB00AEB4E0ABAF88088B9F880E8B1F880188E
S1134DC0BBF880585E40B4F88048059BC0F3012BC3
S1134DD04B400093049B8CF800005D40039B002033
S1134DE05C40019B82EA0E0283EA08031946C6F37B
S1134DF0051A009B4AEA821A9210C7F38319C5F375
S1134E008318C3F30123C4F3051E8CF80420009A0D
S1134E1043EA85054BEA870749EA061648EA04147B
S1134E204EEA811E8B108CF801708CF803A08CF86C
S1134E3002608CF805208CF807408CF808E08CF8A8
S1134E4006508CF809300BB0BDE8F08FF4C90000AF
S1134E502DE9F843154603EB83077F008F4B093791
S1134E60A3FB0737FF08FA1D8846D208002106462F
S1134E70FFF794F905F00703022B00F0DE804FF0F2
S1134E800009B9454FF000004BDA854A05F00703E5
S1134E90E908062B00F2F280DFE803F0C5BCAC9C05
S1134EA08C7C040008EB010C18F801309CF80240DB
S1134EB09CF801109B09A40243EA810304F4F8441A
S1134EC01C43C4F3090C02EB0C0393F8803409F07F
S1134ED0070183EA942303F01F0302EB4303B3F8AF
S1134EE080384FEAE9048CEA030340EA9320C3F3D1
S1134EF00903062900F2B580DFE801F0473D3329B4
S1134F001F150400315D06EB040C41EA83119B0874
S1134F1031558CF8013009F10A09B94505F10F053D
S1134F20B4DBBDE8F883315D06EB040C41EA4311C0
S1134F30DB0831558CF80130EDE7315D06EB040CEC
S1134F4041EA03111B0931558CF80130E3E7315D67
S1134F5006EB040C41EAC3015B0931558CF80130BE
S1134F60D9E7315D06EB040C41EA83019B09315515
S1134F708CF80130CFE7315D06EB040C41EA4301C4
S1134F80DB0931558CF80130C5E7335531191B0A5B
S1134F904B70C0E708EB010C18F801309CF8024094
S1134FA09CF801105B09E40243EAC10304F4F044F1
S1134FB01C4386E708EB010C18F801309CF802400A
S1134FC09CF801101B09240343EA011304F4E04490
S1134FD01C4376E708EB010C18F801309CF80240FA
S1134FE09CF80110DB08640343EA411304F4C04451
S1134FF01C4366E708EB010C18F801309CF80240EA
S11350009CF801109B08A40343EA811304F4804430
S11350101C4356E718F8013008EB010464785B0878
S113502043EAC4144DE708EB01035B7818F8014028
S11350301B0203F4FE431C4343E7A7F14F04002C77
S11350404FF000097FF71DAF08EBD50106EBE9002F
S113505009F15009FFF7D0FDA14505F17805F3DB0F
S11350600FE7315D06EB040C41EAC31131555908D1
S11350705B0A8CF801108CF802304CE708EB010C49
S113508018F801309CF802409CF80110DB09640216
S113509043EA410304F4FC441C4312E7CDCCCCCCDA
S11350A0F4C900002DE9F04142EA030515F00105B9
S11350B040F0AC8033F0070C3BD0DFF858E114E04B
S11350C0002F70D0875D4FEA940847EA841787550C
S11350D00644A70AC4F3854486F80180B770F470C7
S11350E00835654502F1180222D2EC080C5D02F085
S11350F007070EEB8404022FD4F8C0484FEAD20607
S113510040D0042FDCD110F80680083548EA041892
S113511000F8068087194FEA1418260B6545C4F376
S1135120035487F80180BE70FC7002F11802DCD3CE
S11351305B1B002B40D00124ED08495D354D03EB8A
S1135140430305EB8105D5F8C05804FA03F102F0D6
S113515007030139022B01EA05014FEAD2022ED0DE
S1135160042B44D0D3B3845C831844EA811484545C
S11351708D088A0AC1F385415D709A70D970002048
S1135180BDE8F08110F80680871948EA840800F821
S113519006804FEA9418A60BC4F3815487F8018063
S11351A0BE70FC709CE7845587194FEA1428240CC0
S11351B087F80180BC7093E71846BDE8F081845CF1
S11351C0831844EA810484548D098A0BC1F3815104
S11351D05D709A70D9700020BDE8F0818154841804
S11351E00D0A090C6570A1701846BDE8F081845C55
S11351F0831844EA011484540D090A0BC1F30351C2
S11352005D709A70D9700020BDE8F0814FF0FF30D6
S1135210D3E700BFF4C9000070B54FF4E0220E4B91
S11352204FF448651A6004F0A5FC0C4804F0F2F849
S113523002F0B0FD00F0C2FA00F06AFD084E3468D6
S1135240A54203D802F022FE04F5486504F034F9BF
S113525000F006F9F3E700BF24ED00E0655200001A
S11352600880004030B583B01C46232825D8DFE8E9
S113527010F0290024002400360093008A00B300B3
S1135280AA00A4009B002D0024002400E000DA0002
S1135290D400CB00C300C000B800240024002400C4
S11352A0240027004B00240024003F006800240051
S11352B024002400770024007200002003B030BDD5
S11352C004F0CAFC002301202360F7E70B884FF4A5
S11352D00072002B64D0584B01201A60EEE70121C4
S11352E0564B08461B68C3F3400313702160E5E77F
S11352F00520019204F06AFB0123019A00F00700E3
S1135300107018462360D9E74FF4BA704C4B4D4ADD
S11353101A6002F087FD014614234FF4B47001F1C2
S11353200C0401F110024C6048808A600B73EFF3A7
S1135330108472B6444802F0F7FE84F3108801200A
S1135340BCE709880729B8D8052041F0080104F012
S113535046FB0120B2E70123137018462360ADE732
S113536000233A4813705370019205F021FA019A10
S1135370C5B290703549D01C2A46033505F0A2F910
S1135380012025609AE701212C4B08461B68C3F3D2
S113539000131370216091E70B880222002B9AD12D
S11353A02B4B01201A6089E70121244B08461B6816
S11353B0C3F340231370216080E70B884FF480729D
S11353C0002BEDD087E701211C4B1B680846C3F373
S11353D000231370216071E70B881022002BDFD0AB
S11353E079E70B884FF4807253B11A4B01201A608D
S11353F064E70121184BE8E70B888022002BF4D1E5
S1135400164B01201A6059E70121134B08461B680B
S1135410C3F3C0131370216050E71046214604F013
S1135420CFFB01204AE71046214604F0E3FB0120AC
S113543044E74FF4BA706CE738C0092034C009203F
S11354401C00001021BB0543E023001054DA0000C7
S11354503CC0092058C0092054C009205CC0092060
S11354602DE9F041EFF3108572B67E4802F046FE56
S1135470044685F3108830B3017B202925D8DFE862
S113548001F0AB24242424242424242424242424A8
S1135490242424242424A8857F78755E584D4AB199
S11354A011342D00704D2B78002B40F0CF80E86F25
S11354B008B102F0DBFC6D4803F0ACFE012004F1FE
S11354C01003C5E91F43BDE8F081694803F0A2FE5B
S11354D0204602F0CBFC0120BDE8F08100F1100170
S11354E0D1E9000101F0C0FFF2E7EFF3108672B6D4
S11354F0604D037D284604F115010A2200F8013BA2
S113550005F0E0F82A46002320695B4900F07CFAA4
S113551086F31088DCE701F075FED9E7EFF3108518
S113552072B65648214602F0FFFD85F3108801202B
S1135530C9E7007C00F0030002F022FBC8E707691A
S11355404E4E27F07F483F0E01E002F08FFCEFF350
S1135550108572B6304602F0D1FD85F3108800281C
S1135560F3D13946404601F011FAB1E701F006F9EA
S1135570AEE700F11001D1E9000100F0A9FBA7E7B3
S1135580007C00F03F0002F0DDFAA1E7EFF31088A1
S113559072B6354D2E78052E35D8394A394B52F826
S11355A02610002908BF19460027374A374803F058
S11355B031FE2F7088F310883EBB354D2E682B6862
S11355C01E369E4284D903F077FF2B689E42FAD898
S11355D07EE704F0D9FA7BE700F110012D4803F0CF
S11355E019FE75E7254E01E002F040FCEFF310854B
S11355F072B6304602F082FD85F310880028F3D19C
S113560002F00AFA64E72449CEE74FF4BA7002F0D4
S113561009FC014629234FF4B4750C3001F1100242
S11356200B73131AEB1A012BC1E901024D8015DD2E
S113563001F112030F744F748B60EFF3108572B68F
S1135640164802F071FD85F31088B6E7144803F09C
S1135650E1FD204602F00AFC012034E7114802F083
S1135660D9FC00BFE0230010DC230010D0DA0000D6
S1135670E0DA0000A4010010957500003024001049
S11356805CDB000068DA000080DA000088DA0000E1
S11356900880004070DA000060DA0000082400107E
S11356A0B4DA000098DA00002DE9F04104460E4611
S11356B0EFF3108872B6394F3D78052D49D8384A32
S11356C0384B52F82510002908BF1946052C39D843
S11356D0334A344B52F824203348002A08BF1A4670
S11356E003F098FD4CBB3C7088F3108855EA040322
S11356F001D1BDE8F0814FF4BA7002F093FB01468A
S113570029234FF4B4750C3001F110020B73131AF2
S1135710EB1A012BC1E901024D803CDD01F11203BA
S11357200C744E748B60EFF3108472B61F4802F051
S1135730FBFC84F31088BDE8F081032C0BD0002D12
S1135740D1D00DE01A4A184803F064FD002DCAD0E8
S113575006E01749BAE7AB1E012BC4D9052DC2D008
S113576088F31088052D12D80D4A0E4B52F82510D7
S1135770002908BF1946052C0BD8094A094B52F8D1
S11357802420002A08BF1A460A4802F043FC0849AC
S1135790F1E7074AF8E7084802F03CFCDC23001074
S11357A05CDB000068DA000088DA000008240010DE
S11357B060DA0000FCDA000098DA000010B500237B
S11357C0084C201DC4E91F33237002F0C5FC04F10A
S11357D02C0002F0C1FC04F15400BDE8104002F0BA
S11357E0BBBC00BFDC23001070B542780B7B161ED7
S11357F018BF0126282B04460D4640F092804B7DAD
S11358009B074BD50378C3B1494B1978032910D8AA
S1135810012910D85968E368A1600133E360DAB95B
S11358202A7E237C9A4217D0284602F01FFB30467A
S113583070BD0529EED19968EDE70123017C037061
S1135840490101F0E0010320FFF72EFF384B627895
S113585019780329EDD8DBE7AB7E98070AD5A06950
S113586040B102F003FB0022A37CA26183F0010398
S1135870A374AB7E6A7D510706D5617CC3F38003B4
S1135880994236D00123E374637883BB6B7E012B8A
S113589045D0E37C002B18BF0126C5E7244B1A78BA
S11358A0032A1BD8012A1BD85968A068091AB1F524
S11358B0486FB9D9032A2ED8012A2ED85B686168AB
S11358C01C4A591AA1F54861A2FB01311A48E26841
S11358D0890A03F09FFC4FF0FF36A5E7052AE3D1C0
S11358E09968A068091AB1F5486F9DD9E2E70126C5
S11358F09AE71307C8D5EFF3108672B60F48294606
S113590002F012FC86F3108870B90126637CE674F9
S1135910734063748BE7052AD0D19B68CFE71E469A
S113592082E7074802F076FB064802F073FB00BFEB
S1135930B00100101F85EB518CDB0000082400101F
S113594074DB0000B0DB0000F8B5044680690F4644
S1135950164690B1037B1B2B26D100F110051430A1
S11359603D6030600022A37CE17C9B0043EA41035C
S113597043F00103AB70E274F8BDEFF3108572B627
S11359800B4802F0BBFB85F31088A0610028E1D12D
S11359906378227C003B18BF012304F114052275AF
S11359A063753D603060DDE7024802F033FB00BF01
S11359B030240010CCDB000010B50446806918B117
S11359C002F054FA0023A36110BD00BF70B4002498
S11359D001260C4D04702B784170032B02748461F2
S11359E0C4604674468206D8B34206D86B6870BC5D
S11359F0C0E901337047052BF8D1AB6870BCC0E92E
S1135A0001337047B001001070B5204C25680A2D91
S1135A1039D0A668B6B1A669E6B1A66AEEB1A66B9E
S1135A20F6B1A66CFEB1A66D06B3A66E0EB3A66F54
S1135A3016B3D4F8886016B3D4F898600EB314483B
S1135A4002F0E8FA261D01353373C6E90001B2609D
S1135A50256070BD04F11406F5E704F12406F2E7AD
S1135A6004F13406EFE704F14406ECE704F15406CC
S1135A70E9E704F16406E6E704F17406E3E7054E9A
S1135A80E1E7054EDFE7054802F0C4FA60240010A0
S1135A9004DC0000E4240010F4240010ECDB00001B
S1135AA02DE9F84F4FF040221368DB0701D4BDE81D
S1135AB0F88F0121314B11601869D3E901120131CA
S1135AC00132C3E9011228B140F6344100202C4AC6
S1135AD0186111601A78032A38D8012A38D85E6808
S1135AE0DFF8A0B0DBF80030A3B300255C46A8467D
S1135AF0DFF894A0DFF894900BF1A00716E00FD222
S1135B00237C002B36D0484603F084FBD4E90230D2
S1135B109847DBF80030C4F80880013BCBF800302C
S1135B2001359D4216D21034BC4213D0A16800291D
S1135B30F7D06268B242E2D1E0688847DBF800300F
S1135B40C4F80880013BCBF80030E9E7052AC6D148
S1135B509E68C5E74FF0402400F0EEF900F0E0F94C
S1135B602368002BA3D04F2002F0BEF90123236049
S1135B70BDE8F88F504603F04DFBCAE7B0010010B2
S1135B80184000406024001020DC00001CDC0000F1
S1135B9030B40121054B064CDA6800F63445104454
S1135BA02560C3E9030130BC704700BFB001001099
S1135BB01840004030B4012340F635450B490C4CE5
S1135BC0CA680B6184FB0234D017C0EB242305FBA5
S1135BD013234D68C0EB2420064C28441A4403F6D2
S1135BE034434860CA60236030BC7047B001001081
S1135BF089B5F8141840004008B50A4B19780329F0
S1135C0004D8094B987940F0600008BD0B1F012BA4
S1135C1004D8C0F3470040F0400008BD034802F038
S1135C20F9F900BFB00100102025001030DC00009D
S1135C302DE9F8438146084690460F46FEF770FB6F
S1135C40044600280D4671F10003B4BF4FF00A0C5E
S1135C504FF0050C1C4B020CD6B2E1B213F806E06F
S1135C60100A5E5CC4F30721185C595C40EA0E2EEE
S1135C7041EA0620154E230A4EEA0040290A4FEA5B
S1135C80146E86F82B2086F82A302A0C2B0E86F800
S1135C902CE086F82E1086F82F2086F8303086F80F
S1135CA028C0C6E90845776186F8188086F8294037
S1135CB086F82D5001F070FF47EA086001F008FCF7
S1135CC086F80090BDE8F88354D90000B0010010B4
S1135CD0F0B583B005460B4C2B0E20F07F400F46E9
S1135CE084F8383060636187FEF71AFB0646CDE915
S1135CF000012A463B460448C4E9106103F08AFACD
S1135D0003B0F0BDB00100104CDC00000000000046
S1135D102DE9F04182B000F07FF90425022300242C
S1135D204FF0030E40F6344843F6085C6FF0010769
S1135D300121294E294A336029483560294E1460CF
S1135D4004603560284D06F58046C5F8008045F8A6
S1135D5004EC05F57F550C36C5F834C03760234E86
S1135D60EB633435224D33600160116000266C60B2
S1135D70002701F01DFF01F0B5F800F015FC41F219
S1135D80221233211B4B1C489C609C619C629C63C7
S1135D909C649C659C669C67C3F88840C3F89840E3
S1135DA06A871C60C5E9086785F838106863FEF7E0
S1135DB0B7FA07A3D3E900230446CDE90001C5E9F6
S1135DC010410E4803F026FA02B0BDE8F08100BF8E
S1135DD0665544332211000080E100E00440004095
S1135DE0048000400C4000401840004000E100E006
S1135DF0B001001060240010665544004CDC000023
S1135E00002070472DE9F0413424154EBDF8188068
S1135E1096F84053BDF91CE0284400F00F0004FB41
S1135E2000F406EB040C9CF83050032D11D800202C
S1135E3005EB450704EB87043719013531513A71F5
S1135E407B71A7F80680A7F808E08CF83050BDE80D
S1135E50F081044803F0DEF94FF0FF30F7E700BFAC
S1135E60F801001068DC00002DE9F04F83B007460C
S1135E70DFF8A490086899F84063DFF8A0803E44F6
S1135E80404506F00F0642D000238B464FF0340AFB
S1135E9015460093019718B30AFB06F409EB0407AF
S1135EA097F83000032828D800EB400004EB80006A
S1135EB00C225946484404F005FC97F8302002EBC4
S1135EC0420004EB80044C440132E58087F8302022
S1135ED05BF80C0F4045DED1009803B0BDE8F08FAD
S1135EE0019F99F840630137FBB21E440193009B64
S1135EF006F00F0601330093EAE7064803F08AF937
S1135F004FF0FF330093009803B0BDE8F08F0023F7
S1135F100093E1E768DC0000F8010010015E000076
S1135F20044A92F84033013303F00F0382F84033FC
S1135F30704700BFF80100102DE9F04F87B0002032
S1135F400121342703230222324DCDE9020195F8C1
S1135F504013CDE9042307FB01F7EB1993F8300054
S1135F6001910646002849D00026BE4602A901EB4D
S1135F70800C51F8043B013603EB430307EB830326
S1135F808642B8BF88462B4418DA58F8049BB3F904
S1135F9008B009EB49020EEB820AAA44BAF908A038
S1135FA09200D34507DD51F8044CD31941F8049C01
S1135FB02B4448F8044CE045E7D1DAE7D9D134273B
S1135FC0019B002607FB03F705EB070801E098F89F
S1135FD03000B04212DD02AB53F82630013603EB39
S1135FE0430307EB8303E818C2884179EB5800792F
S1135FF098470028EBDA07B0BDE8F08F342200237D
S11360003046019902FB015484F8303007B0BDE8F2
S1136010F08F00BFF8010010404B93F84023002A92
S113602074D00021012A83F8301047D10021032ABB
S113603083F898101FD183F800110021062A83F8F1
S1136040341108BF83F89C111CD10021092A83F85C
S1136050D01108BF83F838121CD100210C2A83F810
S11360606C1208BF83F8D4121CD100210F2A83F8C4
S113607008131FD17047042A83F8CC1008BF83F893
S1136080341122D10021072A83F8681108BF83F84C
S1136090D01122D100210A2A83F8041208BF83F800
S11360A06C1222D100210D2A83F8A01208BF83F8B4
S11360B0081322D1002283F83C237047022A83F874
S11360C0641008BF83F8CC10B0D10021052A83F8EE
S11360D0001108BF83F86811AFD10021082A83F8A2
S11360E09C1108BF83F80412AFD100210B2A83F856
S11360F0381208BF83F8A012AFD100210E2A83F80A
S1136100D412B2D1002283F83C2370470021032A21
S113611083F8642083F898108DD0ACE7F801001060
S11361202DE9F041DFF82C8198F80030032B70D86A
S1136130012B74D8D8F804600136304601F0C8FA4F
S1136140074600F66210002180B201F00FFE6120C4
S113615003F051FC40F2E141384B20205B884FF4BE
S1136160B4759BB241EA433189B203F038FC4FF471
S11361705761082003F033FC622003F03CFC10223A
S11361802F4B4FF4BA701A6001F04CFE03462822DC
S11361900C3003F110011A730A1A2A4CAA1A0B2A9A
S11361A0C3E901015D80A36044DD002503F11C0205
S11361B09A601F751E619D75DD755D753046E160E1
S11361C0FFF71AFD01210026002798F818301E4A0F
S11361D02374D35C94F856221B022077616104F186
S11361E03D004FF40471E383A261C4E90A67C4E982
S11361F00C6725846562A563A4F84E5284F8545252
S1136200C4F8505203F0A8FA03F084FA2846BDE813
S1136210F081052B8ED1D8F8086001368DE7D8F8C7
S11362200860032B06F1010687D1084A93790133EC
S1136230937182E7064801F0EDFE00BF8C0A00105E
S113624038C009204005001054D900002025001052
S113625098DA0000B00100102DE9F0472E4D6420BB
S1136260D5E9026403F0C7FB4FF4807110222B4B75
S113627019601A6003F012FA002C49D02F68002F1D
S113628043D0637913F002031DD10C21A371E37190
S1136290AA680C4402F10C039C4204D351880B44B9
S11362A09C4298BF94604FF000084FF00009B5F885
S11362B04E2230463B46C5E902896968A2F2622251
S11362C0BDE8F047184703F067FAD5F8503207469F
S11362D098420BD93D3305F13D0111482B44394413
S11362E01A78825C03F8012B8B42F9D104F10C017A
S11362F00C48A21DC5F85072FEF7DAFA6379E188FA
S113630018432F6860710C31C2E7074801F082FE20
S1136310064801F07FFE00BF400500103CC0092084
S113632054D9000050050010ACDC000094DC0000DF
S1136330F0B583B04E4C0E20E56803F047FB00F047
S11363401F00102870D140F2C5214A4A4A4802E091
S113635003685E070AD513688B42F9D96B79DB07AA
S11363600BD4FFF779FF002003B0F0BD1368A4F845
S11363704E326B7943F001036B7194F83C30002B7F
S1136380EFD0E6683D4D3E4F03F006FAD4F85032A4
S1136390984208D93D33234429181A78BA5C03F883
S11363A0012B8B42F9D10B28C4F85002ECD9354AA1
S11363B006F10801A2F13100FDF7D0FF0028D0D189
S11363C0626A5379002B37D1737943F002037371F6
S11363D05388002BC5D0E668284D294F03F0DCF91B
S11363E0D4F85032984208D93D33234429181A78F6
S11363F0BA5C03F8012B8B42F9D10428C4F850028B
S1136400ECD904381628E9D91E4B009006F108028D
S1136410A3F1310006F10C01FEF778F980B10128EF
S113642020D184F854029CE7174802F0F3FEFFF7EA
S113643013FF002003B0F0BD737943F00403C4E7F5
S113644094F85432002B8CD1626A104915780120DB
S11364506D00013D1A46CDE9003384F85552FFF72B
S1136460D1FC80E70246717A094801F0D3FD00BFF0
S1136470400500100840004054C009207D0500106C
S113648054D9000081050010C4DC000095640000AC
S1136490D8DC00002DE9F04383B03C4D95F85562FB
S11364A0EC68013EF6B285F8556203F075F9B6FA68
S11364B086F6D5F85032760998420BD93D3305F16A
S11364C03D01334F2B4401441A78BA5C03F8012B85
S11364D08B42F9D10428C5F8500254D84FF0000873
S11364E0EB6AA3EB08020F2A1CD9DEB9294E04F18A
S11364F00C0508343346224629462748CDF8008047
S1136500FEF704F90028F5D0012836D000232349EA
S11365101A46CDE900330120FFF774FC002003B0D4
S1136520BDE8F08340F2DB521D4E31689142DDD864
S11365301C4FDFF85C909845D8D203F02DF9D5F8BC
S11365405032984209D93D332B4439181A7819F836
S1136550022003F8012B9942F8D10428C5F850020F
S113656008D84FF0000840F2DB5332689A42BDD895
S1136570EB6AE0E7A0F10408F5E7FFF76DFE002001
S113658003B0BDE8F083A0F10408A9E740050010BA
S113659054D90000810500105005001095640000D6
S11365A0084000407D05001010B5054CA06828B1D6
S11365B001F05CFC00220023C4E9022310BD00BFEB
S11365C04005001070B50C4C1546A66886B93246D5
S11365D003F0010603F002032160656084F83C6067
S11365E084F856320549C0B2BDE87040FFF73CBCA0
S11365F0034801F00FFD00BF400500100CDD000052
S1136600F0DC000030B583B0FFF7D4FA144B154D1D
S11366105A68D44304F00304201D111801F53B33D8
S113662003F500739A4229600FD200252B462A46AF
S11366302946009500F062FCA01D2A4601230A4960
S1136640FFF7C0FF002003B030BD084802F0E2FDB0
S113665001210020FFF728F8002003B030BD00BF5F
S1136660B0010010980700107166000048DD0000BA
S1136670F0B583B0394B04461E78012E50D1037B0C
S1136680282B68D1427D12F008052AD0407E0228CA
S11366905BD0334B334A1B68506803F53B3303F537
S11366A00073984241D2C043002700F003052846F6
S11366B03B463A463946009700F020FC33463A46BA
S11366C02949A81CFFF77EFFEFF3108572B627480F
S11366D0214601F029FD85F3108818B3244801F000
S11366E099FC01F0C3FB1E4B1E4A1B68506803F55E
S11366F03B3303F5007398421FD2C04300F00304F8
S113670020462B462A462946009500F0F7FBA01C9C
S113671033462A461449FFF755FF002003B0F0BD65
S113672001F0A4FB002003B0F0BD124802F072FD9A
S113673031460020FEF7B8FFC6E70E4802F06AFDB6
S113674031462846FEF7B0FFECE7334600220649FF
S1136750FFF738FFB8E7084801F05CFCDC230010C1
S113676098070010B00100107166000008240010A2
S113677078DD000048DD00005CDD000010B582B06B
S113678000220B491046FFF753FA00246FF002036E
S11367902246CDE90043074923460220FFF732FB96
S11367A02146012002B0BDE81040FEF77DBF00BFC6
S11367B0338B9E000566000070B582B0274B0446FB
S11367C01B78022B1CD1437D13F001051ED0244BF2
S11367D0244E59683046CD43013105F00305294460
S11367E08908FDF75BFD002228461146331F0096F9
S11367F000F084FB00231C491A46A81CFFF7E2FEA4
S1136800204601F033FB002002B070BD174B144A40
S11368101B68506803F50C3303F52073984215D2B6
S1136820C04300F0030630462B462A46294600950D
S113683000F064FB2B462A460D49B01CFFF7C2FE4C
S1136840204601F013FB002002B070BD094802F09D
S1136850E1FC28460121FEF727FFD1E7DC230010E5
S1136860B0010010A4070010E56800009C070010A8
S1136870B967000094DD000030B583B0FFF79AF9E2
S1136880144B154D5A68D44304F00304201D111809
S113689001F50C3303F520739A4229600FD20025C9
S11368A02B462A462946009500F028FBA01D2B46BE
S11368B02A460A49FFF786FE002003B030BD084887
S11368C002F0A8FC01210020FEF7EEFE002003B038
S11368D030BD00BFB00100109C070010B967000074
S11368E094DD000070B582B0214B04461B78022B66
S11368F020D1437D13F0010522D11E4802F08AFC09
S11369001D4B1E4A1B68506803F50C3303F52073B6
S1136910984220D2C04300F0030630462B462A4654
S11369202946009500F0EAFA2B462A461449B01C81
S1136930FFF748FE204601F099FA002002B070BD2E
S1136940104802F067FC00F0B7F8204601F08EFA18
S1136950002002B070BD0C4802F05CFC2846012106
S1136960FEF7A2FE204601F081FA002002B070BDBD
S1136970DC230010ACDD00009C070010B001001007
S1136980B9670000A4DD000094DD000030B587B0D5
S1136990034600240A4601201946FFF749F901225B
S11369A04FF40075124B1349588F0594029093F8D5
S11369B0380004925A6B01900F4800921A6C0390AD
S11369C0234601F108008C718D80FDF737FC6FF0D0
S11369D00201234601912246084900940220FFF750
S11369E011FA2146022007B0BDE83040FEF75CBE34
S11369F0B00100109C0700100C025A0079680000D6
S1136A000123044A044950680022181A00F00300C4
S1136A10FFF7D8BDB00100101D6A000010B584B0A6
S1136A20204B01461B78032B07D001F01FFA1E48A8
S1136A30FEF7C2FF002004B010BD1B48FEF7D4FED1
S1136A40041E0EDB012C17D00123184A1849506884
S1136A500022181A00F00300FFF7B4FD002004B070
S1136A6010BD1148FEF7A8FF61420020C9B2FEF72D
S1136A701BFE002004B010BD0C4B03AA5C6802A9E5
S1136A80E4430948FEF760FF039B04F00304204637
S1136A9000930022029B074900F030FA002004B062
S1136AA010BD00BFDC230010B8070010B0010010B7
S1136AB01D6A0000016A000030B585B0134C042043
S1136AC094F83820616BFFF7B3F80122104D11469A
S1136AD02846FEF77BFF0F4802F09CFB64682846BB
S1136AE0E44303AA02A9FEF72FFF04F00304039B67
S1136AF004342046002200930749029B00F0FEF96B
S1136B0002210320FEF7D0FD05B030BDB001001016
S1136B10B8070010B8DD0000016A0000044A012330
S1136B2090680449C043002200F00300FFF74ABD07
S1136B30B0010010396B000010B584B0284B044636
S1136B401B78032B21D1437DDB0714D42146254830
S1136B50FEF74AFE041E21DB012C2AD0224A01231F
S1136B6090682249C043002200F00300FFF72AFD89
S1136B70002004B010BD1046FFF70AF8214619485A
S1136B80FEF732FE041EE7DA08E01648FEF714FFAB
S1136B90204601F06BF9002004B010BD1148FEF747
S1136BA00BFF61420020C9B2FEF77EFD002004B055
S1136BB010BD0D4B03AA9C6802A90A48FEF7C4FE47
S1136BC0C4F10104039B04F0030420460093002253
S1136BD0029B074900F092F9002004B010BD00BFE9
S1136BE0DC230010EC070010B0010010396B00002A
S1136BF01D6B000070B5034608461546114C1A0E6D
S1136C0023F07F416060052023602572FFF710F8B0
S1136C102A46002104F10C00FEF7D8FE0A4802F0CF
S1136C20F9FA02210320FEF73FFDBDE87040074A50
S1136C30012390680649C04300F003000022043099
S1136C40FFF7C0BCE0070010C8DD0000B001001071
S1136C50396B000038B540F2DB55114C06E00E20CC
S1136C6002F0B4FE00F01F000F2802D02368AB42EC
S1136C70F5D9642002F0BFFE4FF480711022094B55
S1136C8019601A6000F03EFF0022074B19689A60F1
S1136C909A63C3F84C2209B158688847002038BD6C
S1136CA0084000403CC0092010080010F0B583B033
S1136CB0444E3378032B7CD8012B7CD87568012B88
S1136CC005F1010503D8404A9379013393712846AD
S1136CD000F0FEFC00F66210012180B201F046F8DB
S1136CE0612002F088FE40F6E141202002F077FEA8
S1136CF0364C44F67051082002F071FE04213448E9
S1136D0000F0BAFFA368002B59D02846FEF774FFA1
S1136D1001250021327E2F4B04F140079B5CC4E91E
S1136D2008111B02C4E90A112076227363834FF40D
S1136D3003726161A1832163616325613846FDF7B4
S1136D402DFAA26B96F828300092A268394604F115
S1136D500C00FDF7D1FBA66A226AA36BC4F84C723F
S1136D60E66315784BB304F10C003946A268FDF7CD
S1136D705FFCE66BD4F84C021C2E28BF1C2631465F
S1136D8000F07AFFD4F84C32E16B68003344891B7D
S1136D90C0B2C4F84C32E16300246FF0020322460F
S1136DA0CDE900430C492346FFF72CF8204603B0F5
S1136DB0F0BD052B82D1B56881E73846DCE70220B7
S1136DC0EAE700BFB00100102025001010080010F1
S1136DD0DD01001054D90000556C000070B5134C4F
S1136DE0D4F84C02E8B1E56B102D28BF10252946D4
S1136DF000F042FFD4F84C32E16B2B444D1BC4F835
S1136E004C32E5631DB9BDE8704000F07BBEA36B56
S1136E10A26804F1400104F10C00BDE87040FDF7E4
S1136E2007BCE16B024801F0F5F800BF1008001040
S1136E30D8DD000010B502F0D7FD10F0040422D014
S1136E40632002F0D8FD4FF480711F4B1F4ADB6BA7
S1136E50116073B91E4A1378032B06D8012B06D888
S1136E605168C90724D4002010BD052BF8D19168BE
S1136E70F7E701220021174800F018FE144A13789E
S1136E80032BF2D8EAE7144802F0C4F900F03AFE02
S1136E900D4B64209C609C63C3F84C4202F0ABFD34
S1136EA04FF4807110220D4B002019601A6010BD40
S1136EB0032B05D8012B05D85168094801F0AAF81D
S1136EC0052BF9D19168F8E71008001038C00920A3
S1136ED0B0010010DD6D0000FCDD00003CC00920A5
S1136EE010DE000008B500F00DFE0022024B9A608F
S1136EF09A63C3F84C2208BD10080010F8B50B4C77
S1136F000E46A7681546DDF818C05FB93A46C4E9CD
S1136F100065A360C4F838C00549C0B2BDE8F840B4
S1136F20FEF7A2BF034801F075F800BF1008001077
S1136F3044DE000028DE000010B582B01F4A20495C
S1136F4002E00B685B0715D51368F92BF9D91D4CC2
S1136F50E268A37A0132E260A3B9082A1AD06FF07A
S1136F6002021949CDE9003201201A46FEF74AFF10
S1136F7002B010BD0121134C1268E36822810B4456
S1136F80A172E36000222089104BA0F262209A6073
S1136F90FEF7FEFD642002F02EFD4FF480701021F8
S1136FA00B4A2368106011602BB16168A07A02B0AB
S1136FB0BDE810401847074801F02CF8084000408D
S1136FC054C00920600A00104D700000B001001088
S1136FD03CC0092080DE000008B5002000F078FBEA
S1136FE000F66210002180B200F0C0FE0022144BB3
S1136FF061209A721A81DA6002F0FDFC40F2E141EC
S1137000104B20205B889BB241EA433189B202F0E5
S1137010E6FC4FF45761082002F0E1FC622002F024
S1137020EAFC1022084B1A600E2002F0CFFC00F09C
S11370301F001028F8D1FFF77FFF002008BD00BF14
S1137040600A00108C0A001038C0092008B5FFF748
S113705073FF002008BD00BF70B582B06FF002045A
S113706000231646074D01940748AC7900931A464D
S113707001604660054901340120AC71FEF7C2FE8F
S113708002B070BD20250010600A0010D96F000006
S113709000B585B0184BD3F8803073B117491A1D69
S11370A088680092C0F101000022154900F0030035
S11370B0FFF724FF05B05DF804FB124A1249126879
S11370C0096802F53B3202F50072914207D21A4672
S11370D001200E4905B05DF804EBFFF7BDBF0C4875
S11370E0039302F097F8039B0121184605B05DF85D
S11370F004EBFEF7D9BA00BFDC230010B001001086
S113710015710000700A0010088000405D710000D5
S11371109CDE000008B50D4B0D4A1B68126803F590
S11371203B3303F500739A4206D2BDE808400022BF
S113713001200849FFF790BF074802F06BF8BDE84B
S1137140084001210020FEF7AFBA00BF700A00100A
S1137150088000405D7100009CDE000030B583B003
S11371601F4B04461B78042B29D180B91D4B1E4AA2
S11371701B68126803F53B3303F500739A4224D26B
S113718002461A4903B0BDE83040FFF765BF184D09
S1137190212000F0A9FE6968164C023120468908B6
S11371A0FDF77CF8A8680022C0F1010012490094A0
S11371B000F00300231FFFF7A1FE03B030BD0F480A
S11371C003B0BDE8304002F025B80D4802F022F8C3
S11371D02046012103B0BDE83040FEF765BA00BF88
S11371E0DC230010700A0010088000405D7100006C
S11371F0B0010010780A001091700000B4DE0000A5
S11372009CDE000070B586B00024002202202049D4
S1137210FEF70EFD00210420FEF746FA1D4B4FF445
S11372200071D3F880201C4B121B18BF0122588F09
S113723093F8386005925A6B184DCDE900260290F8
S113724017481A6C23460390049405F10800A9809A
S1137250AC71FCF7F3FF134B1A68511C29601B68CF
S113726002F53B3202F20122934207D22246012068
S11372700D4906B0BDE87040FFF7EEBE0B4801F0C3
S1137280C9FF2046012106B0BDE87040FEF70CBAE4
S1137290338B9E00DC230010B0010010700A001034
S11372A00C025A00088000405D7100009CDE000062
S11372B010B582B0084C0948227BA368CDE900329E
S11372C0D4E9002301F0A6FFD4E9000100F0A8FAF4
S11372D0002002B010BD00BF08250010C8DE000069
S11372E0F0B583B02D4D04462B78052B26D1437D74
S11372F01A070BD5417E02292CD0294801F08AFFB8
S1137300204600F0B3FD002003B0F0BD9B0705D577
S1137310407E18B13030C0B200F0E6FD214B224A65
S11373201B69126803F53B3303F500739A4209D2D3
S113733000221E491046FFF78FFEE1E71C4801F0CA
S113734069FFDDE71B4801F065FF01210020FEF71E
S1137350ABF9D5E7134F1C303946FCF7AFFF6FF09C
S113736002000023144EB968B2680190206902EB50
S11373708102101A00931A46B06010490120FEF7EA
S113738041FDEFF3108672B6214605F12C0000F0A2
S1137390CBFE86F31088002003B0F0BDDC23001080
S11373A0FCDE00000825001008800040C1730000C6
S11373B0E8DE00000CDF0000B0010010B172000034
S11373C030B583B0204B04461B78052B2BD180B9F4
S11373D01E4B1F4A1B69126803F53B3303F5007308
S11373E09A4226D202461B4903B0BDE83040FFF75B
S11373F033BE0025212000F077FD174B00959C68D3
S11374002A46C4F1010404F003042B46204629460D
S1137410FFF774FD2A4601231049A01C03B0BDE800
S11374203040FFF7CFB80E4803B0BDE8304001F05C
S1137430F1BE0C4801F0EEFE2046012103B0BDE888
S11374403040FEF731B900BFDC23001008250010DE
S113745008800040C1730000B0010010E172000018
S1137460E8DE00000CDF000008B5FEF731FC134B2A
S1137470032093F83820596BFEF7DAFB002105202E
S1137480FEF712F90E4A0F481368116803F53B32F0
S113749002F2012201339142036106D2BDE80840A1
S11374A0002201200849FFF7D7BD084801F0B2FEC9
S11374B0BDE8084001210020FEF7F6B8B001001035
S11374C00880004008250010C17300000CDF000094
S11374D0F0B400222C492D4E01F14F05A6FB0243C6
S11374E09B0903EB8304C3EB0413D31A01F8013F94
S11374F08D4202F10202F1D100244F25C0F3C703EB
S1137500C0F3071606F0100203F0080CC0F3870757
S113751003F0040142EA0C0300F00102C0F3470C3B
S1137520134307F0040207F0020739430CF0020783
S11375300CF0010C13436144C2094FEA901C02F0A1
S113754040020CF0200C42EA0C020A44410906F005
S1137550080601F0100131431F430D4B0A44C0F3E8
S1137560C456C0F3C341DA709F70C0F38820DA1D9B
S11375701E70597083F8AC509C7183F8A6409880B3
S1137580C3F8A820F0BC704726250010A97464CF66
S1137590202500102DE9F84390F80080814618F06A
S11375A0010823D00024184801F034FE174901F1E2
S11375B04F008F1F11F8012F3E1909EBD2035B789E
S11375C002F007052B41DB0744BF86F8562001343F
S11375D08842EFD1E4B20E4B87F8A54087F8AC405F
S11375E087F8A680C7F8A830BDE8F883094801F0F9
S11375F011FE4F23084FFA1D87F8AC3087F8A68098
S1137600C7F8A820BDE8F88320DF00002625001075
S11376107625001028DF0000202500102DE9F04118
S1137620284D95F8A630002B48D1C0F3400463429E
S1137630DBB26401244E95F8AC7006EAD00CBCFBB6
S1137640F7F6AA78A988C0F3044E8EEA020E95F8DC
S11376500080C0F3C8124A40C0F3445183EA0E03C9
S113766081EA0801C0F3840001445B026878C2F334
S1137670080203F478531343414001F01F01DB096E
S113768041EA431311495201CB5C07FB16C602F4CD
S11376907E621A4395F803C00A4402F580521378B7
S11376A0664434441C44E4B2B4FBF7F307FB1347C9
S11376B0D5F8A830FFB2D85DBDE8F08100231C46A0
S11376C0B8E700BF20250010F0FFFF010CA8000060
S11376D038B5214A05461178032933D81F4C40F3A5
S11376E04003A27820785A40A379A1880344520227
S11376F06078C1F3080102F478520A43434003F06E
S11377001F031748D20943EA4212835C490101F47A
S11377107E611943014401F58051E3780A78C5F389
S1137720400503EB451313440E4ADBB2A2FB0312DC
S1137730920902EB8201C2EB01129B1ADBB22344D1
S1137740D87938BD0B1F012B03D8BDE83840FFF7AB
S113775065BF054800F05EFCB00100102025001054
S11377600CA80000A97464CF30DF000038B5244BA6
S113777004461B78032B1ED1037B282B3CD1437D6D
S1137780D80709D52169890731D59A0704D5617EBF
S1137790022922D95B0712D4204600F067FB194A5C
S11377A0032390681849C043002200F00100FEF74B
S11377B009FF002038BD00F059FB002038BDEFF36D
S11377C0108572B61148214600F0AEFC85F310888E
S11377D00028E4D00E4800F01DFC22690D4B0E4831
S11377E0595CD2B2A37E01F015FD637DD2E7104649
S11377F0FEF7CEF9637DC8E7084800F00BFC00BF34
S1137800DC230010B00100106D7700000824001084
S113781070DF000084DF000064DF00004CDF000044
S113782010B5014605200A0E21F07F41FEF700FA4B
S1137830094801F0EFFC02210320FDF735FFBDE804
S11378401040064A032390680549C04300F0010034
S113785000220230FEF7B6BE88DF0000B00100103F
S11378606D77000010B582B0084C0948227BA368EC
S1137870CDE90032D4E9002301F0CCFCD4E90001C5
S1137880227B02B0BDE81040FFF7B4B9D025001048
S1137890C8DE000070B582B02C4B04461B78052B63
S11378A024D1427D12F008050BD0417E022926D056
S11378B0274801F0AFFC204600F0D8FA002002B0BF
S11378C070BD244B244A1B69126803F53B3303F54E
S11378D000739A4231D22A4628462049FFF7BCFB5E
S11378E0204600F0C3FA002002B070BD1C4801F02D
S11378F091FC204600F0BAFA002002B070BD154E8B
S11379001C303146FCF7DAFC0023164DB068AA6837
S1137910216902EB8002C2F101000844511A00936C
S11379201A46A96000F003000F49FFF7E7FA204662
S113793000F09CFA002002B070BD0C4801F06AFC13
S113794028460121FDF7B0FEB5E700BFDC23001097
S1137950FCDE0000D0250010088000407179000092
S11379609CDF0000B001001065780000B0DF00006B
S113797030B583B0204B04461B78052B2BD180B93E
S11379801E4B1F4A1B69126803F53B3303F5007352
S11379909A4226D202461B4903B0BDE83040FFF7A5
S11379A05BBB0025212000F09FFA174B00959C68D3
S11379B02A46C4F1010404F003042B462046294658
S11379C0FFF79CFA2A4601231049A01C03B0BDE826
S11379D03040FEF7F7BD0E4803B0BDE8304001F07B
S11379E019BC0C4801F016FC2046012103B0BDE887
S11379F03040FDF759BE00BFDC230010D025001035
S1137A000880004071790000B001001095780000F2
S1137A109CDF0000B0DF000008B5134B032093F88F
S1137A203820596BFEF704F900210520FDF73CFED0
S1137A300E4A0F481368116803F53B3202F2012223
S1137A4001339142036106D2BDE8084000220120BF
S1137A500849FFF701BB084801F0DCFBBDE808401A
S1137A6001210020FDF720BEB00100100880004075
S1137A70D025001071790000B0DF000010B508496E
S1137A80084A0B6843F004030B60536823B1BDE854
S1137A901040536890681847034800F0BBFA00BFD1
S1137AA0AC8002408C0A0010C4DF000030B44FF4F4
S1137AB000140E4B0E4D1C602B680E4C43F0040357
S1137AC02B606060A16052B10B4A136843F0040359
S1137AD013604FF4001230BC084B1A607047084A18
S1137AE0136843F004031360F3E700BF80E200E08F
S1137AF0AC8002408C0A0010B080024000E100E03B
S1137B00B48002404FF400120A4B0B491A600B6810
S1137B100A4823F004030B60036823F004030360A2
S1137B2051F8043C064843F0040341F8043C026065
S1137B30704700BF80E100E0B0800240B4800240A2
S1137B4080E200E038B5EFF3108572B60A4C80B2DB
S1137B5020802188032089B2C90141F0290189B21A
S1137B6001F03DFF85F310882188044889B2BDE8FF
S1137B70384001F04FBB00BF8C0A0010DCDF00006E
S1137B800346034A03485380518889B201F042BB3B
S1137B908C0A0010F0DF000010B504462C20A1B2BE
S1137BA001F01DFF210C2D20BDE8104001F017BF8E
S1137BB038B501F037FD01F081FE0123274C642024
S1137BC0638001F018FF4FF480711022244B196078
S1137BD01A600E2001F0FAFE00F01F000128F8D10F
S1137BE047F6FF710D2001F0FAFE42F62231122011
S1137BF001F0F5FE41F24B31142001F0F0FE0B21AF
S1137C00052001F0ECFE2188032089B2C90141F06E
S1137C10290189B201F0E3FE1021232001F0DFFEE7
S1137C204FF4001280254FF480740E4B0E491A60F5
S1137C300B680E4823F004030B60036823F004036D
S1137C40036051F8043C0A4843F0040341F8043C3F
S1137C50084B02601D601C6038BD00BF8C0A001018
S1137C603CC0092080E100E0B0800240B4800240C2
S1137C7080E200E058C00920F0B482B0102501244D
S1137C802026384B384A11F0FF011E601C60156035
S1137C901D60146015601D60146015601D60146023
S1137CA015601D601C6015601D601C6015601D6002
S1137CB01C6015601D601C6015601D603ED02E4662
S1137CC00139C9B20144013810F8017F17F0010FDE
S1137CD00CBF1C60146017F0020F16601E600CBF0E
S1137CE01C60146017F0040F16601E600CBF1C604B
S1137CF0146017F0080F16601E600CBF1C6014603F
S1137D0017F0100F16601E600CBF1C60146017F093
S1137D10200F16601E600CBF1C60146017F0400F2B
S1137D2016601E600CBF1C601460FF0916601E60A4
S1137D3011D188421C6015601D60C5D10A230193CE
S1137D40019B013B0193002BFAD12022064B1A60C0
S1137D5002B0F0BC70478842146015601D60B3D156
S1137D60ECE700BF5CC0092058C0092038B50446C0
S1137D700D460E2001F02AFE00F01F000128F8D164
S1137D800DB9013CA4B22146BDE83840022001F0FF
S1137D9026BE00BF30B4012100251E4B1E4C03F546
S1137DA0C0729A6003F53E72C3F8802103F58E62B7
S1137DB0C3F8F82203F5BD62C3F8702403F5EC623E
S1137DC0C3F8E82503F6D802C3F8602703F5256253
S1137DD0C3F8D82803F6C832C3F8502A03F554620E
S1137DE0C3F8C82B03F6B862C3F8402D03F10802A8
S1137DF019605A6003F59951084AC3F8B84E084B04
S1137E0004F5BC702060C4F878111D600A6013602A
S1137E1030BC7047980A0010C81A0010301F0010B8
S1137E20A820001008B5EFF3108172B60B4B1A6846
S1137E3052B1B0F5BA7F0DD8586840B150F8042B50
S1137E405A6081F3108808BD054800F0E3F805483E
S1137E5000F0E0F80146044800F0DCF8980A00104D
S1137E6004E0000038E0000020E0000010B4011F2E
S1137E70EFF3108272B6044B5C6840F8044C59600E
S1137E8082F3108810BC7047980A001070B5EFF3A5
S1137E90108572B6104C2168A9B188684A8801F12E
S1137EA00C03C31AD31A002B10DD0023421C8A6072
S1137EB00370EFF3108672B6084800F035F986F3C4
S1137EC0108830B9206085F3108870BD044800F034
S1137ED0A1F8044800F09EF82022001008240010A5
S1137EE098DA000050E00000F8B50446EFF310857E
S1137EF072B6194E3368D3B19A68598803F10C00ED
S1137F00161A891B002924DD511C0A2C996014704F
S1137F1008D09A685B88121A9B1A012B02D085F349
S1137F201088F8BDFFF7B2FF85F31088F8BD4FF451
S1137F30BA70FFF777FF002203464FF4B47730603E
S1137F401A730C3003F110023946C3E901025F8051
S1137F50D6E7024800F05EF82022001098DA00000C
S1137F60F0B585B01C4B1D4C039321681C4801F0EF
S1137F7063F91C4B1C48196801F05EF921781B4811
S1137F8001F05AF91A4B1B48197801F055F91A4BAC
S1137F901A48198803AD89B201F04EF9184B1948F3
S1137FA01968194E01F048F925F00F0429461748BD
S1137FB001F042F9B4420DD2154F22686368A568F6
S1137FC0E1683846CDE900512146103401F034F916
S1137FD0B442F2D305B0F0BDEFBEADDE28ED00E053
S1137FE06CE000002CED00E078E0000084E000008C
S1137FF029ED00E090E000002AED00E09CE00000A4
S113800038ED00E0A8E00000E03F0010B4E000001C
S1138010C8E000000FB400B593B000213C2214ACBA
S113802003A854F8046B0291FCF7B8F8EFF310833B
S113803072B650253F21324623460DF109000194C2
S11380408DF8085001F0C8F8411C02A801F014FA98
S11380506421052001F016F9FAE700BF08B571465E
S1138060074801F0E9F8FFF77BFF4FF4FA710220AB
S113807001F008F96421192001F004F9F5E700BFC3
S1138080E4E0000008B57146074801F0D5F8FFF7B1
S113809067FF4FF4FA71042001F0F4F864210C2016
S11380A001F0F0F8F5E700BFF8E0000008B571460C
S11380B0074801F0C1F8FFF753FF4FF4FA710820A5
S11380C001F0E0F86421062001F0DCF8F5E700BFD8
S11380D00CE1000008B57146074801F0ADF8FFF760
S11380E03FFF4FF4FA71082001F0CCF86421062018
S11380F001F0C8F8F5E700BF1CE10000D0E9001268
S1138100914203460DD04A1C504200F0070002F091
S1138110070201F1020158BF424253F821001A60DC
S113812070470020704700BF30B4024640681568AD
S1138130431C5C4204F0070403F0070358BF634286
S11381409D4206D0023042F820100020536030BC1B
S113815070474FF0FF30FAE70023C0E9003370475F
S11381602DE9F04F85B00027D368B94208BF984283
S113817082468B461E464FF001044FF00005D2F8AC
S113818010900392029313D304FB07F306FB053309
S1138190A4FB06451D4422462B465046594602F090
S11381A015F9B94208BFB042EED254EA05033FD0F4
S11381B00023019318E0039B1B7813F0040F14BFF2
S11381C0372357239844019BBD4203F1010308BFA1
S11381D0B44209F8018B01932AD3039BDB68029311
S11381E004460D461E4600275046594622462B4655
S11381F002F0ECF8194680463B4692468B463246DE
S11382002046294602F0E2F8019A434612B9B8F131
S1138210000F04DDB8F1090FCDDC3023D2E7BD42F5
S113822008BFB44201D3029BDAE7303309F8013BBB
S1138230002389F8003005B0BDE8F08F2DE9F04146
S113824090461369054613F8012B0E46D8F80440EE
S113825042B1002C01DC05E024B113F8011B013C00
S11382600029F9D198F8081001B1013C98F80030C0
S11382709F0707D5D8F80C20102A5AD0082A08BF1F
S113828004F1FF3413F0090F0CD1002C04F1FF3773
S113829057DD20212846013FB0477C1CF9D13C46DC
S11382A098F8081009B12846B04798F800309807A4
S11382B005D5D8F80C20102A2CD0082A3BD0D90791
S11382C009D5631E002C1C4605DD30212846013CDF
S11382D0B047621CF9D1D8F8107017F8011B29B106
S11382E02846B04717F8011B0029F9D198F8003047
S11382F003F00903082B01D0BDE8F081002C04F140
S1138300FF37F9DD20212846013FB0477B1CF9D116
S1138310BDE8F08130212846B04798F8003028465F
S113832013F0040F14BF58217821B04798F8003097
S1138330C5E7023CA6E730212846B04798F800304C
S1138340BDE73C46AEE700BF70B40B694A6813F85A
S1138350014B44B1002A01DC05E022B113F8014BC2
S1138360013A002CF9D10B7A03B1013A0C78A50734
S113837007D5CD68102D00F0A580082D08BF02F1A7
S1138380FF3214F0090F1BD1002A02F1FF3540F32C
S1138390A5802026836808E04268013DD65483689E
S11383A06C1C03F10103836007D004689C42F3D87A
S11383B0013D01336A1C8360F8D14FF0FF320B7A20
S11383C02BB185680468A54243D3013585600B78D9
S11383D09C0704D5CC68102C59D0082C74D0DD0728
S11383E019D5002A02F1FF357ADD3026836808E0CA
S11383F04268013DD65483686C1C03F10103836019
S113840007D004689C42F3D8013D01336A1C8360A1
S1138410F8D14FF0FF320E6916F8015B95B183680D
S113842007E04468E55483680133836016F8015B10
S113843045B104689C42F4D80133836016F8015BAB
S1138440002DF7D10B7803F00903082B05D070BC7D
S11384507047446863558568B7E7002A02F1FF3125
S1138460F5DD2025836808E042680139D554836826
S11384704C1C03F101038360E9D004689C42F3D8E7
S1138480013901334A1C8360F8D170BC7047856898
S11384900468A54205D2302443685C550B7885688E
S11384A0046813F0040F05F101050CBF7826582663
S11384B0A542856003D243685E5585680B78013513
S11384C085608CE7023A5CE785680468A542F6D2C9
S11384D0302443685C5585680B78F0E72A466FE7DB
S11384E02A4698E72DE9F0438DB00C4614F8016B49
S11384F006AB054617460593002E00F0BE804FF0EC
S113850000080BE0934202D26A68D654AB68013388
S1138510AB6014F8016B002E00F0AF80252E0DD057
S11385200A2EAB682A68EDD1934204D20D216A6801
S1138530D154AB682A680133AB60E3E79DF80420AB
S113854014F8013B22F00B02CDF808808DF80C8062
S11385508DF80420002B00F0908000221046114674
S11385602D2B00F09E80302B00F08A80232B71D0BD
S113857029B19DF8041041F008018DF8041028B1C8
S11385809DF8041041F001018DF804102AB19DF802
S1138590042042F002028DF80420A3F13002D1B28B
S11385A0092940F284802E2B00F0A3807A2B7AD004
S11385B06C2B00F0E3810026782BAAD8572B61D9C5
S11385C0A3F15802202AA4D801A151F822F000BF37
S11385D01389000013850000138500001385000033
S11385E01385000013850000138500001385000027
S11385F013850000138500001385000045890000E1
S1138600878800001385000013850000138500008F
S1138610138500008788000013850000138500007F
S113862013850000138500001385000017880000DF
S113863099870000138500001385000085870000DA
S1138640138500000D8700001385000013850000CA
S113865013890000012214F8013B002B80D129B1B9
S11386609DF8043043F008038DF8043028B19DF8D8
S1138670043043F001038DF804300DB0BDE8F083FD
S11386800120E8E7002BF8D0252B7FF442AFAA683D
S113869029688A4202D269688B54AA680132AA60A6
S11386A037E70121D7E7012614F8013B84E70021CD
S11386B00EE0BCF1050F18D8A3F137020A2A14D131
S11386C014F8013B01EB810102EB4101A3F13002FB
S11386D0D0B20928A3F16106A3F1410CF0D9052E0B
S11386E0E7D8A3F157020A2AEAD02E2B02917FF48D
S11386F05DAF9DF8043043F001038DF8043014F8A5
S1138700013BA3F13002092AF9D94FE70A23022ECB
S1138710049300F00D81012E00F09E8157F804EBC4
S11387200121BEF1090FDDF814C009D901EB810163
S11387304900BEFBF1F3092BF8D8002900F07A8137
S11387400A26002210E09DF8040010F0040F0CBF6C
S1138750572037200344B1420CF8013B02F10102D7
S1138760C0F068814946049EBEFBF1F3B1FBF6F903
S113877001FB13EE12B9002B40F35681092BE2DC06
S11387803020E7E757F8043B284601A90593FFF793
S1138790DBFD06AB0593BCE610229DF80430049281
S11387A023F0060343F002038DF80430BE465EF85E
S11387B0042B01260F2A059840F2D7813601B2FB1B
S11387C0F6F30F2BFAD8002E00F0CF8010274FF0CD
S11387D0000C12E09DF8041011F0040F0CBF572197
S11387E037210B44BE4200F8013B0CF1010CC0F0F0
S11387F0BC804E46B2FBF9F3049FB6FBF7F906FBC7
S11388001322BCF1000F02D1002B40F3A880092BE6
S1138810E0DC3021E5E7082357F8042B0126072A7A
S11388200599049340F25B81F600B2FBF6F3072B43
S1138830FAD8002E00F0EF804FF0080C4FF0000E35
S113884013E09DF8040010F0040F0CBF57203720EC
S11388500344664501F8013B0EF1010EC0F0DB80D4
S11388604E46B2FBF9F3DDF810C0B6FBFCF906FB8B
S11388701322BEF1000F02D1002B40F3C680092B56
S1138880DFDC3020E4E70A23022E049300F0AF80FB
S1138890012E00F0268157F8042B002A03DA2D2339
S11388A052428DF80C30092A96464FF00101DDF84A
S11388B014C009DD01EB81014900B2FBF1F3092B7E
S11388C0F8D8002900F0B6800A22002013E0092B12
S11388D040F2A8809DF8046016F0040F0CBF5726E0
S11388E03726334491420CF8013B00F10100C0F0FB
S11388F0A1804946049ABEFBF1F350EA0306B1FB9A
S1138900F2F901FB13EEE2D19142C0F090803046BF
S1138910EFE7A3F15803B3FA83F310219DF8042081
S11389205B0963F38202022E04918DF804202BD19B
S1138930073727F0070701AE3246F7E80201FFF7D1
S11389400FFC16E0AB6829683A1D8B4203D23868E5
S11389506968C854AB6801331746AB60D9E5BE42B9
S1138960BFF447AF303300F8013B774680F800800E
S113897001AE31462846FFF7E7FCCAE523786C2BA5
S113898066D00126013417E6012E7FF40FAFBC46F2
S11389905CF804EB3346BEF10F0F059840F2E78014
S11389A01B01BEFBF3F10F29FAD8002B4BD0102288
S11389B0002711E09DF8046016F0040F0CBF572641
S11389C037263144934200F8011B07F101073AD3DB
S11389D04B46BEFBF9F1049AB3FBF2F903FB11EE2B
S11389E00FB900292ADD0929E4DC3026E9E7073735
S11389F027F00707F7E80201002871F1000367DB9D
S1138A0001AE3246FFF7ACFBB3E76645BFF428AFCF
S1138A10303301F8013B81F80080284601A9FFF7B3
S1138A2093FC76E530265CE7B142BFF49BAE30336D
S1138A300CF8013B8CF8008001AE9AE79342C7D250
S1138A40303100F8011B674680F8008001AE90E7E2
S1138A50022663783444AFE5BC465CF8042B334605
S1138A60092A059907D903EB83035B00B2FBF3F0F2
S1138A700928F8D83BB30A274FF0000E0FE09DF801
S1138A80046016F0040F0CBF572637263044BB424F
S1138A9001F8010B0EF1010E15D34B46049FB2FBF6
S1138AA0F3F0B3FBF7F903FB1022BEF1000F01D181
S1138AB0002803DD0928E2DC3026E7E7BB42ECD2DC
S1138AC0303001F8010B674681F8008001AE50E7B1
S1138AD02D23404261EB41018DF80C3090E71346A1
S1138AE0AAE657F8041B002903DA2D2349428DF81E
S1138AF00C3009298C464FF00103059E07DD03EB7A
S1138B0083035B00B1FBF3F2092AF8D84BB30A22C2
S1138B10002013E009291ED99DF804E01EF0040F7B
S1138B200CBF4FF0570E4FF0370E7144934206F8C6
S1138B30011B00F1010014D34B46049ABCFBF3F172
S1138B4050EA010EB3FBF2F903FB11CCE2D19342DC
S1138B5004D37046F0E74FF0300EE6E7303106F804
S1138B60011B86F8008001AE03E713462EE671462A
S1138B701DE700BF2DE9F04F8DB0144614F8015BDA
S1138B80984606AB06460F460593002D00F0AF80CD
S1138B904FF000090CE00A2D02D10D213046B847F0
S1138BA029463046B84714F8015B002D00F09F8039
S1138BB0252DF0D19DF8043014F8011B23F00B038C
S1138BC0CDF808908DF80C908DF80430002900F051
S1138BD08E80002318461A462D2900F095803029EE
S1138BE000F0888023296FD02AB19DF8042042F038
S1138BF008028DF8042028B19DF8042042F00102F7
S1138C008DF804202BB19DF8043043F002038DF855
S1138C100430A1F13003DAB2092A7BD92E2900F0FD
S1138C209B807A2972D06C2900F0DC81002078299D
S1138C30B9D8572960D9A1F15803202BB3D801A280
S1138C4052F823F0938F0000A78B0000A78B00003D
S1138C50A78B0000A78B0000A78B0000A78B000048
S1138C60A78B0000A78B0000A78B0000A78B000038
S1138C70878F0000FD8E0000A78B0000A78B0000EB
S1138C80A78B0000A78B0000FD8E0000A78B0000BF
S1138C90A78B0000A78B0000A78B0000A78B000008
S1138CA08D8E00000B8E0000A78B0000A78B0000A8
S1138CB0F58D0000A78B0000738D0000A78B0000CA
S1138CC0A78B0000938F0000012314F8011B0029D7
S1138CD082D12AB19DF8042042F008028DF80420C4
S1138CE028B19DF8042042F001028DF804200DB053
S1138CF0BDE8F08F0120E8E70029F8D025297FF4AA
S1138D0052AF3046B8474EE70122DEE7012014F89F
S1138D10011B8CE700220EE0BCF1050F18D8A1F16D
S1138D2037030A2B14D114F8011B02EB820203EB64
S1138D304202A1F13003D8B20928A1F16105A1F1E1
S1138D40410CF0D9052DE7D8A1F157030A2BEAD03D
S1138D502E2902927FF465AF9DF8043043F001039D
S1138D608DF8043014F8011BA1F13003092BF9D953
S1138D7057E70A230228049300F01A81012858F8BF
S1138D80045B00F09F81092D4FF00102059809D979
S1138D9002EB82025200B5FBF2F3092BF8D8002A49
S1138DA000F017810A234FF0000E12E09DF804C072
S1138DB01CF0040F0CBF4FF0570C4FF0370C6144FC
S1138DC09A4200F8011B0EF1010EC0F002815246D6
S1138DD0049BB5FBF2F1B2FBF3FA02FB1155BEF1B1
S1138DE0000F02D1002940F35B810929DEDC4FF03A
S1138DF0300CE4E758F8043B3946304601AA0593A1
S1138E00FFF71CFA06AB0593CDE610229DF804305B
S1138E10049223F0060343F002038DF8043058F85B
S1138E20045B01210F2D059840F2CF810901B5FBA8
S1138E30F1F20F2AFAD8002900F0CB8010234FF06A
S1138E40000E14E09DF804C01CF0040F0CBF4FF09A
S1138E50570C4FF0370C6244994200F8012B0EF185
S1138E60010EC0F0B6805146B5FBFAF2049BB1FB8B
S1138E70F3FA01FB1255BEF1000F02D1002A40F3B0
S1138E80A280092ADEDC4FF0300CE4E7082358F80E
S1138E90045B0121072D0598049340F25581C90014
S1138EA0B5FBF1F2072AFAD8002900F0F1804FF05F
S1138EB0080C4FF0000E13E09DF8043013F0040F7B
S1138EC00CBF572337231A448C4500F8012B0EF1AD
S1138ED0010E00F2DD805146B5FBFAF2DDF810C058
S1138EE0B1FBFCFA01FB1255BEF1000F02D1002ABE
S1138EF040F3C880092ADFDC3023E4E70A23022890
S1138F00049300F0B080012858F8041B00F01E817F
S1138F10002903DA2D2349428DF80C3009298E46A5
S1138F204FF00102059808DD02EB82025200B1FB0A
S1138F30F2F3092BF8D8002A4BD00A23002514E0B9
S1138F40092940F2B4809DF804C01CF0040F0CBF42
S1138F504FF0570C4FF0370C61449A4200F8011B54
S1138F6005F1010535D35246049BBEFBF2F155EAE7
S1138F70010CB2FBF3FA02FB11EEE1D19A42C0F00C
S1138F8092806546EFE758F8041B3046C9B2B847EB
S1138F9009E6A1F15801B1FA81F110229DF80430DB
S1138FA0490961F38203022804928DF804301FD129
S1138FB008F1070828F0070801AD2A46F8E802017D
S1138FC0FFF7CEF808E09942BFF44DAF303200F815
S1138FD0012B80F8009001AD2A4639463046FFF750
S1138FE02DF9E0E521786C2968D0012001341EE6D2
S1138FF001287FF414AF58F8045B02460F2DDDF806
S113900014B040F2E6801201B5FBF2F10F29FAD850
S1139010002A00F0DC8010234FF0000E15E09DF8CC
S1139020040010F0040F0CBF4FF0570C4FF0370C36
S1139030584661449A4200F8011B0EF1010EC8D350
S113904052468346B5FBFAF1049BB2FBF3FA02FBEA
S11390501155BEF1000F01D100292BDD0929DEDCF9
S11390604FF0300CE4E708F1070828F00708F8E8A7
S11390700201002871F100035FDB01AD2A46FFF70E
S11390806FF8A9E78C457FF626AF303200F8012B44
S113909080F800903946304601AAFFF7CFF882E500
S11390A09A42BFF494AE303100F8011B91E74FF0BF
S11390B0300C51E79A425846F5D3C1E70220617853
S11390C00444B4E5092D0246059907D902EB82024E
S11390D05200B5FBF2F3092BF8D852B30A234FF030
S11390E0000E11E09DF804C01CF0040F0CBF4FF0FB
S11390F0570C4FF0370C60449A4201F8010B0EF103
S1139100010E16D35246049BB5FBF2F0B2FBF3FA00
S113911002FB1055BEF1000F01D1002804DD09281F
S1139120E0DC4FF0300CE6E79A42EBD2303001F845
S1139130010B81F8009001AD4EE72D23404261EB15
S113914041018DF80C3098E72A46B0E6002903DA8D
S11391502D2349428DF80C3009298C464FF0010229
S1139160059809DD02EB82025200B1FBF2F3092BF0
S1139170F8D8002A3FF42DAF0A23002514E009296A
S113918020D99DF804E01EF0040F0CBF4FF0570ED9
S11391904FF0370E71449A4200F8011B05F10105A6
S11391A0FFF417AF5246049BBCFBF2F155EA010EE3
S11391B0B2FBF3FA02FB11CCE1D19A42FFF473AF94
S11391C07546EFE74FF0300EE4E72A4636E6584698
S11391D0FFE629461FE700BFF0B585B005461646F1
S11391E0084689B100271A464C1E01A83146CDE92C
S11391F001450397FFF776F9039A019B9A4234BF1E
S1139200029B029AD754039805B0F0BD0846FEF7B6
S11392106BBE00BF0FB400B583B004AB53F8042B8E
S1139220002004490193FFF7A5FC03B05DF804EBAB
S113923004B070470D9200000FB4F0B593B018ACB1
S113924054F8047BEFF3108572B6002150263C22BB
S113925003A80291FAF7A2FF3A4623463F210DF1F3
S1139260090001948DF80860FFF7B6FF411C02A8BD
S113927000F002F985F3108813B0BDE8F04004B0A3
S1139280704700BF70B400280FDD002102261025AE
S11392904FF48074064A074B01318842166015600A
S11392A014601E601D601C60F6D170BC704700BF66
S11392B038C009203CC0092070B582B0094CD0F8F0
S11392C00260C5880B461268694624680096ADF8AA
S11392D004504078A047A0F10100B0FA80F04009A2
S11392E002B070BDE825001070B590B04022694608
S11392F0052000F043FE2C4D04462B689DF8001019
S113930003B343294AD19868598803F10C02821A9D
S1139310891A8C4210DD0A46811899600DF1010109
S113932001F0D0F929688B684A8801F10C001B1AF6
S11393309A4227D010B070BD621E8A42ECDD1B48F1
S1139340FEF768FE53292CD19DF803209DF8026096
S113935046EA022606F10C00FEF764FD0346E21E0F
S11393600C30B2423146C3E901005E802B6002DC5E
S1139370261FB142E3DB82199A6001A9324601F04B
S1139380A1F9CFE7EFF3108472B60948FEF7CCFEDB
S113939084F3108800232B6010B070BD0548FEF7DD
S11393A039FE0548FEF736FE2422001098DA000044
S11393B0E023001060E1000030E1000030B587B028
S11393C00446694601A800F015FC9DF80430F3B981
S11393D020461C460DF105010DF1150511F8013B60
S11393E080F87D401A099F2B03F00F038CBF57327E
S11393F03032092B8CBF57333033A94280F87C209C
S113940080F87E3080F87F4000F10400E6D107B098
S113941030BD00BF38B50446104D00F0BFFC2846EF
S1139420FFF7CCFF284600F0F1FE0D4B0D4A022059
S11394300D491C6000F0A8FC05200C4900F01AFD41
S11394404FF080720A4B0B491A60FF2000F0C8FEEF
S1139450012000F03AFD002038BD00BF20000010BC
S1139460E825001028220010B9920000E9920000BB
S113947000E100E090E1000038B54FF0807204464E
S11394800D460B4B1A60822000F02AFD10F0600F8D
S1139490F9D1402D2A462146A8BF4022822000F05F
S11394A045FD00F0A9FD4FF08072024B1A6038BDF3
S11394B080E100E000E100E02DE9F04391B04FF0DD
S11394C08072494B82201A6000F00AFD00F06003AC
S11394D0602B04466AD0454FD7F80831002B67D07B
S11394E00120432280463F268DF80020D3E9011550
S11394F06D1AAE42A8BF2E46EEB1A2062FD4E9469D
S1139500AE4248446DDC8A195A60324601F0DAF8FA
S1139510494606EB0802822000F008FD4322D7F8F2
S113952008318DF80020D3E901156D1A3E2D12DCA7
S11395300DB1620633D500F05FFDD7F80801D0E91C
S113954001239A4224D001204FF08072284B1A60E4
S113955011B0BDE8F0834FF001083F264046640691
S1139560E9D4E946B542324648443ADB8C185C609B
S113957001F0A8F806EB08024946822000F0D6FC68
S113958000F03AFDD7F80801D0E901239A42DAD174
S1139590FEF76CFC00230120C7F80831D4E74FF034
S11395A001082A462E460DEB0800DFE70020CBE732
S11395B0EFF3108572B60F48FEF7A0FD034685F35E
S11395C01088C7F808010028F0D0D3E90115532208
S11395D004206D1A80463C26ADF80020ADF80250F8
S11395E087E70548FEF716FD80E100E0242200101D
S11395F000E100E008240010B8E1000008B5054BC4
S113960005481968FFF706FEFF230449044A0B6066
S1139610136008BD00400050D4E100000840005031
S113962010400050F0B44FF0806700231448FF242A
S113963001260246134D296841F000512960124D5C
S1139640296841F4780129601049114D0F601149CE
S11396502B600B602B640B64C5F88030C1F880303C
S1139660C5F8C030C1F8C0300B4BA1F594710C6043
S11396701C6006601368DB07FCD5F0BC704700BFB4
S113968030400050C4C00F4018E400E000E100E0A6
S113969010410050304100501040005070B582B06D
S11396A04FF08055002402220120114B11491D6006
S11396B00B68114E23F00203104D0B60104B11493F
S11396C034602C60104C086018600A601A602368CB
S11396D05A070BD50D4E0E4D3046FFF79BFD2B68F8
S11396E0DBB28DF8073023685B07F5D402B070BD98
S11396F098C0092004000340240003401041005096
S113970010400050084000500C000340E0E100000D
S11397100800034030B401244FF080510C22094B5F
S1139720094D0A48296004601A601A68084842F022
S113973002021A600368074A2343036030BC1160C5
S1139740704700BF0400034098C009202400034070
S1139750104100509CC0092070B4002541F206025B
S1139760084B094C1860094E094B266041F0006112
S11397701860084841F48051A560016070BCDA604B
S1139780704700BF30230010004100500800034020
S1139790044100500C410050024A034B10681B68FE
S11397A0C01A7047044100503023001000F024BC5C
S11397B008B50D4B0D4A0E498B420CD300210D4BBD
S11397C00D4A93420CD3FAF7C5FC0C4A0C4B1A60B1
S11397D0FBF722FDFEE752F8040B43F8040BEBE71A
S11397E043F8041BEDE700BF2000001038E200003E
S11397F08101001088010010EC25001000400000D9
S113980008ED00E0FEE70000C30803EB900303EB60
S1139810901303EBD01303EB902303EBD020044B02
S113982058605A68013A5A60002AFAD1704700BF5A
S1139830402300100023104A136053609360D360E8
S11398401361D361536293620C4A1360136213640D
S11398501366C2F880300A4A136053609360D36081
S11398601361D3615362074A13601362136413666E
S1139870C2F88030704700BF00C0024000C0092019
S113988040C0024014C0092008B5FFF7D3FF0023ED
S11398904CF21271084A1360116240F2B111116462
S11398A04FF040511366C2F88010536153635365FF
S11398B05367C2F8943008BD00C00920114B1A68E0
S11398C022F4404242F400421A601A6822F44052E0
S11398D042F400521A601A6822F4403242F4003210
S11398E01A601A6822F4402242F400221A604FF0EF
S11398F08052054B1A60C722044B1A600C225A602E
S1139900704700BF00C0024098C009200000034017
S1139910094A136823F470131360084A136823F088
S1139920C0631360064B1A6842F420121A601A6866
S113993022F4A0121A60704704C0024000C009203B
S113994044C00240F0B5451E0346202001241027E0
S11399500D4ADFF83CC0106008460C4904FA05F5CE
S1139960013BDBB2FF2B02D120230B60F0BD284268
S113997014BF0C6014600F60DCF800601760C6F35D
S1139980400646EA4000EBE75CC0092058C00920C5
S113999054C0092008B5FFF7BBFF4FF40073084912
S11399A032200B60FFF730FF2022064B18201A608C
S11399B04FF480430B600449BDE80840FFF7C2BF81
S11399C038C0092058C00920FF7F0D0008B540F0B9
S11399D0800109041820FFF7B5FF80B208BD41EAF1
S11399E000411820FFF7AEBF08B500210820FFF79B
S11399F0A9FFC0B208BD08B501460820FFF7A2FFC1
S1139A00C0B208BD08B500211820FFF79BFF002055
S1139A10FFF7DCFF0028FAD14FF400411820FFF7CC
S1139A2091FF0020FFF7D2FFB0F5004FF9D108BD38
S1139A302DE9F04144F23A02404B414E1A600023B2
S1139A40404D33602B68404C23F002032B60AA2363
S1139A502360552323603D4B1F461A689001FCD4B4
S1139A602B6823F001032B60AA2323605523236072
S1139A703B6813F08073FBD1DFF8F480C8F8003042
S1139A80FFF7C0FF18203249FFF75CFF6020FFF7A3
S1139A90B2FFFFF7A9FF4106FBD520222D4B1A6028
S1139AA01A685206FCD528222B4BAA211A604FF4BF
S1139AB000525A600123294A3360294B1A60552207
S1139AC0216022602B6843F001032B602160226037
S1139AD03B68DE01FCD50323C8F800302B6843F053
S1139AE002032B60AA232360552323603B689D0156
S1139AF0FCD522225520AA241A4B1A601A4A9C60CB
S1139B0098601168083341F00101116017491C6025
S1139B10186008460C68E405FCD501684905FCD5C5
S1139B20116841F002011160AA221A6055221A60DC
S1139B3003689B05FCD5BDE8F08100BF00C00F4061
S1139B400CC10F4080C00F408CC00F4088C00F4034
S1139B5070150800A0C10F40A8C10F4018000100F3
S1139B6084C00F40A4C00F40A0C00F40A8C00F4045
S1139B7004C10F4008B5FFF787FEFFF70BFFBDE8F0
S1139B800840FFF755BF000008B5FFF753FE022257
S1139B90084B09481A604FF08042136843F00303EE
S1139BA01360AA22054B1A6055221A60BDE80840CA
S1139BB0FFF72ABE3CC0092040420F0008000040C5
S1139BC030B58BB0362304460D4600936846084BE7
S1139BD005A99847059B2370069B1A0A6370A27017
S1139BE01A0C1B0E23710523E2702B600BB030BDE1
S1139BF0F11FFF1F30B58BB03A2304460D46009386
S1139C006846144B05A99847059B2370069B1A0ABE
S1139C106370A2701A0C1B0E2371079BE2701A0A60
S1139C206371A2711A0C1B0E2372089BE2711A0A4B
S1139C306372A2721A0C1B0E2373099BE2721A0A36
S1139C406373A2731A0C1B0E23741123E2732B602B
S1139C500BB030BDF11FFF1F00B58BB03923684630
S1139C60009305A9024B98470BB05DF804FB00BFB5
S1139C70F11FFF1F38B5084C802025686168402D0E
S1139C80A8BF40252A4600F051F9636822682B4496
S1139C90521B6360226038BD4823001037B510485A
S1139CA0047A0546C4F34114022C0CD1002300F1BC
S1139CB01002019301A9031D083000F05DFA10B1F0
S1139CC0019803B030BD05EB840463692BB1054AE8
S1139CD002F10C01101D9847F3E71846F1E700BFA5
S1139CE0482300104C23001010B5002847D111F070
