:10400000E03F00108D420000E1420000E14200006C
:10401000E1420000E1420000E14200000000000037
:10402000000000000000000000000000E14200006D
:10403000E142000000000000E1420000E142000017
:10404000E1420000E1420000E1420000E1420000E4
:10405000E1420000E1420000E1420000E1420000D4
:10406000E1420000E1420000E1420000E1420000C4
:10407000E1420000E1420000E1420000E1420000B4
:10408000E1420000E1420000E1420000E1420000A4
:10409000E1420000E1420000E1420000E142000094
:1040A000E1420000E1420000E1420000E142000084
:1040B000E1420000E1420000E1420000E142000074
:1040C000E1420000E1420000E14200000348044BED
:1040D000834202D0034B03B11847704750040010CD
:1040E0005004001000000000054806490B1AD90FC3
:1040F00001EBA301491002D0034B03B118477047ED
:1041000050040010500400100000000010B5064CD0
:10411000237843B9FFF7DAFF044B13B10448AFF338
:1041200000800123237010BD500400100000000027
:104130000446000008B5044B1BB104490448AFF322
:104140000080BDE80840CFE70000000054040010E4
:1041500004460000002301461A46184600F03EB807
:1041600038B50A4C0A4D641BA4100AD004F18043F0
:10417000013B05EB8305013C55F804399847002CB9
:10418000F9D1BDE8384000F047BA00BF284600002A
:104190002446000070B50D4E0D4D761BB61006D0AE
:1041A0000024013455F8043B9847A642F9D1094E42
:1041B000094D00F027FA761BB61006D00024013412
:1041C00055F8043B9847A642F9D170BD104600004F
:1041D000104600001846000010460000F0B4174CCE
:1041E0002568D5F848410CB365681F2D23DC38B924
:1041F00000206B1C0235636044F82510F0BC70474A
:10420000012604EB850CCCF88820D4F8887106FAD6
:1042100005F217430228C4F88871CCF80831E7D1B9
:10422000D4F88C311A43C4F88C21E1E705F5A67463
:10423000C5F84841D8E74FF0FF30DFE700460000FF
:10424000024B13B10248FFF785BF70470000000022
:104250006141000008B500F08BF84FF48073094C01
:104260000225236000F0E0F81023236000F026F917
:10427000054E0220256000F04BF80220356000F06A
:1042800047F8F6E738C009203CC0092008B50D4BB7
:104290000D4A0E498B420CD300210D4B0D4A93421F
:1042A0000CD3FFF777FF0C4A0C4B1A60FFF7D2FFD5
:1042B000FEE752F8040B43F8040BEBE743F8041B4A
:1042C000EDE700BF20000010284600005004001059
:1042D00050040010740400100040000008ED00E0DD
:1042E000FEE70000C30803EB900303EB901303EB1E
:1042F000D01303EB902303EBD020044B58605A6893
:10430000013A5A60002AFAD1704700BF6C040010CD
:10431000014B5843FFF7E6BF40420F000023104A0D
:10432000136053609360D3601361D36153629362EF
:104330000C4A1360136213641366C2F880300A4A91
:10434000136053609360D3601361D3615362074A73
:104350001360136213641366C2F88030704700BFA5
:1043600000C0024000C0092040C0024014C0092023
:1043700008B5FFF7D3FF00234CF21271084A13600F
:10438000116240F2B11111644FF040511366C2F84E
:1043900080105361536353655367C2F8943008BD6E
:1043A00000C00920094A136823F470131360084AF7
:1043B000136823F0C0631360064B1A6842F420129E
:1043C0001A601A6822F4A0121A60704704C00240F2
:1043D00000C0092044C00240F0B5451E034620201D
:1043E000012410270D4ADFF83CC0106008460C4934
:1043F00004FA05F5013BDBB2FF2B02D120230B6051
:10440000F0BD284214BF0C6014600F60DCF800603F
:104410001760C6F3400646EA4000EBE75CC009209F
:1044200058C0092054C0092008B5FFF7BBFF4FF45E
:104430000073084932200B60FFF754FF2022064B1F
:1044400018201A604FF480430B600449BDE808400F
:10445000FFF7C2BF38C0092058C00920FF7F0D00F8
:1044600008B540F0800109041820FFF7B5FF80B2BD
:1044700008BD08B500210820FFF7AEFFC0B208BD97
:1044800008B501460820FFF7A7FFC0B208BD08B570
:1044900000211820FFF7A0FF0020FFF7E1FF002810
:1044A000FAD14FF400411820FFF796FF0020FFF7E4
:1044B000D7FFB0F5004FF9D108BD00002DE9F0415C
:1044C00044F23A02404B414E1A600023404D3360A3
:1044D0002B68404C23F002032B60AA232360552352
:1044E00023603D4B1F461A689001FCD42B6823F0D3
:1044F00001032B60AA232360552323603B6813F03C
:104500008073FBD1DFF8F480C8F80030FFF7BFFFFD
:1045100018203249FFF760FF6020FFF7B1FFFFF777
:10452000A8FF4106FBD520222D4B1A601A685206BF
:10453000FCD528222B4BAA211A604FF400525A6056
:104540000123294A3360294B1A60552221602260D9
:104550002B6843F001032B60216022603B68DE0181
:10456000FCD50323C8F800302B6843F002032B600E
:10457000AA232360552323603B689D01FCD522229A
:104580005520AA241A4B1A601A4A9C609860116838
:10459000083341F00101116017491C60186008469A
:1045A0000C68E405FCD501684905FCD5116841F0AB
:1045B00002011160AA221A6055221A6003689B0545
:1045C000FCD5BDE8F08100BF00C00F400CC10F401A
:1045D00080C00F408CC00F4088C00F40701508008D
:1045E000A0C10F40A8C10F401800010084C00F40B7
:1045F000A4C00F40A0C00F40A8C00F4004C10F408E
:1046000028000010F8B500BFF8BC08BC9E467047F3
:104610004142000035410000F8B500BFF8BC08BCBD
:084620009E4670470D410000A9
:104628002800001000000000000000001403001023
:104638007C030010E40300100000000000000000EC
:104648000000000000000000000000000000000062
:104658000000000000000000000000000000000052
:104668000000000000000000000000000000000042
:104678000000000000000000000000000000000032
:104688000000000000000000000000000000000022
:104698000000000000000000000000000000000012
:1046A8000000000000000000000000000000000002
:1046B80000000000000000000000000000000000F2
:1046C80000000000000000000000000000000000E2
:1046D80001000000000000000E33CDAB34126DE67F
:1046E800ECDE05000B0000000000000000000000E8
:1046F80000000000000000000000000000000000B2
:1047080000000000000000000000000000000000A1
:104718000000000000000000000000000000000091
:104728000000000000000000000000000000000081
:040000030000428D2A
:00000001FF
