:10400000E03F00108D420000E1420000E14200006C
:10401000E1420000E1420000E14200000000000037
:10402000000000000000000000000000E14200006D
:10403000E142000000000000E1420000E142000017
:10404000E1420000E1420000E1420000E1420000E4
:10405000E1420000E1420000E1420000E1420000D4
:10406000E1420000E1420000E1420000E1420000C4
:10407000E1420000E1420000E1420000E1420000B4
:10408000E1420000E1420000E1420000E1420000A4
:10409000E1420000E1420000E1420000E142000094
:1040A000E1420000E1420000E1420000E142000084
:1040B000E1420000E1420000E1420000E142000074
:1040C000E1420000E1420000E14200000348044BED
:1040D000834202D0034B03B11847704750040010CD
:1040E0005004001000000000054806490B1AD90FC3
:1040F00001EBA301491002D0034B03B118477047ED
:1041000050040010500400100000000010B5064CD0
:10411000237843B9FFF7DAFF044B13B10448AFF338
:1041200000800123237010BD500400100000000027
:10413000A843000008B5044B1BB104490448AFF381
:104140000080BDE80840CFE70000000054040010E4
:10415000A8430000002301461A46184600F03EB866
:1041600038B50A4C0A4D641BA4100AD004F18043F0
:10417000013B05EB8305013C55F804399847002CB9
:10418000F9D1BDE8384000F019B900BFCC430000B8
:10419000C843000070B50D4E0D4D761BB61006D00D
:1041A0000024013455F8043B9847A642F9D1094E42
:1041B000094D00F0F9F8761BB61006D00024013442
:1041C00055F8043B9847A642F9D170BDB4430000AE
:1041D000B4430000BC430000B4430000F0B4174CEB
:1041E0002568D5F848410CB365681F2D23DC38B924
:1041F00000206B1C0235636044F82510F0BC70474A
:10420000012604EB850CCCF88820D4F8887106FAD6
:1042100005F217430228C4F88871CCF80831E7D1B9
:10422000D4F88C311A43C4F88C21E1E705F5A67463
:10423000C5F84841D8E74FF0FF30DFE7A44300005E
:10424000024B13B10248FFF785BF70470000000022
:104250006141000080B5022700F08AF8B846094C99
:104260004FF480761025C4F8008001202660256078
:1042700000F04EF8044B01201F601E601D6000F02E
:1042800047F8EDE738C009203CC0092008B50D4BC0
:104290000D4A0E498B420CD300210D4B0D4A93421F
:1042A0000CD3FFF777FF0C4A0C4B1A60FFF7D2FFD5
:1042B000FEE752F8040B43F8040BEBE743F8041B4A
:1042C000EDE700BF20000010D043000050040010B4
:1042D00050040010740400100040000008ED00E0DD
:1042E000FEE70000C30803EB900303EB901303EB1E
:1042F000D01303EB902303EBD020044B58605A6893
:10430000013A5A60002AFAD1704700BF6C040010CD
:10431000014B5843FFF7E6BF40420F000023104A0D
:10432000136053609360D3601361D36153629362EF
:104330000C4A1360136213641366C2F880300A4A91
:10434000136053609360D3601361D3615362074A73
:104350001360136213641366C2F88030704700BFA5
:1043600000C0024000C0092040C0024014C0092023
:1043700008B5FFF7D3FF00234CF21271084A13600F
:10438000116240F2B11111644FF040511366C2F84E
:1043900080105361536353655367C2F8943008BD6E
:1043A00000C0092028000010F8B500BFF8BC08BC08
:1043B0009E4670474142000035410000F8B500BFFD
:1043C000F8BC08BC9E4670470D410000000000008C
:1043D000280000100000000000000000140300107E
:1043E0007C030010E4030010000000000000000047
:1043F00000000000000000000000000000000000BD
:1044000000000000000000000000000000000000AC
:10441000000000000000000000000000000000009C
:10442000000000000000000000000000000000008C
:10443000000000000000000000000000000000007C
:10444000000000000000000000000000000000006C
:10445000000000000000000000000000000000005C
:10446000000000000000000000000000000000004C
:10447000000000000000000000000000000000003C
:1044800001000000000000000E33CDAB34126DE6D9
:10449000ECDE05000B000000000000000000000042
:1044A000000000000000000000000000000000000C
:1044B00000000000000000000000000000000000FC
:1044C00000000000000000000000000000000000EC
:1044D00000000000000000000000000000000000DC
:040000030000428D2A
:00000001FF
