:10400000E03F0010F94400004D4500004D45000020
:104010004D4500004D4500004D45000000000000EA
:104020000000000000000000000000004D450000FE
:104030004D450000000000004D4500004D450000CA
:104040004D4500004D4500004D4500004D45000028
:104050004D4500004D4500004D4500004D45000018
:104060004D4500004D4500004D4500004D45000008
:104070004D4500004D4500004D4500004D450000F8
:104080004D4500004D4500004D4500004D450000E8
:104090004D4500004D4500004D4500004D450000D8
:1040A000014400004D4500004D4500004D45000015
:1040B0004D4500004D4500004D4500004D450000B8
:1040C0004D4500004D4500004D4500000348044BA0
:1040D000834202D0034B03B118477047D00500104C
:1040E000D005001000000000054806490B1AD90F42
:1040F00001EBA301491002D0034B03B118477047ED
:10410000D0050010D00500100000000010B5064CCE
:10411000237843B9FFF7DAFF044B13B10448AFF338
:1041200000800123237010BDD005001000000000A6
:10413000D050000008B5044B1BB104490448AFF34C
:104140000080BDE80840CFE700000000D405001063
:10415000D0500000002301461A46184600F03EB831
:1041600038B50A4C0A4D641BA4100AD004F18043F0
:10417000013B05EB8305013C55F804399847002CB9
:10418000F9D1BDE8384000F0ADBF00BFF4500000E9
:10419000F050000070B50D4E0D4D761BB61006D0D8
:1041A0000024013455F8043B9847A642F9D1094E42
:1041B000094D00F08DFF761BB61006D000240134A7
:1041C00055F8043B9847A642F9D170BDDC50000079
:1041D000DC500000E4500000DC500000F0B4174C4C
:1041E0002568D5F848410CB365681F2D23DC38B924
:1041F00000206B1C0235636044F82510F0BC70474A
:10420000012604EB850CCCF88820D4F8887106FAD6
:1042100005F217430228C4F88871CCF80831E7D1B9
:10422000D4F88C311A43C4F88C21E1E705F5A67463
:10423000C5F84841D8E74FF0FF30DFE7A450000051
:10424000024B13B10248FFF785BF70470000000022
:104250006141000070B500F003FB00F0D3F8094C99
:10426000094D0A4E00F0BAF8431CFBD0236813F046
:10427000020F4FF0020314BF33602B6000F0A0F870
:10428000F0E700BF34C0092038C009203CC0092035
:10429000C30642BF0022014B1A607047EC050010B4
:1042A000F8B5002406460B4D05F14007384629199C
:1042B00000F0FBF810B10134402CF7D1064D224636
:1042C0003046291D00F03EFC0123402C2B6018BF16
:1042D0002B65F8BDF0050010EC05001038B5094C51
:1042E00025686DB904F1440000F0F3F840B1256091
:1042F0002565236D23B9BDE838408220FFF7D0BF84
:1043000038BD00BFEC050010F8B504460D4800F0BC
:10431000ECF83F280BDD204640220B4900F03AFC28
:1043200000240546084E06F15007A54200DCF8BD02
:10433000384616F8011B00F0A4F80028F7D0013425
:10434000F3E700BF40060010F005001010B513465B
:1043500042780C46212A0CD0222A08D0202A0BD1E0
:1043600007221968054800F027FE07232360012073
:1043700010BD024A1A60F8E70020F9E75004001067
:104380000022034B1A601B6D0BB9FFF789BF704702
:10439000EC05001010B5094C04F1600104F1440073
:1043A00000F06AF804F1E00104F1540000F064F850
:1043B000002323600123236510BD00BFEC0500101E
:1043C00010B50446C1B2044800F05BF8002814BFE1
:1043D00020464FF0FF3010BD3006001007B50748EB
:1043E0000DF1070100F061F820B19DF8070003B05E
:1043F0005DF804FB4FF0FF30F9E700BF4006001006
:1044000000F006BC08B500F0C9FA134800F0F4FC4F
:10441000124A0120124900F0B7FA0021812000F071
:1044200029FB82200F4900F025FB0F49052000F0F1
:1044300021FB0E4800F044FB0D4800F035FBFFF770
:10444000A9FF0C4A0120136843F080731360BDE894
:10445000084000F046BB00BF580400104C07001095
:104460004D4300008143000009430000DD4200008D
:104470009142000000E100E000238160C0E90033C8
:10448000704710B50468631C5A4202F07F0203F0C3
:104490007F0358BF534242689A4217BF8268002088
:1044A0001155036018BF012010BDD0E900239A42C6
:1044B0000DD08268D25C01330A705A4202F07F024A
:1044C00003F07F0358BF5342436001207047002030
:1044D0007047036840688033181A434203F07F0333
:1044E00000F07F0058BF5842704708B5FFF7F1FF52
:1044F000C0F17F0008BD000008B50D4B0D4A0E4904
:104500008B420CD300210D4B0D4A93420CD3FFF785
:1045100041FE0C4A0C4B1A60FFF79CFEFEE752F876
:10452000040B43F8040BEBE743F8041BEDE700BF73
:1045300020000010F8500000CE050010D00500103B
:10454000ED0700100040000008ED00E0FEE700006D
:10455000C30803EB900303EB901303EBD01303EBBF
:10456000902303EBD020044B58605A68013A5A60FC
:10457000002AFAD1704700BF540700100023104AE8
:10458000136053609360D3601361D361536293628D
:104590000C4A1360136213641366C2F880300A4A2F
:1045A000136053609360D3601361D3615362074A11
:1045B0001360136213641366C2F88030704700BF43
:1045C00000C0024000C0092040C0024014C00920C1
:1045D00008B5FFF7D3FF00234CF21271084A1360AD
:1045E000116240F2B11111644FF040511366C2F8EC
:1045F00080105361536353655367C2F8943008BD0C
:1046000000C00920094A136823F470131360084A94
:10461000136823F0C0631360064B1A6842F420123B
:104620001A601A6822F4A0121A60704704C002408F
:1046300000C0092044C00240F0B5451E03462020BA
:10464000012410270D4ADFF83CC0106008460C49D1
:1046500004FA05F5013BDBB2FF2B02D120230B60EE
:10466000F0BD284214BF0C6014600F60DCF80060DD
:104670001760C6F3400646EA4000EBE75CC009203D
:1046800058C0092054C0092008B5FFF7BBFF4FF4FC
:104690000073084932200B60FFF75AFF2022064BB7
:1046A00018201A604FF480430B600449BDE80840AD
:1046B000FFF7C2BF38C0092058C00920FF7F0D0096
:1046C00008B540F0800109041820FFF7B5FF80B25B
:1046D00008BD08B500210820FFF7AEFFC0B208BD35
:1046E00008B501460820FFF7A7FFC0B208BD08B50E
:1046F00000211820FFF7A0FF0020FFF7E1FF0028AE
:10470000FAD14FF400411820FFF796FF0020FFF781
:10471000D7FFB0F5004FF9D108BD00002DE9F041F9
:1047200044F23A02404B414E1A600023404D336040
:104730002B68404C23F002032B60AA2323605523EF
:1047400023603D4B1F461A689001FCD42B6823F070
:1047500001032B60AA232360552323603B6813F0D9
:104760008073FBD1DFF8F480C8F80030FFF7BFFF9B
:1047700018203249FFF760FF6020FFF7B1FFFFF715
:10478000A8FF4106FBD520222D4B1A601A6852065D
:10479000FCD528222B4BAA211A604FF400525A60F4
:1047A0000123294A3360294B1A6055222160226077
:1047B0002B6843F001032B60216022603B68DE011F
:1047C000FCD50323C8F800302B6843F002032B60AC
:1047D000AA232360552323603B689D01FCD5222238
:1047E0005520AA241A4B1A601A4A9C6098601168D6
:1047F000083341F00101116017491C601860084638
:104800000C68E405FCD501684905FCD5116841F048
:1048100002011160AA221A6055221A6003689B05E2
:10482000FCD5BDE8F08100BF00C00F400CC10F40B7
:1048300080C00F408CC00F4088C00F40701508002A
:10484000A0C10F40A8C10F401800010084C00F4054
:10485000A4C00F40A0C00F40A8C00F4004C10F402B
:1048600008B5FFF7B5FEFFF70FFFBDE80840FFF7FB
:1048700055BF000038B5084C802025686168402D80
:10488000A8BF40252A4600F05DF9636822682B44E2
:10489000521B6360226038BD5C07001037B51048BA
:1048A000047A0546C4F34114022C0CD1002300F114
:1048B0001002019301A9031D083000F069FA10B13C
:1048C000019803B030BD05EB840463692BB1054A40
:1048D00002F10C01101D9847F3E71846F1E700BFFD
:1048E0005C0700106007001010B5002847D111F0D8
:1048F0000401244C23D00822A11800F04BF9227A9D
:10490000C2F3411304EB83035B6A6360E3892360B2
:1049100023610BB1D30934D0FFF7C0FF28B9BDE83C
:1049200010400121802000F001B9E28923699A42F8
:10493000D4BF22602360BDE81040FFF79BBF226810
:10494000002A17DD616800F025F90028E7DB6368BD
:10495000034463602368181A206090B9237AC3F374
:10496000411304EB83035B6A6360FFF797FF002842
:10497000E1D1D4E70A46BDE8104000F00BB9802829
:10498000D9D010BD5C070010024B03EB80004161E1
:10499000426270475C0700107047000010B50E4C73
:1049A00000F09CF90D4800F07FF82146002000F04F
:1049B00061F82146802000F05DF84021002000F0E1
:1049C0003BF84021802000F037F80020044A0549D8
:1049D000FFF7DAFF012010BDE94800009949000007
:1049E00090070010594E0000034A136830EA030391
:1049F000FBD1024B1860704700C2005008C2005043
:104A00003022044B000440F4A0601A60986010202B
:104A1000FFF7EABF08C2005008B5FFF7F1FF054BEA
:104A2000090441F4807119601020BDE80840FFF7C7
:104A3000DBBF00BF10C2005010B501230B4A440079
:104A400004F01E0444EAD0141068A340034313602A
:104A5000074B4FF480701C605960FFF7C5FF44F0AE
:104A600040000021BDE81040FFF7D6BF44C200500F
:104A700048C200500A4A430003F01E0342F81310D4
:104A800043EAD0100123074A03FA00F011680843F3
:104A9000106052F8303C43F0040342F8303C704759
:104AA0009807001034C20050034B044A186413687E
:104AB00043F00803136070479807001004C20050C9
:104AC000034B044A5864136843F0010313607047B2
:104AD0009807001004C2005040F08001D020FFF77A
:104AE0009BBF011E18BF0121FE20FFF795BF0146A5
:104AF000F320FFF791BF000008B5430003F01E0349
:104B000043EAD0110846FFF77BFF064B090441F446
:104B1000007119602020FFF767FF034B1868C0B2CF
:104B200008BD00BF10C2005014C20050430003F083
:104B30001E0343EAD010003918BF012140F04000A5
:104B4000FFF76ABF38B503461546400000F01E0067
:104B500040EAD3109B000D4C03F03C0343F00203EA
:104B600023600B4B1A6023460C3C1A6812F00202B9
:104B700007D11A60FFF744FFFA20FFF741FF2846EC
:104B800038BD51F8042B2260EFE700BF28C2005067
:104B900024C20050F8B50346400000F01E0040EA71
:104BA000D3109B00144E03F03C0343F00103134C5D
:104BB000336023681D05FCD55C051AD500252C46FD
:104BC0000F4FC3F309039C4208D100233360FFF762
:104BD00017FFF220FFF714FF2046F8BD14F0030F73
:104BE00008BF3D6811B1944238BF0D552D0A0134FC
:104BF000E9E74FF0FF30F0E728C2005020C2005034
:104C000018C20050011E18BF0121D820FFF704BFB1
:104C1000F8B5294B1C68E10711D501229A60274B92
:104C2000596C61B1F520FFF7EBFE254B254A20209A
:104C30001A60FFF7D9FE244B1868C0B288472207D4
:104C400017D50822214BFE201A60FFF7D9FE1C4B16
:104C50001F4A20201A60FFF7C7FE1B4B1B6813F08A
:104C60001A0FD8B205D0154B1B6C13B100F015000C
:104C7000984763071ED504220024144B154D164E89
:104C8000114F1A6001232A68A3401A420FD0202036
:104C90003360FFF7A9FE094B601053F820303968E4
:104CA0002BB140EAC41001F01F01C0B29847013493
:104CB000202CE7D1F8BD00BF00C2005098070010BB
:104CC00010C200500002F50014C2005008C200508B
:104CD0000002FE0030C2005038C2005008B5264A1B
:104CE000136823F4402343F48023136052F8043CF8
:104CF00023F0300343F0100342F8043C52F8043C24
:104D000023F0405343F0005342F8043C52F80C3C6B
:104D100023F0406343F0806342F80C3C52F80C3CB3
:104D200023F0405343F0805342F80C3C02F55022EC
:104D3000D2F8B430B43243F0004313600F4A136822
:104D400043F0120313600E4B1A4619688907FCD50D
:104D50001368DB06FCD500200A4B0B4A18604FF0A5
:104D6000FF3313605062D0621363084B1860FFF783
:104D7000BEFE012008BD00BF10C00240F4CF0050AD
:104D8000F8CF005004C2005008C2005040C200508A
:104D900070B504461548057800202DB36678AE42FC
:104DA0001DD1E68808606088A488042C03D0052CF7
:104DB00016D0012013E00E4C1C6028241460040A55
:104DC00010682504B0EB044FF3DB1C68401B2C4437
:104DD0001C60B042D4BF106016600120086070BD36
:104DE000044C1C609224E9E72846F8E7E00700102D
:104DF000A85000002A050010014B5860704700BF02
:104E0000E0070010F0B5040A032CC1B22646104892
:104E10000AD1EE2908D10F4900789231087419603F
:104E2000122301201360F0BD00254468207800287B
:104E3000F9D06778B74208D1A94205D11C60022E8B
:104E40000CBF63882378ECE701350444EEE700BF2C
:104E5000E00700102A0500102DE9F047554C0546E3
:104E6000A3680F469046A1464BB9287800F01F066C
:104E7000012E69D0022E7BD036B1002037E0984752
:104E80000028F2D0012032E06A78D8F80030092AF0
:104E9000F3D801A151F822F0C14E00007B4E000072
:104EA0007B4E00007B4E00007B4E0000CD4E00008C
:104EB000D54E00007B4E0000E54E0000F34E000092
:104EC00000221A705A7002233B60DBE7A878FFF7D4
:104ED00003FED7E743463A46A9886888BDE8F0470D
:104EE000FFF790BF012099F80C201A703860BDE8D8
:104EF000F087AE7836B93046FFF784FE6B8889F8C4
:104F00000C30BFE7FF27B846D9F8044023780BB927
:104F10000120F1E76378042B08D0052B08D0022B81
:104F200001D194F8058023781C44EFE7E778FAE78D
:104F30004645F8D1002FF6D161792379A07843EA6C
:104F40000121FFF779FDEEE76B78D8F800200A2BF6
:104F500006D00B2B08D0002B8FD113705370B2E703
:104F6000002313703E608DE76B88002BACD084E784
:104F70006C78012C10D0032C16D0002C7FF47DAF60
:104F80002879D8F80080FFF7B7FDC0F3400088F813
:104F9000000088F80140E5E7698800297FF46DAFDB
:104FA0002879FFF7C3FD6DE76B88002B7FF465AFB1
:104FB0000121F5E7E0070010844641EA000313F001
:104FC000030349D1403A23D30B6803604B68436025
:104FD0008B688360CB68C3600B6903614B69436175
:104FE0008B698361CB69C3610B6A03624B6A43625D
:104FF0008B6A8362CB6AC3620B6B03634B6B436345
:105000008B6B8363CB6BC36340304031403ADBD260
:1050100030320BD30B6803604B6843608B6883604E
:10502000CB68C36010301031103AF3D20C3205D384
:1050300051F8043B40F8043B043AF9D2043208D05A
:10504000D2071CBF11F8013B00F8013B01D30B88CC
:1050500003806046704700BF082A13D38B07B1D086
:1050600010F00303AED0C3F10403D21ADB071CBF58
:1050700011F8013B00F8013BA4D331F8023B20F8C2
:10508000023B9FE7043AD9D3013A11F8013B00F8FB
:10509000013BF9D20B7803704B7843708B788370A7
:1050A000604670472800001028000000000104003E
:1050B0000100000000000000000157494E55534216
:1050C00000000000000000000000000000000000E0
:1050D000F8B500BFF8BC08BC9E46704741420000CE
:1050E00035410000F8B500BFF8BC08BC9E467047CB
:0850F0000D410000000000006A
:1050F8002800001000000000000000001403001049
:105108007C030010E4030010000000000000000011
:105118000000000000000000000000000000000087
:105128000000000000000000000000000000000077
:105138000000000000000000000000000000000067
:105148000000000000000000000000000000000057
:105158000000000000000000000000000000000047
:105168000000000000000000000000000000000037
:105178000000000000000000000000000000000027
:105188000000000000000000000000000000000017
:105198000000000000000000000000000000000007
:1051A80001000000000000000E33CDAB34126DE6A4
:1051B800ECDE05000B00000000000000000000000D
:1051C80000000000000000000000000000000000D7
:1051D80000000000000000000000000000000000C7
:1051E80000000000000000000000000000000000B7
:1051F80000000000000000000000000000000000A7
:1055280000C2010000000800120101010200004051
:10553800FFFF050000010102030109024300020107
:1055480000C0320904000001020201000524001015
:1055580001052401010104240202052406000107B3
:1055680005810308000A09040100020A0000000777
:1055780005050240000007058202400000040309F7
:1055880004440368007400740070003A002F002F70
:1055980000750062006500720074006F006F00748F
:1055A8000068002E0073006F0075007200630065CC
:1055B8000066006F007200670065002E006E0065CF
:1055C8000074002F00220355006200650072007409
:1055D800006F006F0074006800200073006500729F
:1055E80000690061006C00120330003000300030A8
:1055F800003000300030003100009200000000014F
:105608000500010088000000070000002A0044008F
:105618006500760069006300650049006E0074004B
:105628006500720066006100630065004700550070
:105638004900440073000000500000007B00300067
:1056480031003200330034003500360037002D00B9
:1056580030003100320033002D00340035003600B0
:1056680037002D0038003900610062002D0030003D
:10567800310032003300340035003600370038007E
:105688003900610062007D000000000012034D0037
:0E569800530046005400310030003000410045
:04000003000044F9BC
:00000001FF
