:10000000E03F0010F1110000451200004512000011
:1000100045120000451200004512000000000000DB
:100020000000000000000000000000004512000079
:1000300045120000000000004512000045120000BB
:10004000451200008907000045120000451200001B
:100050004512000045120000451200004512000044
:100060004512000045120000451200004512000034
:100070004512000045120000451200004512000024
:100080004512000045120000451200004512000014
:100090004512000045120000451200004512000004
:1000A000ED11000045120000AD07000045120000F0
:1000B00045120000451200004512000045120000E4
:1000C000451200004512000045120000044B05488F
:1000D0001B1A062B02D9044B03B11847704700BF07
:1000E000070500100405001000000000054906483F
:1000F000091A891001EBD171491002D0034B03B1E9
:1001000018477047040500100405001000000000A7
:1001100010B5064C237843B9FFF7D8FF044B13B151
:100120000448AFF300800123237010BD04050010C4
:1001300000000000BC1F000008B5084B1BB10849B7
:100140000848AFF300800848036813B9BDE80840C9
:10015000CCE7064B002BF9D09847F7E700000000EA
:1001600008050010BC1F000004050010000000007E
:10017000002301461A46184600F03CB838B5074D32
:10018000074C2C1BA41005D0013C55F8043D9847A2
:10019000002CF9D1BDE8384001F01ABFE01F000083
:1001A000DC1F000070B50F4E0F4D761BB61018BF48
:1001B000002405D0013455F8043B9847A642F9D1F4
:1001C0000A4E0B4D01F0FAFE761BB61018BF002444
:1001D00006D0013455F8043B9847A642F9D170BDCA
:1001E00070BD00BFC81F0000C81F0000D01F000066
:1001F000C81F00002DE9F047254C064625688846B3
:10020000D5F8484192469946C4B360681F2817DC68
:10021000411C76B104EB8003C3F888A0D4F8885160
:10022000012282401543022EC4F88851C3F8089178
:100230001ED0831C6160002044F82380BDE8F08755
:10024000144B03B34FF4C870AFF300800446D0B131
:10025000D5F84831002784E888003846C5F8484179
:100260000121C4F88871C4F88C71002EE1D0D1E767
:10027000D4F88C311A43C4F88C21DAE705F5A6745A
:10028000C5F84841C1E74FF0FF30BDE8F08700BF37
:10029000881E000000000000024B13B10248FFF767
:1002A00067BF7047000000007D01000010B5244AC0
:1002B00024491368244C43F000531360234A00235D
:1002C0000B60A2F59472C2F82831C2F84831C2F826
:1002D0006831C2F88831C2F8A831C2F8C831C2F812
:1002E000E831FF2313609360194B1A4A1A485A6089
:1002F0001A4A1C6014601A4CD860D06019489A6081
:1003000054609360026822F080620260164A012005
:1003100010601068C007FCD51868144A106058684F
:10032000506098689060DA68114B1A604DF20603CD
:10033000104A0B60002313600F4A136010BD00BF0A
:10034000C4C00F401041005008000340304100502D
:10035000342600104926001032900088EC05001069
:100360000026001000E100E0304000500041005045
:100370000C410050E80500107C2600100D4B0E4982
:100380004FF080521A600B6843F001030B6051F884
:10039000203C43F0020341F8203C08490B6843F03D
:1003A00001030B6006490B6843F080630B60054B4B
:1003B0001A60704798C00920240003401041005083
:1003C00000E100E09CC0092070B58AB043780C467B
:1003D0001568212B00F24081DFE813F02A0122008A
:1003E0003E012F00340037003C003F004100450033
:1003F0004A00E400ED001101670053009E00A300D5
:10040000A600AB00B300D600DA00E00006010E0142
:100410003E011401B500BC00C700C500C9002E0193
:100420008F4B41881A680A441A601A68002A40F003
:10043000FF804FF0FF321A60FAE08A4B1B68C3F36B
:100440004003A7E04288022315E0864B1B68C3F3F4
:1004500000139FE0428810230DE0824B65E0428844
:100460004FF4807307E07F4B1B68C3F3402391E098
:1004700042884FF4007312B97B4A1360DAE07B4A7A
:10048000FBE7362300937A4B05A91B68684698471B
:10049000059B2B70069B6B70069B1B0AAB70BDF80F
:1004A0001A30EB709DF81B306BE03A230093704BD1
:1004B00005A91B6868469847059B2B70069B6B70C7
:1004C000069B1B0AAB70BDF81A30EB709DF81B3011
:1004D0002B71079B6B71079B1B0AAB71BDF81E301C
:1004E000EB719DF81F302B72089B6B72089B1B0AE7
:1004F000AB72BDF82230EB729DF823302B73099B51
:100500006B73099B1B0AAB73BDF82630EB739DF828
:1005100027302B7411238CE0564B1B68C3F3C01398
:1005200038E04288802307E0524B1B68C3F3002366
:1005300030E042884FF480730AB14F4A9DE74F4A3A
:100540009BE7032221E0052000F066FF00F0070092
:10055000287020E0418807297ED841F00801052055
:1005600000F063FF66E005220FE006220DE0444B39
:100570001A782A705A786A709A78AA70DA78EA70CB
:100580001B792B71052354E00022354B5A6051E052
:10059000334B9B682B70012020605EE04288304B1B
:1005A0009A6047E0374B1A882A701B88C3F30723E9
:1005B0006B7002233DE0334B42881A8040F6DC0228
:1005C000198889B2914240F6E92184BF1A8892B213
:1005D0001A801A8892B28A428FBF40F6EA22294ACC
:1005E000128892B21A8025E039230093204B05A986
:1005F00068461B6898471BE0234A244B1A6000F0AA
:10060000EFFF17E042886FF400655319B3F5806F70
:1006100022D283886FF400615918B1F5806F1BD224
:100620009A4219D817494A808B800D4B04225A6090
:1006300000232360012010E000232B706B7014480E
:1006400001F0F4FBC6B2A87032461149E81C03362B
:1006500001F076FB2660EDE700200AB070BD00BF18
:100660002005001034C009203CC0092038C00920F2
:10067000901F000054C0092058C009205CC0092008
:10068000442600105004001021BB05431C0000103C
:10069000851F0000024B0022DA601A61704700BF1C
:1006A0002005001070B5174CE168236901F07F0147
:1006B00003F07F035A1C02F07F02914220D0124ABD
:1006C0009B011578114AD118CD70114D2D684D60E0
:1006D000104902250D6003F10D01451E1144313012
:1006E00015F8016F854201F8016FF9D1217D13449E
:1006F000597000232375236901200133236170BDE4
:10070000002070BD20050010FC0500100006001040
:100710000840004038C0092010B50D4CE36822693C
:1007200003F07F0302F07F02934204D1094B0222BF
:100730001A60002010BD0849402201EB831182207D
:1007400001F0CCF8E36801200133E36010BD00BF85
:10075000200500103CC009200006001008B500F07C
:10076000F3FF064801F018FA054A0649022000F096
:10077000E1FF012001F081F8002008BD901E00007B
:1007800035050010C90300004FF040221368DB0755
:1007900008D505490B780133DBB20B70136843F0C1
:1007A00001031360704700BFFC0500100F4B1B686E
:1007B000D90719D50E4B1B68DA0708D50D4A1368FF
:1007C00043F0010313600C4A1368013313600B4BB1
:1007D0001B68DB0708D50A4A136843F0010313605E
:1007E000084A136801331360704700BF004000508F
:1007F0000440005008400050E80500100C40005034
:10080000104000507C26001008B52B4B9A68E2B9C6
:1008100047F6FF710D2000F008FE42F6223112204B
:1008200000F003FE41F24B31142000F0FEFD40F2D7
:100830000111202000F0F9FD204B02201988013918
:1008400089B200F0F2FD29211EE09B68012B32D114
:1008500047F6FF710D2000F0E8FD42F6223112202C
:1008600000F0E3FD41F24B31142000F0DEFD40F2D8
:100870000111202000F0D9FD104B02201988013908
:1008800089B200F0D2FD4021032000F0CEFD00F03F
:10089000DFFD4206FBD5612000F0E1FD00F0D8FD50
:1008A0004307FBD5622000F0DAFD054B80221A6079
:1008B0004FF480721A6008BD20050010500400102B
:1008C00058C0092010B5274CA368B3B947F6FF718B
:1008D0000D2000F0AAFD42F62231122000F0A5FD05
:1008E00043F24B31142000F0A0FD1F4B0220198869
:1008F00089B200F09AFD292118E0A368012B2FD1BD
:1009000047F6FF710D2000F090FD42F622311220D3
:1009100000F08BFD43F24B31142000F086FD124BAA
:100920000220198889B200F080FD4021032000F0E8
:100930007CFD00F08DFD4206FBD5612000F08FFDAF
:1009400000F086FD4307FBD5084B4FF480721A6018
:10095000632000F084FD064B80221A600323A3620B
:1009600010BD00BF200500105004001038C0092041
:1009700058C009202DE9F04798B000AFA24B0524DC
:100980009C62152387F83030002387F831303A23F2
:10099000BB609E4B07F11C011B6807F10800C7F8FC
:1009A00004D098473B7F002B40F02A813B6A47F6F2
:1009B000FF711A0E87F832201A0C87F8332087F857
:1009C00035301A0A7B6A87F834201A0E87F83620E9
:1009D0001A0C87F8372087F839301A0ABB6A87F86B
:1009E00038201A0E87F83A201A0C87F83B2087F82F
:1009F0003D301A0AFB6A87F83C201A0E87F83E2021
:100A00001A0C87F83F2087F841301A0A0D20FF237F
:100A100087F8402087F8443087F845307C4E00F056
:100A200004FD42F62231122000F0FFFC41F24B316E
:100A3000142000F0FAFC3188022089B200F0F5FCA5
:100A40004FF6AE112D2000F0F0FC41F284512C2025
:100A500000F0EBFC0821204600F0E7FC29210320F0
:100A600000F0E3FC00F0F4FC4106FBD5612000F04F
:100A7000F6FC00F0EDFC4207FBD5664B4FF48072AC
:100A800098461A60644A80211160002407F13005FD
:100A90005FFA84F949F00801052000F0C6FC87F8E8
:100AA00042904FF0000987F843900E2000F0B4FC0C
:100AB00000F01F000F28F8D14FF0000A15F80A10B7
:100AC00070200AF1010A00F0BEFCBAF1160FF5D150
:100AD000632009F1010900F0C2FCB9F1100FE2D165
:100AE0000134082CD4D10E2000F096FC00F01F0039
:100AF0000F28F8D1494C4FF480732360642000F034
:100B0000AEFC00F0A5FC4307FBD43188022001397C
:100B100089B200F08AFC00F09BFC4006FBD5612006
:100B200000F09DFC00F094FC4107FBD51023C8F8B1
:100B3000003007F148060E2000F06EFC00F01F00A8
:100B40000F28F8D1622000F08AFC00F081FCC20678
:100B5000FBD50223C8F800304FF00009702000F0E8
:100B600069FC06F8090009F10109B9F1160FF5D180
:100B700000F06EFC030702D402232360DBE70E20A3
:100B800000F04AFC00F01F000F28F8D1642000F0AC
:100B900066FC00F05DFC00F0040000F0FF0100289E
:100BA000F7D11F4B80221A601023236097F85A0058
:100BB0001C4B0122587097F85B001A70987097F8D8
:100BC0005C0087F83120D87097F85D0018710846EE
:100BD00016F800C015F800E00130F4451CBF0022F3
:100BE00001211228F4D101B11A7002232360064BAF
:100BF00000229A625968052908BF5A60D7F804D0C4
:100C00006037BD46BDE8F08720050010901F00004A
:100C10005004001038C0092058C009203CC00920E9
:100C20005CC00920442600102DE9F04786B0DFF8AB
:100C300088915D4BCA4606229A62022547F6FF71EB
:100C40000D2000F0F2FB594F42F62231122000F045
:100C5000ECFB41F24B31142000F0E7FB3988022015
:100C6000013989B200F0E1FB4FF6AE112D2000F002
:100C7000DCFB41F284512C2000F0D7FB0821052039
:100C800000F0D3FB2921032000F0CFFB00F0E0FBB4
:100C90004106FBD5612000F0E2FB00F0D9FB4207E2
:100CA000FBD5434C1023A046C9F800304FF48073A5
:100CB0002360404B802225601A600E2000F0ACFBC0
:100CC00000F01F000F28F8D1C8F80050622000F093
:100CD000C6FB00F0BDFBC306FBD5CAF800500026DA
:100CE000702000F0A7FB0DF806000136162EF7D194
:100CF00000F0AEFB0607E0D51023256064202360DA
:100D000000F0ADFB00F0A4FB4007FBD400F0A0FB1B
:100D10004106FBD53988022089B200F086FB00F03D
:100D200097FB4206FBD5612000F099FB4FF48073DE
:100D3000CAF8003015238DF8003001238DF80130FA
:100D40000026F7B247F00801052000F06EFB8DF891
:100D5000147000278DF815700E2000F05DFB00F078
:100D60001F000F28F8D14FF000081DF80810702060
:100D700008F1010800F067FBB8F1160FF5D1632008
:100D8000013700F06CFB102FE4D10136082ED8D1CA
:100D90004FF480732360642000F061FB00F058FB87
:100DA0004307FBD44AE700BF2005001050040010A1
:100DB0003CC0092058C0092038C00920F8B52A4B8A
:100DC00010222A4D1A60FFF765FC2E4600F09CFAAF
:100DD000FFF76CFAFFF7D2FAFFF716FD244C2368F1
:100DE000002B3CD0234A2B68224F13B91368002BE9
:100DF000F9D03368D90704D51F4B9A68D968DA60EF
:100E000099603B681BB1237D43F00203237533686F
:100E10009BB12B68012B82BF237D43F00103237517
:100E2000154BD868FFF73EFC18B12368013B2360DF
:100E300003E0237D43F004032375822000F028FDA6
:100E40008206044601D4FFF767FC630601D4FFF76E
:100E500063FC00F0ABFD002333603B60BEE7074B53
:100E600010221A60F8BD00BF38C00920E805001044
:100E7000200500107C260010500400103CC0092002
:100E80002DE9F0438FB0404B10221A60FFF702FCAF
:100E90003E4B80221A6047F6FF710D2000F0C5FA24
:100EA00042F62231122000F0C0FA41F24B311420F8
:100EB00000F0BBFA40F20111202000F0B6FA29211F
:100EC000032000F0B2FA00F0C3FA4406FBD500F0AC
:100ED000BFFA00F0040000F0FF040028F7D12C4F07
:100EE000DFF8B080B946D8F80430042B43D17D88B0
:100EF000B9F80430ADB29BB2AB42F4DB691E0220FC
:100F000089B200F092FA612000F0A9FA00F0A0FA8C
:100F10004007FBD5622000F0A2FA04EB44060EABBA
:100F20001E4406202B0A06F8343C06F8335C00F019
:100F300073FA0134E4B2000A102C06F8320C11D115
:100F400001A8FFF7AFFB822000F0A2FC8106044657
:100F500001D4FFF7E1FB620601D4FFF7DDFB00F0EF
:100F600025FD0024642000F07AFA00F071FA4307AE
:100F7000FBD40135BCE7074B00229A62064B1022D6
:100F80001A600FB0BDE8F08338C0092058C00920AE
:100F900050040010200500103CC0092070B58EB030
:100FA00005466C461C4B03F1380622461868596802
:100FB000083303C2B3421446F7D1284605F12C0189
:100FC0000DF1390410F8012B0DF1010313F8015C48
:100FD000954217D106781D78AE4213D146785D78D8
:100FE000AE420FD186789D78AE420BD1C678DD78BF
:100FF000AE4207D106791D79AE4203D146795D79BB
:10100000AE4206D007339C42E0D18142DAD10020C3
:1010100000E001200EB070BD4D1F00002DE9F74F1C
:1010200000F072F9DFF8A480FFF740F9FFF7A6F9A6
:10103000FFF7EAFB224B0024254647469A46A34683
:10104000204EDFF88C90204AD8F8001011B91968AA
:101050000029F9D03968C90742BFF168B068B160AA
:10106000DAF8001048BFF06011B11021C9F8001083
:101070003968D9B1D8F80010F068012984BF4FF45D
:101080008071C9F8001001920093FFF787FF009B61
:10109000019A20B1022111600134642506E025B9CE
:1010A0000221C9F800102C4600E0013D142CC7F8BD
:1010B00000B0CAF800B0C7D103B0BDE8F08F00BFE0
:1010C0007C2600105004001038C00920E8050010EC
:1010D0003CC009202DE9F0413C4C3D4D00F0FAF8B0
:1010E0004FF48076022310272660276023602E604D
:1010F0002F602B602660276023602E602F602B609E
:1011000000F06EF926602E6000F0B0F92660042031
:101110002E6000F081F9B0F5774F00D0FEE7266031
:1011200000F0BAF904260220276000F0A3F82F602F
:10113000022000F09FF8013EDFF89080F3D11023E9
:10114000C8F80030234A244B022414601E70234B3D
:10115000042119602249D9600321996021490B6853
:1011600023430B6001231360FFF758FFC8F80040CA
:101170001D4CFFF7F3FA254600F018FC236813B165
:10118000FFF71CFEF8E76368032B05D1A36A032B66
:1011900002D0FFF797FBEFE76B68052B05D1A36A39
:1011A000052B02D0FFF7E6FBE6E76B68062B04D1C0
:1011B000A36A062B01D0FFF737FD6B68042BDBD148
:1011C000A36A042BD8D0FFF75BFED5E738C009200F
:1011D0003CC0092004400040FC0500100C400040C9
:1011E000FFFF4FC300E100E02005001000F0DEBB70
:1011F00008B50D4A0D4B0E498B4204D252F8040F2C
:1012000043F8040BF8E70B4B0B4A0021934202D240
:1012100043F8041BFAE7FEF7C5FF084B084A1A60BB
:10122000FFF758FFFEE700BFDC1F000020000010A2
:1012300004050010040500108026001008ED00E0F1
:1012400000000000FEE70000C30803EB900303EB7F
:10125000901303EBD01303EB902303EBD020044B4C
:1012600058605A68013A5A60002AFAD1704700BFA4
:101270004C050010014B5843FFF7E6BF40420F00FA
:10128000104A0023136053609360D3601361D361ED
:10129000536293620C4A1360136213641366C2F8BC
:1012A00080300A4A136053609360D3601361D36146
:1012B0005362074A1360136213641366C2F88030E6
:1012C000704700BF00C0024000C0092040C002407B
:1012D00014C0092008B5FFF7D3FF4CF21271094A78
:1012E00000231360116240F2B11111644FF04051BC
:1012F0001366C2F880105361536353655367C2F895
:10130000943008BD00C00920114B1A6822F44042F5
:1013100042F400421A601A6822F4405242F4005229
:101320001A601A6822F4403242F400321A601A68D5
:1013300022F4402242F400221A60064B4FF0805201
:101340001A60054BC7221A600C225A60704700BF12
:1013500000C0024098C0092000000340094A1368F9
:1013600023F470131360084A136823F0C0631360FA
:10137000064B1A6842F420121A601A6822F4A0126E
:101380001A60704704C0024000C0092044C00240F7
:10139000F0B5104B441E012220250F4EDFF83CE033
:1013A00002FA04F41D6010270138C0B2FF280CD0E7
:1013B000214214BF32601A603760DEF800501F60AF
:1013C000C5F3400545EA4101EEE7034B20221A60D0
:1013D0000846F0BD5CC0092058C0092054C009204F
:1013E00008B5FFF7BBFF09494FF400730B603220CB
:1013F000FFF72AFF064B20221A604FF480430B6050
:1014000018200449BDE80840FFF7C2BF38C00920D2
:1014100058C00920FF7F0D0008B540F08001090485
:101420001820FFF7B5FF80B208BD41EA004118203F
:10143000FFF7AEBF08B540F0800109021020FFF7AA
:10144000A7FFC0B208BD41EA00211020FFF7A0BFEE
:1014500008B500210820FFF79BFFC0B208BD08B502
:1014600001460820FFF794FFC0B208BD08B500216F
:101470001820FFF78DFF0020FFF7CEFF0028FAD1DC
:101480004FF400411820FFF783FF0020FFF7C4FF4F
:10149000B0F5004FF9D108BD2DE9F04144F23A0210
:1014A000414B424E1A60424D002333602B68414C41
:1014B00023F002032B60AA2323603F4A55232360B5
:1014C00013683D4F13F0007FFAD12B6823F001031E
:1014D0002B60AA232360552323603B6813F080739D
:1014E000FBD1DFF8F880C8F80030FFF7BFFF3349C1
:1014F0001820FFF74DFF6020FFF7B1FFFFF7A8FFAF
:101500004106FBD52E4B20221A601A685206FCD5E4
:101510002C4B28221A604FF400525A60012333608A
:10152000294A2A4BAA211A605522216022602B6881
:1015300043F001032B60216022603B68DE01FCD593
:101540000323C8F800302B6843F002032B60AA2362
:101550002360552323603B689801FCD51C4B222255
:101560001A60AA24083355201A4A1C6018601168B2
:1015700041F0010111601C60174C18602168164889
:1015800011F4807FFAD001684905FCD5116841F05B
:1015900002011160AA221A6055221A6003689B0595
:1015A000FCD5BDE8F08100BF00C00F400CC10F406A
:1015B00080C00F408CC00F4088C00F4070150800DD
:1015C000A0C10F40A8C10F401800010084C00F4007
:1015D000A4C00F40A0C00F40A8C00F4004C10F40DE
:1015E00008B5FFF74DFE094B02221A604FF080420A
:1015F0001368074843F003031360064BAA221A60DE
:1016000055221A60BDE80840FFF71EBE3CC0092005
:1016100040420F000800004038B5084C8020256883
:101620006168402DA8BF40252A4600F057F963683D
:101630002B44636023685D1B256038BD5405001092
:1016400037B51048047A0546C4F34114022C0CD176
:10165000002302A941F8043D00F11002031D0830E7
:1016600000F066FA08B101980AE005EB84046369AA
:101670002BB1054A02F10C01101D984700E01846F5
:1016800003B030BD540500105805001010B50028F7
:101690004AD101F0040101F0FF02254C01B30822F8
:1016A000A11800F045F9227AC2F3411304EB830339
:1016B0005B6A6360E389236023610BB1D30935D092
:1016C000FFF7BEFF28B9BDE810400121802000F0DF
:1016D000F9B8E28923699A42D4BF226023601AE0F4
:1016E0002368002B1BDD1A46616800F021F90028F1
:1016F000E9DB6368034463602368181A2060A8B9B3
:10170000237AC3F3411304EB83035B6A6360FFF73F
:1017100097FF0028D7D0BDE81040FFF77DBF1146E6
:10172000BDE8104000F004B98028F4D010BD00BF1F
:1017300054050010024B03EB800041614262704788
:10174000540500107047000010B50E4C00F096F9DB
:101750000D4800F081F82146002000F061F8214694
:10176000802000F05DF84021002000F03BF840218F
:10177000802000F037F8054A05490020FFF7DAFF1E
:10178000012010BD8D1600004517000088050010CF
:10179000F91B0000034A136830EA0303FBD1024B34
:1017A0001860704700C2005008C20050044B00048B
:1017B00040F4A06030221A6098601020FFF7EABF62
:1017C00008C2005008B5FFF7F1FF054B090441F4CA
:1017D000807119601020BDE80840FFF7DBBF00BF33
:1017E00010C2005010B5430003F01E0343EAD014AA
:1017F000094801230268A34013430360074B4FF4D9
:1018000080701C605960FFF7C5FF44F04000002164
:10181000BDE81040FFF7D6BF44C2005048C2005098
:101820000A4A430003F01E0342F81310084943EA32
:10183000D01001220B6802FA00F01843054A086034
:10184000136843F004031360704700BF9005001055
:1018500034C2005004C20050034B044A1864136899
:1018600043F00803136070479005001004C2005055
:1018700040F08001D020FFF7A5BF011C18BF012157
:10188000FE20FFF79FBF0146F320FFF79BBF00003C
:1018900008B5430003F01E0343EAD0110846FFF7E2
:1018A00085FF064B090441F4007119602020FFF701
:1018B00071FF034B1868C0B208BD00BF10C20050D2
:1018C00014C20050430003F01E0343EAD01000315D
:1018D00018BF012140F04000FFF774BF38B5034640
:1018E000400000F01E0040EAD3109B0003F03C03D0
:1018F0000C4C43F0020323600B4B15461A600B4A55
:10190000236813F0020303D051F8043B1360F7E798
:10191000044A1360FFF74AFFFA20FFF747FF284603
:1019200038BD00BF28C2005024C200501CC2005065
:10193000F8B50346400000F01E0040EAD3109B00BB
:10194000154C03F03C0343F0010323602646083C9A
:1019500023681D05FCD55C051AD500252C460F4FC4
:10196000C3F309039C420AD014F0030F08BF3D687B
:1019700011B1944238BF0D552D0A0134F2E700230E
:101980003360FFF713FFF220FFF710FF2046F8BD8A
:101990004FF0FF30F8BD00BF28C2005018C2005001
:1019A000011C18BF0121D820FFF70CBFF8B52A4B46
:1019B0001C68E10711D501229A60284B596C61B16E
:1019C000F520FFF7F3FE264B264A20201A60FFF78A
:1019D000E1FE254B1868C0B2884722071AD5234B71
:1019E00008221A60FE20FFF7E1FE1D4B204A20204E
:1019F0001A60FFF7CFFE1C4B1868C3B213F01A0F22
:101A000008D0164A126C2AB100F0140003F001034A
:101A10001843904763071ED5144B0422154D164EEC
:101A2000114F1A60002401232A68A34013420FD0EB
:101A300033602020FFF7AEFE084B601053F82030D3
:101A400039682BB140EAC41001F01F01C0B29847B9
:101A50000134202CE7D1F8BD00C2005090050010E1
:101A600010C200500002F50014C2005008C200501D
:101A70000002FE0030C2005038C2005008B5264AAD
:101A80002649136823F4402343F48023136052F85B
:101A9000043C23F0300343F0100342F8043C52F8B6
:101AA000043C23F0405343F0005342F8043C52F806
:101AB0000C3C23F0406343F0806342F80C3C52F846
:101AC0000C3C23F0405343F0805342F80C3C02F5A9
:101AD0005022B432136843F000431360104A136875
:101AE00043F0120313600B680C4A13F0020FFAD094
:101AF0001368DB06FCD50B4B00200B4A18604FF037
:101B0000FF3313605062D0621363084B1860FFF715
:101B1000BAFE012008BD00BF10C00240F8CF00503F
:101B2000F4CF005004C2005008C2005040C2005020
:101B300070B5164C2578002415B34678AE4221D1F5
:101B40000C60C68844888088042805D005281BD1ED
:101B50000F481860922002E00E481860282010609C
:101B6000200A14680004A0420EDC1D680544201AF7
:101B70001D60B042D4BF106016600120086070BDC7
:101B8000284670BD204670BD012070BDD8050010EC
:101B900060040010941F0000014B5860704700BFA4
:101BA000D8050010F0B5010A0329C4B2CEB210481E
:101BB00008D1EE2C06D10F490078923108741960D3
:101BC00012230FE04168002501E001350144087847
:101BD00068B14F78B742F9D1A542F6D1022E19600B
:101BE00003D14B8813600120F0BD0B78FAE7F0BDFC
:101BF000D8050010600400102DE9F0474F4C054651
:101C0000A3680F469146A04643B9287800F01F0606
:101C1000012E57D006D3022E6AD08BE098470028B9
:101C2000F3D04CE06A78D9F80030092A00F28280BB
:101C3000DFE802F00580808080090D80151C0022FD
:101C40001A705A7048E0A878FFF712FE37E04B464A
:101C50003A46A9886888BDE8F047FFF7A3BF98F81F
:101C60000C2001201A703860BDE8F087AE780EB9FC
:101C700030461FE0FF273B46D8F804402278C2B127
:101C80006278042A05D0052A05D0022A0ED163798C
:101C90000CE0E7780AE09E4208D137B961792379F0
:101CA000A07843EA0121FFF79DFD334622781444D2
:101CB000E4E70120FFF774FE6B8888F80C30012000
:101CC000BDE8F0876B78D9F800200A2B07D00B2BE2
:101CD00008D07BBB1370537002233B60EFE70023F7
:101CE000137016E06B882BBB3B603046BDE8F08775
:101CF0006C78012C0FD002D3032C14D01AE0287971
:101D0000D9F80040FFF7C4FD0023C0F34000207065
:101D100063703E60D3E7698861B92879FFF7D2FD27
:101D20002046BDE8F0876B8823B901212879FFF7A9
:101D3000C9FDC4E70020BDE8F08700BFD80500104A
:101D4000844641EA000313F0030349D1403A23D308
:101D50000B6803604B6843608B688360CB68C3602B
:101D60000B6903614B6943618B698361CB69C36113
:101D70000B6A03624B6A43628B6A8362CB6AC362FB
:101D80000B6B03634B6B43638B6B8363CB6BC363E3
:101D900040304031403ADBD230320BD30B68036025
:101DA0004B6843608B688360CB68C3601030103130
:101DB000103AF3D20C3205D351F8043B40F8043BFF
:101DC000043AF9D2043208D0D2071CBF11F8013B03
:101DD00000F8013B01D30B8803806046704700BFC9
:101DE000082A13D38B07B1D010F00303AED0C3F190
:101DF0000403D21ADB071CBF11F8013B00F8013BBA
:101E0000A4D331F8023B20F8023B9FE7043AD9D330
:101E1000013A11F8013B00F8013BF9D20B7803704D
:101E20004B7843708B7883706046704720F00301D5
:101E300010F00300C0F1000051F8043B00F1040C65
:101E40004FEACC0C6FF000021CBF22FA0CF21343D5
:101E50004FF0010C4CEA0C2C4CEA0C4CA3EB0C029E
:101E600022EA030212EACC1204BF51F8043B043008
:101E7000F4D0C2F1000102EA0102B2FA82F2C2F128
:101E80001F0200EBD2007047280000104300000042
:101E900012010002FF000040FFFF040000010102E8
:101EA0000301090220000101008032090400000240
:101EB000FF00000007058202400000070505024000
:101EC00000000403090444036800740074007000F7
:101ED0003A002F002F007500620065007200740048
:101EE0006F006F00740068002E0073006F007500B3
:101EF00072006300650066006F0072006700650095
:101F00002E006E00650074002F0030037500620023
:101F10006500720074006F006F007400680020009C
:101F200061007300730065006D0062006C00790051
:101F30005F0074006500730074001203300030000D
:101F400030003000300030003000310000475C5875
:101F5000CC73345E8EB8B198E668BC11D716331CCA
:101F6000CD1723AE2C66399A2F75C58CC73345E73C
:101F7000EB8B198E668BCE1D716331CCD1793AE231
:101F8000C66399A2F3323032302D31322D523100F6
:101F9000F11FFF1F280000000001040001000000E5
:101FA00000000000000157494E5553420000000058
:101FB000000000000000000000000000F8B500BFB5
:101FC000F8BC08BC9E467047990200003901000029
:101FD000F8B500BFF8BC08BC9E4670471101000070
:101FE0002800001000000000000000001403001092
:101FF0007C030010E403001000000000000000005B
:1020000000000000000000000000000000000000D0
:102010000000000000000000000000008C1E000016
:1020200000000000000000000000000000000000B0
:1020300000000000000000000000000000000000A0
:102040000000000000000000000000000000000090
:102050000000000000000000000000000000000080
:102060000000000000000000000000000000000070
:102070000000000000000000000000000000000060
:102080000000000000000000000000000000000050
:1020900001000000000000000E33CDAB34126DE6ED
:1020A000ECDE05000B000000000000000000000056
:1020B0000000000000000000000000000000000020
:1020C0000000000000000000000000000000000010
:1020D0000000000000000000000000000000000000
:1020E00000000000000000000000000000000000F0
:1024100089096009B3090000492600100026001050
:102420009200000000010500010088000000070084
:1024300000002A0044006500760069006300650022
:1024400049006E0074006500720066006100630060
:10245000650047005500490044007300000050002B
:1024600000007B00300031003200330034003500C2
:10247000360037002D0030003100320033002D00CF
:1024800034003500360037002D0038003900610077
:1024900062002D003000310032003300340035007E
:1024A0003600370038003900610062007D0000000E
:1024B000000012034D00530046005400310030006C
:0424C00030004100A7
:04000003000011F1F7
:00000001FF
