:10400000E03F0010D595000029960000E9920000DD
:104010001D9300006D930000C1930000000000009C
:1040200000000000000000000000000029960000D1
:104030002996000000000000299600002996000043
:1040400029960000E14F00005D7B0000F594000020
:104050002996000029960000299600002996000064
:104060002996000029960000299600002996000054
:104070002996000029960000299600002996000044
:104080002996000029960000299600002996000034
:10409000299600001D510000299600002996000075
:1040A000D1950000299600003152000029960000A9
:1040B0002996000029960000299600002996000004
:1040C000299600002996000029960000044B054817
:1040D0001B1A062B02D9044B03B11847704700BFC7
:1040E0001F0B00101C0B00100000000005490648C3
:1040F000091A891001EBD171491002D0034B03B1A9
:10410000184770471C0B00101C0B0010000000002B
:1041100010B5064C237843B9FFF7D8FF044B13B111
:104120000448AFF300800123237010BD200B001062
:1041300000000000C8B3000008B5084B1BB10849D7
:104140000848AFF300800848036813B9BDE8084089
:10415000CCE7064B002BF9D09847F7E700000000AA
:10416000240B0010C8B300001C0B0010000000005E
:10417000002301461A46184600F08AB838B5074DA4
:10418000074C2C1BA41005D0013C55F8043D984762
:10419000002CF9D1BDE8384007F020B9ECB300009D
:1041A000E8B3000070B50F4E0F4D761BB61018BF68
:1041B000002405D0013455F8043B9847A642F9D1B4
:1041C0000A4E0B4D07F000F9761BB61018BF0024FD
:1041D00006D0013455F8043B9847A642F9D170BD8A
:1041E00070BD00BFD4B30000D4B30000DCB3000046
:1041F000D4B3000070B4840746D0541E002A41D0C6
:10420000CDB2034602E0621EE4B3144603F8015B3C
:104210009A07F8D1032C2ED9CDB245EA05250F2CEB
:1042200045EA054519D9264603F11002103E0F2E26
:1042300042F8105C42F80C5C42F8085C42F8045CFE
:1042400002F11002F2D8A4F1100222F00F0204F0E1
:104250000F041032032C13440DD91E462246043A93
:10426000032A46F8045BFAD8221F22F00302043224
:10427000134404F003042CB1C9B21C4403F8011B1D
:10428000A342FBD170BC704714460346C2E700BF8F
:104290002DE9F047254C064625688846D5F8484163
:1042A00092469946C4B360681F2817DC411C76B15A
:1042B00004EB8003C3F888A0D4F88851012282401F
:1042C0001543022EC4F88851C3F808911ED0831CF0
:1042D0006160002044F82380BDE8F087144B03B3ED
:1042E0004FF4C870AFF300800446D0B1D5F8483120
:1042F000002784E888003846C5F848410121C4F801
:104300008871C4F88C71002EE1D0D1E7D4F88C31DB
:104310001A43C4F88C21DAE705F5A674C5F84841BC
:10432000C1E74FF0FF30BDE8F08700BF98A800005C
:1043300000000000024B13B10248FFF719BF70479D
:10434000000000007D41000010B500231A4640FA2D
:1043500003F1C3F1070401F00101A14001330A4355
:10436000082BD2B2F3D1104610BD000010B5044C9A
:10437000206005F067F9E080000CA08010BD00BF50
:104380005004001038B5264B264C1A7812B11A7812
:10439000012A28D11B7833B1214B1B78012B14BF84
:1043A0000025402500E0292547F6FF710D2005F086
:1043B0003EFA42F62231122005F039FA41F24B3131
:1043C000142005F034FA40F20111202005F02FFAF4
:1043D000B4F84C100220013989B205F028FA2946B8
:1043E000032005F024FAB4F84C0080B202F05AFF22
:1043F00002F0F2FF05F0C2FA4206FBD5612005F09B
:10440000C4FA05F0BBFA4307FBD5622005F0BDFAFC
:10441000054B80221A604FF480721A6038BD00BFCD
:104420003C0B00105004001058C0092070B5284BF8
:1044300004461A7832B11B78012B48D1402540F24E
:10444000615602E040F26146292547F6FF710D20D2
:1044500005F0EDF942F62231122005F0E8F941F2BB
:104460004B21142005F0E3F93146202005F0DFF957
:10447000A1B22C2005F0DBF9210C164C2D2005F003
:10448000D6F9B4F84C100220013989B205F0CFF901
:104490002946032005F0CBF9B4F84C0080B202F0B5
:1044A00001FF02F099FF05F069FA4206FBD5612091
:1044B00005F06BFA05F062FA4307FBD5622005F0C0
:1044C00064FA054B80221A604FF480721A6070BD46
:1044D0003C0B00105004001058C00920F8B50746E6
:1044E0000E4602F0FFFD1D4D044620B96B7843F0E7
:1044F00004036B70F8BD042F07700ED140F63541F0
:10450000174A13681B0DC370164B12681B68C2F361
:10451000130201FB0233436014E0AB78C3706B6895
:1045200043602B89623B83700F4B1B7843720F4BA8
:104530001B780372288980B202F0A0FE0C4BA07297
:104540001B78E3723222314604F10E0006F0D6F8F1
:104550006B780120637000236B70F8BD3C0B00107A
:1045600064130010084000404A1300104813001064
:10457000E617001010B5642005F007FA05F0FEF903
:1045800000F0040000F0FF040028F7D1214B802246
:104590001A6010214FF480721A6043F8201C43F80F
:1045A000202C022243F8202C02F0EEFE03F00AF841
:1045B00002F0D8FE02F0FEFD40F68911164B174AB4
:1045C0009C72DC72A2F84C109E219C81A2F84E10C5
:1045D00040F66211DC81A2F850109C705C601C8176
:1045E0001C745C705C749C74DC741C751C704FF4DF
:1045F0001663A2F8523040F6B313A2F85430E22307
:1046000082F85630064B00200021C3E90001C3E9BF
:10461000020110BD5CC009203C0B001050040010CA
:10462000601800102DE9F0473C4E3D4FB6F84C00A5
:104630003C4C80B202F0DAFB00221346385C195D74
:104640000133C9071F2B41EA5202DFF8D8C0F6D167
:1046500034681CF80310C90741EA5202A24255D13E
:10466000DFF8C49000244FF07F084FF0000E75462D
:1046700003EBC40A05EB0A026244032C12F81F2C58
:1046800009DD391891F8281001304A40B0FBF8F1E3
:10469000C1EBC111401A02FA05F1013541EA0E02DF
:1046A000082D5FFA82FEE5D1D9F800201E4D02F8F0
:1046B00004E001342E2CD8D133695BB9296801207C
:1046C000FFF70CFF194B10221A60194B28689B69E1
:1046D00098471FE02B685C79104B296804F03F0471
:1046E000A21C0431D86802F005FC2A6804F1080312
:1046F000D35C2968E21D8A5C29680634095D1202D0
:1047000042EA03430B43984204D1D7E70133B3F5A0
:10471000D87F9ED10120BDE8F08700BF5004001073
:10472000A0A80000C4140010C014001038C0092054
:104730003C0B001038B5584B05461A7D1C46022A22
:1047400013D103221A75554A12689A61DA8B013A1D
:1047500092B29A8300221A849A62514BDA7C002A20
:1047600000F099802822DA6138BD032A03793BD111
:10477000A26A03F00303A2B1228CA18D92B29142EE
:104780000FD1464A1268A261E28DE283013A92B2E9
:10479000A28394F8302084F82220628EA284002222
:1047A000A262032B77D1AB79002B74D1EB7984F81B
:1047B00030306A7A2B7A03EB02236386EA7AAB7A8B
:1047C00003EB0223E3856A7C2B7C03EB0223228C20
:1047D0009BB292B2A3859B1A47F6FE7293425ADCB3
:1047E0002D4B01229A6238BD012A54D103F00F03E8
:1047F000052B50D14379222B4DD1427F037F43EAD1
:10480000022340F67A42063B9BB2934243D8636C44
:104810003BB9022323750023236105F111011846DA
:1048200011E00622811804F1380005F035FF002858
:10483000EFD0062205F10C0104F1380005F02CFF41
:104840000028E6D038BD11F8012F9A400833202BFC
:1048500040EA0200F7D1FFF789FDEB7D287E1B02BD
:1048600043EA0043A87D1843A06004F0EBFE6B7E92
:10487000E06084F82230AB7EA3846A7F2B7F43EA1A
:104880000223E38395F82730012203F01F03A37569
:104890006375034BDA7238BD5004001064130010C6
:1048A0003C0B0010F8B50E4615461C46492800F290
:1048B0006383DFE810F006014C00510055005A00F8
:1048C0005D006200650067006B007000C300CC00F3
:1048D0000B017E007900830088008B009000980017
:1048E000BB00BD00BF000401080161030D019A0077
:1048F000A100AB00A900AD0036012901530156010A
:104900005A015E01A901E201FD013E024E02590277
:104910005F035D02620268026F027D02E601F2013E
:104920008C02C6024501DB02610394024C03500372
:10493000CB01DE010A0261034A00AB022701BB0280
:1049400011024803D00255035C0300234CE29F4B45
:104950000120987400239EE19C4B02229A726EE221
:104960009B4B1B68C3F3400301E10A88022315E057
:10497000974B1B68C3F30013F9E00A8810230DE07E
:10498000934B24E00A884FF4807307E0904B1B6838
:10499000C3F34023EBE00A884FF400730AB18D4A59
:1049A00000E08D4A1360E5E22146104605F0D4F898
:1049B000E0E22146104605F0E9F8DBE2874B1B6890
:1049C000C3F3C013D3E00A88802307E0834B1B683E
:1049D000C3F30023CBE00A884FF480730AB1804A06
:1049E000E0E7804ADEE70322C2E2052004F016FF7A
:1049F00000F007002870D8E10988072900F2BC827E
:104A000041F008010520ECE10522B1E20622AFE207
:104A1000754B1A782A705A786A709A78AA70DA7880
:104A2000EA701B792B7105232360A3E200229FE229
:104A3000664B9BE00A78654B1A709BE26B4BB3F8B0
:104A40004C202A70B3F84C30C3F3072393E10A8853
:104A500040F6EA215D4BDA81DA8992B28A4204D9C2
:104A600001229A7240F6621215E000229A7240F614
:104A7000DC02D98989B2914240F6E92184BFDA8902
:104A800092B2DA81DA8992B28A428FBF40F6EA2284
:104A90004E4AD28992B2DA81D989544A89B2A2F8AF
:104AA00050105B7C4948092B00F06482C3899BB29B
:104AB000A2F84C300023C381B2F84C0083E105F02A
:104AC00097F80023B0E74A4A4A4B1A600B224FE29C
:104AD0000A886FF400601318B3F5806F80F04C8281
:104AE0004B886FF400615918B1F5806F80F04482F3
:104AF0009A4200F241823D49A1F85220A1F8543077
:104B000004229BE10F2299E10B88B3F5807F00F22C
:104B10003382364AC3F136035BB282F8563007223D
:104B20008CE1002313705370334805F087FEC6B242
:104B3000A87032463049E81C05F0E0FD03360BE072
:104B40002E4805F07BFEC6B205F8010B32462B4914
:104B5000284605F0D3FD013626600BE201201070D7
:104B600024E10A88264B1A702AE1254B1B782B700A
:104B70001BE1244C00220023C4E90023C4E90223E2
:104B80006F1E0026324617F8010F002105F0E8FBE2
:104B9000D4E90023083610431943402EC4E900012C
:104BA000F0D107350026324615F8010F002105F037
:104BB000D7FBD4E90223083610431943402EC4E939
:104BC0000201F0D101F0CAFFD4E100BF3C0B00109C
:104BD00034C0092038C009203CC0092054C0092035
:104BE00058C009205CC00920201800105004001093
:104BF00021BB05431C0000104AB1000047A900007A
:104C0000E817001060180010B14B00221A60E81C71
:104C10006A1E19680902196012F8014F196890425A
:104C200041EA04011960F4D1AA4B02229A72AA4AFD
:104C300001204FF080511874116029796A7942EA95
:104C40000122A6490A8008229A74F8BDA14B0522C8
:104C50009A720E229A7400231946A14A995401337C
:104C60000A2BFBD19F4B00221A709F4B012018701A
:104C7000F8BD984B0120D872F8BD12689B4B1A60A2
:104C80009EE0974A0023E95C995401330A2BFAD13C
:104C9000954A012010702360F8BD00231946904A00
:104CA000995401330A2BFBD18F4A00211170BBE6C6
:104CB0008E4B551E1968002321FA03F20833202B6E
:104CC00005F8012FF8D10423AEE612786B7843EA99
:104CD0000223824A13804DE1854B1078527819885F
:104CE00042EA00220A4412B21A801A88814812F459
:104CF000004F814A07D01B884FF4A0715B429BB2E2
:104D000091FBF3F30AE0198809B200290DDD1B8835
:104D10004FF4A0711BB291FBF3F39BB21380138885
:104D20009AB2764B1B68134401E0002313800360A2
:104D300020E10B88724D00226B63664B2260DA72B1
:104D400003229A7209229A7402F0BEF9B5F84C0057
:104D500039E06B49551E00230A68DA400833202BDE
:104D600005F8012FF8D1AEE71068FFF7FFFAE6E08B
:104D70001323137037236B702FE0614B1B690033D3
:104D800018BF0123F3E60B885D4A003318BF0123E7
:104D90001361EFE002F0C0F9014628B14022284635
:104DA00005F0ACFC40233FE6287001202060F8BDF0
:104DB000484B002222609A720A229A7402F084F907
:104DC0004F4BB3F84C0080B202F06CFAD2E0087896
:104DD00004F024FD030A2B706870022324E649883E
:104DE000307804F024FDC5E032885C1CDBB29342CD
:104DF00080F0C08003EB4303EA1851789278E85CB6
:104E000042EA012104F013FD2346EDE70026F7B244
:104E1000384604F003FD0136030A2E2E2F706B7006
:104E2000A87005F10305F2D18723FDE592792946A3
:104E30000732D2B2334805F061FC1022254B9A7438
:104E40003FE6244C0622294604F1200005F056FCDA
:104E50000C23A3748EE08A88FF2A00F28D802848F4
:104E6000294682655C3005F049FC83E09479302C5A
:104E700000F2828074B9224D2146062205F13800E5
:104E80006C64FFF7B7F90622214605F13E00FFF7F3
:104E9000B1F96FE01C4C931D224613F8011DAB4283
:104EA00002F8011FF9D1002106221848FFF7A2F9E4
:104EB00013490523FF26A879082829D9CA1882F89A
:104EC0003E60AA79013B083ADBB2AA71F3E700BF62
:104ED000581300103C0B001098C00920B2140010A9
:104EE0004B13001049130010E71700106413001053
:104EF000E41700101C180010601300105C13001061
:104F00005004001068130010870400108E04001075
:104F100060B100210A460131CDB25208A84242F0E8
:104F20008002F8D815490B4483F83E20144A14F83F
:104F3000011FA379A24203EA01032370F7D10F4BAB
:104F400001205864F8BD0F4B01209862F8BD0A7823
:104F50000C4BDA740EE00A780A4B1A750D2208E041
:104F6000226829463088BDE8F84003F0D3BD1122FD
:104F7000044B9A740120F8BD0020F8BD50040010C5
:104F80008C0400103C0B00102DE9F04106460F4642
:104F9000904602F0A7F8104D044628B96B7843F00C
:104FA00004036B70BDE8F0810C4B0670B3F84C3015
:104FB0000026623BC670C0F8048083708672C67299
:104FC000322239460E3005F099FB6B786E706370B3
:104FD0000120BDE8F08100BF3C0B00105004001020
:104FE00030B54FF040231B68D9077DD53F49404B72
:104FF00008681A68024401321A6000220A603D4AB9
:105000001868947A114614B1947A012C05D11A6863
:10501000520638D10122CA7235E0917A022903D1B1
:105020001968CD072FD42CE0917A03291CD132497D
:105030000C7D032C27D18C69001B840723D1888B1E
:10504000013880B28883888B80B240B90120D07249
:105050000A8C024492B20A84CA8B8A8313E0274ADC
:105060004FF4807111600EE0917A05290BD122492D
:10507000B1F84E1088B2224909681C680144A14267
:1050800001D10121D1721F491F4A0868B8B11088A7
:1050900080B2A0B91C680868844210D31B481C4D1C
:1050A000008800044CBF41F6690001201080186898
:1050B00028601848008884B228682044086040F6B8
:1050C0003440118889B2814282BF19680231196067
:1050D000138811499BB203F634430B6000231380FD
:1050E00001224FF040231A6030BD00BF581300105A
:1050F000641300103C0B0010500400103CC0092049
:10510000401300101C180010B2140010E417001017
:105110005C1300106013001018400040084B04227C
:105120001A60084B4FF080521A60074B01221A7028
:10513000064B9A7A022A04BF00221A74704700BFF5
:10514000AC8002409CC009205D1800103C0B001090
:1051500010B5294B5A7C012A11D05A7C082A0ED04E
:105160005A7C042A0BD05A7C092A08D05A7C0A2A75
:1051700005D05A7C0C2A02D05A7C0F2A3AD11F4AF9
:105180001268D10736D51E4A1268D20727D540F6D5
:1051900035441C4A012111609A7A1B48022A02BF39
:1051A0001A4A4FF080511160194A01681268C1F320
:1051B000130104FB01225A600268C2F307529A707D
:1051C000144AB2F84C2092B21A81134A134B116858
:1051D00018681060124A1960136801331360114B8C
:1051E0001B68DB0706D5104B01221A600F4A1368B3
:1051F0000133136010BD00BF3C0B00100040005095
:1052000004400050084000506413001098C009206A
:105210000840004050040010A4130010C0140010F7
:10522000441300100C40005010400050581800105B
:1052300008B5114B5B7C092B02D102F093FB01E016
:10524000FFF786FF0D4B1B68190614D50C4B1B6826
:105250001A0605D50B4B80221A600B4B00221A60F0
:105260000A4B1B681B0606D5094B80221A60094BA6
:1052700002221A60FEE708BD3C0B001000400050FF
:105280000440005008400050A01200100C40005094
:105290001040005038C009202DE9F04FC1B09046B1
:1052A0000C4604F0CFF95D4D0746B5F84C005C4E56
:1052B00080B201F09BFDC446305C0DF1FF324FF02F
:1052C0007F0AC8EB0C039C421ED91CF8019B0132DB
:1052D0004FF0070E0023311891F8281009F0010B48
:1052E00001308BEA0101B0FBFAFB01FA0EF1CBEBC6
:1052F000CB1B0B431EF1FF3ECBEB00004FEA5909DD
:10530000DBB2E8D21370DCE747F6FF710D2004F042
:105310008EFA42F62231122004F089FA41F24B3122
:10532000142004F084FA40F6E141202004F07FFAD2
:10533000B5F84C10022089B204F079FA0B2105204F
:1053400004F075FA4021032004F071FA10212320A3
:1053500004F06DFAB9B22C2004F069FA390C2D2052
:1053600004F065FA082004F059FAC0F30801074672
:1053700041F49841082004F05AFA04F0FFFA40067C
:10538000FBD5612004F001FB04F0F8FA4107FBD5DE
:10539000244B4FF480721A6080221A620E2004F0AF
:1053A0003DFA00F01F000F28F8D1DFF884800026B6
:1053B0002023BCB1D8F800205207FBD5A3429FBFE1
:1053C000DBB2E41AE5B21C460DEB0601204688BFAD
:1053D000002504F03FFA632004F0D7FA2644102396
:1053E0002C46E6E70E2004F019FA00F01F000F2803
:1053F000F8D10D4B4FF480721A60642004F0C5FAA6
:1054000004F0BCFA4307FBD4084B80221A603946EB
:10541000082004F00CFA41B0BDE8F08F50040010F1
:10542000A0A8000038C009203CC009205CC00920A9
:1054300054C0092008B547F6FF710D2004F0F7F9B4
:1054400042F62231122004F0F2F942F24B311420DC
:1054500004F0EDF940F60141202004F0E8F90B21B9
:10546000052004F0E4F94021032004F0E0F904F001
:1054700085FA4206FBD5612004F087FA04F07EFA33
:105480004307FBD5084B4FF480721A6080221A62E2
:105490000E2004F0C3F900F01F000F28F8D163209C
:1054A000BDE8084004F071BA38C00920F8B56B4C6B
:1054B0000023E3726A4B6B4A19681160A27A5AB9E9
:1054C000022004F0ABF9684BB3F84C309BB2013BBF
:1054D000984240F09480F8BDA27A012A3AD1624AFB
:1054E000624B10461D78624B624F1E784FF0080EDB
:1054F000B2F84C3020339BB2A2F84C30B2F84C30AA
:105500009BB2B3F51B6F81BFB2F84C304F3B9BB2DF
:10551000A2F84C30002D72D0002E70D0B0F84C3074
:10552000B0F84C109BB2A3F6621393FBFEF389B262
:1055300017F803C0504BA1F662110B40002BBEBF01
:1055400003F1FF3363F0070301334CFA03F3DB0786
:10555000CED554E0A27A052A35D1434A434B1046B2
:105560001D78444E0827B2F84C3020339BB2A2F885
:105570004C30B2F84C309BB2B3F51B6F81BFB2F820
:105580004C304F3B9BB2A2F84C304F2D37D0B0F887
:105590004C30B0F84C109BB2A3F6621393FBF7F3B8
:1055A00089B216F803E0344BA1F662110B40002BD0
:1055B000BEBF03F1FF3363F0070301334EFA03F379
:1055C000D907D0D41BE0A27A022A06D1186801F0CC
:1055D0006BFB254BA3F84C0011E0A37A032B06D1FB
:1055E000214D284601F032FCA5F84C0007E0A37AD3
:1055F000042B01BFA3891C4A9BB2A2F84C30642043
:1056000004F0C3F904F0BAF94207FBD4607C164DEC
:10561000C0B2B5F84C10022817BF01F1FF3189B2B2
:1056200089B2022004F003F9A37A23B1B5F84C0043
:1056300080B201F037FE612004F0A7F904F09EF972
:105640004307FBD501232374637C022B0CBF63202B
:105650006220BDE8F84004F098B900BF3C0B001090
:105660006413001040130010500400104913001080
:10567000E71700104B130010070000802DE9F74FCB
:105680004D4D10234D4F2B6001F01EFDB84604F028
:105690003DF801F0F7FE01F075FFFEF773FE01F033
:1056A00031FE474CA37CA246012B7BD110232B60FB
:1056B00001F080FDDFF80CB16FF07F063B68414AD6
:1056C000DFF820911BBB062004F0A8F89BF80030FF
:1056D00040F307205BB116F1800F08D13A4B93F9E4
:1056E00000603636B042B8BF304646B2304601F0B0
:1056F0007DFDD9F8000001F049FD9AF80B3013B197
:10570000FFF7D4FEDAE74FF480732B60D6E72F4B18
:1057100010212F4E196033681BB1637843F00203E8
:105720006370D8F80030012B82BF637843F0010327
:105730006370217C224B29B1597841F020015970C6
:1057400000211974234B0192B3F84C0080B201F090
:105750006DFD019A137813B91F4B1B782BB1637839
:1057600043F00803637000231370174B1B4A93F92F
:10577000003092F9002035339342B8BF63784FF080
:105780000000BCBF43F010036370154B1968FEF7AF
:10579000A5FED9F8000001F0F9FC0023C8F800309C
:1057A00033607EE7A37C082B80D001F00BFF03B0B1
:1057B000BDE8F04F01F0BEBD3CC00920441300100D
:1057C0003C0B00105D1800105C18001038C0092058
:1057D0005818001050040010B014001048130010A6
:1057E000C0140010641300102DE9F04385B0964BEF
:1057F0000027D3E90245002304F0010213434AF6CF
:10580000AA234FEAD57645F2555808BF9846002F8F
:1058100008BF012EE0B20CBFAA265526FEF794FD64
:105820008DF80000C4F30720FEF78EFD8DF801000F
:10583000C4F30740FEF788FD8DF80200200EFEF746
:1058400083FD8DF80300E8B2FEF77EFD8DF80400BD
:10585000C5F30720FEF778FD8DF80500C5F3074076
:10586000FEF772FD8DF80600280EFEF76DFD8DF82F
:1058700007003046FEF768FD8DF808007720FEF738
:1058800063FD8DF809006620FEF75EFD8DF80A00C5
:105890005520FEF759FD8DF80B004420FEF754FD0E
:1058A0008DF80C003320FEF74FFD8DF80D002220FF
:1058B000FEF74AFD8DF80E001120FEF745FD3C462F
:1058C0003B468DF80F0048FA03F2C3F10F0102F0D6
:1058D00001028A4001331443102BA4B2F3D147F6DE
:1058E000FF710D2003F0A3FF42F62231122003F0D6
:1058F0009EFF41F24B31142003F099FF40F6014125
:10590000202003F094FF21462C2003F090FF00217B
:105910002D2003F08CFF4D4B0220B3F84C104C4C63
:1059200089B203F084FF0B21052003F080FF237868
:105930000BB9292103E02378012B1DD1402103203D
:1059400003F075FF01F048FD04F018F84506FBD59B
:10595000612004F01AF804F011F84007FBD53D4B24
:1059600080221A600E2003F059FF00F01F000F285C
:10597000F8D1632004F009F81421232003F057FF25
:10598000082003F04BFF344EC0F30801074641F4F2
:105990009C41082003F04BFFB1460025A37C022B5D
:1059A00048D1DFF8C4806D0840F6C9033268B5EB12
:1059B000520F05D1E27A002AF8D0FFF777FDF3E71E
:1059C000D8F800209A42F5D9244B4FF48072D9F8C8
:1059D000005069461A60102003F03CFF0E2003F0CF
:1059E0001DFF00F01F000F28F8D11D4B4FF48072EF
:1059F0001A60642003F0C9FF03F0C0FF4107FBD425
:105A000003F0BCFF4206FBD5612003F0BEFF03F0AC
:105A1000B5FF4307FBD50E2003F000FF00F01F0089
:105A20000F28F8D1632003F0B0FF0B4B186801F08A
:105A3000ADFBB3E70B4B80221A603946082003F018
:105A4000F6FE05B0BDE8F0836018001050040010A9
:105A50003C0B001058C009206413001038C0092006
:105A60003CC009205CC009200840004008B50F4830
:105A7000FEF77CFC0E4B0F4A9A600F4ADA60002258
:105A80009A831A611A849A641A755A759A759A617A
:105A9000DA8383F822209A849A629A85DA8583F8D9
:105AA00030205A86054BDA7208BD00BFD6BE898EFB
:105AB0005004001055555500AAAAAA003C0B00102E
:105AC00010B5064C4FF4847200212046FEF792FB7D
:105AD0004FF0FF33C4F8003110BD00BFA813001011
:105AE0002DE9F84F6E4C0123804623706074FFF758
:105AF000BDFF6C4B4FF080726B4E1A606B4F1023E2
:105B0000336001F0E1FAB94603F000FE01F0BAFC9F
:105B100001F038FDFEF736FC01F0F4FB0025A37C14
:105B2000984540F0AB805E4BDB899BB2D3B16420DB
:105B300003F02BFF03F022FF4207FBD45C4B022053
:105B4000B3F84C10013989B203F071FE612003F003
:105B50001CFF03F013FF4307FBD5622003F015FF82
:105B60000023E381E37A13B1FFF7A0FC02E04FF4D6
:105B7000807333601023336001F01CFB6FF07F0BE8
:105B80003A68DFF84CA1D2B9DAF80020BAB9062099
:105B900003F044FE474A40F30720127862B11BF13C
:105BA000800F09D1444B93F9003036339842B8BF87
:105BB00018464FFA80FB584601F018FBE0E7DAF888
:105BC00000301BB1637843F002036370D9F80030F2
:105BD000002B5FD03B68012B82BF637843F0010349
:105BE0006370334BB3F84C0080B201F01FFB314AB5
:105BF000137813B9314B1B7833B16378022543F026
:105C000008036370002313702B4B2D4A93F9003067
:105C100092F900203533934205DA6378022543F088
:105C20001003637000E0ADB326494FF4C872A1F5CC
:105C3000C87004F063FD013DDFF88CB0DFF894E03C
:105C4000EDB2002303F132000BEBC0000021DEF8BF
:105C50000020D25CDEF800C0D20942541CF80320B8
:105C600001315200D2B208290CF80320EFD10133E0
:105C7000322BE7D1E36A1448984758B9134B4FF0D9
:105C800080721A60FEF776FC01F09CFCBDE8F84FCC
:105C900001F050BB0023C9F80030CAF800303EE7DD
:105CA0003C0B001000E100E03CC009204413001050
:105CB000500400105D1800105C180010B0140010A3
:105CC0004813001054160010C414001080E100E0C6
:105CD00058180010C01400102DE9F04F93B0A84DD3
:105CE000A84C01232B702375A74B4FF08072A74E51
:105CF00068741A6010233360814601F0E5F903F0FF
:105D000005FD01F003FC01F03DFC206803F09AFC66
:105D1000DFF880B2FEF78AFB0096AB7C994540F035
:105D2000A181974BDB899BB2CBB1642003F02DFEA0
:105D300003F024FE4107FBD4B4F84C1002200139D3
:105D400089B203F074FD612003F01FFE03F016FE1C
:105D50004207FBD5622003F018FE0023EB81009A76
:105D60001023136001F026FA8949854A894B1B6884
:105D700033B90B6823B9EB7A13B9937C9945F5D005
:105D8000062003F04BFD844B40F307201870834B33
:105D90007B4A1870AB7C994540F06481DFF8F0A134
:105DA000DAF8003057461BB1537843F002035370C2
:105DB000EB7A03F0FF01002B40F0A680DBF8003007
:105DC000002BAAD0342205A8FEF714FAB4F84C0030
:105DD000236880B2059301F009F830264643DFF8C6
:105DE000E88108EB060301936D4B18785A7893F815
:105DF00002E01204D97842EA0060084340EA0E202B
:105E0000029303F01FFC58F806607040C0F30526AB
:105E100006F10208B8F1270F069075DC0836B208C3
:105E20000B2A029B01D15F4A0BE05F4903EB82031F
:105E30000A689A4208D23A68002AF9D004E03B681E
:105E400013B91368DB07FAD4584A61201368042792
:105E500023F00103136003F098FD514A7B1CD05DD1
:105E600012F803C0BB1C12F803E0FB1CD35CB91092
:105E700043EA006040EA0C4040EA0E20039202919F
:105E800003F0E0FB029912AB03EB810E019B043798
:105E900053F821302C2F80EA03004EF8300C039A7F
:105EA000DCD12369DBB9424B10221A6005A8AB692B
:105EB0009847404B4FF080761E6005A90120FEF701
:105EC0000DFB40F63541304B1E603B4B1A683B4B97
:105ED000C2F313021B6801FB0233A36414E0294BD5
:105EE0004246D86806A901F005F812AB1E44984452
:105EF00016F8343C18F82F2C1B0443EA022318F838
:105F0000302C13439842CED0612003F03EFD274A47
:105F10002B491368183A23F001039361136858075B
:105F200001D50B68FAE740F63541234B1A68234B3D
:105F3000C2F313021B6801FB0233A16C227D8B426A
:105F400038BF03F14343A2F1020238BF03F5A003B7
:105F5000012A03D81B4A5B1A934202D8EB69012B32
:105F60004FD1FFF783FD00984FF480710023EB6160
:105F70000160E97C024A012928D1D374937471E04D
:105F80003C0B00105004001000E100E03CC0092070
:105F90005818001044130010481300104A13001042
:105FA0002518001010410050044100502400034007
:105FB00038C0092080E100E0641300100840004070
:105FC0000800034080F0FA028CA90000B9F10A0F22
:105FD00048D001236420237503F0D7FC03F0CEFCE6
:105FE0004207FBD4B4F850309BB223B1244BB3F832
:105FF00050309BB201E040F66213A4F84C3001230C
:106000002B63E1882C2003F012FCA1882D2003F0E3
:106010000EFCEB7A0BB1FFF749FAEB69194E002B36
:1060200005DDFFF707FAF369013BF36114E001F0C6
:106030006DFA01F0A7FA336B3BB1206803F002FB65
:10604000FEF7F4F90023336306E003F097FC4307FF
:10605000FBD5622003F099FC0023CBF80030CAF88E
:1060600000305AE6084B4FF080721A60FEF782FA51
:1060700001F0A8FA01F05EF913B0BDE8F08F00BF9F
:10608000500400103C0B001080E100E070B58EB0B1
:1060900015460C4606463222002101A8FEF7AAF852
:1060A000312D2A46214628BF31220DF105008DF8F9
:1060B000046004F023FB01A90520FEF70FFA0EB0DF
:1060C00070BD000038B540F664123248324CB0F86A
:1060D0004C309BB293420DD140F635412F4B1A689C
:1060E0002F4BC2F313021B6801FB0233636340F6BC
:1060F000661349E040F66611B0F84C309BB28B4213
:1061000044D140F63541254BC08B1A68244BC2F36D
:1061100013021B6801FB0233626B1E4993423CBFB2
:1061200003F1434303F5A0039B1A41F66A0202FB05
:10613000003343F2D4024243B3FBF2F3242B21D8C1
:10614000184A4008134493F86C3825258B750133A1
:10615000888393FBF5F005FB103300224B75032079
:10616000114B0A848A61E2720A61087501221631B4
:10617000A361A072FFF78AFFE37C53B1064B28228C
:10618000DA6138BD40F66413A38100E0A2810123E7
:10619000E37238BD500400103C0B00106413001073
:1061A00008400040A0A800003547000038B540F680
:1061B0003544244B244A1B681268C3F3130304FBC1
:1061C000032446F2A712214DAB6B9C423EBF04F163
:1061D0004344A4F56514A4F5A254E31A934230D9BC
:1061E0001B4A1B48D2F800118B4238BFC2F800315D
:1061F000D2F80031174A03F5613303F25233B3FB8F
:10620000F2F315499BB2CA8B9A4215D1D0F80431EA
:106210000133052BC0F8043112D1104B0222AB61BF
:1062200040F66413AB810423AB721E310123104688
:10623000EB72FFF72BFF03E0CB830023C0F80431A0
:10624000AC6338BD64130010084000403C0B0010E4
:10625000A8130010A40E070050040010C560000031
:1062600070B5184D2B695BBB0379012B28D144799C
:1062700034BBC379027A86791B0243EA0243011DCB
:10628000022243EA060000F00BFE23462246A860E5
:1062900020FA02F1C2F1170401F001010132A1401C
:1062A000182A43EA0103F3D1EB60074A074B0120A8
:1062B00028619A6106490322BDE87040FFF7E6BEF7
:1062C00070BD00BF50040010AD6100003C0B001019
:1062D0005804001030B51349002351F8332001EB66
:1062E000C30482420F4A03D163680133636030BD47
:1062F0000133202BF1D14FF0FF310C46002302EB8C
:10630000C3056D68A54201DB002C01DA19462C4655
:106310000133202BF3D142F83100012302EBC102FB
:10632000536030BDA81300102DE9F04F95B0402206
:106330008046002104A8FDF75DFF654D0123DFF8CD
:1063400094918DF810308DF820308DF823308DF831
:1063500030308DF832308DF840308DF842308DF885
:1063600043300024B5F84C00594F80B200F03EFD98
:10637000584E04A919F80030002208194FF07F0E7A
:10638000F11810F802C091F8281001338CEA0101CD
:106390008154B3FBFEF10132C1EBC111102AA3EB12
:1063A0000103EDD11034402CDCD1DFF840912024E2
:1063B0004D46494BEE460FCB8DE80F0000239C461F
:1063C00008EB040004AA02EB0311002210F802B04B
:1063D00011F802A0D34502D04EF823C002E00132EA
:1063E000102AF3D10133042BECD100235EF82320D3
:1063F0001AB90133042BF9D144E0B7F84C004FF03F
:106400007F0A80B200F0F2FC325C00204FF0000CFA
:10641000E64604EBC00B0EEB0B034344032813F8D2
:10642000203C09DDB11891F8281001324B40B2FB35
:10643000FAF1C1EBC111521A03FA0EF30EF1010E7B
:1064400043EA0C0CBEF1080F5FFA8CFCE3D1D9F8DB
:10645000003003F800C001300A28D7D12B68DB7860
:106460002A689278296812044878296842EA036306
:1064700009780B4343EA0020FFF72CFF296801202D
:10648000FEF72CF80134B4F53C7F92D1134A002377
:1064900002EBC3014968032912DD104A002452F8B7
:1064A0003300FDF763FF0E4B0E4A2046DA620E4AB8
:1064B00007499A6104223C61FFF7E8FD204603E0AA
:1064C0000133202BE4D1012015B0BDE8F08F00BFCF
:1064D00050040010A0A8000034B10000A813001060
:1064E0003C0B00102546000061620000C014001043
:1064F0002DE9F041194D1A4E2F46AB7C0A2B2BD1BA
:10650000FFF7DEFAB6F84C30DFF8548013F0010FD5
:106510001CBF40F68813A6F84C30D8F844304BB96D
:10652000B6F84C0080B200F0BDFE0E4B0A20FB62B4
:10653000FFF7D6FABC7CE4B20A2C0DD1042208493C
:106540000020FFF7A3FD084B2046AB610023C8F8ED
:106550001030FFF7C1FBD0E7BDE8F0813C0B001025
:1065600050040010296300006162000070B588B01B
:10657000202200216846FDF73DFE284B9A6D1E46FD
:10658000FF2A03D9264B00229A7444E0D5B2AB1DF2
:1065900008A9244C01F81F3D0523185D13F1FF33B2
:1065A00001F8010FF9D2204902A804F0A7F805F17B
:1065B0000802D4B222466946F06800F056FC08ABE7
:1065C0001A191A4C030A264602F8200C000C02F88D
:1065D0001F3C02F81E0C00F0FFFE154B4FF08072BE
:1065E0001A600F4B9B7C0C2B11D105F10B016A46F5
:1065F000C9B21048FEF750FE236823F07F4303F52D
:10660000A073326822F07F429342FAD8E9E70A4B3E
:106610004FF080721A6008B070BD00BF50040010C7
:106620003C0B00105C0B0010AC0400106413001055
:1066300000E100E0D6BE898E80E100E0F0B58BB0CD
:106640002D2003F0EBF8030A8DF805002C208DF8BF
:10665000043003F0E3F8030A8DF806308DF80700E4
:1066600000F032FD00F0B8FE03F088F94106FBD5DA
:10667000612003F08AF903F081F94207FBD5144B3E
:1066800010221C461A60134A80211160124F4FF4E9
:106690008071124E116002250E2003F0BFF800F049
:1066A0001F000F28F8D1622003F06FF93D6003F05E
:1066B00065F9C306FBD502A92560202003F014F973
:1066C00001A90020FDF70AFF306800F05FFDE3E755
:1066D00038C0092058C009203CC0092064130010AC
:1066E00008B5202003F09AF808B1FFF7A7FF034B85
:1066F00003221A70BDE80840FEF7C0BF3C0B001033
:106700002DE9F041354D10232D206E7C6B7403F084
:1067100085F880462C2003F081F8314C074621880B
:106720002D2003F084F861882C2003F080F8572195
:10673000032003F07CF841F24B31142003F077F88A
:1067400040F66171202003F072F8A188022003F066
:106750006EF8E1790520F6B203F069F803F00EF95E
:106760004106FBD5612003F010F903F007F9420759
:10677000FBD51C4B4FF480721A6080221A620E20E7
:1067800003F04CF800F01F000F28F8D1A07916494B
:1067900003F060F8632003F0F8F80E2003F03EF8F1
:1067A00000F01F000F28F8D1104B4FF480721A60D0
:1067B000642003F0EAF803F0E1F84307FBD40C4B44
:1067C00080221A6041462D2003F031F839462C20F2
:1067D00003F02DF8AE74BDE8F08100BF3C0B001053
:1067E0006813001038C00920701300103CC0092045
:1067F0005CC009202DE9F04F8FB03F4B10221A608A
:1068000000F062FC00F0E8FD3C4B80221A6042F68A
:106810002231122003F00BF841F24B31142003F027
:1068200006F840F20111202003F001F8292103208D
:1068300002F0FDFF03F0A2F84106FBD503F09EF83D
:1068400000F0040000F0FF040028F7D1DFF8B48066
:10685000DFF8B490C24699F81230042B46D1B8F84C
:106860005250DFF8A8B0ADB2BAF854309BB2AB4288
:10687000F1DB691E022089B202F0D9FF612003F02A
:1068800084F803F07BF84207FBD5622003F07DF823
:106890004FF4FA730093009E013E0096002EFAD149
:1068A00004EB44070EAB1F4406202B0A07F8343CC8
:1068B00007F8335C02F0B2FF0134E4B2000A102C96
:1068C00007F8320C08D101A90420FDF707FEDBF818
:1068D000000000F05BFC3446642003F056F803F03F
:1068E0004DF84307FBD40135ADB2BDE7044B102290
:1068F0001A600FB0BDE8F08F38C0092058C00920D9
:106900003CC00920500400103C0B00106413001020
:10691000F0B585B0434B802218689B880290ADF893
:106920000C30414B42F622311A60122002F07FFFF8
:1069300041F24B31142002F07AFF40F20111202085
:1069400002F075FF2921032002F071FFF1210620DA
:1069500002F06DFF03F012F84106FBD503F00EF8CC
:1069600000F0040000F0FF040028F7D12F4F304D55
:10697000304EBB7C072B53D104AB03EB440333F8FD
:10698000081C0220013989B202F051FF612002F097
:10699000FCFF02F0F3FF4207FBD5622002F0F5FF97
:1069A0004FF4FA730193019B013B0193002BFAD141
:1069B000062002F033FF204B40F3072093F85630B7
:1069C0005BB298420CDD012C07D003D3022C13D10B
:1069D000346011E04FF4807300E0102333600BE06B
:1069E000012C07D003D3022C06D12C6004E04FF415
:1069F000807300E010232B600134032394FBF3F336
:106A000003EB4303E41A0D4BE4B2186800F0BEFB3D
:106A1000642002F0BAFF02F0B1FF4307FBD4A8E7FD
:106A200005B0F0BD44B1000058C009203C0B001077
:106A30003CC0092038C00920500400106413001025
:106A400008B53F4B4FF4E0221A6003F05FF800F006
:106A5000C9FC3C4800F012FB3B4DFDF78BFD00F0FC
:106A6000DFFC002002F07EF83849394802F0D6F801
:106A70002C46384E306800F089FBAA7C6B7C9A4229
:106A8000F8D0AB7C112BF5D8DFE803F056111628AF
:106A90003D2F37401B1D220925430F494E51012030
:106AA00002F0EAFD03F03CF8E4E70E2300E00123E6
:106AB0006374FEF7E3FDDDE702236374FEF794FEE3
:106AC000D8E70823F4E70923637401F01DF9D1E73F
:106AD000FFF70EFDCEE7FFF749FDCBE703231E4985
:106AE0001948637401F044FDC4E705231A48637430
:106AF00001F032FB0023A374BCE70623164863743D
:106B000001F078FCB6E7FFF775FEB3E7FFF700FF8B
:106B1000B0E70D236374207D01F0BCFFAAE70F23CB
:106B20006374FFF7DDFDA5E7FFF7EAFDA2E7112398
:106B3000637402F06FFC9DE7FDF71CFD9AE700BF50
:106B400024ED00E0A54800003C0B001047A9000020
:106B500055B10000641300109C0400102DE9F043AF
:106B6000464B474A002000211B68464DC2E9000100
:106B70004F240022500090FBF4F104FB1101515509
:106B800001324F2A3F48F5D13F4AC3F3C451117037
:106B9000C3F30715C3F3C7043C4AC3F3C34105F06D
:106BA000100704F0080611703E44C3F3870103F098
:106BB000010EC3F34702764401F00407374402F0A4
:106BC00002063E44324F05F008053E70314EC3F3D5
:106BD00088273780DE0906F040079E0906F0200668
:106BE0005B093E4403F0100333442B4404F00404D7
:106BF000234401F00201194402F00102264B0A4429
:106C00001A70264B1B78002B36D000221346DFF873
:106C100090E012F80E40224E0025002154EA050CA7
:106C2000CFB201F1010108D014F1FF3845F1FF396D
:106C300004EA080405EA0905F0E701323B440A2AA0
:106C4000DBB2E6D1174A4F2513700023194693FB98
:106C5000F5F205FB1232D7B2FC08345D02F00702F0
:106C600044FA02F2D20748BF4A1C03F1020344BFB0
:106C70004754D1B29E2BEAD1BDE8F08360180010D2
:106C8000B8140010C5180010C318001070180010B8
:106C9000C41800107218001014190010E717001023
:106CA0004B13001049130010F0B587B0C0F3D8059E
:106CB0004F2325F00F05B5FBF3F403FB1454404BB1
:106CC000C0F340021B78510183EA104303F01F0315
:106CD0008A1A5A403B4B8EB21B783B4983EA505389
:106CE000097803EB90034B4003F01F01374B02AFD1
:106CF0001B8883EAD010C0F30800002340FA03FE8B
:106D00000EF0010E03F807E00133092BF6D1002342
:106D100007EB030E42FA03F0013300F00100052BEC
:106D20008EF80900F4D1002341FA03F202F00102C7
:106D30000DF803200133052BF6D125480D217B5C8E
:106D40007BB10A5C06AB1A44224B0DF1180CCB5CEC
:106D500012F818EC634413F818CC02F818CC03F8B6
:106D600018EC11F1FF31EAD2002213461DF803108E
:106D7000994001330A44052BD2B2F7D1164B4F206C
:106D80001978A31911440B44B3FBF0F200FB123342
:106D9000124AD05C124B1B786BB1124B1B78B5FBBF
:106DA000F3F203FB125232440A44B2FBF3F103FB49
:106DB00011220D4B985C00F6621007B0F0BD00BFC9
:106DC000C4180010C31800107018001072180010BA
:106DD00072B1000080B1000014190010C518001035
:106DE000E717001049130010741800100223A0F6D2
:106DF000621090FBF3F083B253B10B2B01D8013832
:106E000004E00C2B06D0262B06D80238C0B27047FF
:106E10002520704726207047272070470A2803D86E
:106E2000400000F664107047242803D8400000F6A4
:106E300066107047252806D0262840F67A1018BF1D
:106E40004FF41B60704740F66210704710B5437DE9
:106E500002461846FFF7E2FF917D25240B4493FB81
:106E6000F4F104FB1133537510BD70B50B4620F0DF
:106E70007F405C1A944212DA13F8015B082485EA19
:106E8000000616F0010F4FEA50001CBF80F45A00B4
:106E900080F4C040013C4FEA5505F0D1E9E770BDF0
:106EA00070B5013A002A14DB8E5C0724C50D400042
:106EB00020F07F4346FA04F000F0010068401843D8
:106EC0001DB180F4340080F4404014F1FF34EDD261
:106ED000E7E70023194620FA03F2C3F1170402F092
:106EE00001020133A240182B41EA0201F3D1084606
:106EF00070BD000030B50C46074D20F07F40631A8E
:106F00009A4208DD14F8013B4340DBB255F82330C8
:106F100083EA1020F3E730BDAC050010F8B5054654
:106F200090B2FFF763FF144E2944345C28464FF0BB
:106F30007F0E81421ED000231D460778C5F107024F
:106F400006EB040C9CF828C047FA02F2013402F068
:106F500001028CEA0202B4FBFEFCAA400135CCEB34
:106F6000CC1C1343082DCCEB0404DBB2E6D100F8B3
:106F7000013BDEE7F8BD00BF8EB10000F8B50C465E
:106F80000546C02200212046FDF734F90127681E7E
:106F90000023043510F8012F03F1080612F0010157
:106FA0001BBF44F82370D4F8BC1044F8231004EB42
:106FB000010E1CBF8EF89430013103F1010318BF9C
:106FC000C4F8BC10252B4FEA520202D09E42E5D1F4
:106FD00000E01E46A84201D03346DBE7F8BD51F879
:106FE000203043B9D1F8BC20B0FBF2F302FB130010
:106FF000014491F89400704713B543881268ADF8C6
:1070000000308388ADF80230C3884078ADF8043092
:10701000044B1C680B466946A047431E5842584122
:1070200002B010BD1C3A001070B586B06946044627
:1070300001A802F0ABFD9DF80410E1B90E46204610
:107040000DF10505403415F8013B80F87D101A0953
:10705000092A03F00F038CBF57323032092B8CBF43
:107060005733303380F87C2080F87E3080F87F60A2
:107070000430A042E7D106B070BD000038B5054627
:107080000C4C02F05BFE2046FFF7CEFF204603F0DB
:1070900093F8094B094A0A4902201D6002F044FE98
:1070A0000849FF2003F072F8012002F0E0FE002002
:1070B00038BD00BFAC0900101C3A00101839001090
:1070C000F96F000035B20000044B00214FF400526C
:1070D000034819605960FDF78DB800BF780B0010A8
:1070E000181900100A4B1968586801F07F0100F068
:1070F0007F00421C02F07F0291421FBF5A6801329A
:107100005A60044B14BF03EB80100020704700BF8F
:10711000780B001018190010084B18685A6800F016
:107120007F0002F07F0290421FBF1A6801321A608E
:10713000034B14BF03EB801000207047780B001046
:107140001819001037B50546FFF7E6FF0D4B04464A
:1071500038B10146402282209D6002F0B9FE012034
:107160000EE09A680849AA1A8A4208D9032202A99D
:1071700001F8012D822001229D6002F0A9FE204627
:1071800003B030BD780B0010801A060038B50446F5
:10719000822002F077FE8206054602D42046FFF7E1
:1071A000D1FF6B0602D42046FFF7CCFFBDE8384084
:1071B00002F0F6BE08B59E2200210748FDF71AF836
:1071C000064A00231370064A1360064B80221A7089
:1071D000054B7F221A7008BD840B0010E6170010C3
:1071E000203A0010481300104A1300100B4A92F97D
:1071F00000308342B8BF03461370094A92F9003049
:107200008342A8BF03461370064A136803EB0023AA
:107210001360054A13780133137070474813001048
:107220004A130010203A0010E617001010B540F67F
:107230006213B0F51B6F38BF18460D4BA0F66210F5
:107240001B7823B10B4A1268803292FBF3F30A4990
:1072500003EB430331F91020FD2404FB02334FF408
:107260008072803393FBF2F321F8103010BD00BF21
:10727000E6170010203A0010840B001040F662134D
:10728000B0F51B6F38BF1846054BA0F6621033F9F6
:1072900010004FF48073803090FBF3F040B27047E1
:1072A000840B001010B5144C94F90030002B05DD50
:1072B000FFF7E4FF2378363B184443B26FF07704BE
:1072C000A342B8BF23466FF013029342A8BF1346F0
:1072D0001C4603F1380141F00301C9B2062002F057
:1072E000A6FA064B14F1770F1C70054BACBF0024B7
:1072F00001241C7010BD00BFE81700105C180010BE
:10730000B0140010074B00221A70074B4FF4001204
:107310001A60064B04221A60054A136843F00403FE
:10732000136070475D18001000E100E0AC8002407F
:10733000B4800240074A136823F004031360064B2D
:1073400004221A60054B4FF400121A60044B00220D
:107350001A707047B4800240AC80024080E100E0C7
:107360005D18001008B5FFF7E5FF044B00221A7006
:10737000034A88231370034A137008BDB014001029
:10738000E81700105C1800100A4B02221A600A4A23
:1073900000231360094A1360094A1360094A1380E5
:1073A000094A1380094A1380094A1360094A136085
:1073B000704700BF044000406413001040130010E9
:1073C00058130010B2140010E417001060130010DE
:1073D0005C1300101C180010014B01221A6070474A
:1073E0000440004008B5FFF7CFFF064B04221A60A7
:1073F00040F63442DA6003229A60034B02221A609C
:1074000008BD00BF0C40004000E100E008B5FFF7F8
:10741000BBFF024B02221A6008BD00BF80E100E002
:10742000134A136843F000531360124A136843F47D
:1074300078031360104B4FF080621A600F4A0023EC
:107440001360136213641366C2F88030C2F8A03070
:10745000C2F8C030C2F8E030FF23A2F58472136096
:107460009360074B01221A601A68D207FCD5704757
:10747000C4C00F4018E400E000E100E010410050FB
:107480003040005030B5144A012313601348936014
:10749000134C144B144A1549146093605160D0602A
:1074A0009A60134D134A5D601C60D860146051608F
:1074B00093604DF20602104B186010485A6000228B
:1074C00002600F4802600F4A11600F4A15605A6847
:1074D00042F001025A6030BD0840005032900088EE
:1074E00008000340D43A0010E43A001025180010B8
:1074F000E9170010004100500C41005044130010E7
:1075000058180010A4130010C014001030B5154A0C
:1075100001231360144D9360144C154B1549002240
:1075200004EB82000A2A43F80C0C18BF184602F13B
:10753000010208BF00200B2A43F8105C03E9030096
:1075400003F11003ECD10C4B0C4A19681160596817
:10755000516099689160DA68094B1A604DF2060231
:107560005A6030BD08400050080003402518001044
:10757000343A001004100088243A001000410050F2
:107580000C4100500B4B0C494FF080521A600B68B5
:1075900043F001030B6051F8203C43F0020341F833
:1075A000203C06490B6843F001030B60044B1A6052
:1075B000704700BF98C009202400034010410050CC
:1075C0009CC009200B4B4FF080521A600A4A136886
:1075D00023F00103136052F8203C23F0020342F829
:1075E000203C064B00221A60054A01231360936079
:1075F000704700BF98C0092024000340104100508C
:107600000840005030B50C4B0C490D4A0D4803F1B1
:1076100010044D1CDA60186059609C601861DA61D2
:107620005D619B61084B186059609C60DA604DF2A7
:1076300006021A6130BD00BF240C0010343B00105C
:10764000010000800800034000410050034B044A41
:107650001860136843F001031360704718800040FE
:1076600014800040054B064A1B681E33136052F815
:107670000C3C43F0400342F80C3C7047088000404B
:1076800020800040064B074A1B6803F57A7313609D
:1076900052F8103C43F4007342F8103C704700BFAE
:1076A000088000402480004030B500242346014477
:1076B000934205D0CD5CD80085402C430133F7E7D9
:1076C000204630BD10B5084A431E053013F8014F5F
:1076D000D179214012F8014F8C4203D18342F5D178
:1076E000012010BD002010BD8704001010B5054C0E
:1076F0004FF4E472002104F12000FCF77BFD024B03
:10770000236210BD240C0010D6BE898E70B51448BB
:1077100000214FF4927404FB01F3C518D5F8182129
:10772000BAB1104C00261C44C4F80063C4F8F062DF
:10773000C4F8EC624FF4827231462846FCF75AFDD9
:107740007F2384F80433802384F80533C4F8086366
:1077500003E001310429DED11546284670BD00BF83
:107760000C0E0010240C001010B51B4B186A01F011
:1077700069FF044647F6FE710D2002F058F842F604
:107780002231122002F053F841F24B21142002F072
:107790004EF844F2E141202002F049F8A1B22C2039
:1077A00002F045F8210C2D2002F041F80B4B02208D
:1077B0001988013989B202F03AF84021032002F019
:1077C00036F802F0DBF84306FBD5612002F0DDF865
:1077D000BDE81040FFF746BF240C0010243B00100A
:1077E00070B5642002F0D1F8284A13681C3A23F0DF
:1077F0000103D361264B1C6814F0040401D0116806
:10780000F9E7244D4FF48272D5F878662146C6F820
:107810000841C6F804413046FCF7ECFC7F2386F8AB
:107820001C31802386F81D31C6F82041FFF7EAFE9F
:10783000FFF7A8FE2A6A184B9A420ED140F67A1238
:10784000164B1B889BB2934205D0B3F51B6F0CBF40
:107850002720252012E0262010E095F82C0095F82E
:107860002D302522184490FBF2F302FB130005F1A2
:107870004001C0B285F82C00FFF7B1FBFFF7CEFA4C
:10788000BDE87040064B1880FFF76EBF2400034030
:107890000C000340240C0010D6BE898EA0040010FA
:1078A000243B001038B52B4A2B4B5468022C01D1D5
:1078B00010680EE0012C3AD1D3F80411002936D01B
:1078C000D3F80051196B106829441E31091A3B295D
:1078D0002DD80121C3F80001C3F804111F4814B1C9
:1078E0000168C3F80811002151609160B3F80C21C0
:1078F000194C0132A3F80C210268D3F808015B6B24
:10790000121A9A4203D8164B1A6832B11960FFF75F
:10791000EDFEBDE83840FFF763BFD4F80001236BEC
:107920001844A0F6B830BDE83840FFF78FBED3F852
:107930000401094930B1D1F80051086B2844C1F85D
:107940000001CBE71068C1F8000104480068C1F8E5
:107950000801C3E7283B0010240C001008800040F9
:10796000640B0010F8B56C4D6C4B2F681B68DE077C
:1079700040F1D0806A4B1B68DC0740F1C480694E3F
:1079800001233360062001F049FF674C40F30720D4
:10799000D4F8783693F91C21D3F82011824293F958
:1079A0001D21C8BF83F81C018242D3F8082101447D
:1079B000B8BF83F81D015D48C3F8201102F0010132
:1079C000415C99540132012AC3F8082118D1584961
:1079D000A7F5C872C3F80C210A88088892B2C3F8C8
:1079E0001021226A80B2C3F81421FFF7FFF924287E
:1079F00000F289804F4A136823F00103136082E08C
:107A0000022A2ED1B3F810015D78FFF7EFF94A4A48
:107A10007F27115C96460831B1FBF7F3C3EBC31324
:107A2000C91A00231E46C6F107020EEB010090F8AA
:107A3000280045FA02F2013102F001024240B1FB96
:107A4000F7F0B2400136C0EBC0101343082EA1EB93
:107A50000001DBB2E7D1D4F878260533C2F804314F
:107A600051E050D9D3F804319A424CD3612001F04F
:107A70008CFF324B00221A60314A012333601368B5
:107A8000304923F001031360183A1368580701D5F1
:107A90000B68FAE72C4B4FF080621A60D4F8781626
:107AA0002A4800F03BFB224B1F4E188880B2FFF79C
:107AB0009DF924281DD8264A53680133012B5360B1
:107AC0000AD1D6F87836D3F80C311360286800F65E
:107AD000B830FFF7BBFD0CE0022B0AD1642001F0A7
:107AE00054FFFFF713FEC6F87806BDE8F840FFF72D
:107AF000D9BEFFF70BFEC4F8780610B9FFF7C2FD38
:107B000001E0FFF7AFFD134B1B68DB0742BF124BD1
:107B100001221A60F8BD00BF0880004000400050FC
:107B20000440005008400050240C0010343B00106A
:107B3000243B0010148000405CB200001041005053
:107B4000240003400800034080E100E0F43A001004
:107B5000283B00100C4000501040005038B5624BDC
:107B60001A68D5075FD5614A0121D2F81001196062
:107B70005F4D134690B3B2F80C41B2F81C01844239
:107B80002CD1A86860B9D06B50B1D2F80031034451
:107B9000106BA3F6B8331844FFF758FDA96038BD41
:107BA0000122AA600022D3F81401C3F80421C3F80B
:107BB0001021D3F80021D3F818110244186302F5FC
:107BC000A542D86B5963503293F8383010441844AA
:107BD000FFF73CFDBDE83840FFF702BED3F8203187
:107BE000424C7BB1B4F80C21B4F824319A4209D14B
:107BF000C02204F5947104F1400002F07FFD0023DF
:107C0000C4F82031AB6863B9394B01229A60394B13
:107C1000186800F5BD400830FFF718FDFFF7E0FDDC
:107C200001E0FFF73FFE304B1A6894070DD532494B
:107C300002221A600B6823F008030B602F4B4FF4ED
:107C400080711960102119601A60274B1A6850075B
:107C50001ED504221A6001F091FE410716D5FFF7E8
:107C6000D1FCFFF78FFC264B4FF080621A60622038
:107C700001F08BFE234B80221A604FF480721A6051
:107C80001D4A136823F04003136001E0FFF7EAFC8C
:107C9000154B1A68120725D508221A60FFF736FD22
:107CA000124BC3F8780618B9BDE83840FFF7EABCB4
:107CB00001F064FE430711D5FFF7A4FCFFF762FC57
:107CC0000F4B4FF080621A60622001F05EFE0D4B98
:107CD00080221A604FF480721A6038BDBDE83840C7
:107CE000FFF7C0BC38BD00BF00800040240C00106E
:107CF000283B001008800040148000403CC0092050
:107D000000E100E058C009202DE9F04F87B0C14FD5
:107D10004FF08073C04C3B60FFF778FB0125BF4EEE
:107D2000BF48C4F80053C4F82454C4F84855C4F8F4
:107D30006C5600F0EFF90223BA4A33600423136053
:107D4000B94A35601360FFF7E1FCDFF81483B74BE5
:107D5000C1461B88B64A9BB21380B64BC4F878065E
:107D60002362FFF7B1F901F0D1FCFFF74BFCFFF7FD
:107D700009FCFFF7F9FCB04B00221A60009701964E
:107D80000293AE4B1B78092B40F0928006A900238A
:107D900041F8043DA24800F0CFF9002800F08480AB
:107DA0000598A74ED0F81021D0F80411FFF7B6F8C7
:107DB000736C43B3059DB5F81001FFF717F824283D
:107DC00021D92B7803F00F02062A69D801239340AA
:107DD00013F0550F03D113F02A0F06D160E0D5F848
:107DE0000431072B5CD9A81C09E0D5F804310D2B10
:107DF00056D9A81CFFF766FC28B905F10800FFF763
:107E000061FC00284CD08F4A102313608E4B8F4AA0
:107E10001B68059F03F5C333A0331360D8F8003007
:107E200043F00803C8F80030FFF75CF9054650B38B
:107E30004FF0000A01232B7085F803A0D7F80C310E
:107E400007F58A716B60D7F8103105F10E00623BBF
:107E5000AB70D7F80421D7F82031B3FBF2F3AB7243
:107E600097F91C3104226B7297F91D3185F80BA02C
:107E70002B7202F043FC2E22394605F1120002F06B
:107E80003DFC85F801A0059DB5F81001FEF7AEFF99
:107E90002428297840F2AF8001F00F01052919D07C
:107EA000059B0122C3F818210020FFF76FF968E74E
:107EB000019B009902221A6004230B60644B10217D
:107EC00019604FF4807119601A60FFF78BFA07B0E0
:107ED000BDE8F08F736B002BE2D0D5F80431272B6F
:107EE000DED1029B1B6813B1534B00221A6004229F
:107EF0000E212846FFF7D8FB0322122120622846D4
:107F0000FFF7D2FB606201F09DFB0122A062152108
:107F10002846FFF7C9FB022284F838001621834661
:107F20002846FFF7C1FB0222E0631821824628465B
:107F3000FFF7BAFB0222064620631C212846FFF702
:107F4000B3FB01226063039023212846FFF7ACFBBB
:107F500040F67A42B11F00F01F0091422E4F84F884
:107F60002D0045D843F2D4014E4301FB0AF296425C
:107F70003E63FA633CD343F2D3025FFA8BFB01FB0F
:107F80000BFB934534DD334AA6F54356143E964227
:107F900028BF16465E452BD3039B53432E4A7B6373
:107FA000A3F57423A3F51073934221D807F1400180
:107FB00005F11E00FEF7E2FFD7F8FC30C3B1D9F897
:107FC0000030002223F04003C9F80030234BD5F8DD
:107FD0000C015A609A60FB6BD5F80421034403F549
:107FE0001A532C33502000FB0230FFF72FFB57E7CA
:107FF000FFF77CFB54E701F0030103297FF450AF46
:108000006F78002F3FF44CAFAB785BB3012B6CD093
:1080100046E700BF80E100E0240C0010048000402F
:10802000F43A00100C80004000E100E0A0040010D1
:10803000243B0010D6BE898E640B00104E0B00103E
:108040005004001038C00920088000401C80004007
:108050003CC00920A0860100C08D0313283B0010FE
:10806000148000400C2F7FF41BAF01222846FFF73D
:108070001BFB0222C6B20421284684F83860FFF7B1
:1080800013FB02228246E06306212846FFF70CFB21
:108090000222C4F8140103900A212846FFF704FBCA
:1080A00002228346C4F8180139462846FFF7FCFA35
:1080B00006EB460206EB820206EB820643F2D4028E
:1080C000039B02FB0AF15343C4F814310F4BB60073
:1080D00003FB0BF3C4F818310123A4F81C0184F846
:1080E0003860E163C4F81031DAE6082F7FF4D8AEC7
:1080F000394602222846C4F82031FFF7D5FA044950
:10810000A4F82401E81CFEF739FFC9E6A0860100A7
:108110004C0D001000238362C3627047C36A826AF9
:1081200001330A2B28BF002393421DBF40F82310C0
:10813000C362012000207047836AC26A934209D05B
:1081400001330A2B28BF002350F823200A608362E2
:1081500001207047002070472DE9F04798B000AF2C
:10816000152387F83030002387F831303A23BB607D
:108170009A4B82461B6807F11C0107F10800C7F8FB
:1081800004D098473B7F002B40F023813B6A42F6A6
:1081900022311A0E87F832201A0C87F8332087F81C
:1081A00035301A0A7B6A87F834201A0E87F8362091
:1081B0001A0C87F8372087F839301A0ABB6A87F813
:1081C00038201A0E87F83A201A0C87F83B2087F8D7
:1081D0003D301A0AFB6A87F83C201A0E87F83E20C9
:1081E0001A0C87F83F2087F841301A0A1220FF2323
:1081F00087F8402087F8443087F8453001F017FBB6
:1082000041F24B31142001F012FB40F6F1512020D5
:1082100001F00DFBBAF80010022089B201F007FB53
:108220004FF6AE112D2001F002FB41F284512C20BB
:1082300001F0FDFA0821052001F0F9FA29210320B7
:1082400001F0F5FA01F09AFB4306FBD5612001F03D
:108250009CFB01F093FB4607FBD5614B4FF480720A
:1082600098461A605F4A80211160002407F13006A9
:10827000E5B245F00801052001F0D9FA87F842502F
:10828000002587F843500E2001F0C8FA00F01F00C7
:108290000F28F8D14FF0000916F80910702009F1E5
:1082A000010901F0D2FAB9F1160FF5D163200135B9
:1082B00001F06BFB102DE4D10134082CD8D10E2035
:1082C00001F0ACFA00F01F000F28F8D1464C4FF433
:1082D00080732360642001F058FB01F04FFB4507D9
:1082E000FBD4BAF800100220013989B201F09FFADC
:1082F00001F044FB4006FBD5612001F046FB01F094
:108300003DFB4107FBD51023C8F8003007F14805B5
:108310000E2001F083FA00F01F000F28F8D1622030
:1083200001F033FB01F02AFBC206FBD50223C8F89B
:1083300000304FF00009702001F07EFA05F80900C6
:1083400009F10109B9F1160FF5D101F017FB030787
:1083500002D402232360DBE70E2001F05FFA00F075
:108360001F000F28F8D1642001F00FFB01F006FB7D
:1083700000F0040303F0FF00002BF7D11B4B802219
:108380001A601023236097F85A10194B0122597074
:1083900097F85B101A70997097F85C1087F8312085
:1083A000D97097F85D101971014615F801C016F8DB
:1083B00001E0F44518BF8A1C01F101011CBFD2B2D3
:1083C00001201229F1D100B11A7002232360D7F8DD
:1083D00004D06037BD46BDE8F08700BF9CB3000005
:1083E00038C0092058C009203CC009205CC00920C1
:1083F000201800102DE9F04F87B0DFF870A18146FA
:10840000D346022542F62231122001F010FA41F241
:108410004B31142001F00BFAB9F800100220013999
:1084200089B201F004FA4FF6AE112D2001F0FFF9E8
:1084300041F284512C2001F0FAF90821052001F0C5
:10844000F6F92921032001F0F2F901F097FA41062B
:10845000FBD5612001F099FA01F090FA4207FBD5B3
:10846000404C10232746CAF800304FF48073236035
:108470003D4B802225601A600E2001F0CFF900F0FC
:108480001F000F28F8D13D60622001F07EFA01F054
:1084900075FAC306FBD5CBF800500026702001F01A
:1084A000CBF90DF806000136162EF7D101F066FA69
:1084B0000607E1D5102325606420236001F065FAEA
:1084C00001F05CFA4007FBD401F058FA4106FBD5F5
:1084D000B9F80010022089B201F0A9F901F04EFAB2
:1084E0004206FBD5612001F050FA4FF48073CBF8BF
:1084F000003015238DF8003001238DF8013000265F
:10850000F7B247F00801052001F091F98DF81470D9
:1085100000278DF815700E2001F080F900F01F0083
:108520000F28F8D14FF000081DF80810702008F14E
:10853000010801F08AF9B8F1160FF5D1632001376F
:1085400001F023FA102FE4D10136082ED8D14FF4D0
:1085500080732360642001F018FA01F00FFA4307DA
:10856000FBD44FE73CC0092058C0092038C009207F
:1085700038B503780D4623B10378012B2FD1402461
:1085800000E0292442F62231122001F050F943F292
:108590004B31142001F04BF940F6F151202001F04D
:1085A00046F92988022089B201F041F921460320C9
:1085B00001F03DF901F0E2F94206FBD5612001F03E
:1085C000E4F901F0DBF94307FBD5054B4FF480726A
:1085D0001A60632001F0D9F9024B80221A6038BD7D
:1085E00038C0092058C00920044B4FF080521A604F
:1085F000034A136823F002031360704798C00920F0
:108600000400034030B5084B084C19780346084D68
:108610001A1A914206DD22685207FCD52A6803F82F
:10862000012BF5E730BD00BF6C0A00100C000340C1
:108630000800034010B540F63544074B1A68074B55
:10864000C2F313021B6804FB0233836042F210730F
:108650005943C16010BD00BF6413001008400040C2
:1086600040F635410A4B1A680A4BC2F313021B68E5
:1086700001FB02338268C06893423CBF03F143436D
:1086800003F5A0039B1A834234BF002001207047EA
:1086900064130010084000407047000040F6681264
:1086A00000234360024B1A8001230370704700BF10
:1086B0009C040010012303707047000030B58FB098
:1086C00034220446002101A8FBF794FD40F6354111
:1086D0001A4B20461A681A4BC2F313021B6801FB9F
:1086E00002330D93FFF7BCFF28B104212046FFF7AA
:1086F000A1FF0323237001F041F9C30612D5114BEA
:1087000010251D6001A8FFF77DFF0D9A01A9062025
:10871000FCF73AFC0C4B06211D602046FFF78AFF50
:10872000032323702378022B06D0642001F02DF957
:10873000FFF75AFF012323610FB030BD641300100F
:108740000840004038C009203CC0092038B547F631
:10875000FF7105460D2001F06AF842F62231122021
:1087600001F065F841F24B31142001F060F84FF44C
:108770009C61202001F05BF81D4B022019881D4CE4
:10878000013989B201F053F84021032001F04FF87C
:108790000321212001F04BF8E1882D2001F047F85A
:1087A000A1882C2001F043F801F0E8F84206FBD53F
:1087B000114B4FF0805211491A600B68612043F051
:1087C00002030B600E4B1A6001F0DFF801F0D6F8DF
:1087D0004307FBD50E2001F021F800F01F000F2801
:1087E000F8D1622001F0D1F802232B7038BD00BF10
:1087F0009C0400106C0A001098C00920040003407B
:108800009CC0092010B547F6FF7104460D2001F009
:108810000EF842F62231122001F009F843F24B31F2
:10882000142001F004F84FF49861202000F0FFFFBD
:108830001A4B0220198889B200F0F9FF2621032083
:1088400000F0F5FF0321212000F0F1FF0F210520AA
:1088500000F0EDFF01F092F84206FBD5612001F037
:1088600094F801F08BF84307FBD50E2000F0D6FFFB
:1088700000F01F000F28F8D1094B80221A606320F6
:1088800001F083F8074B4FF480721A6005232370C0
:10889000A369A36044F62063E36010BD9C0400104C
:1088A00058C0092038C0092010B50446FFF7D8FE8B
:1088B000C0B1636807215A1C0B4B20461340002BA4
:1088C000BCBF03F1FF3363F00303084AB8BF0133B1
:1088D00032F813206360064B1A80FFF7ABFE0123CA
:1088E0002361237010BD00BF0300008004B30000AB
:1088F0009C04001010B50446FFF7B2FE30B101230E
:1089000023702361A369A360014BE36010BD00BF26
:10891000B0AD010010B50446FFF7A2FE10B364200D
:1089200001F033F8104B80221A604FF4807243F844
:10893000202C63685A1C0D4B1340002BBCBF03F165
:10894000FF3363F003030A4AB8BF013332F8132040
:108950006360084B1A8003232370A369A3604EF65B
:108960006023E36010BD00BF5CC0092003000080ED
:1089700004B300009C04001010B5044600F0FEFF94
:10898000C3060ED540F635410423237001236361ED
:10899000104B1A68104BC2F313021B6801FB023321
:1089A000A36123695BB12046FFF75AFE38B1042367
:1089B0002370002363610B212046FFF73BFE2378E1
:1089C000022B06D0642000F0E0FFBDE81040FFF766
:1089D0000BBE10BD641300100840004010B58EB0EF
:1089E0003422002101A8FBF705FC40F63541204B5D
:1089F0001A68204BC2F313021B6801FB02330D936C
:108A000000F0BCFFC10631D51B4B10241C6001A82F
:108A1000FFF7F8FD0D9A01A90620FCF7B5FA174BF0
:108A20001C60FFF7E1FD612000F0AFFF00F0A6FF42
:108A30004207FBD50E2000F0F1FE00F01F000F28CA
:108A4000F8D10F4A0F4913685B0701D50B68FAE7A5
:108A50000D4B4FF080520D491A600B68622043F0B5
:108A600002030B600A4B1A6000F08FFF0EB010BDBE
:108A7000641300100840004038C009203CC00920A1
:108A80000C0003400800034098C009200400034084
:108A90009CC0092030B589B004461C22002101A8E1
:108AA000FBF7A8FBFEF798FC012C144D05D006D36C
:108AB000022C06D000232B701DE0114C02E0114C5B
:108AC00000E0114C114B4FF080721A6000F01EFE56
:108AD0002B780D2B06D19DF8043001A854F82330D3
:108AE0009847F5E7642000F050FFFFF77DFD084B45
:108AF0004FF080721A6009B030BD00BF4E0B0010FD
:108B000028B300000CB3000040B3000000E100E017
:108B100080E100E0F0B5012802D0022818D01DE065
:108B2000531E032B1AD80E4B00241E469D6858680E
:108B3000A5424FEA00205860C8BF0F5D04F1010450
:108B4000C4BF38437060042CF1D19A600120F0BD9D
:108B5000012A03D10978024B1970F7E70020F0BD14
:108B60006C0A0010274A0B21136843F010031360AE
:108B7000254B83221A60254A04331160002151607D
:108B8000D321916253F8042C22F0800243F8042C84
:108B900010B1C0221A6000E018601D4B09221A6053
:108BA0001C4A1368043223F0404343F0804342F8E8
:108BB000043CD36B23F04043D363136823F00303D7
:108BC00043F001031360144B196821F0030119608D
:108BD000B8B1116821F00C0141F00401116019686D
:108BE00021F00C0141F008011960116821F4405195
:108BF00041F4805111601A6822F4405242F400524C
:108C00001A607047C4C00F400C00014000000140D2
:108C10000800014000C0024044C002400FB437B514
:108C2000134B1D68FDB9134C01221A60FF2107ABDD
:108C3000069A2046019300F009FB204684F8FF5075
:108C400001F0FCFD0C4B0D4A1C605A604CF6802272
:108C5000C0F30B0040F004409D60D8601A611A69AF
:108C600042F001021A6103B0BDE8304004B0704721
:108C7000A0120010363B0010E041005000000140FF
:108C80002DE9F84F804689469346D2F810A0D66861
:108C900000270124002522462B464046494601F084
:108CA0006BFBB94208BFB04207D304FB07F306FBD6
:108CB0000533A4FB06451D44EDE7002754EA0503F0
:108CC00030D022462B464046494601F055FB22460D
:108CD0002B4649460646404601F04EFB20462946B3
:108CE00090469946DBF80C20002301F045FB044632
:108CF0000D4627B9002E02DC54EA0503DED1092E09
:108D00000AF1010207DD9BF8003013F0040F14BFD5
:108D10003723572300E030231E448AF800600137D0
:108D20009246CBE700238AF80030BDE8F88FF0B513
:108D30000C69CA680123B0FBF3F5954201D3534394
:108D4000F9E70025E3B1B0FBF3F2CE6803FB1200B4
:108D5000B3FBF6F31DB9002A01DC002BF2D1092A7E
:108D600004F1010706DD0E7816F0040F14BF372654
:108D7000572600E030263244227001353C46E1E7B8
:108D80002370F0BDF0B50C69CA680123B0FBF3F5A0
:108D9000954201D35343F9E70025E3B1B0FBF3F269
:108DA000CE6803FB1200B3FBF6F31DB9002A01DC09
:108DB000002BF2D1092A04F1010706DD0E7816F026
:108DC000040F14BF3726572600E0302632442270A5
:108DD00001353C46E1E72370F0BD2DE9F041064640
:108DE0000F4615465468136913F8012B1AB92B7AEC
:108DF0002BB1013C03E0002CF9DD013CF4E72B78BA
:108E0000990708D5EA68102A01D1023C03E0082A34
:108E100008BF04F1FF3413F0090F0ED1A046B8F1DA
:108E2000000F05DD20213046B84708F1FF38F6E78E
:108E3000631E002CB4BF1C461C1B297A09B13046A6
:108E4000B8472B789A0711D5EB68102B09D1302140
:108E50003046B8472B7813F0040F14BF58217821FF
:108E600002E0082B02D130213046B8472B78DB07CF
:108E70000ED5A046B8F1000F05DD30213046B847C9
:108E800008F1FF38F6E7631E002CB4BF1C461C1B1C
:108E9000D5F8108018F8011B11B13046B847F9E732
:108EA0002B7803F00903082B06D1002C04DD2021C8
:108EB0003046B847013CF8E7BDE8F08183680268B6
:108EC00093423CBF4268D15483680133836070474A
:108ED0002DE9F0478CB0074688461C4606AE05963D
:108EE00092F80090551CB9F1000F00F0AC81B9F177
:108EF000250F07D0B9F10A0F02D10D213846C0471E
:108F0000494655E100229646114694461046914640
:108F10009DF80430029203F0FC0362F3C3038DF862
:108F200004308DF80C2015F8013B73B12D2B06D0C1
:108F3000302B07D0232B08D101229646F3E70120DE
:108F40008146F0E701218C46EDE728B19DF8040049
:108F500069F3C3008DF8040029B19DF804106CF387
:108F600000018DF804102AB19DF804206EF341022F
:108F70008DF80420A3F13002092A1DD800210A200F
:108F8000A3F130025FFA82FEBEF1090F04D800FBA4
:108F9000012115F8013BF3E7A3F16102052A02D88C
:108FA000A3F1570205E0A3F14102052A03D8A3F17A
:108FB00037020A2AEBDD02912E2B0BD19DF80430EB
:108FC00043F001038DF8043015F8013BA3F13002A2
:108FD000092AF9D97A2B01D12B7832E06C2B40F099
:108FE00098802B786C2B2CD16B7805F10209692BBA
:108FF00048D011D8582B00F0E18007D8002B00F0A2
:109000002281252B40F0D7804D46D0E0632B00F025
:10901000B380642B36D0CEE0732B00F0B48007D839
:109020006F2B00F09A80702B40F0C5804D467CE09D
:10903000752B03D0782B40F0BE80BFE04D46022355
:109040000CE0692B05F1010529D01ED9732B00F026
:109050009B8066D9752B40F0C88001230A22022B21
:10906000049208D1E31D23F0070303F1080401AAC9
:10907000D3E900012BE0012B01A9206804F10409C8
:109080003ED133E04D4602230AE0582B00F0AF807A
:1090900040F28980632B70D0642B40F08D800123D7
:1090A0000A22022B049215D1E31D23F00703D3E912
:1090B0000001002803F1080471F1000306DA4042C0
:1090C0004FF02D0361EB41018DF80C3001AAFFF741
:1090D000D7FD18E0012B206804F1040909D100280C
:1090E000BEBF2D2340428DF80C3001A9FFF71FFEB3
:1090F00008E00028BEBF2D2340428DF80C3001A9A6
:10910000FFF740FE4C4601AA41463846FFF765FE90
:1091100052E0692B00F0828042D9732B34D000F2E8
:109120008E806F2B1AD0702B46D19DF80430102200
:1091300043F002036FF3820304928DF8043001A917
:10914000206804F1040AFFF71DFEA946544601AA4F
:1091500041463846FFF741FE2DE04D46082301A960
:1091600020680493FFF70EFE01AA4146384604F139
:109170000409FFF732FE11E04D462178384604F12C
:109180000409C0470AE04D46236801AA4146384613
:10919000059304F10409FFF720FE05964C460BE009
:1091A000582B3FD036D8002B4DD0252B04D125216C
:1091B0003846C04700E04D462A4691E6A3F15800E4
:1091C00043429DF80410434163F382011022E31DE2
:1091D00023F0070304920CAA02F82C1DD3E9000126
:1091E00003F10804FFF74CFDB1E7782BE4D1A3F1BC
:1091F000580110224B4204929DF804204B4163F326
:1092000082020CA901F82C2D206804F1040AFFF752
:109210008EFD9AE7632BB0D0642BCDD100233FE7BE
:10922000782BC9D110220492A3F158025342534122
:109230009DF8042063F382028DF804207FE7752BEC
:10924000EED100230AE70CB0BDE8F0871FB500247B
:1092500081B101390290019101A808490394FFF7F7
:1092600037FE0399019B029A994234BF5454D45457
:10927000039800E0084604B010BD00BFBD8E00009A
:1092800082B00023054A0193019B934203DC019BBA
:1092900001330193F8E702B0704700BFBFC62D004D
:1092A0002DE9F04180460E4C0E4D0021022641452D
:1092B0000EDA10204FF48077266020602760FFF7D9
:1092C000DFFF2E6028602F60FFF7DAFF0131EEE745
:1092D000FFF7D6FFFFF7D4FFBDE8F041FFF7D0BF9F
:1092E00038C009203CC0092038B50B4B1B6803F07F
:1092F000020503F080440220FFF7D2FF0DB10320E6
:1093000001E014B10420FFF7CBFFFFF7B9FFFFF72F
:10931000B7FFFFF7B5FFEEE72CED00E030B587B003
:10932000104D01AC0FCD0FC42B6801AD23600E4B67
:109330001C78E4B20320FFF7B3FF002055F820307B
:10934000013044FA03F313F0010F02D0FFF7A8FF36
:1093500001E00528F2D1FFF793FFFFF791FFFFF738
:109360008FFFE7E758B3000028ED00E030B587B085
:109370006C46114D0FCD0FC495E8030084E803003F
:109380000E4B1C78E4B20420FFF78AFF00205DF842
:109390002030013044FA03F313F0010F02D0FFF73D
:1093A0007FFF01E00628F2D1FFF76AFFFFF768FFB1
:1093B000FFF766FFE7E700BF6CB3000029ED00E0B0
:1093C00030B587B06C46114D0FCD0FC495E8030042
:1093D0000F4B84E803001C88A4B20520FFF760FF50
:1093E00000205DF82030013044FA03F313F0010F40
:1093F00002D0FFF755FF01E00628F2D1FFF740FF4A
:10940000FFF73EFFFFF73CFFE7E700BF84B3000034
:109410002AED00E02DE9F0414CF24F312A4A4FF09D
:1094200080732A4D13602B68294E43F480032B6010
:1094300002233360274BDFF8B880196001233360C3
:1094400008231360D8F8007001F0D8F94FF496643F
:1094500090FBF4F303FB140007F5C8771E4B384468
:109460001860D8F8007001F0C9F990FBF4F303FB21
:10947000140007F5C877194B38441860D8F8007005
:1094800001F0BCF990FBF4F303FB140007F5C87777
:10949000134B144A38441860136843F049031360AF
:1094A000114A1378112B01D130BFFAE702230F4A7A
:1094B0003360082313602B6823F480032B604FF084
:1094C00080731360BDE8F08100E100E0C4C00F408C
:1094D000040009400C000940180009401C00094024
:1094E00020000940140009404E0B001080E100E00C
:1094F0000800094010B52E4B1A68D00719D5012273
:109500001A602C4B1B6813F0020F14BF2A4A2B4A17
:10951000022313602A4B1C6801F070F94FF4966324
:1095200090FBF3F202FB130004F5C874254B2044B2
:1095300018601F4B1A68910719D502221A601D4B3B
:109540001B6813F0100F14BF1B4A1C4A1023136032
:109550001B4B1C6801F052F94FF4966390FBF3F239
:1095600002FB130004F5C874174B20441860104B1D
:109570001A6852071AD504221A600E4B1B6813F49E
:10958000807F14BF0C4A0D4A4FF4807313600C4B5C
:109590001C6801F033F94FF4966390FBF3F202FB81
:1095A000130004F5C874094B2044186010BD00BFB7
:1095B0000000094034C009203CC0092038C00920FF
:1095C00008000940180009401C000940200009401B
:1095D00000F0E6BC08B50D4A0D4B0E498B4204D293
:1095E00052F8040F43F8040BF8E70B4B0B4A002129
:1095F000934202D243F8041BFAE7FAF7D3FD084B73
:10960000084A1A60FDF71CFAFEE700BFF4B3000039
:10961000200000101C0B0010200B0010363C001026
:1096200008ED00E000400000FEE70000044B0A22C5
:109630001A601A68013A1A60002AFAD1704700BF0E
:10964000A412001090FAA0F070470000C30803EBCA
:10965000900303EB901303EBD01303EB902303EB86
:10966000D020044B58605A68013A5A60002AFAD157
:10967000704700BFA4120010014B5843FFF7E6BF2C
:1096800040420F00104A0023136053609360D36080
:109690001361D361536293620C4A136013621364C3
:1096A0001366C2F880300A4A136053609360D36037
:1096B0001361D3615362074A136013621364136624
:1096C000C2F88030704700BF00C0024000C00920CF
:1096D00040C0024014C0092008B5FFF7D3FF4CF288
:1096E0001271094A00231360116240F2B111116432
:1096F0004FF040511366C2F88010536153635365B5
:109700005367C2F8943008BD00C00920114B1A6895
:1097100022F4404242F400421A601A6822F4405295
:1097200042F400521A601A6822F4403242F40032C5
:109730001A601A6822F4402242F400221A60064B92
:109740004FF080521A60054BC7221A600C225A60F3
:10975000704700BF00C0024098C0092000000340CD
:10976000094A136823F470131360084A136823F03E
:10977000C0631360064B1A6842F420121A601A681C
:1097800022F4A0121A60704704C0024000C00920F1
:1097900044C00240F0B5104B441E012220250F4E5C
:1097A000DFF83CE002FA04F41D6010270138C0B273
:1097B000FF280CD0214214BF32601A603760DEF8F7
:1097C00000501F60C5F3400545EA4101EEE7034B39
:1097D00020221A600846F0BD5CC0092058C009204C
:1097E00054C0092008B5FFF7BBFF09494FF40073C7
:1097F0000B603220FFF72AFF064B20221A604FF43D
:1098000080430B6018200449BDE80840FFF7C2BF41
:1098100038C0092058C00920FF7F0D0008B540F06E
:10982000800109041820FFF7B5FF80B208BD41EAA6
:1098300000411820FFF7AEBF08B540F080010902D3
:109840001020FFF7A7FFC0B208BD41EA0021102099
:10985000FFF7A0BFF8B5224B2022224F1A607024D8
:1098600008224FF0010E102614F0800F02F1FF3293
:1098700014BFC7F800E0C3F800E0640012F0FF0274
:109880003E60184DE4B21E60EED10E4601274FF047
:10989000100E721AD2B2904213D916F8014B082258
:1098A00014F0800F02F1FF3214BF2F601F606400BC
:1098B00012F0FF02C5F800E0E4B2C3F800E0EFD117
:1098C000E7E708221021013A12F0FF02296019602F
:1098D000F9D1FFF7ABFE034B20221A60F8BD00BFA1
:1098E0005CC0092058C009202DE9F843204D2023F1
:1098F000204F2B60F02208234FF0010E102412F0AD
:10990000800F03F1FF3314BFC7F800E0C5F800E093
:10991000520013F0FF033C60164ED2B22C60EED121
:109920000138DFF854904F1E0144B9421AD0082084
:1099300000244FF01008FFF779FEC6F80080D9F830
:10994000003064009B07E4B248BF44F00104FFF715
:109950006DFE013810F0FF00C5F80080EBD107F86C
:10996000014FE2E7FFF762FE20233360BDE8F88392
:109970005CC0092058C0092054C0092008B5002146
:109980000820FFF707FFC0B208BD08B50146082050
:10999000FFF700FFC0B208BD08B500211820FFF78F
:1099A000F9FE0020FFF73AFF0028FAD14FF40041FA
:1099B0001820FFF7EFFE0020FFF730FFB0F5004F53
:1099C000F9D108BD2DE9F04144F23A02414B424E33
:1099D0001A60424D002333602B68414C23F0020390
:1099E0002B60AA2323603F4A5523236013683D4F11
:1099F00013F0007FFAD12B6823F001032B60AA2318
:109A00002360552323603B6813F08073FBD1DFF89C
:109A1000F880C8F80030FFF7BFFF33491820FFF780
:109A2000B9FE6020FFF7B1FFFFF7A8FF4106FBD5A5
:109A30002E4B20221A601A685206FCD52C4B282285
:109A40001A604FF400525A6001233360294A2A4BAE
:109A5000AA211A605522216022602B6843F001037D
:109A60002B60216022603B68DE01FCD50323C8F82F
:109A700000302B6843F002032B60AA232360552398
:109A800023603B689801FCD51C4B22221A60AA2453
:109A9000083355201A4A1C601860116841F0010112
:109AA00011601C60174C18602168164811F4807F03
:109AB000FAD001684905FCD5116841F00201116036
:109AC000AA221A6055221A6003689B05FCD5BDE8DE
:109AD000F08100BF00C00F400CC10F4080C00F409C
