:10400000E03F0010358800008988000049850000E5
:104010007D850000CD8500002186000000000000A5
:10402000000000000000000000000000898800007F
:10403000898800000000000089880000898800004D
:1040400089880000394F0000D573000055870000B3
:10405000898800008988000089880000898800001C
:10406000898800008988000089880000898800000C
:1040700089880000898800008988000089880000FC
:1040800089880000898800008988000089880000EC
:104090008988000075500000898800008988000028
:1040A000318800008988000085510000898800005F
:1040B00089880000898800008988000089880000BC
:1040C000898800008988000089880000044B054821
:1040D0001B1A062B02D9044B03B11847704700BFC7
:1040E000230B0010200B00100000000005490648BB
:1040F000091A891001EBD171491002D0034B03B1A9
:1041000018477047200B0010200B00100000000023
:1041100010B5064C237843B9FFF7D8FF044B13B111
:104120000448AFF300800123237010BD200B001062
:10413000000000005CA5000008B5084B1BB1084951
:104140000848AFF300800848036813B9BDE8084089
:10415000CCE7064B002BF9D09847F7E700000000AA
:10416000240B00105CA50000200B001000000000D4
:10417000002301461A46184600F08AB838B5074DA4
:10418000074C2C1BA41005D0013C55F8043D984762
:10419000002CF9D1BDE8384006F0EAB980A500004E
:1041A0007CA5000070B50F4E0F4D761BB61018BFE2
:1041B000002405D0013455F8043B9847A642F9D1B4
:1041C0000A4E0B4D06F0CAF9761BB61018BF002434
:1041D00006D0013455F8043B9847A642F9D170BD8A
:1041E00070BD00BF68A5000068A5000070A50000B4
:1041F00068A5000070B4840746D0541E002A41D040
:10420000CDB2034602E0621EE4B3144603F8015B3C
:104210009A07F8D1032C2ED9CDB245EA05250F2CEB
:1042200045EA054519D9264603F11002103E0F2E26
:1042300042F8105C42F80C5C42F8085C42F8045CFE
:1042400002F11002F2D8A4F1100222F00F0204F0E1
:104250000F041032032C13440DD91E462246043A93
:10426000032A46F8045BFAD8221F22F00302043224
:10427000134404F003042CB1C9B21C4403F8011B1D
:10428000A342FBD170BC704714460346C2E700BF8F
:104290002DE9F047254C064625688846D5F8484163
:1042A00092469946C4B360681F2817DC411C76B15A
:1042B00004EB8003C3F888A0D4F88851012282401F
:1042C0001543022EC4F88851C3F808911ED0831CF0
:1042D0006160002044F82380BDE8F087144B03B3ED
:1042E0004FF4C870AFF300800446D0B1D5F8483120
:1042F000002784E888003846C5F848410121C4F801
:104300008871C4F88C71002EE1D0D1E7D4F88C31DB
:104310001A43C4F88C21DAE705F5A674C5F84841BC
:10432000C1E74FF0FF30BDE8F08700BF489A0000BA
:1043300000000000024B13B10248FFF719BF70479D
:10434000000000007D41000038B5254B254C1A784F
:1043500012B11A78012A27D11B7833B1204B1B7870
:10436000012B14BF0025402500E0292547F6FF71E9
:104370000D2004F08CFB42F62231122004F087FB62
:1043800041F24B31142004F082FB40F20111202055
:1043900004F07DFB21880220013989B204F077FB0B
:1043A0002946032004F073FB208880B202F0B6FB9C
:1043B00002F04EFC04F0BAFB4206FBD5612004F08B
:1043C000BCFB04F0B3FB4307FBD5622004F0B5FB54
:1043D000054B80221A604FF480721A6038BD00BF0E
:1043E0003C0B00105004001058C0092070B5274B3A
:1043F00004461A7832B11B78012B46D1402540F291
:10440000615602E040F26146292547F6FF710D2012
:1044100004F03DFB42F62231122004F038FB41F259
:104420004B21142004F033FB3146202004F02FFBF5
:10443000A1B22C2004F02BFB210C154C2D2004F0F4
:1044400026FB21880220013989B204F020FB29468D
:10445000032004F01CFB208880B202F05FFB02F016
:10446000F7FB04F063FB4206FBD5612004F065FB1B
:1044700004F05CFB4307FBD5622004F05EFB054BB8
:1044800080221A604FF480721A6070BD3C0B0010DD
:104490005004001058C00920F8B507460E4602F037
:1044A0005DFA1D4D044620B96B7843F004036B7030
:1044B000F8BD042F07700ED140F63541174A136836
:1044C0001B0DC370164B12681B68C2F3130201FB6D
:1044D0000233436014E0AB78C3706B6843602B8990
:1044E000623B83700F4B1B7843720F4B1B78037238
:1044F000288980B202F0FEFA0C4BA0721B78E3729E
:104500003222314604F10E0005F0D0F96B7801201B
:10451000637000236B70F8BD3C0B00106413001037
:10452000084000404A13001048130010E61700101E
:1045300010B5044C606004F0B5F96081000C208176
:1045400010BD00BF5004001010B5642004F0F5FA4F
:1045500004F0ECFA00F0040000F0FF040028F7D1AA
:10456000214B80221A6010214FF480721A6043F8A8
:10457000201C43F8202C022243F8202C02F040FBA0
:1045800002F05CFC02F02AFB02F050FA40F68911BE
:10459000164B174A9C72DC7211809E219C81A2F8F6
:1045A000501040F66211DC81A2F852109C705C60E1
:1045B0001C811C745C705C749C74DC741C751C70B5
:1045C0004FF41663A2F8543040F6B313A2F85630F5
:1045D000E22382F85830074B00200021C3E9000194
:1045E000C3E9020110BD00BF5CC009203C0B0010F4
:1045F00050040010601800102DE9F0473B4E3C4F6E
:1046000030883C4C80B202F049F800221346385CF6
:10461000195D0133C9071F2B41EA5202DFF8D4C0EC
:10462000F6D174681CF80310C90741EA5202A2428D
:1046300055D1DFF8C49000244FF07F084FF0000EF2
:10464000754603EBC40A05EB0A026244032C12F818
:104650001F2C09DD391891F8281001304A40B0FBB1
:10466000F8F1C1EBC111401A02FA05F1013541EA36
:104670000E02082D5FFA82FEE5D1D9F800201E4D0A
:1046800002F804E001342E2CD8D173695BB9296893
:104690000120FFF701FF194B10221A60184B286800
:1046A0009B6998471FE02B685C79104B296804F0E0
:1046B0003F04A21C0431186902F058F82A6804F17A
:1046C0000803D35C2968E21D8A5C29680634095D09
:1046D000120242EA03430B43984204D1D7E7013365
:1046E000B3F5D87F9ED10120BDE8F08750040010BB
:1046F000509A0000C4140010C014001038C00920E3
:104700003C0B001038B5584B05461A7E1C46022A51
:1047100013D103221A76554A1268DA615A8C013A8B
:1047200092B21A8400229A84DA62514BDA7C002A0F
:1047300000F099802822DA6138BD032A03793BD141
:10474000E26A03F00303A2B1A28C218E92B29142DD
:104750000FD1464A1268E261628E6284013A92B2D7
:10476000228494F8342084F82620E28E22850022C8
:10477000E262032B77D1AB79002B74D1EB7984F80B
:1047800034306A7A2B7A03EB0223E386EA7AAB7A37
:1047900003EB022363866A7C2B7C03EB0223A28C4F
:1047A0009BB292B223869B1A47F6FE7293425ADC62
:1047B0002D4B0122DA6238BD012A54D103F00F03D8
:1047C000052B50D14379222B4DD1427F037F43EA01
:1047D000022340F67A42063B9BB2934243D8A36C35
:1047E0003BB9022323760023636105F111011846CA
:1047F00011E00622811804F13C0005F025F800289C
:10480000EFD0062205F10C0104F13C0005F01CF884
:104810000028E6D038BD11F8012F9A400833202B2C
:1048200040EA0200F7D1FFF783FEEB7D287E1B02F2
:1048300043EA0043A87D1843E06004F033F86B7E40
:10484000206184F82630AB7E23856A7F2B7F43EA84
:104850000223638495F82730012203F01F03A37617
:104860006376034BDA7238BD5004001064130010F5
:104870003C0B0010F8B50E4615461C46492800F2C0
:10488000F980DFE810F0E8004C00F7005100560016
:1048900059005E006100630067006C00A900B00071
:1048A000EE00790074007E00830089008E00F7001E
:1048B000A100A300A500E600EB00F700F000F70060
:1048C000F700F700F700940019010D0136013901D6
:1048D000420146017201D001EB012C023B0246026B
:1048E00010034A024F0255025C026A02D401E00141
:1048F0007302F7002801AD02F7007B02F700FD020A
:10490000B901CC01F801F7004A0092020901F70051
:10491000FF01F902A20206030D03002333E2A44BB8
:104920000120987400238CE1A24B1B68C3F3400361
:10493000EDE00A88022315E09E4B1B68C3F30013C9
:10494000E5E00A8810230DE09A4B26E00A884FF430
:10495000807307E0974B1B68C3F34023D7E00A88B6
:104960004FF400730AB1944A14E0944A12E02146CD
:10497000104604F0C9F996E22146104604F0DEF92B
:1049800091E28F4B1B68C3F3C013C0E00A888023F9
:104990005AB18C4A136086E2894B1B68C3F300232B
:1049A000B5E00A884FF48073F2E7874AF2E7874B55
:1049B0001A782A705A786A709A78AA70DA78EA7047
:1049C0001B792B71052347E000226AE2784B9DE0BA
:1049D0000A78774B1A7066E27D4B1A882A701B881A
:1049E000C3F307239CE10A8840F6EA21704BDA8181
:1049F000DA8992B28A4204D901229A7240F662128E
:104A000015E000229A7240F6DC02D98989B29142FF
:104A100040F6E92184BFDA8992B2DA81DA8992B26A
:104A20008A428FBF40F6EA22614AD28992B2DA8185
:104A3000D989674A89B2A2F852105B7C5C48092B7D
:104A400000F03182C3899BB213800023C381108898
:104A500057E004F0A5F90023236024E25D4A5E4B91
:104A60001A600B221DE20A886FF400601318B3F578
:104A7000806F01D30020F8BD4B886FF40061591896
:104A8000B1F5806FF6D29A42F4D85149A1F854207A
:104A9000A1F85630042200E00F22454B9A74DAE761
:104AA0000B88B3F5807FE5D8494AC3F136035BB282
:104AB00082F858300722F0E70023137053704748FC
:104AC00004F094FFC6B2A87032464449E81C04F0D2
:104AD000EDFE03360BE0424804F088FFC6B205F84D
:104AE000010B32463E49284604F0E0FE01362660BE
:104AF000D9E1012010702EE10A883A4B1A70344B2C
:104B0000188880B202F00AF8CDE1364B1B782B7082
:104B100020E1354C00220023C4E90023C4E902232C
:104B20006F1E0026324617F8010F002104F0F0FC3A
:104B3000D4E90023083610431943402EC4E900018C
:104B4000F0D107350026324615F8010F002104F098
:104B5000DFFCD4E90223083610431943402EC4E990
:104B60000201F0D101F052FC9DE1204B00221A60BD
:104B7000E81C6A1E19680902196012F8014F1968C9
:104B8000904241EA04011960F4D1094B02229A7261
:104B9000174A01204FF080511874116029796A7901
:104BA00042EA012213490A8008229A74F8BD00BF24
:104BB0003C0B001034C0092038C009203CC009203B
:104BC00054C0092058C009205CC0092020180010DA
:104BD0005004001021BB05431C000010FAA2000085
:104BE000F79A0000E8170010601800105813001022
:104BF00098C00920B2140010AC4B05229A720E2204
:104C00009A7400231946AA4A995401330A2BFBD1FE
:104C1000A84B00221A70A84B01201870F8BDA34BB6
:104C20000120D872F8BD1268A44B1A6067E7A04A49
:104C30000023E95C995401330A2BFAD19E4A0120E2
:104C400010702360F8BD00231946994A9954013326
:104C50000A2BFBD1984A00211170FDE6974B551E97
:104C60001968002321FA03F20833202B05F8012FDD
:104C7000F8D10423F0E612786B7843EA0223904AD5
:104C8000138010E18F4B10785278198842EA002285
:104C90000A4412B21A801A888B4812F4004F8B4AC9
:104CA00007D01B884FF4A0715B429BB291FBF3F3DA
:104CB0000AE0198809B200290DDD1B884FF4A071A4
:104CC0001BB291FBF3F39BB2138013889AB2804B13
:104CD0001B68134401E0002313800360E3E00B88AA
:104CE0007C4D0022AB63714B2260DA7203229A7210
:104CF00009229A7401F024FE288802E77549551E9E
:104D000000234A68DA400833202B05F8012FF8D138
:104D1000AFE71068FFF70CFCAAE0132313703723EA
:104D20006B7029E06B4B5B69003318BF0123EEE623
:104D30000B88684A003318BF01235361B3E001F0C8
:104D400027FE014628B14022284604F0AFFD40234B
:104D500082E6287001202060F8BD544B00222260BA
:104D60009A720A229A7401F0EBFDC8E6087803F003
:104D700085FE030A2B70687002236DE6498830783F
:104D800003F085FE8FE032885C1CDBB2934280F03A
:104D90008A8003EB4303EA1851789278E85C42EA90
:104DA000012103F074FE2346EDE70026F7B23846F2
:104DB00003F064FE0136030A2E2E2F706B70A8706C
:104DC00005F10305F2D1872346E68A88FF2A3FF6DC
:104DD00051AE40482946C265603004F067FD62E08C
:104DE0009479302C3FF646AE74B93A4D21460622EE
:104DF00005F13C00AC64FFF7FDF90622214605F100
:104E00004200FFF7F7F94EE0334C931D224613F8AA
:104E1000011DAB4202F8011FF9D1002106222F48E3
:104E2000FFF7E8F92B490523FF26A879082808D9B8
:104E3000CA1882F84260AA79013B083ADBB2AA712B
:104E4000F3E760B100210A460131CDB25208A84211
:104E500042F08002F8D81F490B4483F84220204AD0
:104E600014F8011FA379A24203EA01032370F7D1CA
:104E7000184B01209864F8BD0C4B01201862F8BD56
:104E80000A780A4B1A751A7D022A3FF4F3AD0D22F7
:104E900008E0226829463088BDE8F84002F06ABF81
:104EA0001122024B9A740120F8BD00BF3C0B001088
:104EB0004B13001049130010E71700106413001083
:104EC000B2140010E41700101C180010601300103A
:104ED0005C130010500400108B04001092040010AA
:104EE000900400102DE9F04106460F46904601F06F
:104EF00035FD0F4D044628B96B7843F004036B7001
:104F0000BDE8F0810B4B06701B880026623BC67023
:104F1000C0F8048083708672C672322239460E3021
:104F200004F0C4FC6B786E7063700120BDE8F08102
:104F30003C0B00105004001030B54FF040231B68AC
:104F4000D9077DD53F49404B08681A6802440132B1
:104F50001A6000220A603D4A1868947A114614B11A
:104F6000947A012C05D11A68520638D10122CA72EE
:104F700035E0917A022903D11968CD072FD42CE0AE
:104F8000917A03291CD132490C7E032C27D1CC699C
:104F9000001B840723D1088C013880B20884088C58
:104FA00080B240B90120D0728A8C024492B28A84C5
:104FB0004A8C0A8413E0274A4FF4807111600EE096
:104FC000917A05290BD12249B1F8501088B22249B3
:104FD00009681C680144A14201D10121D1721F4915
:104FE0001F4A0868B8B1108880B2A0B91C68086868
:104FF000844210D31B481C4D008800044CBF41F66E
:10500000690001201080186828601848008884B260
:1050100028682044086040F63440118889B28142F3
:1050200082BF196802311960138811499BB203F6D7
:1050300034430B600023138001224FF040231A6099
:1050400030BD00BF58130010641300103C0B00105B
:10505000500400103CC00920401300101C18001020
:10506000B2140010E41700105C130010601300105D
:1050700018400040084B04221A60084B4FF0805241
:105080001A60074B01221A70064B9A7A022A04BF53
:1050900000221A74704700BFAC8002409CC00920F7
:1050A0005D1800103C0B001010B5284B5A7C012AEB
:1050B00011D05A7C082A0ED05A7C042A0BD05A7C74
:1050C000092A08D05A7C0A2A05D05A7C0C2A02D018
:1050D0005A7C0F2A39D11E4A1268D10735D51D4A8C
:1050E0001268D20726D540F635441B4A01211160CB
:1050F0009A7A1A48022A02BF194A4FF08051116069
:10510000184A01681268C1F3130104FB01225A60B6
:105110000268C2F307529A70134A128892B21A8137
:10512000124A134B116818681060124A196013680C
:1051300001331360104B1B68DB0706D50F4B0122B0
:105140001A600F4A13680133136010BD3C0B001046
:10515000004000500440005008400050641300100C
:1051600098C009200840004050040010A41300100B
:10517000C0140010441300100C40005010400050A8
:105180005818001008B5114B5B7C092B02D102F0B6
:1051900025F801E0FFF788FF0D4B1B68190614D5B1
:1051A0000C4B1B681A0605D50B4B80221A600B4B63
:1051B00000221A600A4B1B681B0606D5094B802289
:1051C0001A60094B02221A60FEE708BD3C0B001072
:1051D000004000500440005008400050A012001051
:1051E0000C4000501040005038C00920F8B5614C08
:1051F0000023E372604B614A19681160A27A52B9C8
:10520000022003F03BFC5E4B1B889BB2013B9842A3
:1052100040F08380F8BDA27A012A33D1584A594B15
:1052200010461D78584B594F1E784FF0080E1388C2
:1052300020339BB2138013889BB2B3F51B6F81BFE1
:1052400013884F3B9BB21380002D66D0002E64D094
:10525000038801889BB2A3F6621393FBFEF389B225
:1052600017F803C04A4BA1F662110B40002BBEBFDA
:1052700003F1FF3363F0070301334CFA03F3DB0759
:10528000D5D54AE0A27A052A2ED13D4A3D4B10469B
:105290001D783E4E0827138820339BB21380138855
:1052A0009BB2B3F51B6F81BF13884F3B9BB213803A
:1052B0004F2D32D0038801889BB2A3F6621393FB73
:1052C000F7F389B216F803E0314BA1F662110B40F7
:1052D000002BBEBF03F1FF3363F0070301334EFA27
:1052E00003F3D907D7D418E0A27A022A05D11868A7
:1052F00001F032F9224B18800FE0A37A032B05D17D
:105300001F4D281D01F0FAF9288006E0A37A042B2E
:1053100001BFA3891A4A9BB21380642003F00DFCDD
:1053200003F004FC4207FBD4607C154DC0B2298811
:10533000022817BF01F1FF3189B289B2022003F0C0
:10534000A6FBA37A1BB1288880B201F0E7FB61209D
:1053500003F0F3FB03F0EAFB4307FBD501232374BF
:10536000637C022B04D0BDE8F840622003F0E5BB6B
:10537000F8BD00BF3C0B0010641300104013001078
:105380005004001049130010E71700104B130010D1
:10539000070000802DE9F74F4D4D10234D4F2B6036
:1053A00001F0CEFAB84603F0E1FA01F0A7FC01F0F3
:1053B00025FDFEF7C9FF01F0E1FB474CA37CA246A7
:1053C000012B7AD110232B6001F030FBDFF80CB1F8
:1053D0006FF07F063B68414ADFF820911BBB062037
:1053E00003F04CFB9BF8003040F307205BB116F153
:1053F000800F08D13A4B93F900603636B042B8BFFF
:10540000304646B2304601F02DFBD9F8000001F0DD
:10541000F9FA9AF80B3013B1FFF7E8FEDAE74FF428
:1054200080732B60D6E72F4B10212F4E1960336805
:105430001BB1637843F002036370D8F80030012B8E
:1054400082BF637843F001036370217C224B29B152
:10545000597841F02001597000211974234B0192B1
:10546000188880B201F01EFB019A137813B9204B03
:105470001B782BB1637843F008036370002313702B
:10548000174B1C4A93F9003092F9002035339342B0
:10549000B8BF63784FF00000BCBF43F010036370E7
:1054A000154B1968FEF7F8FFD9F8000001F0AAFAC9
:1054B0000023C8F8003033607FE7A37C082B81D03D
:1054C00001F0BCFC03B0BDE8F04F01F06FBB00BFC2
:1054D0003CC00920441300103C0B00105D18001064
:1054E0005C18001038C00920581800105004001033
:1054F000B014001048130010C01400106413001002
:1055000008B50F48FFF714F80E4B0F4ADA600F4A40
:105510001A6100221A845A619A84DA641A765A76D9
:105520009A76DA615A8483F826201A85DA621A8616
:105530005A8683F83420DA86054BDA7208BD00BF3C
:10554000D6BE898E5004001055555500AAAAAA004F
:105550003C0B001010B5064C4FF48472002120461D
:10556000FEF748FE4FF0FF33C4F8003110BD00BF16
:10557000A81300102DE9F84F6D4C012380462370CD
:105580006074FFF7BDFF6B4B4FF080726A4E1A607C
:105590006A4F1023336001F0D3F9B94603F0E6F9FE
:1055A00001F0ACFB01F02AFCFEF7CEFE01F0E6FABA
:1055B0000025A37C984540F0A9805D4BDB899BB218
:1055C000CBB1642003F0B9FA03F0B0FA4207FBD480
:1055D0005B4B02201988013989B203F058FA612027
:1055E00003F0ABFA03F0A2FA4307FBD5622003F005
:1055F000A4FA0023E381E37A13B1FFF7F7FD02E099
:105600004FF4807333601023336001F00FFA6FF0B2
:105610007F0B3A68DFF848A1D2B9DAF80020BAB9AE
:10562000062003F02BFA474A40F30720127862B1B4
:105630001BF1800F09D1444B93F900303633984267
:10564000B8BF18464FFA80FB584601F00BFAE0E766
:10565000DAF800301BB1637843F002036370D9F8C5
:105660000030002B5ED03B68012B82BF637843F093
:1056700001036370324B188880B201F013FA314A8B
:10568000137813B9314B1B7833B16378022543F09B
:1056900008036370002313702B4B2D4A93F90030DD
:1056A00092F900203533934205DA6378022543F0FE
:1056B0001003637000E0ADB326494FF4C872A1F542
:1056C000C87004F0F3F8013DDFF88CB0DFF894E027
:1056D000EDB2002303F132000BEBC0000021DEF835
:1056E0000020D25CDEF800C0D20942541CF803202E
:1056F00001315200D2B208290CF80320EFD1013356
:10570000322BE7D1636A1448984758B9134B4FF0CE
:1057100080721A60FEF718FF01F090FBBDE8F84FA9
:1057200001F044BA0023C9F80030CAF8003040E75D
:105730003C0B001000E100E03CC0092044130010C5
:10574000500400105D1800105C180010B014001018
:105750004813001054160010C414001080E100E03B
:1057600058180010C01400102DE9F04F93B0A74D49
:10577000A74C01232B702376A64B4FF08072A64EC8
:1057800068741A6010233360814601F0D9F803F081
:10579000EDF801F0F7FA01F031FB606803F082F8F0
:1057A000DFF87CB2FEF722FE0096AB7C994540F014
:1057B0009B81964BDB899BB2C3B1642003F0BDF99A
:1057C00003F0B4F94107FBD421880220013989B2E2
:1057D00003F05DF9612003F0B0F903F0A7F9420787
:1057E000FBD5622003F0A9F90023EB81009A102376
:1057F000136001F01BF98949844A894B1B6833B94E
:105800000B6823B9EB7A13B9937C9945F5D0062040
:1058100003F034F9834B40F307201870824B7B4A26
:105820001870AB7C994540F05F81DFF8F0A1DAF8A1
:10583000003057461BB1537843F002035370EB7AA4
:1058400003F0FF01002B40F0A580DBF80030002BB7
:10585000ABD0342205A8FEF7CDFC2088636880B267
:10586000059300F01BFF30264643DFF8E88108EB84
:10587000060301936D4B18785A7893F802E01204EE
:10588000D97842EA0060084340EA0E20029303F010
:1058900009F858F806607040C0F3052606F10208C2
:1058A000B8F1270F069075DC0836B2080B2A029B68
:1058B00001D15F4A0BE05F4903EB82030A689A4219
:1058C00008D23A68002AF9D004E03B6813B913689B
:1058D000DB07FAD4584A61201368042723F0010338
:1058E000136003F02AF9514A7B1CD05D12F803C003
:1058F000BB1C12F803E0FB1CD35CB91043EA006048
:1059000040EA0C4040EA0E200392029102F0CAFFE6
:10591000029912AB03EB810E019B043753F821303F
:105920002C2F80EA03004EF8300C039ADCD1636917
:10593000DBB9424B10221A6005A8AB699847404B6F
:105940004FF080761E6005A90120FEF7A5FD40F608
:105950003541304B1E603B4B1A683B4BC2F3130280
:105960001B6801FB0233E36414E0294B42461869CB
:1059700006A900F0FBFE12AB1E44984416F8343C16
:1059800018F82F2C1B0443EA022318F8302C134379
:105990009842CED0612003F0D0F8274A2B491368F3
:1059A000183A23F0010393611368580701D50B6877
:1059B000FAE740F63541234B1A68234BC2F3130232
:1059C0001B6801FB0233E16C227E8B4238BF03F17E
:1059D0004343A2F1020238BF03F5A003012A03D812
:1059E0001B4A5B1A934202D8EB69012B4ED1FFF799
:1059F00087FD00984FF480710023EB610160E97C22
:105A0000024A012928D1D37493746DE03C0B001035
:105A10005004001000E100E03CC0092058180010BC
:105A200044130010481300104A13001025180010EA
:105A300010410050044100502400034038C00920A8
:105A400080E100E0641300100840004008000340BB
:105A500080F0FA023C9B0000B9F10A0F44D0012308
:105A60006420237603F069F803F060F84207FBD462
:105A7000B4F852309BB223B1224BB3F852309BB2F0
:105A800001E040F6621323800123AB6261892C2080
:105A900002F0FDFF21892D2002F0F9FFEB7A0BB116
:105AA000FFF7A4FBEB69184E002B02DD013BF3610D
:105AB00014E001F067F901F0A1F9B36A3BB1606845
:105AC00002F0F0FEFEF792FC0023B36206E003F062
:105AD0002DF84307FBD5622003F02FF80023CBF805
:105AE0000030CAF8003060E6084B4FF080721A6050
:105AF000FEF72AFD01F0A2F901F058F813B0BDE855
:105B0000F08F00BF500400103C0B001080E100E05B
:105B100070B58EB015460C4606463222002101A80B
:105B2000FEF768FB312D2A46214628BF31220DF1B0
:105B300005008DF8046003F0B9FE01A90520FEF709
:105B4000ABFC0EB070BD000038B540F664123148B1
:105B5000314C03889BB293420DD140F635412F4B17
:105B60001A682F4BC2F313021B6801FB0233E36276
:105B700040F6661348E040F6661103889BB28B42FC
:105B800044D140F63541254B408C1A68244BC2F372
:105B900013021B6801FB0233E26A1E4993423CBFB9
:105BA00003F1434303F5A0039B1A41F66A0202FB8B
:105BB000003343F2D4024243B3FBF2F3242B21D847
:105BC000184A4008134493F86C3825258B76013326
:105BD000088493FBF5F005FB103300224B7603207D
:105BE000114B8A84CA61E2724A61087601221A3135
:105BF000A361A072FFF78CFFE37C53B1064B282210
:105C0000DA6138BD40F66413A38100E0A28101236C
:105C1000E37238BD500400103C0B001064130010F8
:105C200008400040509A00000547000038B540F693
:105C30003544244B244A1B681268C3F3130304FB46
:105C4000032446F2A712214D2B6B9C423EBF04F168
:105C50004344A4F56514A4F5A254E31A934230D941
:105C60001B4A1B48D2F800118B4238BFC2F80031E2
:105C7000D2F80031174A03F5613303F25233B3FB14
:105C8000F2F315499BB24A8C9A4215D1D0F80431EF
:105C90000133052BC0F8043112D1104B0222AB6145
:105CA00040F66413AB810423AB722231012310460A
:105CB000EB72FFF72DFF03E04B840023C0F80431A3
:105CC0002C6338BD64130010084000403C0B0010EA
:105CD000A8130010A40E070050040010495B000038
:105CE00070B5184D6B695BBB0379012B28D14479E2
:105CF00034BBC379027A86791B0243EA0243011D51
:105D0000022243EA060000F008FD23462246E8602E
:105D100020FA02F1C2F1170401F001010132A140A1
:105D2000182A43EA0103F3D12B61074A074B0120EC
:105D300068619A6106490322BDE87040FFF7E8BE3A
:105D400070BD00BF500400102D5C00003C0B001023
:105D50005C04001030B51349002351F8332001EBE7
:105D6000C30482420F4A03D163680133636030BDCC
:105D70000133202BF1D14FF0FF310C46002302EB11
:105D8000C3056D68A54201DB002C01DA19462C46DB
:105D90000133202BF3D142F83100012302EBC10281
:105DA000536030BDA81300102DE9F04F95B040228C
:105DB0008046002104A8FEF71DFA644D0123DFF898
:105DC00090918DF810308DF820308DF823308DF8BB
:105DD00030308DF832308DF840308DF842308DF80B
:105DE000433000242888594F80B200F057FC584EA9
:105DF00004A919F80030002208194FF07F0EF1189D
:105E000010F802C091F8281001338CEA0101815486
:105E1000B3FBFEF10132C1EBC111102AA3EB010368
:105E2000EDD11034402CDDD1DFF8409120244D46D7
:105E3000484BEE460FCB8DE80F0000239C4608EB45
:105E4000040004AA02EB0311002210F802B011F8BA
:105E500002A0D34502D04EF823C002E00132102A3E
:105E6000F3D10133042BECD100235EF823201AB9BF
:105E70000133042BF9D143E038884FF07F0A80B218
:105E800000F00CFC325C00204FF0000CE64604EB06
:105E9000C00B0EEB0B034344032813F8203C09DD31
:105EA000B11891F8281001324B40B2FBFAF1C1EB66
:105EB000C111521A03FA0EF30EF1010E43EA0C0C53
:105EC000BEF1080F5FFA8CFCE3D1D9F8003003F87B
:105ED00000C001300A28D7D12B68DB782A68927875
:105EE000296812044878296842EA036309780B4359
:105EF00043EA0020FFF72EFF29680120FEF7CCFAC5
:105F00000134B4F53C7F93D1134A002302EBC30163
:105F10004968032912DD104A002452F83300FEF7C5
:105F200007FB0E4B0E4A20465A620E4A0E499A61F2
:105F300004227C61FFF7ECFD204603E00133202BB7
:105F4000E4D1012015B0BDE8F08F00BF500400106F
:105F5000509A0000E4A20000A81300103C0B0010AF
:105F6000F9450000E15C000054040010C01400106A
:105F70002DE9F041184D194E2F46AB7C0A2B28D144
:105F8000FFF7E8FA3388DFF8548013F0010F1CBFE5
:105F900040F688133380D8F8483043B9308880B24F
:105FA00000F0BCFD0E4B0A207B62FFF7E3FABC7CDD
:105FB000E4B20A2C0DD104220A490020FFF7A8FD03
:105FC000094B2046AB610023C8F81430FFF7CCFB27
:105FD000D3E7BDE8F08100BF3C0B00105004001077
:105FE000A95D000054040010E15C0000F0B58BB026
:105FF0002D2002F043FD030A8DF805002C208DF8BA
:10600000043002F03BFD030A8DF806308DF80700DE
:1060100000F096FC00F01CFE02F088FD4106FBD566
:10602000612002F08AFD02F081FD4207FBD5144B8E
:1060300010221C461A60134A80211160124F4FF43F
:106040008071124E116002250E2002F017FD00F043
:106050001F000F28F8D1622002F06FFD3D6002F0B2
:1060600065FDC306FBD502A92560202002F014FDC2
:1060700001A90020FEF710FA306800F0C3FCE3E746
:1060800038C0092058C009203CC009206413001002
:1060900008B5202002F0F2FC08B1FFF7A7FF034B80
:1060A00003221A70BDE80840FFF774B93C0B0010DA
:1060B0002DE9F04F8FB03F4B10221A6000F040FCEA
:1060C00000F0C6FD3C4B80221A6042F622311220BD
:1060D00002F0DDFC41F24B31142002F0D8FC40F21A
:1060E0000111202002F0D3FC2921032002F0CFFC73
:1060F00002F01CFD4106FBD502F018FD00F0040083
:1061000000F0FF040028F7D1DFF8B480DFF8B49086
:10611000C24699F81230042B46D1B8F85450DFF833
:10612000A8B0ADB2BAF856309BB2AB42F1DB691EF3
:10613000022089B202F0ABFC612002F0FEFC02F00A
:10614000F5FC4207FBD5622002F0F7FC4FF4FA732E
:106150000093009E013E0096002EFAD104EB440706
:106160000EAB1F4406202B0A07F8343C07F8335CBB
:1061700002F084FC0134E4B2000A102C07F8320C5F
:1061800008D101A90420FEF787F9DBF8000000F030
:1061900039FC3446642002F0D0FC02F0C7FC43070F
:1061A000FBD40135ADB2BDE7044B10221A600FB02D
:1061B000BDE8F08F38C0092058C009203CC0092034
:1061C000500400103C0B001064130010F0B585B0B3
:1061D000434B802218689B880290ADF80C30414BED
:1061E00042F622311A60122002F051FC41F24B318A
:1061F000142002F04CFC40F20111202002F047FC78
:106200002921032002F043FCF121062002F03FFC8B
:1062100002F08CFC4106FBD502F088FC00F0040083
:1062200000F0FF040028F7D12F4F304D304EBB7CDB
:10623000072B53D104AB03EB440333F8081C0220B3
:10624000013989B202F023FC612002F076FC02F0F1
:106250006DFC4207FBD5622002F06FFC4FF4FA732D
:106260000193019B013B0193002BFAD1062002F020
:1062700005FC204B40F3072093F858305BB298425E
:106280000CDD012C07D003D3022C13D1346011E0B4
:106290004FF4807300E0102333600BE0012C07D033
:1062A00003D3022C06D12C6004E04FF4807300E08D
:1062B00010232B600134032394FBF3F303EB43031C
:1062C000E41A0D4BE4B2186800F09CFB642002F065
:1062D00034FC02F02BFC4307FBD4A8E705B0F0BD6B
:1062E000F4A2000058C009203C0B00103CC009205B
:1062F00038C00920500400106413001008B53D4B4D
:106300004FF4E0221A6002F0D9FC00F0A7FC3A48F2
:1063100000F0F0FA394DFEF717F900F0BDFC00204F
:1063200001F050FD3649374801F0A8FD2C46364EA5
:10633000306800F067FBAA7C6B7C9A42F8D0AB7C9B
:10634000112BF5D801A252F823F000BFEF63000033
:10635000A56300003163000031630000C3630000E7
:106360003163000031630000C9630000AF630000C7
:10637000B3630000BD63000095630000316300005B
:10638000CF630000A1630000DB6300003163000005
:10639000E5630000012002F09FFA02F099FCC7E7D4
:1063A0000E2300E001236374FEF7F4FFC0E7082327
:1063B000F9E70923637401F0E3F8B9E7FFF7D8FDC3
:1063C000B6E7FFF775FEB3E7FFF700FFB0E70D2371
:1063D0006374207D01F094FCAAE70F236374FFF738
:1063E00057FEA5E71123637402F044F9A0E7FEF716
:1063F000ABF89DE724ED00E0754800003C0B001071
:10640000F79A000005A30000641300102DE9F04383
:10641000464B474A002000211B68464DC2E9000157
:106420004F240022500090FBF4F104FB1101515560
:1064300001324F2A3F48F5D13F4AC3F3C45111708E
:10644000C3F30715C3F3C7043C4AC3F3C34105F0C4
:10645000100704F0080611703E44C3F3870103F0EF
:10646000010EC3F34702764401F00407374402F0FB
:1064700002063E44324F05F008053E70314EC3F32C
:1064800088273780DE0906F040079E0906F02006BF
:106490005B093E4403F0100333442B4404F004042E
:1064A000234401F00201194402F00102264B0A4480
:1064B0001A70264B1B78002B36D000221346DFF8CB
:1064C00090E012F80E40224E0025002154EA050CFF
:1064D000CFB201F1010108D014F1FF3845F1FF39C5
:1064E00004EA080405EA0905F0E701323B440A2AF8
:1064F000DBB2E6D1174A4F2513700023194693FBF0
:10650000F5F205FB1232D7B2FC08345D02F0070247
:1065100044FA02F2D20748BF4A1C03F1020344BF07
:106520004754D1B29E2BEAD1BDE8F0836018001029
:10653000B8140010C5180010C3180010701800100F
:10654000C41800107218001014190010E71700107A
:106550004B13001049130010F0B587B0C0F3D805F5
:106560004F2325F00F05B5FBF3F403FB1454404B08
:10657000C0F340021B78510183EA104303F01F036C
:106580008A1A5A403B4B8EB21B783B4983EA5053E0
:10659000097803EB90034B4003F01F01374B02AF28
:1065A0001B8883EAD010C0F30800002340FA03FEE2
:1065B0000EF0010E03F807E00133092BF6D100239A
:1065C00007EB030E42FA03F0013300F00100052B44
:1065D0008EF80900F4D1002341FA03F202F001021F
:1065E0000DF803200133052BF6D125480D217B5CE6
:1065F0007BB10A5C06AB1A44224B0DF1180CCB5C44
:1066000012F818EC634413F818CC02F818CC03F80D
:1066100018EC11F1FF31EAD2002213461DF80310E5
:10662000994001330A44052BD2B2F7D1164B4F20C3
:106630001978A31911440B44B3FBF0F200FB123399
:10664000124AD05C124B1B786BB1124B1B78B5FB16
:10665000F3F203FB125232440A44B2FBF3F103FBA0
:1066600011220D4B985C00F6621007B0F0BD00BF20
:10667000C4180010C3180010701800107218001011
:1066800022A3000030A3000014190010C518001048
:10669000E717001049130010741800100223A0F629
:1066A000621090FBF3F083B253B10B2B01D8013889
:1066B00004E00C2B06D0262B06D80238C0B2704757
:1066C0002520704726207047272070470A2803D8C6
:1066D000400000F664107047242803D8400000F6FC
:1066E00066107047252806D0262840F67A1018BF75
:1066F0004FF41B60704740F66210704710B5437D41
:1067000002461846FFF7E2FF917D25240B4493FBD8
:10671000F4F104FB1133537510BD70B5013A002A32
:1067200014DB8E5C0724C50D400020F07F4346FA41
:1067300004F000F00100684018431DB180F43400FB
:1067400080F4404014F1FF34EDD2E7E7002319460E
:1067500020FA03F2C3F1170402F001020133A24050
:10676000182B41EA0201F3D1084670BD30B50C4642
:10677000074D20F07F40631A9A4208DD14F8013B70
:106780004340DBB255F8233083EA1020F3E730BDF5
:10679000B0050010F8B5054690B2FFF77FFF144E24
:1067A0002944345C28464FF07F0E81421ED00023DE
:1067B0001D460778C5F1070206EB040C9CF828C0BB
:1067C00047FA02F2013402F001028CEA0202B4FB41
:1067D000FEFCAA400135CCEBCC1C1343082DCCEBBE
:1067E0000404DBB2E6D100F8013BDEE7F8BD00BFF0
:1067F0003EA30000F8B50C460546C0220021204605
:10680000FDF7F8FC0127681E0023043510F8012F5E
:1068100003F1080612F001011BBF44F82370D4F8FD
:10682000BC1044F8231004EB010E1CBF8EF894300A
:10683000013103F1010318BFC4F8BC10252B4FEA46
:10684000520202D09E42E5D100E01E46A84201D08D
:106850003346DBE7F8BD51F8203043B9D1F8BC200E
:10686000B0FBF2F302FB1300014491F8940070476F
:1068700013B543881268ADF800308388ADF8023054
:10688000C3884078ADF80430044B1C680B46694659
:10689000A047431E5842584102B010BD1C3A001098
:1068A00070B586B06946044601A802F047FA9DF823
:1068B0000410E1B90E4620460DF10505403415F8E7
:1068C000013B80F87D101A09092A03F00F038CBFE1
:1068D00057323032092B8CBF5733303380F87C204D
:1068E00080F87E3080F87F600430A042E7D106B0A7
:1068F00070BD000038B505460C4C02F0F7FA204692
:10690000FFF7CEFF204602F02FFD094B094A0A4946
:1069100002201D6002F0E0FA0849FF2002F00EFD9F
:10692000012002F07CFB002038BD00BFB009001040
:106930001C3A00101839001071680000E5A300002F
:10694000044B00214FF40052034819605960FDF7D1
:1069500051BC00BF780B0010181900100A4B1968C1
:10696000586801F07F0100F07F00421C02F07F02B6
:1069700091421FBF5A6801325A60044B14BF03EBA7
:1069800080100020704700BF780B0010181900100D
:10699000084B18685A6800F07F0002F07F029042AE
:1069A0001FBF1A6801321A60034B14BF03EB80103B
:1069B00000207047780B00101819001037B50546F5
:1069C000FFF7E6FF0D4B044638B101464022822016
:1069D0009D6002F055FB01200EE09A680849AA1A52
:1069E0008A4208D9032202A901F8012D822001223E
:1069F0009D6002F045FB204603B030BD780B0010CF
:106A0000801A060038B50446822002F013FB820685
:106A1000054602D42046FFF7D1FF6B0602D420467C
:106A2000FFF7CCFFBDE8384002F092BB08B59E22CC
:106A300000210748FDF7DEFB064A00231370064AD3
:106A40001360064B80221A70054B7F221A7008BD16
:106A5000840B0010E6170010203A001048130010B5
:106A60004A1300100B4A92F900308342B8BF034624
:106A70001370094A92F900308342A8BF034613708D
:106A8000064A136803EB00231360054A13780133A9
:106A900013707047481300104A130010203A00107A
:106AA000E617001010B540F66213B0F51B6F38BF43
:106AB00018460D4BA0F662101B7823B10B4A1268E2
:106AC000803292FBF3F30A4903EB430331F91020C0
:106AD000FD2404FB02334FF48072803393FBF2F306
:106AE00021F8103010BD00BFE6170010203A00104A
:106AF000840B001040F66213B0F51B6F38BF1846C8
:106B0000054BA0F6621033F910004FF4807380300B
:106B100090FBF3F040B27047840B001010B5144C9A
:106B200094F90030002B05DDFFF7E4FF2378363BB6
:106B3000184443B26FF07704A342B8BF23466FF006
:106B400013029342A8BF13461C4603F1380141F0DB
:106B50000301C9B2062001F09AFF064B14F1770F2A
:106B60001C70054BACBF002401241C7010BD00BF7D
:106B7000E81700105C180010B0140010074B00223A
:106B80001A70074B4FF400121A60064B04221A6069
:106B9000054A136843F00403136070475D18001042
:106BA00000E100E0AC800240B4800240074A136874
:106BB00023F004031360064B04221A60054B4FF4C4
:106BC00000121A60044B00221A707047B480024011
:106BD000AC80024080E100E05D18001008B5FFF7CE
:106BE000E5FF044B00221A70034A88231370034AFE
:106BF000137008BDB0140010E81700105C180010E6
:106C00000A4B02221A600A4A00231360094A1360E1
:106C1000094A1360094A1380094A1380094A1380FC
:106C2000094A1360094A1360704700BF04400040DE
:106C3000641300104013001058130010B214001019
:106C4000E4170010601300105C1300101C180010F3
:106C5000014B01221A6070470440004008B5FFF75D
:106C6000CFFF064B04221A6040F63442DA6003225A
:106C70009A60034B02221A6008BD00BF0C4000401E
:106C800000E100E008B5FFF7BBFF024B02221A60EB
:106C900008BD00BF80E100E0134A136843F00053D1
:106CA0001360124A136843F478031360104B4FF0DB
:106CB00080621A600F4A0023136013621364136624
:106CC000C2F88030C2F8A030C2F8C030C2F8E0305C
:106CD000FF23A2F5847213609360074B01221A60B0
:106CE0001A68D207FCD57047C4C00F4018E400E012
:106CF00000E100E0104100503040005030B5144A2F
:106D00000123136013489360134C144B144A154924
:106D1000146093605160D0609A60134D134A5D60B7
:106D20001C60D8601460516093604DF20602104BF5
:106D3000186010485A60002202600F4802600F4A33
:106D400011600F4A15605A6842F001025A6030BD66
:106D5000084000503290008808000340D43A0010E8
:106D6000E43A001025180010E91700100041005007
:106D70000C4100504413001058180010A4130010C8
:106D8000C014001030B5154A01231360144D9360F0
:106D9000144C154B1549002204EB82000A2A43F8D3
:106DA0000C0C18BF184602F1010208BF00200B2A84
:106DB00043F8105C03E9030003F11003ECD10C4B22
:106DC0000C4A196811605968516099689160DA68D5
:106DD000094B1A604DF206025A6030BD084000505F
:106DE0000800034025180010343A001004100088F1
:106DF000243A0010004100500C4100500B4B0C494C
:106E00004FF080521A600B6843F001030B6051F899
:106E1000203C43F0020341F8203C06490B6843F054
:106E200001030B60044B1A60704700BF98C0092033
:106E300024000340104100509CC009200B4B4FF030
:106E400080521A600A4A136823F00103136052F853
:106E5000203C23F0020342F8203C064B00221A603B
:106E6000054A012313609360704700BF98C0092052
:106E700024000340104100500840005030B50C4B36
:106E80000C490D4A0D4803F110044D1CDA601860DE
:106E900059609C601861DA615D619B61084B186004
:106EA00059609C60DA604DF206021A6130BD00BF85
:106EB000240C0010343B0010010000800800034047
:106EC00000410050034B044A1860136843F001036B
:106ED000136070471880004014800040054B064A3C
:106EE0001B681E33136052F80C3C43F0400342F819
:106EF0000C3C70470880004020800040064B074A49
:106F00001B6803F57A73136052F8103C43F4007366
:106F100042F8103C704700BF0880004024800040C9
:106F200030B5002423460144934205D0CD5CD800FF
:106F300085402C430133F7E7204630BD10B5084AA1
:106F4000431E053013F8014FD179214012F8014F4B
:106F50008C4203D18342F5D1012010BD002010BD29
:106F60008B04001010B5054C4FF4E472002104F1BD
:106F70002000FDF73FF9024B236210BD240C0010E6
:106F8000D6BE898E70B5144800214FF4927404FB6C
:106F900001F3C518D5F81821BAB1104C00261C44CD
:106FA000C4F80063C4F8F062C4F8EC624FF4827273
:106FB00031462846FDF71EF97F2384F804338023E9
:106FC00084F80533C4F8086303E001310429DED1F5
:106FD0001546284670BD00BF0C0E0010240C001092
:106FE00010B51B4B186A01F05DFC044647F6FE71B4
:106FF0000D2001F04CFD42F62231122001F047FD38
:1070000041F24B21142001F042FD44F2E1412020E5
:1070100001F03DFDA1B22C2001F039FD210C2D2005
:1070200001F035FD0B4B02201988013989B201F0BE
:107030002EFD4021032001F02AFD01F077FD4306DB
:10704000FBD5612001F079FDBDE81040FFF746BF98
:10705000240C0010243B001070B5642001F06DFD7D
:10706000284A13681C3A23F00103D361264B1C689D
:1070700014F0040401D01168F9E7244D4FF4827232
:10708000D5F878662146C6F80841C6F8044130466E
:10709000FDF7B0F87F2386F81C31802386F81D3178
:1070A000C6F82041FFF7EAFEFFF7A8FE2A6A184B50
:1070B0009A420ED140F67A12164B1B889BB293422D
:1070C00005D0B3F51B6F0CBF2720252012E026202A
:1070D00010E095F82C0095F82D302522184490FBEF
:1070E000F2F302FB130005F14001C0B285F82C0059
:1070F000FFF7B1FBFFF7EAFABDE87040064B1880D6
:10710000FFF76EBF240003400C000340240C001066
:10711000D6BE898EA2040010243B001038B52B4A3D
:107120002B4B5468022C01D110680EE0012C3AD18F
:10713000D3F80411002936D0D3F80051196B106828
:1071400029441E31091A3B292DD80121C3F8000119
:10715000C3F804111F4814B10168C3F808110021D5
:1071600051609160B3F80C21194C0132A3F80C2145
:107170000268D3F808015B6B121A9A4203D8164BC7
:107180001A6832B11960FFF7EDFEBDE83840FFF72D
:1071900063BFD4F80001236B1844A0F6B830BDE8F3
:1071A0003840FFF78FBED3F80401094930B1D1F858
:1071B0000051086B2844C1F80001CBE71068C1F802
:1071C000000104480068C1F80801C3E7283B00102B
:1071D000240C0010088000405C0B0010F8B56C4DCA
:1071E0006C4B2F681B68DE0740F1D0806A4B1B6830
:1071F000DC0740F1C480694E01233360062001F0B2
:107200003DFC674C40F30720D4F8783693F91C21F5
:10721000D3F82011824293F91D21C8BF83F81C01C5
:107220008242D3F808210144B8BF83F81D015D48AC
:10723000C3F8201102F00101415C99540132012A86
:10724000C3F8082118D15849A7F5C872C3F80C2112
:107250000A88088892B2C3F81021226A80B2C3F863
:107260001421FFF71BFA242800F289804F4A136883
:1072700023F00103136082E0022A2ED1B3F810013B
:107280005D78FFF70BFA4A4A7F27115C9646083172
:10729000B1FBF7F3C3EBC313C91A00231E46C6F1B3
:1072A00007020EEB010090F8280045FA02F20131C6
:1072B00002F001024240B1FBF7F0B2400136C0EBF0
:1072C000C0101343082EA1EB0001DBB2E7D1D4F8C4
:1072D00078260533C2F8043151E050D9D3F804318F
:1072E0009A424CD3612001F028FC324B00221A60F4
:1072F000314A012333601368304923F001031360DE
:10730000183A1368580701D50B68FAE72C4B4FF071
:1073100080621A60D4F878162A4800F03BFB224BB2
:107320001F4E188880B2FFF7B9F924281DD8264AC5
:1073300053680133012B53600AD1D6F87836D3F85D
:107340000C311360286800F6B830FFF7BBFD0CE085
:10735000022B0AD1642001F0F0FBFFF713FEC6F800
:107360007806BDE8F840FFF7D9BEFFF70BFEC4F87A
:10737000780610B9FFF7C2FD01E0FFF7AFFD134B30
:107380001B68DB0742BF124B01221A60F8BD00BF29
:107390000880004000400050044000500840005069
:1073A000240C0010343B0010243B001014800040DB
:1073B0000CA40000104100502400034008000340CA
:1073C00080E100E0F43A0010283B00100C4000502F
:1073D0001040005038B5624B1A68D5075FD5614A36
:1073E0000121D2F8100119605F4D134690B3B2F835
:1073F0000C41B2F81C0184422CD1A86860B9D06B52
:1074000050B1D2F800310344106BA3F6B8331844DE
:10741000FFF758FDA96038BD0122AA600022D3F809
:107420001401C3F80421C3F81021D3F80021D3F8C4
:1074300018110244186302F5A542D86B5963503203
:1074400093F8383010441844FFF73CFDBDE838404D
:10745000FFF702BED3F82031424C7BB1B4F80C21C7
:10746000B4F824319A4209D1C02204F5947104F190
:10747000400002F01BFA0023C4F82031AB6863B966
:10748000394B01229A60394B186800F5BD4008302D
:10749000FFF718FDFFF7E0FD01E0FFF73FFE304B7F
:1074A0001A6894070DD5324902221A600B6823F03E
:1074B00008030B602F4B4FF4807119601021196085
:1074C0001A60274B1A6850071ED504221A6001F073
:1074D0002DFB410716D5FFF7D1FCFFF78FFC264B9C
:1074E0004FF080621A60622001F027FB234B80225C
:1074F0001A604FF480721A601D4A136823F040032B
:10750000136001E0FFF7EAFC154B1A68120725D556
:1075100008221A60FFF736FD124BC3F8780618B937
:10752000BDE83840FFF7EABC01F000FB430711D586
:10753000FFF7A4FCFFF762FC0F4B4FF080621A606C
:10754000622001F0FAFA0D4B80221A604FF480722B
:107550001A6038BDBDE83840FFF7C0BC38BD00BF79
:1075600000800040240C0010283B001008800040E0
:10757000148000403CC0092000E100E058C0092010
:107580002DE9F04F87B0C14F4FF08073C04C3B6086
:10759000FFF778FB0125BF4EBF48C4F80053C4F87D
:1075A0002454C4F84855C4F86C5600F0EFF902238F
:1075B000BA4A336004231360B94A35601360FFF799
:1075C000E1FCDFF81483B74BC1461B88B64A9BB277
:1075D0001380B64BC4F878062362FFF7B1F901F0C7
:1075E000C5F9FFF74BFCFFF709FCFFF7F9FCB04BBF
:1075F00000221A60009701960293AE4B1B78092B6C
:1076000040F0928006A9002341F8043DA24800F012
:10761000CFF9002800F084800598A74ED0F81021FB
:10762000D0F80411FFF7B6F8736C43B3059DB5F8B5
:107630001001FFF733F8242821D92B7803F00F022B
:10764000062A69D80123934013F0550F03D113F094
:107650002A0F06D160E0D5F80431072B5CD9A81CAD
:1076600009E0D5F804310D2B56D9A81CFFF766FCAC
:1076700028B905F10800FFF761FC00284CD08F4ABB
:10768000102313608E4B8F4A1B68059F03F5C3338D
:10769000A0331360D8F8003043F00803C8F8003076
:1076A000FFF75CF9054650B34FF0000A01232B7039
:1076B00085F803A0D7F80C3107F58A716B60D7F80D
:1076C000103105F10E00623BAB70D7F80421D7F8FA
:1076D0002031B3FBF2F3AB7297F91C3104226B72C9
:1076E00097F91D3185F80BA02B7202F0DFF82E22DE
:1076F000394605F1120002F0D9F885F801A0059D80
:10770000B5F81001FEF7CAFF2428297840F2AF80AF
:1077100001F00F01052919D0059B0122C3F818219A
:107720000020FFF76FF968E7019B009902221A60B9
:1077300004230B60644B102119604FF480711960B1
:107740001A60FFF78BFA07B0BDE8F08F736B002B60
:10775000E2D0D5F80431272BDED1029B1B6813B190
:10776000534B00221A6004220E212846FFF7D8FB53
:107770000322122120622846FFF7D2FB606201F04B
:1077800091F80122A06215212846FFF7C9FB0222C9
:1077900084F83800162183462846FFF7C1FB0222F1
:1077A000E063182182462846FFF7BAFB022206460C
:1077B00020631C212846FFF7B3FB0122606303907E
:1077C00023212846FFF7ACFB40F67A42B11F00F0B8
:1077D0001F0091422E4F84F82D0045D843F2D4016A
:1077E0004E4301FB0AF296423E63FA633CD343F2F6
:1077F000D3025FFA8BFB01FB0BFB934534DD334A6D
:10780000A6F54356143E964228BF16465E452BD336
:10781000039B53432E4A7B63A3F57423A3F5107394
:10782000934221D807F1400105F11E00FEF7E2FF67
:10783000D7F8FC30C3B1D9F80030002223F0400360
:10784000C9F80030234BD5F80C015A609A60FB6BE5
:10785000D5F80421034403F51A532C33502000FBC0
:107860000230FFF72FFB57E7FFF77CFB54E701F0EF
:10787000030103297FF450AF6F78002F3FF44CAF22
:10788000AB785BB3012B6CD046E700BF80E100E032
:10789000240C001004800040F43A00100C800040DA
:1078A00000E100E0A2040010243B0010D6BE898E47
:1078B0005C0B00104E0B00105404001038C009205F
:1078C000088000401C8000403CC00920A0860100C8
:1078D000C08D0313283B0010148000400C2F7FF450
:1078E0001BAF01222846FFF71BFB0222C6B2042170
:1078F000284684F83860FFF713FB02228246E063D3
:1079000006212846FFF70CFB0222C4F8140103905D
:107910000A212846FFF704FB02228346C4F8180117
:1079200039462846FFF7FCFA06EB460206EB8202D0
:1079300006EB820643F2D402039B02FB0AF1534397
:10794000C4F814310F4BB60003FB0BF3C4F8183125
:107950000123A4F81C0184F83860E163C4F81031F5
:10796000DAE6082F7FF4D8AE394602222846C4F85A
:107970002031FFF7D5FA0449A4F82401E81CFEF7EA
:1079800039FFC9E6A08601004C0D00100023836278
:10799000C3627047C36A826A01330A2B28BF00237F
:1079A00093421DBF40F82310C3620120002070479E
:1079B000836AC26A934209D001330A2B28BF00238D
:1079C00050F823200A60836201207047002070472E
:1079D000044B4FF080521A60034A136823F00203ED
:1079E0001360704798C009200400034030B5084B6D
:1079F000084C19780346084D1A1A914206DD226890
:107A00005207FCD52A6803F8012BF5E730BD00BF0B
:107A1000700A00100C0003400800034040F6354196
:107A20000A4B1A680A4BC2F313021B6801FB0233AC
:107A30008268C06893423CBF03F1434303F5A0034F
:107A40009B1A834234BF002001207047641300104A
:107A5000084000407047000040F668120023436071
:107A6000024B1A8001230370704700BF50040010BE
:107A7000012303707047000038B547F6FF710546D3
:107A80000D2001F004F842F62231122000F0FFFF31
:107A900041F24B31142000F0FAFF4FF49C6120209A
:107AA00000F0F5FF1D4B022019881D4C013989B2E9
:107AB00000F0EDFF4021032000F0E9FF0321212029
:107AC00000F0E5FFE1882D2000F0E1FFA1882C20E7
:107AD00000F0DDFF01F02AF84206FBD5114B4FF014
:107AE000805211491A600B68612043F002030B6059
:107AF0000E4B1A6001F021F801F018F84307FBD58E
:107B00000E2000F0BBFF00F01F000F28F8D162200C
:107B100001F013F802232B7038BD00BF5004001091
:107B2000700A001098C00920040003409CC009207E
:107B300010B50446FFF772FF08B340F6354163689D
:107B40005A1C0F4B1340002BBCBF03F1FF3363F0F3
:107B500003030C4AB8BF013332F8132063600A4BA9
:107B60001A800A4B1A680A4BC2F313021B6801FB06
:107B70000233A360074BE36001232361237010BD30
:107B800003000080B4A4000050040010641300102F
:107B9000084000407011010010B58EB03422002161
:107BA00001A8FCF727FB40F63541204B1A68204B13
:107BB000C2F313021B6801FB02330D9300F0B6FF02
:107BC000C10631D51B4B10241C6001A8FFF70EFF26
:107BD0000D9A01A90620FDF785F9174B1C60FFF7E8
:107BE000F7FE612000F0A9FF00F0A0FF4207FBD5DF
:107BF0000E2000F043FF00F01F000F28F8D10F4ABD
:107C00000F4913685B0701D50B68FAE70D4B4FF07E
:107C100080520D491A600B68622043F002030B602A
:107C20000A4B1A6000F089FF0EB010BD64130010FB
:107C30000840004038C009203CC009200C00034027
:107C40000800034098C00920040003409CC009209C
:107C5000F0B58FB040F635460446254D342200215C
:107C600001A8244FFCF7C6FA2A683B68C2F3130246
:107C700006FB023220460D92FFF7D0FE58B12A686B
:107C80003B68C2F3130206FB0233A36049F640438C
:107C9000E3600323237000F049FFC3061BD5164B96
:107CA00010261E6001A8FFF7A1FE0D9A01A906206B
:107CB000FDF718F940F63541104B1E600D4B2A6850
:107CC0001B68C2F3130201FB0233A3604EF660236C
:107CD000E360032323702378022B06D0642000F096
:107CE0002CFFFFF775FE012323610FB0F0BD00BF2D
:107CF000641300100840004038C009203CC009202F
:107D000030B589B004461C22002101A8FCF772FAA4
:107D1000134DFEF79DFF34B1012C01D1114C03E04E
:107D200000232B7019E0104C104B4FF080721A603A
:107D300000F01CFE2B780D2B06D19DF8043001A815
:107D400054F823309847F5E7642000F0F6FEFFF77B
:107D50003FFE074B4FF080721A6009B030BD00BF84
:107D60004E0B0010D8A40000BCA4000000E100E00D
:107D700080E100E0F0B5012802D0022818D01DE013
:107D8000531E032B1AD80E4B00241E469D685868BC
:107D9000A5424FEA00205860C8BF0F5D04F10104FE
:107DA000C4BF38437060042CF1D19A600120F0BD4B
:107DB000012A03D10978024B1970F7E70020F0BDC2
:107DC000700A0010274A0B21136843F01003136058
:107DD000254B83221A60254A04331160002151602B
:107DE000D321916253F8042C22F0800243F8042C32
:107DF00010B1C0221A6000E018601D4B09221A6001
:107E00001C4A1368043223F0404343F0804342F895
:107E1000043CD36B23F04043D363136823F0030384
:107E200043F001031360144B196821F0030119603A
:107E3000B8B1116821F00C0141F00401116019681A
:107E400021F00C0141F008011960116821F4405142
:107E500041F4805111601A6822F4405242F40052F9
:107E60001A607047C4C00F400C0001400000014080
:107E70000800014000C0024044C002400FB437B5C2
:107E8000134B1D68FDB9134C01221A60FF2107AB8B
:107E9000069A2046019300F009FB204684F8FF5023
:107EA00001F0A4FD0C4B0D4A1C605A604CF6802278
:107EB000C0F30B0040F004409D60D8601A611A695D
:107EC00042F001021A6103B0BDE8304004B07047CF
:107ED000A0120010363B0010E041005000000140AD
:107EE0002DE9F84F804689469346D2F810A0D6680F
:107EF00000270124002522462B464046494601F032
:107F000013FBB94208BFB04207D304FB07F306FBDB
:107F10000533A4FB06451D44EDE7002754EA05039D
:107F200030D022462B464046494601F0FDFA224613
:107F30002B4649460646404601F0F6FA20462946B9
:107F400090469946DBF80C20002301F0EDFA044638
:107F50000D4627B9002E02DC54EA0503DED1092EB6
:107F60000AF1010207DD9BF8003013F0040F14BF83
:107F70003723572300E030231E448AF8006001377E
:107F80009246CBE700238AF80030BDE8F88FF0B5C1
:107F90000C69CA680123B0FBF3F5954201D3534342
:107FA000F9E70025E3B1B0FBF3F2CE6803FB120062
:107FB000B3FBF6F31DB9002A01DC002BF2D1092A2C
:107FC00004F1010706DD0E7816F0040F14BF372602
:107FD000572600E030263244227001353C46E1E766
:107FE0002370F0BDF0B50C69CA680123B0FBF3F54E
:107FF000954201D35343F9E70025E3B1B0FBF3F217
:10800000CE6803FB1200B3FBF6F31DB9002A01DCB6
:10801000002BF2D1092A04F1010706DD0E7816F0D3
:10802000040F14BF3726572600E030263244227052
:1080300001353C46E1E72370F0BD2DE9F0410646ED
:108040000F4615465468136913F8012B1AB92B7A99
:108050002BB1013C03E0002CF9DD013CF4E72B7867
:10806000990708D5EA68102A01D1023C03E0082AE2
:1080700008BF04F1FF3413F0090F0ED1A046B8F188
:10808000000F05DD20213046B84708F1FF38F6E73C
:10809000631E002CB4BF1C461C1B297A09B1304654
:1080A000B8472B789A0711D5EB68102B09D13021EE
:1080B0003046B8472B7813F0040F14BF58217821AD
:1080C00002E0082B02D130213046B8472B78DB077D
:1080D0000ED5A046B8F1000F05DD30213046B84777
:1080E00008F1FF38F6E7631E002CB4BF1C461C1BCA
:1080F000D5F8108018F8011B11B13046B847F9E7E0
:108100002B7803F00903082B06D1002C04DD202175
:108110003046B847013CF8E7BDE8F0818368026863
:1081200093423CBF4268D1548368013383607047F7
:108130002DE9F0478CB0074688461C4606AE0596EA
:1081400092F80090551CB9F1000F00F0AC81B9F124
:10815000250F07D0B9F10A0F02D10D213846C047CB
:10816000494655E1002296461146944610469146EE
:108170009DF80430029203F0FC0362F3C3038DF810
:1081800004308DF80C2015F8013B73B12D2B06D06F
:10819000302B07D0232B08D101229646F3E701208C
:1081A0008146F0E701218C46EDE728B19DF80400F7
:1081B00069F3C3008DF8040029B19DF804106CF335
:1081C00000018DF804102AB19DF804206EF34102DD
:1081D0008DF80420A3F13002092A1DD800210A20BD
:1081E000A3F130025FFA82FEBEF1090F04D800FB52
:1081F000012115F8013BF3E7A3F16102052A02D83A
:10820000A3F1570205E0A3F14102052A03D8A3F127
:1082100037020A2AEBDD02912E2B0BD19DF8043098
:1082200043F001038DF8043015F8013BA3F130024F
:10823000092AF9D97A2B01D12B7832E06C2B40F046
:1082400098802B786C2B2CD16B7805F10209692B67
:1082500048D011D8582B00F0E18007D8002B00F04F
:108260002281252B40F0D7804D46D0E0632B00F0D3
:10827000B380642B36D0CEE0732B00F0B48007D8E7
:108280006F2B00F09A80702B40F0C5804D467CE04B
:10829000752B03D0782B40F0BE80BFE04D46022303
:1082A0000CE0692B05F1010529D01ED9732B00F0D4
:1082B0009B8066D9752B40F0C88001230A22022BCF
:1082C000049208D1E31D23F0070303F1080401AA77
:1082D000D3E900012BE0012B01A9206804F1040976
:1082E0003ED133E04D4602230AE0582B00F0AF8028
:1082F00040F28980632B70D0642B40F08D80012385
:108300000A22022B049215D1E31D23F00703D3E9BF
:108310000001002803F1080471F1000306DA40426D
:108320004FF02D0361EB41018DF80C3001AAFFF7EE
:10833000D7FD18E0012B206804F1040909D10028B9
:10834000BEBF2D2340428DF80C3001A9FFF71FFE60
:1083500008E00028BEBF2D2340428DF80C3001A953
:10836000FFF740FE4C4601AA41463846FFF765FE3E
:1083700052E0692B00F0828042D9732B34D000F296
:108380008E806F2B1AD0702B46D19DF804301022AE
:1083900043F002036FF3820304928DF8043001A9C5
:1083A000206804F1040AFFF71DFEA946544601AAFD
:1083B00041463846FFF741FE2DE04D46082301A90E
:1083C00020680493FFF70EFE01AA4146384604F1E7
:1083D0000409FFF732FE11E04D462178384604F1DA
:1083E0000409C0470AE04D46236801AA41463846C1
:1083F000059304F10409FFF720FE05964C460BE0B7
:10840000582B3FD036D8002B4DD0252B04D1252119
:108410003846C04700E04D462A4691E6A3F1580091
:1084200043429DF80410434163F382011022E31D8F
:1084300023F0070304920CAA02F82C1DD3E90001D3
:1084400003F10804FFF74CFDB1E7782BE4D1A3F169
:10845000580110224B4204929DF804204B4163F3D3
:1084600082020CA901F82C2D206804F1040AFFF700
:108470008EFD9AE7632BB0D0642BCDD100233FE76C
:10848000782BC9D110220492A3F1580253425341D0
:108490009DF8042063F382028DF804207FE7752B9A
:1084A000EED100230AE70CB0BDE8F0871FB5002429
:1084B00081B101390290019101A808490394FFF7A5
:1084C00037FE0399019B029A994234BF5454D45405
:1084D000039800E0084604B010BD00BF1D810000F5
:1084E00082B00023054A0193019B934203DC019B68
:1084F00001330193F8E702B0704700BFBFC62D00FB
:108500002DE9F04180460E4C0E4D002102264145DA
:108510000EDA10204FF48077266020602760FFF786
:10852000DFFF2E6028602F60FFF7DAFF0131EEE7F2
:10853000FFF7D6FFFFF7D4FFBDE8F041FFF7D0BF4C
:1085400038C009203CC0092038B50B4B1B6803F02C
:10855000020503F080440220FFF7D2FF0DB1032093
:1085600001E014B10420FFF7CBFFFFF7B9FFFFF7DD
:10857000B7FFFFF7B5FFEEE72CED00E030B587B0B1
:10858000104D01AC0FCD0FC42B6801AD23600E4B15
:108590001C78E4B20320FFF7B3FF002055F8203029
:1085A000013044FA03F313F0010F02D0FFF7A8FFE4
:1085B00001E00528F2D1FFF793FFFFF791FFFFF7E6
:1085C0008FFFE7E7F0A4000028ED00E030B587B0AA
:1085D0006C46114D0FCD0FC495E8030084E80300ED
:1085E0000E4B1C78E4B20420FFF78AFF00205DF8F0
:1085F0002030013044FA03F313F0010F02D0FFF7EB
:108600007FFF01E00628F2D1FFF76AFFFFF768FF5E
:10861000FFF766FFE7E700BF04A5000029ED00E0D3
:1086200030B587B06C46114D0FCD0FC495E80300EF
:108630000F4B84E803001C88A4B20520FFF760FFFD
:1086400000205DF82030013044FA03F313F0010FED
:1086500002D0FFF755FF01E00628F2D1FFF740FFF7
:10866000FFF73EFFFFF73CFFE7E700BF1CA5000058
:108670002AED00E02DE9F0414CF24F312A4A4FF04B
:1086800080732A4D13602B68294E43F480032B60BE
:1086900002233360274BDFF8B88019600123336071
:1086A00008231360D8F8007001F080F94FF4966445
:1086B00090FBF4F303FB140007F5C8771E4B384416
:1086C0001860D8F8007001F071F990FBF4F303FB27
:1086D000140007F5C877194B38441860D8F80070B3
:1086E00001F064F990FBF4F303FB140007F5C8777D
:1086F000134B144A38441860136843F0490313605D
:10870000114A1378112B01D130BFFAE702230F4A27
:108710003360082313602B6823F480032B604FF031
:1087200080731360BDE8F08100E100E0C4C00F4039
:10873000040009400C000940180009401C000940D1
:1087400020000940140009404E0B001080E100E0B9
:108750000800094010B52E4B1A68D00719D5012220
:108760001A602C4B1B6813F0020F14BF2A4A2B4AC5
:10877000022313602A4B1C6801F018F94FF496632A
:1087800090FBF3F202FB130004F5C874254B204460
:1087900018601F4B1A68910719D502221A601D4BE9
:1087A0001B6813F0100F14BF1B4A1C4A10231360E0
:1087B0001B4B1C6801F0FAF84FF4966390FBF3F240
:1087C00002FB130004F5C874174B20441860104BCB
:1087D0001A6852071AD504221A600E4B1B6813F44C
:1087E000807F14BF0C4A0D4A4FF4807313600C4B0A
:1087F0001C6801F0DBF84FF4966390FBF3F202FB88
:10880000130004F5C874094B2044186010BD00BF64
:108810000000094034C009203CC0092038C00920AC
:1088200008000940180009401C00094020000940C8
:1088300000F08EBC08B50D4A0D4B0E498B4204D298
:1088400052F8040F43F8040BF8E70B4B0B4A0021D6
:10885000934202D243F8041BFAE7FBF7A3FC084B50
:10886000084A1A60FDF74AFDFEE700BF84A5000034
:1088700020000010200B0010200B0010363C0010D0
:1088800008ED00E000400000FEE70000044B0A2273
:108890001A601A68013A1A60002AFAD1704700BFBC
:1088A000A412001090FAA0F070470000C30803EB78
:1088B000900303EB901303EBD01303EB902303EB34
:1088C000D020044B58605A68013A5A60002AFAD105
:1088D000704700BFA4120010014B5843FFF7E6BFDA
:1088E00040420F00104A0023136053609360D3602E
:1088F0001361D361536293620C4A13601362136471
:108900001366C2F880300A4A136053609360D360E4
:108910001361D3615362074A1360136213641366D1
:10892000C2F88030704700BF00C0024000C009207C
:1089300040C0024014C0092008B5FFF7D3FF4CF235
:108940001271094A00231360116240F2B1111164DF
:108950004FF040511366C2F8801053615363536562
:108960005367C2F8943008BD00C00920114B1A6843
:1089700022F4404242F400421A601A6822F4405243
:1089800042F400521A601A6822F4403242F4003273
:108990001A601A6822F4402242F400221A60064B40
:1089A0004FF080521A60054BC7221A600C225A60A1
:1089B000704700BF00C0024098C00920000003407B
:1089C000094A136823F470131360084A136823F0EC
:1089D000C0631360064B1A6842F420121A601A68CA
:1089E00022F4A0121A60704704C0024000C009209F
:1089F00044C00240F0B5104B441E012220250F4E0A
:108A0000DFF83CE002FA04F41D6010270138C0B220
:108A1000FF280CD0214214BF32601A603760DEF8A4
:108A200000501F60C5F3400545EA4101EEE7034BE6
:108A300020221A600846F0BD5CC0092058C00920F9
:108A400054C0092008B5FFF7BBFF09494FF4007374
:108A50000B603220FFF72AFF064B20221A604FF4EA
:108A600080430B6018200449BDE80840FFF7C2BFEF
:108A700038C0092058C00920FF7F0D0008B540F01C
:108A8000800109041820FFF7B5FF80B208BD41EA54
:108A900000411820FFF7AEBF2DE9F843204D2023F9
:108AA000204F2B60F02208234FF0010E102412F00B
:108AB000800F03F1FF3314BFC7F800E0C5F800E0F2
:108AC000520013F0FF033C60164ED2B22C60EED180
:108AD0000138DFF854904F1E0144B9421AD00820E3
:108AE00000244FF01008FFF7D1FEC6F80080D9F837
:108AF000003064009B07E4B248BF44F00104FFF774
:108B0000C5FE013810F0FF00C5F80080EBD107F872
:108B1000014FE2E7FFF7BAFE20233360BDE8F88398
:108B20005CC0092058C0092054C0092008B50021A4
:108B30000820FFF75FFFC0B208BD08B50146082056
:108B4000FFF758FFC0B208BD08B500211820FFF795
:108B500051FF0020FFF792FF0028FAD14FF40041A7
:108B60001820FFF747FF0020FFF788FFB0F5004F00
:108B7000F9D108BD2DE9F04144F23A02414B424E91
:108B80001A60424D002333602B68414C23F00203EE
:108B90002B60AA2323603F4A5523236013683D4F6F
:108BA00013F0007FFAD12B6823F001032B60AA2376
:108BB0002360552323603B6813F08073FBD1DFF8FB
:108BC000F880C8F80030FFF7BFFF33491820FFF7DF
:108BD00011FF6020FFF7B1FFFFF7A8FF4106FBD5AB
:108BE0002E4B20221A601A685206FCD52C4B2822E4
:108BF0001A604FF400525A6001233360294A2A4B0D
:108C0000AA211A605522216022602B6843F00103DB
:108C10002B60216022603B68DE01FCD50323C8F88D
:108C200000302B6843F002032B60AA2323605523F6
:108C300023603B689801FCD51C4B22221A60AA24B1
:108C4000083355201A4A1C601860116841F0010170
:108C500011601C60174C18602168164811F4807F61
:108C6000FAD001684905FCD5116841F00201116094
:108C7000AA221A6055221A6003689B05FCD5BDE83C
:108C8000F08100BF00C00F400CC10F4080C00F40FA
:108C90008CC00F4088C00F4070150800A0C10F4065
:108CA000A8C10F401800010084C00F40A4C00F40AD
:108CB000A0C00F40A8C00F4004C10F4008B5FFF787
:108CC0003BFEFFF7BFFEBDE80840FFF753BF0000C3
:108CD00008B5FFF707FE094B02221A604FF08042E9
:108CE0001368074843F003031360064BAA221A6077
:108CF00055221A60BDE80840FFF7D8BD3CC00920E6
:108D000040420F000800004030B58BB004463623C7
:108D10000D46009305A96846074B9847059B2370AD
:108D2000069B1A0A6370A2701A0C1B0E237105238E
:108D3000E2702B600BB030BDF11FFF1F30B58BB060
:108D400004463A230D46009305A96846134B9847FD
:108D5000059B2370069B1A0A6370A2701A0C1B0EE7
:108D60002371079BE2701A0A6371A2711A0C1B0E21
:108D70002372089BE2711A0A6372A2721A0C1B0E0C
:108D80002373099BE2721A0A6373A2731A0C1B0EF7
:108D900023741123E2732B600BB030BDF11FFF1F52
:108DA00000B58BB03923009305A96846024B98475C
:108DB0000BB05DF804FB00BFF11FFF1F38B5084C76
:108DC000802025686168402DA8BF40252A4600F014
:108DD00057F963682B44636023685D1B256038BDC9
:108DE000AC12001037B51048047A0546C4F341149C
:108DF000022C0CD1002302A941F8043D00F110021D
:108E0000031D083000F066FA08B101980AE005EB8E
:108E1000840463692BB1054A02F10C01101D9847C7
:108E200000E0184603B030BDAC120010B0120010C4
:108E300010B500284AD101F0040101F0FF02254CD1
:108E400001B30822A11800F045F9227AC2F34113B8
:108E500004EB83035B6A6360E389236023610BB1E6
:108E6000D30935D0FFF7BEFF28B9BDE81040012176
:108E7000802000F0F9B8E28923699A42D4BF2260C9
:108E800023601AE02368002B1BDD1A46616800F09E
:108E900021F90028E9DB6368034463602368181A3A
:108EA0002060A8B9237AC3F3411304EB83035B6A00
:108EB0006360FFF797FF0028D7D0BDE81040FFF7A9
:108EC0007DBF1146BDE8104000F004B98028F4D001
:108ED00010BD00BFAC120010024B03EB80004161DB
:108EE00042627047AC1200107047000010B50E4C83
:108EF00000F096F90D4800F081F82146002000F0BE
:108F000061F82146802000F05DF84021002000F04B
:108F10003BF84021802000F037F8054A0549002041
:108F2000FFF7DAFF012010BD318E0000E98E00004E
:108F3000E0120010C9930000034A136830EA0303EB
:108F4000FBD1024B1860704700C2005008C20050AD
:108F5000044B000440F4A06030221A609860102096
:108F6000FFF7EABF08C2005008B5FFF7F1FF054B55
:108F7000090441F4807119601020BDE80840FFF732
:108F8000DBBF00BF10C2005010B5430003F01E034A
:108F900043EAD014094801230268A3401343036045
:108FA000074B4FF480701C605960FFF7C5FF44F019
:108FB00040000021BDE81040FFF7D6BF44C200507A
:108FC00048C200500A4A430003F01E0342F813103F
:108FD000084943EAD01001220B6802FA00F0184356
:108FE000054A0860136843F004031360704700BF2C
:108FF000E812001034C2005004C20050034B044A6F
:109000001864136843F0080313607047E8120010F7
:1090100004C2005040F08001D020FFF7A5BF011C22
:1090200018BF0121FE20FFF79FBF0146F320FFF785
:109030009BBF000008B5430003F01E0343EAD011B4
:109040000846FFF785FF064B090441F400711960DB
:109050002020FFF771FF034B1868C0B208BD00BFA6
:1090600010C2005014C20050430003F01E0343EA34
:10907000D010003118BF012140F04000FFF774BF4D
:1090800038B50346400000F01E0040EAD3109B00B4
:1090900003F03C030C4C43F0020323600B4B1546DA
:1090A0001A600B4A236813F0020303D051F8043B03
:1090B0001360F7E7044A1360FFF74AFFFA20FFF74F
:1090C00047FF284638BD00BF28C2005024C20050C8
:1090D0001CC20050F8B50346400000F01E0040EAF4
:1090E000D3109B00154C03F03C0343F001032360B5
:1090F0002646083C23681D05FCD55C051AD50025CD
:109100002C460F4FC3F309039C420AD014F0030FFF
:1091100008BF3D6811B1944238BF0D552D0A013486
:10912000F2E700233360FFF713FFF220FFF710FF91
:109130002046F8BD4FF0FF30F8BD00BF28C20050F8
:1091400018C20050011C18BF0121D820FFF70CBF26
:10915000F8B52A4B1C68E10711D501229A60284B0B
:10916000596C61B1F520FFF7F3FE264B264A20200B
:109170001A60FFF7E1FE254B1868C0B28847220746
:109180001AD5234B08221A60FE20FFF7E1FE1D4B83
:10919000204A20201A60FFF7CFFE1C4B1868C3B28C
:1091A00013F01A0F08D0164A126C2AB100F01400FE
:1091B00003F001031843904763071ED5144B0422A4
:1091C000154D164E114F1A60002401232A68A34042
:1091D00013420FD033602020FFF7AEFE084B601023
:1091E00053F8203039682BB140EAC41001F01F0158
:1091F000C0B298470134202CE7D1F8BD00C200501E
:10920000E812001010C200500002F50014C2005015
:1092100008C200500002FE0030C2005038C20050A8
:1092200008B5264A2649136823F4402343F48023D3
:10923000136052F8043C23F0300343F0100342F86B
:10924000043C52F8043C23F0405343F0005342F8EE
:10925000043C52F80C3C23F0406343F0806342F836
:109260000C3C52F80C3C23F0405343F0805342F83E
:109270000C3C02F55022B432136843F000431360F3
:10928000104A136843F0120313600B680C4A13F082
:10929000020FFAD01368DB06FCD50B4B00200B4AFB
:1092A00018604FF0FF3313605062D0621363084BB5
:1092B0001860FFF7BAFE012008BD00BF10C00240D1
:1092C000F8CF0050F4CF005004C2005008C2005044
:1092D00040C2005070B5164C2578002415B346786E
:1092E000AE4221D10C60C68844888088042805D00D
:1092F00005281BD10F481860922002E00E48186024
:1093000028201060200A14680004A0420EDC1D68AA
:109310000544201A1D60B042D4BF106016600120C1
:10932000086070BD284670BD204670BD012070BD2C
:10933000301300107C0A001034A50000084B187090
:1093400061B1084B4A1E253112F8010F18B18A424B
:1093500003F8020BF8D100221A709A70704700BF10
:1093600030130010BE0A0010014B5860704700BF58
:1093700030130010F0B5010A0329C4B2CEB2104870
:1093800008D1EE2C06D10F4900789231087419608B
:1093900012230FE04168002501E0013501440878FF
:1093A00068B14F78B742F9D1A542F6D1022E1960C3
:1093B00003D14B8813600120F0BD0B78FAE7F0BDB4
:1093C000301300107C0A00102DE9F0474F4C054681
:1093D000A3680F469146A04643B9287800F01F06BF
:1093E000012E57D006D3022E6AD08BE09847002872
:1093F000F3D04CE06A78D9F80030092A00F2828074
:10940000DFE802F00580808080090D80151C0022B5
:109410001A705A7048E0A878FFF7FCFD37E04B4619
:109420003A46A9886888BDE8F047FFF7A3BF98F8D7
:109430000C2001201A703860BDE8F087AE780EB9B4
:1094400030461FE0FF273B46D8F804402278C2B1DF
:109450006278042A05D0052A05D0022A0ED1637944
:109460000CE0E7780AE09E4208D137B961792379A8
:10947000A07843EA0121FFF787FD334622781444A0
:10948000E4E70120FFF75EFE6B8888F80C300120CE
:10949000BDE8F0876B78D9F800200A2B07D00B2B9A
:1094A00008D07BBB1370537002233B60EFE70023AF
:1094B000137016E06B882BBB3B603046BDE8F0872D
:1094C0006C78012C0FD002D3032C14D01AE0287929
:1094D000D9F80040FFF7AEFD0023C0F34000207034
:1094E00063703E60D3E7698861B92879FFF7BCFDF6
:1094F0002046BDE8F0876B8823B901212879FFF762
:10950000B3FDC4E70020BDE8F08700BF30130010B2
:109510009140031C90409C46203A9340194352428C
:109520006346D3401943704753B94AB9002908BF6D
:1095300000281CBF4FF0FF314FF0FF3000F082B920
:10954000ADF1080C6DE904CE00F006F8DDF804E09A
:10955000DDE9022304B070472DE9F04F8C460C463C
:109560000546099E002B4FD18A4217466BD9B2FAA5
:1095700082FEBEF1000F0BD0CEF1200520FA05F5DA
:1095800001FA0EF345EA030C02FA0EF700FA0EF5A3
:10959000390CBCFBF1F0BAB201FB10C300FB02F8BE
:1095A0004FEA154C4CEA0344A04509D9E41900F1EF
:1095B000FF3380F02881A04540F2258102383C44E9
:1095C000C8EB0404B4FBF1F301FB134C03FB02F200
:1095D000ACB244EA0C418A4209D9C91903F1FF34FB
:1095E00080F00F818A4240F20C81023B39448A1A92
:1095F00043EA00400021002E63D022FA0EF200233D
:1096000086E80C00BDE8F08F8B4207D9002E56D0BB
:10961000002186E811000846BDE8F08FB3FA83F117
:10962000002940F09380A34202D3824200F2FE80E0
:10963000851A64EB03039C460120002E41D086E886
:109640002010BDE8F08F12B90127B7FBF2F7B7FA87
:1096500087FEBEF1000F36D1E41B4FEA17481FFA10
:1096600087F90121B4FBF8F308FB134409FB03F26B
:109670004FEA154C4CEA0444A24207D9E41903F11D
:10968000FF3002D2A24200F2D3800346A41AB4FBF8
:10969000F8F008FB104809FB00F9ACB244EA0842B4
:1096A000914507D9D21900F1FF3402D2914500F259
:1096B000BA802046C9EB020240EA03409BE73146EC
:1096C0003046BDE8F08F07FA0EF7CEF1200C24FAF1
:1096D0000CF34FEA1748B3FBF8FA1FFA87F908FBB7
:1096E0001A3520FA0CFC04FA0EF40AFB09FB4CEACA
:1096F000040C4FEA1C4242EA05439B4500FA0EF572
:109700000AD9DB190AF1FF3280F08B809B4540F2C9
:109710008880AAF1020A3B44CBEB0303B3FBF8F0C9
:1097200008FB103300FB09F41FFA8CFC4CEA0343DE
:109730009C4207D9DB1900F1FF326ED29C426CD9F2
:1097400002383B441C1B40EA0A418BE7C1F1200E62
:109750008B4022FA0EFC4CEA030C24FA0EF74FEA77
:109760001C49B7FBF9FA1FFA8CF309FB1A7720FAA8
:109770000EF88C400AFB03F548EA04044FEA14484B
:1097800048EA0747BD4202FA01F200FA01FB09D993
:1097900017EB0C070AF1FF3041D2BD423FD9AAF1C5
:1097A000020A67447F1BB7FBF9F509FB157705FB38
:1097B00003F3A4B244EA0747BB4208D917EB0C07EE
:1097C00005F1FF3027D2BB4225D9023D674445EA67
:1097D0000A40A0FB0289FF1A4F4545464C4614D368
:1097E00029D066B3BBEB050367EB040707FA0EFE4F
:1097F000CB40CF404EEA030386E888000021BDE855
:10980000F08F2346F3E61846DAE6B8EB020569EB7B
:109810000C040138E5E70546D9E7104692E7824691
:10982000C0E7924678E702383A4443E7084604E73F
:10983000023B3C442AE7C345E7D33C46D1E73146E7
:10984000BDE8F08F704700BF032A70B426D940EA04
:1098500001039B0711D004780D78AC4222D1024459
:10986000431C05E013F8014B11F8015FAC4219D11C
:109870009342F7D1002070BC70470C4603461E6827
:1098800025681846AE42214603F1040304F104049E
:10989000E1D1043A032A18462146F0D8002ADAD149
:1098A0001046E8E7601B70BC704700BF844641EA81
:1098B000000313F0030349D1403A23D30B6803603C
:1098C0004B6843608B688360CB68C3600B6903613E
:1098D0004B6943618B698361CB69C3610B6A036226
:1098E0004B6A43628B6A8362CB6AC3620B6B03630E
:1098F0004B6B43638B6B8363CB6BC36340304031F3
:10990000403ADBD230320BD30B6803604B684360C4
:109910008B688360CB68C36010301031103AF3D28B
:109920000C3205D351F8043B40F8043B043AF9D219
:10993000043208D0D2071CBF11F8013B00F8013BEC
:1099400001D30B8803806046704700BF082A13D3F9
:109950008B07B1D010F00303AED0C3F10403D21AC9
:10996000DB071CBF11F8013B00F8013BA4D331F821
:10997000023B20F8023B9FE7043AD9D3013A11F8A1
:10998000013B00F8013BF9D20B7803704B78437030
:109990008B78837060467047034B00221B68C3F8C6
:1099A000A800C3F8AC2070472000001030B40C4B66
:1099B0000C4C19680C4DD1F8A820D1F8AC0004FB70
:1099C00002F4A2FB052305FB00400132034443F1EE
:1099D0000003C1E92A2323F0004030BC704700BFD8
:1099E000200000102DF451582D7F954C20F00301DC
:1099F00010F00300C0F1000051F8043B00F1040C2A
:109A00004FEACC0C6FF000021CBF22FA0CF2134399
:109A10004FF0010C4CEA0C2C4CEA0C4CA3EB0C0262
:109A200022EA030212EACC1204BF51F8043B0430CC
:109A3000F4D0C2F1000102EA0102B2FA82F2C2F1EC
:109A40001F0200EBD2007047280000104300000006
:109A5000463E786F4D2E0F6542271F1A50537D5991
:109A60000A2308367A1121003A73065E56313414FF
:109A7000281B545A3F702F660101010100010001AB
:109A800000010000000001000101000101010100CE
:109A900000010101000001000100010100000101BD
:109AA00000000000000101000101000100010101AE
:109AB00000010000000101000001000000010000A1
:109AC0000000000001000001000001010001000091
:109AD000010101010001010100000000010101017B
