:10000000E03F0010210400007504000075040000AA
:100010007504000075040000750400000000000075
:100020000000000000000000000000007504000057
:100030007504000000000000750400007504000055
:1000400075040000750400007504000075040000CC
:1000500075040000750400007504000075040000BC
:1000600075040000750400007504000075040000AC
:10007000750400007504000075040000750400009C
:10008000750400007504000075040000750400008C
:10009000750400007504000075040000750400007C
:1000A000750400007504000075040000750400006C
:1000B000750400007504000075040000750400005C
:1000C0007504000075040000750400000348044B2B
:1000D000834202D0034B03B118477047A8050010B4
:1000E000A805001000000000054806490B1AD90FAA
:1000F00001EBA301491002D0034B03B1184770472D
:10010000A8050010A80500100000000010B5064C5E
:10011000237843B9FFF7DAFF044B13B10448AFF378
:1001200000800123237010BDA8050010000000000E
:100130008819000008B5044B1BB104490448AFF30B
:100140000080BDE80840CFE700000000AC050010CB
:1001500088190000A3F5803A704700BF154B002BAB
:1001600008BF114B9D46FFF7F5FF00218B460F4658
:100170001148124A121A00F079F80C4B002B00D0EB
:1001800098470B4B002B00D098470020002104001B
:100190000D000B4800F016F800F044F8200029008C
:1001A00001F082F900F014F80000080000000000DF
:1001B0000000000000000000A80500106E070010FD
:1001C000F1010000002301461A46184600F09EB8CF
:1001D00008B50021044600F0CBF8044B1868C36B47
:1001E00003B19847204601F0B3FB00BF541900004B
:1001F00038B50A4C0A4D641BA4100AD004F18043A0
:10020000013B05EB8305013C55F804399847002C68
:10021000F9D1BDE8384001F0C5BB00BFB4190000FA
:10022000B019000070B50D4E0D4D761BB61006D0FE
:100230000024013455F8043B9847A642F9D1094EF1
:10024000094D01F0A3FB761BB61006D00024013443
:1002500055F8043B9847A642F9D170BD98190000A3
:1002600098190000A419000098190000F0B486073E
:1002700046D0541E002A3CD0CAB2034602E014F114
:10028000FF3436D303F8012B9D07F8D1032C29D96D
:10029000CDB245EA05250F2C45EA054533D9A4F131
:1002A0001006360903F1200707EB061703F11002C9
:1002B00042E9045542E902551032BA42F8D1721CA3
:1002C00014F00C0F03EB021204F00F0613D0331FCF
:1002D00023F003030433134442F8045B9342FBD13D
:1002E00006F003042CB1C9B21C4403F8011B9C4264
:1002F000FBD1F0BC704734461346002CF3D1F8E72D
:1003000014460346C2E71A462646E0E7F0B4174C07
:100310002568D5F848410CB365681F2D23DC38B932
:1003200000206B1C0235636044F82510F0BC704758
:10033000012604EB850CCCF88820D4F8887106FAE5
:1003400005F217430228C4F88871CCF80831E7D1C8
:10035000D4F88C311A43C4F88C21E1E705F5A67472
:10036000C5F84841D8E74FF0FF30DFE754190000E7
:100370002DE9F04F8A464FF00008234B83B0D3F8A5
:1003800000B00190DBF8486196B17468651E0FD427
:1003900001273C4406EB8404BAF1000F0BD0D4F8DB
:1003A0000031534507D0013D6B1CA4F10404F3D187
:1003B00003B0BDE8F08F73682268013BAB420CBF0D
:1003C0007560C4F80080002AEDD0D6F8881107FACD
:1003D00005FC1CEA010FD6F8049008D1904772681A
:1003E0004A45CFD1DBF84831B342DCD0CAE7D6F872
:1003F0008C31D4F880101CEA030F02D10198904789
:10040000EDE708469047EAE754190000024B13B1A4
:100410000248FFF7D7BE704700000000F10100005E
:1004200008B50D4B0D4A0E498B420CD300210D4BE4
:100430000D4A93420CD3FFF7F5FE0C4A0C4B1A60A1
:1004400001F032F8FEE752F8040B43F8040BEBE737
:1004500043F8041BEDE700BF20000010C0190000A6
:10046000A8050010A80500106E070010000000008D
:1004700008ED00E0FEE700000A22044B1A601A684B
:10048000013A1A60002AFAD1704700BFC405001073
:1004900090FAA0F070470000C30803EB900303EB51
:1004A000901303EBD01303EB902303EBD020044B0A
:1004B00058605A68013A5A60002AFAD1704700BF62
:1004C000C4050010014B5843FFF7E6BF40420F0040
:1004D0004FF47A735843FFF7DFBF00000023104A40
:1004E000136053609360D3601361D361536293626E
:1004F0000C4A1360136213641366C2F880300A4A10
:10050000136053609360D3601361D3615362074AF1
:100510001360136213641366C2F88030704700BF23
:1005200000C0024000C0092040C0024014C00920A1
:1005300008B5FFF7D3FF00234CF21271084A13608D
:10054000116240F2B11111644FF040511366C2F8CC
:1005500080105361536353655367C2F8943008BDEC
:1005600000C00920114B1A6822F4404242F40042B4
:100570001A601A6822F4405242F400521A601A6853
:1005800022F4403242F400321A601A6822F4402207
:1005900042F400221A604FF08052054B1A60C722C5
:1005A000044B1A600C225A60704700BF00C0024022
:1005B00098C0092000000340094A136823F470130F
:1005C0001360084A136823F0C0631360064B1A686F
:1005D00042F420121A601A6822F4A0121A607047BE
:1005E00004C0024000C0092044C00240F0B5451ECE
:1005F00003462020012410270D4ADFF83CC010607C
:1006000008460C4904FA05F5013BDBB2FF2B02D189
:1006100020230B60F0BD284214BF0C6014600F60F3
:10062000DCF800601760C6F3400646EA4000EBE7DE
:100630005CC0092058C0092054C0092008B5FFF744
:10064000BBFF4FF40073084932200B60FFF724FF13
:100650002022064B18201A604FF480430B60044997
:10066000BDE80840FFF7C2BF38C0092058C00920C4
:10067000FF7F0D0008B540F0800109041820FFF746
:10068000B5FF80B208BD41EA00411820FFF7AEBFB8
:1006900008B540F0800109021020FFF7A7FFC0B2A3
:1006A00008BD41EA00211020FFF7A0BFF8B52022C5
:1006B0001C4B70251A600127082210261A4C15F0D1
:1006C000800F02F1FF3214BF27601F606D0012F02F
:1006D000FF022660EDB21E60F1D10126102708440A
:1006E00088420CD108221021013A12F0FF02216049
:1006F0001960F9D1FFF7C0FE20232360F8BD08225E
:1007000011F8015B15F0800F02F1FF3214BF266073
:100710001E606D0012F0FF022760EDB21F60F1D184
:10072000DEE700BF5CC0092058C009202DE9F8436E
:1007300020231E4DF0222B600126082310241C4F7D
:1007400012F0800F03F1FF3314BF3E602E605200A1
:1007500013F0FF033C60D2B22C60F1D14FF01008CF
:10076000DFF850900844814205D1FFF785FE202331
:100770003B60BDE8F88300240826FFF77DFEC7F83C
:100780000080D9F8003064009B07E4B206F1FF3620
:1007900048BF44F00104FFF76FFE16F0FF06C5F8EE
:1007A0000080EAD101F8014BDDE700BF5CC0092001
:1007B00058C0092054C0092008B500210820FFF7BF
:1007C00015FFC0B208BD08B501460820FFF70EFFAF
:1007D000C0B208BD08B500211820FFF707FF0020B0
:1007E000FFF748FF0028FAD14FF400411820FFF727
:1007F000FDFE0020FFF73EFFB0F5004FF9D108BD28
:100800002DE9F04144F23A02404B414E1A60002378
:10081000404D33602B68404C23F002032B60AA2329
:100820002360552323603D4B1F461A689001FCD47A
:100830002B6823F001032B60AA2323605523236038
:100840003B6813F08073FBD1DFF8F480C8F8003008
:10085000FFF7C0FF18203249FFF7C8FE6020FFF7FE
:10086000B2FFFFF7A9FF4106FBD520222D4B1A60EE
:100870001A685206FCD528222B4BAA211A604FF485
:1008800000525A600123294A3360294B1A605522CD
:10089000216022602B6843F001032B6021602260FD
:1008A0003B68DE01FCD50323C8F800302B6843F019
:1008B00002032B60AA232360552323603B689D011C
:1008C000FCD522225520AA241A4B1A601A4A9C6091
:1008D00098601168083341F00101116017491C60EC
:1008E000186008460C68E405FCD501684905FCD58C
:1008F000116841F002011160AA221A6055221A60A3
:1009000003689B05FCD5BDE8F08100BF00C00F4027
:100910000CC10F4080C00F408CC00F4088C00F40FA
:1009200070150800A0C10F40A8C10F4018000100B9
:1009300084C00F40A4C00F40A0C00F40A8C00F400B
:1009400004C10F4008B5FFF7F3FDFFF777FEBDE8E0
:100950000840FFF755BF000008B5FFF7BFFD0222B2
:10096000084B09481A604FF08042136843F00303B4
:100970001360AA22054B1A6055221A60BDE8084090
:10098000FFF78ABD3CC0092040420F00080000402C
:10099000411E89B20220FFF776BE01460220FFF712
:1009A00072BE10B504466420FFF70DFFFFF704FF89
:1009B0004107FBD42046FFF7EBFFFFF7FDFE4206A1
:1009C000FBD56120FFF7FFFEFFF7F6FE4307FBD5DF
:1009D000BDE810406220FFF7F6BEFFF7E2BF00005F
:1009E00030B58BB0362304460D4600936846084B5D
:1009F00005A99847059B2370069B1A0A6370A2708D
:100A00001A0C1B0E23710523E2702B600BB030BD56
:100A1000F11FFF1F30B58BB03A2304460D460093FB
:100A20006846144B05A99847059B2370069B1A0A34
:100A30006370A2701A0C1B0E2371079BE2701A0AD6
:100A40006371A2711A0C1B0E2372089BE2711A0AC1
:100A50006372A2721A0C1B0E2373099BE2721A0AAC
:100A60006373A2731A0C1B0E23741123E2732B60A1
:100A70000BB030BDF11FFF1F00B58BB039236846A6
:100A8000009305A9024B98470BB05DF804FB00BF2B
:100A9000F11FFF1F38B5084C802025686168402D84
:100AA000A8BF40252A4600F05DF9636822682B4400
:100AB000521B6360226038BDCC05001037B510486A
:100AC000047A0546C4F34114022C0CD1002300F132
:100AD0001002019301A9031D083000F017FB10B1AB
:100AE000019803B030BD05EB840463692BB1054A5E
:100AF00002F10C01101D9847F3E71846F1E700BF1B
:100B0000CC050010D005001010B5002847D111F019
:100B10000401244C23D00822A11800F04BF9227ABA
:100B2000C2F3411304EB83035B6A6360E3892360D0
:100B300023610BB1D30934D0FFF7C0FF28B9BDE85A
:100B400010400121802000F001B9E28923699A4216
:100B5000D4BF22602360BDE81040FFF79BBF22682E
:100B6000002A17DD616800F025F90028E7DB6368DB
:100B7000034463602368181A206090B9237AC3F392
:100B8000411304EB83035B6A6360FFF797FF002860
:100B9000E1D1D4E70A46BDE8104000F00BB9802847
:100BA000D9D010BDCC050010024B03EB8000416191
:100BB00042627047CC0500107047000010B50E4C23
:100BC00000F0E0F90D4800F07FF82146002000F029
:100BD00061F82146802000F05DF84021002000F0FF
:100BE0003BF84021802000F037F80020044A0549F6
:100BF000FFF7DAFF012010BD090B0000B90B000060
:100C0000000600101D120000034A136830EA0303B7
:100C1000FBD1024B1860704700C2005008C2005060
:100C20003022044B000440F4A0601A609860102049
:100C3000FFF7EABF08C2005008B5FFF7F1FF054B08
:100C4000090441F4807119601020BDE80840FFF7E5
:100C5000DBBF00BF10C2005010B501230B4A440097
:100C600004F01E0444EAD0141068A3400343136048
:100C7000074B4FF480701C605960FFF7C5FF44F0CC
:100C800040000021BDE81040FFF7D6BF44C200502D
:100C900048C200500A4A430003F01E0342F81310F2
:100CA00043EAD0100123074A03FA00F01168084311
:100CB000106052F8303C43F0040342F8303C704777
:100CC0000806001034C20050034B044A186413682D
:100CD00043F00803136070470806001004C2005078
:100CE000034B044A5864136843F0010313607047D0
:100CF0000806001004C2005040F08001D020FFF729
:100D00009BBF011E18BF0121FE20FFF795BF0146C2
:100D1000F320FFF791BF000008B5430003F01E0366
:100D200043EAD0110846FFF77BFF064B090441F464
:100D3000007119602020FFF767FF034B1868C0B2ED
:100D400008BD00BF10C2005014C20050430003F0A1
:100D50001E0343EAD010003918BF012140F04000C3
:100D6000FFF76ABF38B503461546400000F01E0085
:100D700040EAD3109B000D4C03F03C0343F0020308
:100D800023600B4B1A6023460C3C1A6812F00202D7
:100D900007D11A60FFF744FFFA20FFF741FF28460A
:100DA00038BD51F8042B2260EFE700BF28C2005085
:100DB00024C20050F8B50346400000F01E0040EA8F
:100DC000D3109B00144E03F03C0343F00103134C7B
:100DD000336023681D05FCD55C051AD500252C461B
:100DE0000F4FC3F309039C4208D100233360FFF780
:100DF00017FFF220FFF714FF2046F8BD14F0030F91
:100E000008BF3D6811B1944238BF0D552D0A013419
:100E1000E9E74FF0FF30F0E728C2005020C2005051
:100E200018C20050F7B50346400000F01E0040EA2B
:100E3000D3109B001A4E03F03C0343F001033360D0
:100E400000BF01230193019B013B0193002BFAD1C9
:100E5000144C246814F4006504D14FF0FF30356061
:100E600003B0F0BD14F48065F7D0C4F309051C4647
:100E70000D4FAC4208D100233360FFF7D1FEF220C2
:100E8000FFF7CEFE2046EBE714F0030F08BF3B68E8
:100E900011B1944238BF0B551B0A0134E9E700BF7A
:100EA00028C2005020C2005018C20050011E18BFB6
:100EB0000121D820FFF7C0BEF8B5294B1C68E10717
:100EC00011D501229A60274B596C61B1F520FFF7CB
:100ED000A7FE254B254A20201A60FFF795FE244BDC
:100EE0001868C0B28847220717D50822214BFE2078
:100EF0001A60FFF795FE1C4B1F4A20201A60FFF76F
:100F000083FE1B4B1B6813F01A0FD8B205D0154B8C
:100F10001B6C13B100F01500984763071ED504221F
:100F20000024144B154D164E114F1A6001232A68E8
:100F3000A3401A420FD020203360FFF765FE094B13
:100F4000601053F8203039682BB140EAC41001F02A
:100F50001F01C0B298470134202CE7D1F8BD00BF73
:100F600000C200500806001010C200500002F50038
:100F700014C2005008C200500002FE0030C20050EF
:100F800038C2005008B5264A136823F4402343F4BE
:100F90008023136052F8043C23F0300343F0100325
:100FA00042F8043C52F8043C23F0405343F0005311
:100FB00042F8043C52F80C3C23F0406343F0806359
:100FC00042F80C3C52F80C3C23F0405343F0805361
:100FD00042F80C3C02F55022D2F8B430B43243F05F
:100FE000004313600F4A136843F0120313600E4B63
:100FF0001A4619688907FCD51368DB06FCD5002062
:101000000A4B0B4A18604FF0FF3313605062D062F6
:101010001363084B1860FFF77AFE012008BD00BF7C
:1010200010C00240F4CF0050F8CF005004C200506E
:1010300008C2005040C2005070B50024446047F61A
:10104000E0740160466804EA431434434460436832
:10105000BDF81040069D43EA044343601AB143685B
:1010600043F01003436019B1436843F00403436045
:10107000059B83600AB105B105610023C36070BDA3
:10108000430003F01E0343EAD010012303FA00F0EB
:10109000014B1860704700BF8CC20050430003F042
:1010A0001E0343EAD010012303FA00F0014B18603D
:1010B000704700BF88C2005070B50025C3F3090314
:1010C000AEB254198E42A4B205F1010500D370BD31
:1010D00043EA044444F4004440F82640F0E7430067
:1010E00003F01E0343EAD01041F8202070470000AF
:1010F0000021031F00F17C0243F8041F9342FBD13F
:10110000014B1860704700BF80C2005070B50446A4
:101110001548057800202DB36678AE421DD1E688CB
:1011200008606088A488042C03D0052C16D0012008
:1011300013E00E4C1C6028241460040A1068250477
:10114000B0EB044FF3DB1C68401B2C441C60B04226
:10115000D4BF106016600120086070BD044C1C6094
:101160009224E9E72846F8E7500600105C190000D1
:1011700058040010084B187061B1084B4A1E253105
:1011800012F8010F18B18A4203F8020BF8D10022BD
:101190001A709A70704700BF500600109A04001031
:1011A000044A054B127892331A740B6012230360C1
:1011B000012070475006001058040010014B586081
:1011C000704700BF50060010F0B5040A032CC1B2EE
:1011D000264610480AD1EE2908D10F4900789231ED
:1011E00008741960122301201360F0BD00254468C3
:1011F00020780028F9D06778B74208D1A94205D1F4
:101200001C60022E0CBF63882378ECE70135044490
:10121000EEE700BF50060010580400102DE9F0471B
:10122000554C0546A3680F469046A1464BB9287811
:1012300000F01F06012E69D0022E7BD036B10020AF
:1012400037E098470028F2D0012032E06A78D8F8D9
:101250000030092AF3D801A151F822F085120000CC
:101260003F1200003F1200003F1200003F1200003A
:1012700091120000991200003F120000A912000014
:10128000B712000000221A705A7002233B60DBE79D
:10129000A878FFF731FDD7E743463A46A988688822
:1012A000BDE8F047FFF790BF012099F80C201A70B5
:1012B0003860BDE8F087AE7836B93046FFF7F6FD06
:1012C0006B8889F80C30BFE7FF27B846D9F804408F
:1012D00023780BB90120F1E76378042B08D0052BA4
:1012E00008D0022B01D194F8058023781C44EFE745
:1012F000E778FAE74645F8D1002FF6D161792379EE
:10130000A07843EA0121FFF7A7FCEEE76B78D8F855
:1013100000200A2B06D00B2B08D0002B8FD1137086
:101320005370B2E7002313703E608DE76B88002B8B
:10133000ACD084E76C78012C10D0032C16D0002C94
:101340007FF47DAF2879D8F80080FFF7E5FCC0F383
:10135000400088F8000088F80140E5E76988002926
:101360007FF46DAF2879FFF7F1FC6DE76B88002BF8
:101370007FF465AF0121F5E750060010014B98603E
:10138000704700BF5006001008B513460A460146D4
:10139000014800F0DCF908BD6006001008B5FFF751
:1013A0000DFC0648FFF70AFF054A06490120FFF732
:1013B000FBFB0120FFF7A5FC002008BDFC0400108A
:1013C00068060010891300000020FFF79ABC4FF454
:1013D0008072034B1A6010221A6002221A60704752
:1013E00038C009204FF48072034B1A6010221A6033
:1013F00002221A60704700BF3CC009200621144A2F
:10140000D2F808310133C2F808311B0CB3FBF1F2FA
:1014100001FB1233013B4FF480721021042B10D8D2
:10142000DFE803F00309030F14000A4B1A60196088
:1014300002225A607047074B1A60022219601A6034
:101440007047044B1A6010225A60F1E7024BF3E731
:101450006006001038C009203CC0092010B5FFF715
:10146000B6FFFFF79BFF0F4C0E4800F066F828B957
:10147000FFF7AAFFBDE81040FFF7B4BFFFF71CFD60
:10148000FFF7BCFF94F80C31002BEDD0204600F0A4
:101490005AF80028E8D0D4F80831B3F5C01FE3D9D2
:1014A000E6E700BF6006001010B5FFF741F8164BE5
:1014B0001B685A000FD5154C154B22689A4214D15F
:1014C000FFF740FAFFF7CAFF002301202360FEF771
:1014D000F9FFFFF741FA44F20003C0F20003D3F82A
:1014E00000D0D3F804F0002010BD0A4B1B685B024B
:1014F000F1D40124084B83F80C41FFF723FAFFF7DE
:10150000ADFF2046E3E700BF34C009201C000010F7
:1015100021BB054314C0092060060010024800F2F8
:101520000D1100F003B800BF600600104FF4007208
:10153000828001220160827170474079012894BF46
:10154000002001207047807970470023417183712A
:10155000704740797047017170470079704743794F
:101560000171012B81BF0A23437100238371002085
:1015700070470020704714207047CA8822B943F68C
:1015800098234988994202D90E21FFF7E8BF012329
:1015900082714371184670472DE9F3419846CB8814
:1015A000044683B94279052A06D00F21204602B0AD
:1015B000BDE8F041FFF7D3BF0622837142710120DD
:1015C00002B0BDE8F081B3F5807F40D14379022BB2
:1015D00001D0052BE9D14D882D02B5F5804F34D3CC
:1015E000B5F5803F32BF4FF480534FF40043EE0B0C
:1015F00003F1FF3334BF2E0B0E362B42276813D076
:1016000032463146384600F0C5F8064690B9114BCF
:101610004246009329464FF48073384600F0CCF8D8
:101620000323A6716371CAE732463146384600F09B
:10163000B1F808B10621B9E7324631463846054BC4
:1016400000F0D0F80028DBD0F4E70321AEE70E214C
:10165000ADE700BFA086010070B51546CA880446F4
:10166000B2F5807F12D14279022A06D0092A04D02D
:101670000F21BDE87040FFF772BF4A88B2F5006FD6
:101680004FEA022104D308212046F2E70E21F0E7B9
:101690004FF480761846324600F0E4F802232E60BC
:1016A000637100230120A37170BD10B54C88DCB9B3
:1016B000C98806291AD1417903290FD0062911D0EA
:1016C000017919701421597000219970D9704079ED
:1016D0005971187106230120136010BD0521417155
:1016E0008471EDE70221FAE70020F6E72046F4E7EF
:1016F0004B8823B9CB8813B942790A2A02D00E212C
:10170000FFF72DBF4FF40072837182800120704774
:1017100010B44C8814B9C988012903D00E2110BC1B
:10172000FFF71DBF407910BC187008461160704764
:101730004B8823B9CB8813B942790A2A02D10E21EA
:10174000FFF70DBF0222837142710120704710B470
:101750004C781B68062C1AD8DFE804F004070A0D41
:101760001013160010BCFFF708BF10BCFFF714BF22
:1017700010BCFFF771BF10BCFFF797BF10BCFFF79D
:10178000B7BF10BCFFF7C4BF10BCFFF7D1BF00202C
:1017900010BC70471FB53223CDE90131012301A8E8
:1017A00000936946034B039298479DF8000005B0EB
:1017B0005DF804FBF11FFF1F7FB5CDE90323089BF4
:1017C000332005930123CDE90101009301A8694667
:1017D000034B98479DF8000007B05DF804FB00BF7D
:1017E000F11FFF1F7FB53420CDE904230123CDE98C
:1017F0000201019302A8044B01A998479DF8040037
:1018000007B05DF804FB00BFF11FFF1F7FB5352354
:101810000292CDE90031012200236846CDE903237D
:10182000059303A9034B98479DF80C0007B05DF89A
:1018300004FB00BFF11FFF1F7FB53820CDE9042353
:1018400001220023CDE90201CDE9002302A8694667
:10185000034B98479DF8000007B05DF804FB00BFFC
:10186000F11FFF1F844641EA000313F0030349D12F
:10187000403A23D30B6803604B6843608B688360F6
:10188000CB68C3600B6903614B6943618B698361FA
:10189000CB69C3610B6A03624B6A43628B6A8362E2
:1018A000CB6AC3620B6B03634B6B43638B6B8363CA
:1018B000CB6BC36340304031403ADBD230320BD384
:1018C0000B6803604B6843608B688360CB68C360C0
:1018D00010301031103AF3D20C3205D351F8043BDA
:1018E00040F8043B043AF9D2043208D0D2071CBFB6
:1018F00011F8013B00F8013B01D30B8803806046DF
:10190000704700BF082A13D38B07B1D010F0030330
:10191000AED0C3F10403D21ADB071CBF11F8013BA0
:1019200000F8013BA4D331F8023B20F8023B9FE7CB
:10193000043AD9D3013A11F8013B00F8013BF9D23E
:101940000B7803704B7843708B78837060467047D8
:10195000FEE700BF30000010F11FFF1F280000004D
:1019600000010400010000000000000000015749D0
:101970004E5553420000000000000000000000002F
:1019800000000000F11FFF1F00000000F8B500BFBD
:10199000F8BC08BC9E4670470D04000035010000ED
:1019A0001D150000F8B500BFF8BC08BC9E46704786
:0819B0000D0100000000000021
:0819B8009CE7FF7F0100000025
:1019C00000000000000000003000001000000000D7
:1019D000000000001C03001084030010EC03001042
:1019E00000000000000000000000000000000000F7
:1019F00000000000000000000000000000000000E7
:101A000000000000000000000000000000000000D6
:101A100000000000000000000000000000000000C6
:101A200000000000000000000000000000000000B6
:101A300000000000000000000000000000000000A6
:101A40000000000000000000000000000000000096
:101A50000000000000000000000000000000000086
:101A60000000000000000000000000000000000076
:101A70000000000000000000010000000000000065
:101A80000E33CDAB34126DE6ECDE05000B0000002A
:101A90000000000000000000000000000000000046
:101AA0000000000000000000000000000000000036
:101AB0000000000000000000000000000000000026
:101AC0000000000000000000000000000000000016
:101DF000000000000000000092000000000105004B
:101E0000010088000000070000002A00440065006F
:101E1000760069006300650049006E00740065008B
:101E200072006600610063006500470055004900CC
:101E3000440073000000500000007B0030003100BF
:101E40003200330034003500360037002D003000FA
:101E50003100320033002D003400350036003700E9
:101E60002D0038003900610062002D003000310083
:101E700032003300340035003600370038003900B6
:101E8000610062007D000000000012034D0053005D
:101E900046005400310030003000410012010002C1
:101EA00000000040501D0360000101020001090212
:101EB0001B0001010080320904000000FE01020045
:101EC00009210F983A00010101040309045C036829
:101ED000007400740070003A002F002F0067006942
:101EE0000074006800750062002E0063006F006DD2
:101EF000002F0067007200650061007400730063CA
:101F0000006F007400740067006100640067006582
:101F100000740073002F0075006200650072007489
:101F2000006F006F00740068001E0375007300628C
:101F3000005F0062006F006F0074006C006F006152
:081F400000640065007200005E
:0400000300000421D4
:00000001FF
