:10000000E03F001061110000B5110000B5110000C3
:10001000B5110000B5110000B5110000000000008E
:10002000000000000000000000000000B51100000A
:10003000B511000000000000B5110000B51100006E
:10004000B51100002D070000B5110000B51100002A
:10005000B5110000B5110000B5110000B511000088
:10006000B5110000B5110000B5110000B511000078
:10007000B5110000B5110000B5110000B511000068
:10008000B5110000B5110000B5110000B511000058
:10009000B5110000B5110000B5110000B511000048
:1000A0005D110000B511000051070000B5110000FE
:1000B000B5110000B5110000B5110000B511000028
:1000C000B5110000B5110000B51100000348044B44
:1000D000834202D0034B03B1184770470405001058
:1000E0000405001000000000054806490B1AD90F4E
:1000F00001EBA301491002D0034B03B1184770472D
:1001000004050010040500100000000010B5064CA6
:10011000237843B9FFF7DAFF044B13B10448AFF378
:1001200000800123237010BD0405001000000000B2
:10013000281F000008B5044B1BB104490448AFF365
:100140000080BDE80840CFE700000000080500106F
:10015000281F0000002301461A46184600F03EB84A
:1001600038B50A4C0A4D641BA4100AD004F1804330
:10017000013B05EB8305013C55F804399847002CF9
:10018000F9D1BDE8384001F0D9BE00BF4C1F0000D6
:10019000481F000070B50D4E0D4D761BB61006D0F1
:1001A0000024013455F8043B9847A642F9D1094E82
:1001B000094D01F0B9FE761BB61006D000240134BB
:1001C00055F8043B9847A642F9D170BD341F000092
:1001D000341F00003C1F0000341F0000F0B4174C17
:1001E0002568D5F848410CB365681F2D23DC38B964
:1001F00000206B1C0235636044F82510F0BC70478A
:10020000012604EB850CCCF88820D4F8887106FA16
:1002100005F217430228C4F88871CCF80831E7D1F9
:10022000D4F88C311A43C4F88C21E1E705F5A674A3
:10023000C5F84841D8E74FF0FF30DFE7F81D000070
:10024000024B13B10248FFF785BF70470000000062
:100250006101000010B5224A22491368224C43F084
:10026000005313600023214A0B6013601362136470
:100270001366C2F88030C2F8A030C2F8C030FF2345
:10028000A2F5947213609360194B1A4A1C605A606D
:10029000194A1A4814601A4CD860C2E90143D06068
:1002A00018489A60026822F0806202600120164AB3
:1002B00010601068C007FCD51868144A10605868B0
:1002C000506098689060DA68114B1A604DF206032E
:1002D0000B6000230F4A13600F4A136010BD00BF6C
:1002E000C4C00F401041005008000340304100508E
:1002F0003426001049260010EC05001032900088CA
:100300000026001000E100E03040005000410050A5
:100310000C410050E80500107C2600104FF0805280
:100320000C4B0D491A600B6843F001030B6051F848
:10033000203C43F0020341F8203C08490B6843F09D
:1003400001030B6006490B6843F080630B60054BAB
:100350001A60704798C009202400034010410050E3
:1003600000E100E09CC0092070B58AB043780C46DB
:100370001568212B00F24181DFE813F02C002200E8
:100380003F012E0034003B004000430048004C0079
:100390005100E900F20015016D005700A500AA0008
:1003A000AF00B100B700DF00E200E5000A01120172
:1003B0003F011801BB00C500D100CE00D4002F01C1
:1003C0008F4B428819680A441A601A6812B94FF0B4
:1003D000FF321A60002374E08A4B1B68C3F34003AA
:1003E0002B708CE002234288EAB1874A1360012017
:1003F00087E0844B1B68C3F30013F1E710234288A6
:10040000F2E7804B1B68C3F30023E9E74FF48073E6
:100410004288E9E77B4B1B68C3F34023E0E74FF4D6
:1004200000734288E0E7794AE0E736230093784B8F
:1004300068461B6805A99847059B2B70069B6B7047
:10044000069B1B0AAB70BDF81A30EB709DF81B3091
:100450002B71052335E03A2300936D4B68461B68EA
:1004600005A99847059B2B70069B6B70069B1B0A82
:10047000AB70BDF81A30EB709DF81B302B71079BE9
:100480006B71079B1B0AAB71BDF81E30EB719DF8B9
:100490001F302B72089B6B72089B1B0AAB72BDF856
:1004A0002230EB729DF823302B73099B6B73099BF1
:1004B0001B0AAB73BDF82630EB739DF827302B7405
:1004C0001123236093E7534B1B68C3F3C01387E7E3
:1004D000802342883AB1504A88E74E4B92E74FF466
:1004E00080734288F6E74D4A80E70322444B5A6006
:1004F0007DE7052000F048FF00F00700287001208C
:1005000020600AB070BD4188072976D8052041F0E7
:10051000080100F042FF6AE70522394BE7E70622AF
:10052000374BE4E73E4B1A782A705A786A709A780B
:10053000AA70DA78EA701B798AE70022304BD6E796
:100540002F4B9B684CE742882D4B9A604FE7354B09
:100550001A882A701B88C3F307236B700223B0E745
:10056000304B42881A8040F6DC02198889B29142E9
:1005700040F6E92184BF1A8892B21A801A8892B292
:100580008A428EBF40F6EA221A8892B21A802EE77B
:10059000392300931E4B68461B6805A9984719E745
:1005A000214B224A1A6000F0D1FF20E76FF400656A
:1005B00042885319B3F5806F1FD26FF400618388AE
:1005C0005918B1F5806F18D29A4216D815494A8049
:1005D00004228B800A4B5A60FCE6002314482B70DF
:1005E0006B7001F0DBFBC6B23246A8701049E81C04
:1005F000033601F05DFB2660F9E6002081E700BFCD
:100600002005001034C0092038C009203CC0092052
:10061000FC1E000054C0092058C009205CC00920FD
:1006200044260010500400101C00001021BB05439C
:10063000FC1D00000022024BDA601A61704700BF07
:100640002005001070B5184BDC681A6904F07F04AF
:1006500002F07F02511C01F07F018C4221D013492E
:1006600095010C78124901EB8212D470114C246868
:1006700054600224104A146005F10E02441E0A441C
:10068000313014F8016F844202F8016BF9D11A7D00
:1006900029444A70002201201A751A6901321A6130
:1006A00070BD0020FCE700BF20050010FC05001015
:1006B000000600100840004038C0092010B50D4C5D
:1006C000E368226903F07F0302F07F02934204D1C2
:1006D00002220020084B1A6010BD0849402201EB9D
:1006E0008311822001F0AAF8E36801200133E3605E
:1006F000F2E700BF200500103CC0092000060010F2
:1007000008B500F0D3FF064801F0F2F9054A0649A2
:10071000022000F0C1FF012001F05FF8002008BDB9
:10072000071E000035050010690300004FF040224D
:100730001368DB0708D505490B780133DBB20B7072
:10074000136843F001031360704700BFFC050010FD
:100750000F4B1B68D90719D50E4B1B68DA0708D554
:100760000D4A136843F0010313600C4A1368013308
:1007700013600B4B1B68DB0708D50A4A136843F06C
:1007800001031360084A136801331360704700BF08
:10079000004000500440005008400050E8050010A0
:1007A0000C400050104000507C26001008B52B4B28
:1007B0009A689ABB47F6FF710D2000F0EEFD42F6F5
:1007C0002231122000F0E9FD41F24B31142000F0FB
:1007D000E4FD40F20111202000F0DFFD204B02205B
:1007E0001988013989B200F0D8FD2921032000F0D1
:1007F000D4FD00F0E5FD4206FBD5612000F0E7FDE9
:1008000000F0DEFD4307FBD5622000F0E0FD802212
:10081000144B1A604FF480721A6008BD9B68012B5C
:10082000FBD147F6FF710D2000F0B7FD42F62231F3
:10083000122000F0B2FD41F24B31142000F0ADFD6A
:1008400040F20111202000F0A8FD054B022019887C
:10085000013989B200F0A1FD4021C7E72005001051
:100860005004001058C0092010B5274CA36883BB62
:1008700047F6FF710D2000F090FD42F62231122064
:1008800000F08BFD43F24B31142000F086FD1F4B2E
:100890000220198889B200F080FD2921032000F090
:1008A0007CFD00F08DFD4206FBD5612000F08FFD40
:1008B00000F086FD4307FBD54FF48072144B632094
:1008C0001A6000F084FD8022124B1A600323A36299
:1008D00010BDA368012BFBD147F6FF710D2000F07E
:1008E0005CFD42F62231122000F057FD43F24B31FD
:1008F000142000F052FD054B0220198889B200F047
:100900004CFD4021CAE700BF200500105004001034
:1009100038C0092058C009202DE9F04F99B000AF28
:1009200005259B4B07F11C019D6215233B863A234D
:10093000BB60984B07F108001B68C7F804D09847C4
:100940003C7F002C40F020813B6A3A8C190E1B0C36
:1009500087F833307B6A87F83210190E1B0C87F842
:100960003730BB6A87F83610190E1B0C87F83B30FE
:10097000FB6A87F83A10190E1B0C87F83F304FF6C8
:10098000FF7352BABA86BA8C0D2052BA3A873A8DA2
:1009900087F83E1052BABA87BA8D47F6FF7152BA3D
:1009A000A7F84020A7F844307B4E00F0F6FC42F652
:1009B0002231122000F0F1FC41F24B31142000F002
:1009C000ECFC3188022089B200F0E7FC4FF6AE1152
:1009D0002D2000F0E2FC41F284512C2000F0DDFCDF
:1009E0000821284600F0D9FC2921032000F0D5FC7D
:1009F00000F0E6FC4106FBD5612000F0E8FC00F0C9
:100A0000DFFC4207FBD54FF48072644B802198468F
:100A10001A60634A11604FF00009E5B2052045F005
:100A2000080100F0BAFC87F8425087F843900E2086
:100A300000F0AAFC00F01F000F28F8D107F13005E4
:100A4000AB464FF0000A70201BF8011B0AF1010AA7
:100A500000F0B1FCBAF1160FF5D1632009F10109DC
:100A600000F0B5FCB9F1100FDFD10134082CD2D160
:100A70000E2000F089FC00F01F000F28F8D14FF481
:100A80008073484C6420236000F0A1FC00F098FCC7
:100A90004307FBD431880220013989B200F07DFC84
:100AA00000F08EFC4006FBD5612000F090FC00F0C9
:100AB00087FC4107FBD510234FF0020AC8F800302D
:100AC0000E2000F061FC00F01F000F28F8D162201A
:100AD00000F07DFC00F074FCC206FBD507F148066F
:100AE000B3464FF00009C8F800A0702000F05AFC8F
:100AF00009F10109B9F1160F0BF8010BF5D100F05E
:100B00005FFC030702D4C4F800A0D9E70E2000F070
:100B10003BFC00F01F000F28F8D1642000F057FCC8
:100B200000F04EFC10F00400FAD180221E4B1A6037
:100B30001023236097F85A101C4B0122597097F824
:100B40005B101A70997097F85C1087F83120D97093
:100B500097F85D101971014616F801EB15F801CBF5
:100B60000131E6451CBF002201201229F4D100B159
:100B70001A70022300222360054B9A6259680529E6
:100B800008BF5A60D7F804D06437BD46BDE8F08F7F
:100B900020050010FC1E00005004001038C0092081
:100BA00058C009203CC009205CC009204426001020
:100BB0002DE9F04F87B0DFF8889106220225CA465A
:100BC0005B4B9A6247F6FF710D2000F0E6FB594F30
:100BD00042F62231122000F0E0FB41F24B311420AA
:100BE00000F0DBFB39880220013989B200F0D5FB27
:100BF0004FF6AE112D2000F0D0FB41F284512C2095
:100C000000F0CBFB0821052000F0C7FB29210320C1
:100C100000F0C3FB00F0D4FB4106FBD5612000F0DF
:100C2000D6FB00F0CDFB4207FBD51023C9F80030FE
:100C30004FF48073404C8022A04623603F4B2560D8
:100C40001A600E2000F0A0FB00F01F000F28F8D162
:100C50006220C8F8005000F0BAFB00F0B1FBC306F8
:100C6000FBD5EB460026CAF80050702000F09AFB36
:100C70000136162E0BF8010BF7D100F0A1FB060789
:100C8000DFD5102325606420236000F0A0FB00F076
:100C900097FB4007FBD400F093FB4106FBD5398856
:100CA000022089B200F079FB00F08AFB4206FBD5F6
:100CB000612000F08CFB4FF48073CAF8003040F2E2
:100CC00015130026ADF80030F7B247F008010520F3
:100CD00000F063FB8DF8147000278DF815700E205E
:100CE00000F052FB00F01F000F28F8D1EB464FF048
:100CF000000870201BF8011B08F1010800F05BFBE5
:100D0000B8F1160FF5D16320013700F060FB102F0A
:100D1000E3D10136082ED7D14FF4807364202360CD
:100D200000F055FB00F04CFB4307FBD44AE700BF43
:100D300020050010500400103CC0092058C00920B4
:100D400038C009202DE9F04110222A4BDFF8B88085
:100D50001A60FFF76FFC444600F08EFAFFF77AFA4C
:100D6000FFF7DCFAFFF722FD234DD8F80030002B07
:100D70003BD0224F2B6813B93B68002BFAD02B686D
:100D8000D90742BF1E4BD3E90221C3E902123B68D7
:100D90001BB1237D43F0020323752B6873B12B68CD
:100DA000012B82BF237D43F001032375144BD868C8
:100DB000FFF748FCA0B12368013B2360822000F0CC
:100DC00017FD8206064601D4FFF778FC730601D4AE
:100DD000FFF774FC00F098FD00232B603B60C4E734
:100DE000237D43F004032375E8E71022054B1A60C6
:100DF000BDE8F08138C00920E80500107C2600100D
:100E0000500400103CC00920200500102DE9F041DD
:100E10008EB010223D4B1A60FFF70CFC80223C4B39
:100E200047F6FF711A600D2000F0B7FA42F6223142
:100E3000122000F0B2FA41F24B31142000F0ADFA6A
:100E400040F20111202000F0A8FA2921032000F02F
:100E5000A4FA00F0B5FA4406FBD500F0B1FA10F0A0
:100E60000404FAD12B4FDFF8B4807B68042B07D041
:100E700000231022BB62284B1A600EB0BDE8F0813F
:100E8000B8F80260B8F80430B6B29BB2B342ECD303
:100E9000711E022089B200F080FA612000F097FAFA
:100EA00000F08EFA4007FBD5622000F090FA04EBC8
:100EB00044050EAB1D440620330A05F8343C05F802
:100EC000336C00F061FA0134E4B2000A102C05F82A
:100ED000320C11D101A8FFF7B5FB822000F088FC8D
:100EE0008106044601D4FFF7E9FB620601D4FFF74F
:100EF000E5FB00F009FD0024642000F068FA00F032
:100F00005FFA4307FBD40136BCE700BF38C00920B5
:100F100058C00920200500103CC0092050040010D2
:100F2000F0B58FB06A46054616461C4B03F13807EC
:100F3000144618685968083303C4BB422246F7D1E7
:100F4000284605F12C043346002210F8011B1D78B9
:100F50008D4217D107785D78AF4213D147789D78DD
:100F6000AF420FD18778DD78AF420BD1C7781D79BA
:100F7000AF4207D107795D79AF4203D147799D79B7
:100F8000AF4208D00132082A03F10703DFD1A042A3
:100F9000D9D1002000E001200FB0F0BDC41E000038
:100FA0002DE9F84F0024DFF89CA000F065F92546F4
:100FB000FFF750F95746FFF7B1F94FF0020BFFF773
:100FC000F5FB4FF48071DFF880801C4EDFF87C90D9
:100FD000DAF8000018B9D8F800000028F8D038680E
:100FE000C30744BFD6E90230C6E90203D8F80000BF
:100FF00010B11023C9F80030386878B1386801287A
:1010000088BFC9F80010F068FFF78AFF4FF48071BD
:101010000B4A58B16425C2F800B001340020142CEA
:101020003860C8F80000D3D1BDE8F88F1DB92C4650
:10103000C9F800B0F2E7013DF0E700BF500400102E
:1010400038C00920E80500107C2600103CC00920AB
:10105000F8B500F0F7F84FF4807602231025374FEB
:10106000374C3E603D603B602660256023603E60FB
:101070003D603B6026602560236000F069F93E60BA
:10108000266000F0ABF93E600420266000F07CF999
:10109000B0F5774F00D0FEE73E6000F0B5F90426CA
:1010A00002203D6000F09EF80220256000F09AF8D2
:1010B000013EF5D102240421224A234B3D601460F5
:1010C0001E70224B224D19602249D960032199607C
:1010D00021490B6823430B6001231360FFF760FF76
:1010E0003C60FFF70DFB2C4600F00EFC2B6813B1A3
:1010F000FFF728FEF8E76B68032B05D1AB6A032BDB
:1011000002D0FFF7B1FBEFE76368052B05D1A36AB7
:10111000052B02D0FFF700FCE6E76368062B04D13D
:10112000A36A062B01D0FFF743FD6368042BDBD1D4
:10113000A36A042BD8D0FFF769FED5E738C0092091
:101140003CC0092004400040FC0500100C40004059
:1011500020050010FFFF4FC300E100E000F0D4BB0A
:1011600008B50D4B0D4A0E498B420CD300210D4B97
:101170000D4A93420CD3FFF70DF80C4A0C4B1A6042
:10118000FFF766FFFEE752F8040B43F8040BEBE7AA
:1011900043F8041BEDE700BF20000010501F0000C3
:1011A0000405001004050010802600100000000057
:1011B00008ED00E0FEE70000C30803EB900303EB3B
:1011C000901303EBD01303EB902303EBD020044BDD
:1011D00058605A68013A5A60002AFAD1704700BF35
:1011E0004C050010014B5843FFF7E6BF40420F008B
:1011F0000023104A136053609360D3601361D3617E
:10120000536293620C4A1360136213641366C2F84C
:1012100080300A4A136053609360D3601361D361D6
:101220005362074A1360136213641366C2F8803076
:10123000704700BF00C0024000C0092040C002400B
:1012400014C0092008B5FFF7D3FF00234CF2127138
:10125000084A1360116240F2B11111644FF040511D
:101260001366C2F880105361536353655367C2F825
:10127000943008BD00C00920114B1A6822F4404286
:1012800042F400421A601A6822F4405242F40052BA
:101290001A601A6822F4403242F400321A601A6866
:1012A00022F4402242F400221A604FF08052054B93
:1012B0001A60C722044B1A600C225A60704700BFA4
:1012C00000C0024098C0092000000340094A13688A
:1012D00023F470131360084A136823F0C06313608B
:1012E000064B1A6842F420121A601A6822F4A012FF
:1012F0001A60704704C0024000C0092044C0024088
:10130000F0B5451E03462020012410270D4ADFF8C2
:101310003CC0106008460C4904FA05F5013BDBB2FD
:10132000FF2B02D120230B60F0BD284214BF0C60BC
:1013300014600F60DCF800601760C6F3400646EAF0
:101340004000EBE75CC0092058C0092054C00920C8
:1013500008B5FFF7BBFF4FF40073084932200B605C
:10136000FFF72AFF2022064B18201A604FF4804313
:101370000B600449BDE80840FFF7C2BF38C0092030
:1013800058C00920FF7F0D0008B540F08001090416
:101390001820FFF7B5FF80B208BD41EA00411820D0
:1013A000FFF7AEBF08B540F0800109021020FFF73B
:1013B000A7FFC0B208BD41EA00211020FFF7A0BF7F
:1013C00008B500210820FFF79BFFC0B208BD08B593
:1013D00001460820FFF794FFC0B208BD08B5002100
:1013E0001820FFF78DFF0020FFF7CEFF0028FAD16D
:1013F0004FF400411820FFF783FF0020FFF7C4FFE0
:10140000B0F5004FF9D108BD2DE9F04144F23A02A0
:10141000404B414E1A600023404D33602B68404CD6
:1014200023F002032B60AA232360552323603D4B46
:101430001F461A689001FCD42B6823F001032B602F
:10144000AA232360552323603B6813F08073FBD1EC
:10145000DFF8F480C8F80030FFF7C0FF18203249E9
:10146000FFF74EFF6020FFF7B2FFFFF7A9FF41062D
:10147000FBD520222D4B1A601A685206FCD5282273
:101480002B4BAA211A604FF400525A600123294ABB
:101490003360294B1A605522216022602B6843F08B
:1014A00001032B60216022603B68DE01FCD5032331
:1014B000C8F800302B6843F002032B60AA23236096
:1014C000552323603B689D01FCD522225520AA2488
:1014D0001A4B1A601A4A9C6098601168083341F0F0
:1014E0000101116017491C60186008460C68E4058A
:1014F000FCD501684905FCD5116841F00201116075
:10150000AA221A6055221A6003689B05FCD5BDE823
:10151000F08100BF00C00F400CC10F4080C00F40E1
:101520008CC00F4088C00F4070150800A0C10F404C
:10153000A8C10F401800010084C00F40A4C00F4094
:10154000A0C00F40A8C00F4004C10F4008B5FFF76E
:101550004FFE0222084B09481A604FF08042136880
:1015600043F003031360AA22054B1A6055221A6048
:10157000BDE80840FFF720BE3CC0092040420F00F4
:101580000800004038B5084C802025686168402D6F
:10159000A8BF40252A4600F051F9636822682B4411
:1015A000521B6360226038BD5405001037B51048E7
:1015B000047A0546C4F34114022C0CD1002300F137
:1015C0001002019301A9031D083000F05DFA10B16B
:1015D000019803B030BD05EB840463692BB1054A63
:1015E00002F10C01101D9847F3E71846F1E700BF20
:1015F000540500105805001010B5002847D111F00F
:101600000401244C23D00822A11800F03FF9227ACB
:10161000C2F3411304EB83035B6A6360E3892360D5
:1016200023610BB1D30934D0FFF7C0FF28B9BDE85F
:1016300010400121802000F0F5B8E28923699A4228
:10164000D4BF22602360BDE81040FFF79BBF226833
:10165000002A17DD616800F019F90028E7DB6368EC
:10166000034463602368181A206090B9237AC3F397
:10167000411304EB83035B6A6360FFF797FF002865
:10168000E1D1D4E70A46BDE8104000F0FFB8802859
:10169000D9D010BD54050010024B03EB800041610E
:1016A00042627047540500107047000010B50E4CA0
:1016B00000F090F90D4800F07FF82146002000F07E
:1016C00061F82146802000F05DF84021002000F004
:1016D0003BF84021802000F037F80020044A0549FB
:1016E000FFF7DAFF012010BDF9150000A916000070
:1016F00088050010511B0000034A136830EA0303F9
:10170000FBD1024B1860704700C2005008C2005065
:101710003022044B000440F4A0601A60986010204E
:10172000FFF7EABF08C2005008B5FFF7F1FF054B0D
:10173000090441F4807119601020BDE80840FFF7EA
:10174000DBBF00BF10C2005010B501230B4A44009C
:1017500004F01E0444EAD0141068A340034313604D
:10176000074B4FF480701C605960FFF7C5FF44F0D1
:1017700040000021BDE81040FFF7D6BF44C2005032
:1017800048C200500A4A430003F01E0342F81310F7
:1017900043EAD0100123074A03FA00F01168084316
:1017A000106052F8303C43F0040342F8303C70477C
:1017B0009005001034C20050034B044A18641368AB
:1017C00043F00803136070479005001004C20050F6
:1017D00040F08001D020FFF7A7BF011E18BF0121F4
:1017E000FE20FFF7A1BF0146F320FFF79DBF0000D9
:1017F00008B5430003F01E0343EAD0110846FFF783
:1018000087FF064B090441F4007119602020FFF79F
:1018100073FF034B1868C0B208BD00BF10C2005070
:1018200014C20050430003F01E0343EAD0100039F5
:1018300018BF012140F04000FFF776BF38B50346DE
:101840001546400000F01E0040EAD3109B000D4CEE
:1018500003F03C0343F0020323600B4B1A60234662
:101860000C3C1A6812F0020207D11A60FFF750FF11
:10187000FA20FFF74DFF284638BD51F8042B2260AF
:10188000EFE700BF28C2005024C20050F8B503465D
:10189000400000F01E0040EAD3109B00144E03F0FD
:1018A0003C0343F00103134C336023681D05FCD552
:1018B0005C051AD500252C460F4FC3F309039C4243
:1018C00008D100233360FFF723FFF220FFF720FF4A
:1018D0002046F8BD14F0030F08BF3D6811B19442D3
:1018E00038BF0D552D0A0134E9E74FF0FF30F0E71E
:1018F00028C2005020C2005018C20050011E18BF5C
:101900000121D820FFF710BFF8B5294B1C68E1076B
:1019100011D501229A60274B596C61B1F520FFF770
:10192000F7FE254B254A20201A60FFF7E5FE244BE1
:101930001868C0B28847220717D50822214BFE201D
:101940001A60FFF7E5FE1C4B1F4A20201A60FFF7C4
:10195000D3FE1B4B1B6813F01A0FD8B205D0154BE2
:101960001B6C13B100F01500984763071ED50422C5
:101970000024144B154D164E114F1A6001232A688E
:10198000A3401A420FD020203360FFF7B5FE094B69
:10199000601053F8203039682BB140EAC41001F0D0
:1019A0001F01C0B298470134202CE7D1F8BD00BF19
:1019B00000C200509005001010C200500002F50057
:1019C00014C2005008C200500002FE0030C2005095
:1019D00038C2005008B5264A136823F4402343F464
:1019E0008023136052F8043C23F0300343F01003CB
:1019F00042F8043C52F8043C23F0405343F00053B7
:101A000042F8043C52F80C3C23F0406343F08063FE
:101A100042F80C3C52F80C3C23F0405343F0805306
:101A200042F80C3C02F55022D2F8B430B43243F004
:101A3000004313600F4A136843F0120313600E4B08
:101A40001A4619688907FCD51368DB06FCD5002007
:101A50000A4B0B4A18604FF0FF3313605062D0629C
:101A60001363084B1860FFF7BEFE012008BD00BFDE
:101A700010C00240F4CF0050F8CF005004C2005014
:101A800008C2005040C2005070B5044615480578A1
:101A900000202DB36678AE421DD1E68808606088CC
:101AA000A488042C03D0052C16D0012013E00E4C82
:101AB0001C6028241460040A10682504B0EB044F4D
:101AC000F3DB1C68401B2C441C60B042D4BF106088
:101AD00016600120086070BD044C1C609224E9E788
:101AE0002846F8E7D8050010001F00006004001029
:101AF000014B5860704700BFD8050010F0B5040ACC
:101B0000032CC1B2264610480AD1EE2908D10F494C
:101B10000078923108741960122301201360F0BD1F
:101B20000025446820780028F9D06778B74208D1AA
:101B3000A94205D11C60022E0CBF63882378ECE714
:101B400001350444EEE700BFD80500106004001022
:101B50002DE9F047554C0546A3680F469046A1462F
:101B60004BB9287800F01F06012E69D0022E7BD0D9
:101B700036B1002037E098470028F2D0012032E04B
:101B80006A78D8F80030092AF3D801A151F822F078
:101B9000B91B0000731B0000731B0000731B0000C7
:101BA000731B0000C51B0000CD1B0000731B000051
:101BB000DD1B0000EB1B000000221A705A7002238C
:101BC0003B60DBE7A878FFF703FED7E743463A46DA
:101BD000A9886888BDE8F047FFF790BF012099F811
:101BE0000C201A703860BDE8F087AE7836B9304600
:101BF000FFF784FE6B8889F80C30BFE7FF27B846F3
:101C0000D9F8044023780BB90120F1E76378042B5D
:101C100008D0052B08D0022B01D194F80580237839
:101C20001C44EFE7E778FAE74645F8D1002FF6D1F4
:101C300061792379A07843EA0121FFF785FDEEE77A
:101C40006B78D8F800200A2B06D00B2B08D0002B7D
:101C50008FD113705370B2E7002313703E608DE78D
:101C60006B88002BACD084E76C78012C10D0032C4F
:101C700016D0002C7FF47DAF2879D8F80080FFF7CC
:101C8000B7FDC0F3400088F8000088F80140E5E7A0
:101C9000698800297FF46DAF2879FFF7C3FD6DE7F0
:101CA0006B88002B7FF465AF0121F5E7D8050010A4
:101CB000844641EA000313F0030349D1403A23D399
:101CC0000B6803604B6843608B688360CB68C360BC
:101CD0000B6903614B6943618B698361CB69C361A4
:101CE0000B6A03624B6A43628B6A8362CB6AC3628C
:101CF0000B6B03634B6B43638B6B8363CB6BC36374
:101D000040304031403ADBD230320BD30B680360B5
:101D10004B6843608B688360CB68C36010301031C0
:101D2000103AF3D20C3205D351F8043B40F8043B8F
:101D3000043AF9D2043208D0D2071CBF11F8013B93
:101D400000F8013B01D30B8803806046704700BF59
:101D5000082A13D38B07B1D010F00303AED0C3F120
:101D60000403D21ADB071CBF11F8013B00F8013B4A
:101D7000A4D331F8023B20F8023B9FE7043AD9D3C1
:101D8000013A11F8013B00F8013BF9D20B780370DE
:101D90004B7843708B7883706046704720F0030166
:101DA00010F00300C0F1000051F8043B00F1040CF6
:101DB0004FEACC0C6FF000021CBF22FA0CF2134366
:101DC0004FF0010C4CEA0C2C4CEA0C4CA3EB0C022F
:101DD00022EA030212EACC1204BF51F8043B043099
:101DE000F4D0C2F1000102EA0102B2FA82F2C2F1B9
:101DF0001F0200EBD2007047280000103230323052
:101E00002D31322D52310012010002FF000040FF3F
:101E1000FF0400000101020301090220000101008A
:101E200080320904000002FF000000070582024022
:101E3000000007050502400000040309044403688C
:101E4000007400740070003A002F002F00750062CB
:101E5000006500720074006F006F00740068002E4F
:101E60000073006F00750072006300650066006F0C
:101E7000007200670065002E006E00650074002F80
:101E8000003003750062006500720074006F006F1F
:101E90000074006800200061007300730065006D2D
:101EA0000062006C0079005F0074006500730074CC
:101EB00000120330003000300030003000300030BD
:101EC00000310000475C58CC73345E8EB8B198E6A0
:101ED00068BC11D716331CCD1723AE2C66399A2F48
:101EE00075C58CC73345E7EB8B198E668BCE1D719C
:101EF0006331CCD1793AE2C66399A2F3F11FFF1F97
:101F000028000000000104000100000000000000A3
:101F1000000157494E5553420000000000000000E8
:101F20000000000000000000F8B500BFF8BC08BCCD
:101F30009E4670474102000035010000F8B500BF21
:101F4000F8BC08BC9E4670470D0100000000000070
:101F50002800001000000000000000001403001022
:101F60007C030010E40300100000000000000000EB
:101F70000000000000000000000000000000000061
:101F80000000000000000000000000000000000051
:101F90000000000000000000000000000000000041
:101FA0000000000000000000000000000000000031
:101FB0000000000000000000000000000000000021
:101FC0000000000000000000000000000000000011
:101FD0000000000000000000000000000000000001
:101FE00000000000000000000000000000000000F1
:101FF00000000000000000000000000000000000E1
:1020000001000000000000000E33CDAB34126DE67D
:10201000ECDE05000B0000000000000000000000E6
:1020200000000000000000000000000000000000B0
:1020300000000000000000000000000000000000A0
:102040000000000000000000000000000000000090
:102050000000000000000000000000000000000080
:1023800089096009B30900004926001000260010E1
:102390009200000000010500010088000000070015
:1023A00000002A00440065007600690063006500B3
:1023B00049006E00740065007200660061006300F1
:1023C00065004700550049004400730000005000BC
:1023D00000007B0030003100320033003400350053
:1023E000360037002D0030003100320033002D0060
:1023F00034003500360037002D0038003900610008
:1024000062002D003000310032003300340035000E
:102410003600370038003900610062007D0000009E
:10242000000012034D0053004600540031003000FC
:042430003000410037
:040000030000116187
:00000001FF
