:10400000E03F0010359900008999000045960000B6
:104010007D960000CD960000219700000000000072
:10402000000000000000000000000000899900006E
:10403000899900000000000089990000899900001A
:1040400089990000B94F0000857F00005198000059
:1040500089990000899900008999000089990000D8
:1040600089990000899900008999000089990000C8
:1040700089990000899900008999000089990000B8
:1040800089990000899900008999000089990000A8
:1040900089990000F5500000899900008999000075
:1040A00031990000899900000952000089990000A7
:1040B0008999000089990000899900008999000078
:1040C0008999000089990000899900000348044BF0
:1040D000834202D0034B03B1184770471C0B0010FA
:1040E0001C0B001000000000054806490B1AD90FF0
:1040F00001EBA301491002D0034B03B118477047ED
:104100001C0B00101C0B00100000000010B5064C2A
:10411000237843B9FFF7DAFF044B13B10448AFF338
:1041200000800123237010BD200B00100000000050
:10413000BCB8000008B5044B1BB104490448AFF3F8
:104140000080BDE80840CFE700000000240B00100D
:10415000BCB80000002301461A46184600F08EB88D
:1041600038B50A4C0A4D641BA4100AD004F18043F0
:10417000013B05EB8305013C55F804399847002CB9
:10418000F9D1BDE8384007F0A3BB00BFE0B800009C
:10419000DCB8000070B50D4E0D4D761BB61006D084
:1041A0000024013455F8043B9847A642F9D1094E42
:1041B000094D07F083FB761BB61006D000240134AE
:1041C00055F8043B9847A642F9D170BDC8B8000025
:1041D000C8B80000D0B80000C8B80000F0B4860726
:1041E00046D0541E002A3CD0CAB2034602E014F165
:1041F000FF3436D303F8012B9D07F8D1032C29D9BE
:10420000CDB245EA05250F2C45EA054533D9A4F181
:104210001006360903F1200707EB061703F1100219
:1042200042E9045542E902551032BA42F8D1721CF3
:1042300014F00C0F03EB021204F00F0613D0331F1F
:1042400023F003030433134442F8045B9342FBD18D
:1042500006F003042CB1C9B21C4403F8011B9C42B4
:10426000FBD1F0BC704734461346002CF3D1F8E77D
:1042700014460346C2E71A462646E0E7F0B4174C58
:104280002568D5F848410CB365681F2D23DC38B983
:1042900000206B1C0235636044F82510F0BC7047A9
:1042A000012604EB850CCCF88820D4F8887106FA36
:1042B00005F217430228C4F88871CCF80831E7D119
:1042C000D4F88C311A43C4F88C21E1E705F5A674C3
:1042D000C5F84841D8E74FF0FF30DFE790AB00006A
:1042E000024B13B10248FFF735BF704700000000D2
:1042F0006141000010B500230146184641FA03F25F
:10430000C3F1070402F00102A24001330243082B6B
:10431000D0B2F3D110BD000010B5044C206005F000
:1043200041FBE080000CA08010BD00BF50040010D5
:1043300038B5264B264C1A7812B11A78012A26D1A4
:104340001A78002A3FD01B78012B14BF0025402586
:1043500047F6FF710D2005F01AFC42F622311220BB
:1043600005F015FC41F24B31142005F010FC40F231
:104370000111202005F00BFCB4F84C10022001398B
:1043800089B205F004FC2946032005F000FCB4F8CE
:104390004C0080B202F088FF03F01EF805F090FC9C
:1043A0004206FBD5612005F092FC05F089FC43072D
:1043B000FBD5622005F08BFC8022064B1A604FF47F
:1043C00080721A6038BD2925C2E700BF3C0B00107F
:1043D0005004001058C0092070B5294B04461A78C3
:1043E000002A48D01B78012B44D1402540F2615669
:1043F00047F6FF710D2005F0CAFB42F6223112206C
:1044000005F0C5FB41F24B21142005F0C0FB3146FD
:10441000202005F0BCFBA1B22C2005F0B8FB210C3C
:10442000184C2D2005F0B3FBB4F84C1002200139D4
:1044300089B205F0ACFB2946032005F0A8FBB4F8CF
:104440004C0080B202F030FF02F0C6FF05F038FCED
:104450004206FBD5612005F03AFC05F031FC43072C
:10446000FBD5622005F033FC8022074B1A604FF425
:1044700080721A6070BD292540F26146B8E700BF1E
:104480003C0B00105004001058C00920F8B5064637
:104490000F4602F025FE1D4D044620B96B7843F00F
:1044A00004036B70F8BD042E067019D140F6354137
:1044B000174A13681B0DC3701368164AC3F313031E
:1044C000126801FB032343603222394604F10E00D7
:1044D00006F094FA6B780120637000236B70E1E7BB
:1044E000AB78C3706B6843602B89623B83700A4B67
:1044F0001B784372094B1B780372288980B202F043
:10450000BDFE074BA0721B78E372DDE73C0B001089
:104510006C1300100840004052130010501300109C
:10452000EE17001010B5642005F0D1FB05F0C8FBB4
:1045300010F00404FAD18022214B10211A604FF4AC
:1045400080721A6043F8201C43F8202C022243F8A2
:10455000202C02F019FF03F031F802F003FF02F003
:1045600029FE40F68911174B174A9C72DC72A2F89B
:104570004C109E219C81A2F84E1040F66211DC8105
:10458000A2F850109C705C601C811C745C705C74A0
:104590009C74DC741C751C704FF41663A2F85230C6
:1045A00040F6B313A2F85430E2230020002182F831
:1045B0005630064BC3E90001C3E9020110BD00BF3C
:1045C0005CC009203C0B001050040010681800105B
:1045D0002DE9F0473C4F3D4EB7F84C003C4C80B2C3
:1045E00002F002FC002231461346205C16F8015B03
:1045F0000133ED071F2B45EA5202F7D13E68CD5C2F
:10460000ED0745EA5202964258D1324E1F3B0B4409
:104610004FF07F09002135464FF0000E9846F446D2
:10462000032918F8012B0CDD04EB000A9AF828A0E6
:10463000013082EA0A02B0FBF9FACAEBCA1AA0EB0F
:104640000A0002FA0CF20CF1010C42EA0E02BCF173
:10465000080F5FFA82FEE3D13268083302F801E006
:1046600001312E29D8D13B696BB901202968FFF7A8
:104670000DFF1022184B1A60184B28689B69984749
:104680000120BDE8F0873368F8685C79316804F090
:104690003F04A21C043102F02FFC326804F108032D
:1046A000D15C3268E31DD35C32680634125D1B02B4
:1046B00043EA014313439842E2D1D6E70133B3F50D
:1046C000D87F9CD1DCE700BF50040010CC14001050
:1046D000BCAB0000C814001038C009203C0B00100F
:1046E00038B5564B05461A7D1C46022A11D10322C5
:1046F0001A75534A12689A61DA8B013A92B29A8318
:1047000000221A849A624F4BDA7C0AB12822DA61BD
:1047100038BD032A03793AD1A26A03F00303A2B198
:10472000228CA18D92B291420FD1454A1268A261AA
:10473000E28DE283013A92B2A28394F8302084F8A9
:104740002220628EA2840022A262032BE0D1AB79E8
:10475000002BDDD1EB7984F830306A7A2B7A03EBC9
:1047600002236386EA7AAB7A03EB0223E3856A7C51
:104770002B7C03EB0223228C9BB292B2A3859B1A63
:1047800047F6FE729342C3DC0123A362C0E7012A0D
:10479000BED103F00F03052BBAD14379222BB7D139
:1047A000427F037F43EA022340F67A42063B9BB2F4
:1047B0009342ADD8636C73BB02232375002323613E
:1047C000287DAB7C43EA0043E87C43EA0023687D14
:1047D00043EA0060FFF7A0FDE87D2B7E000240EA7F
:1047E0000340AB7D1843A06005F0DCF86B7EE06011
:1047F00084F82230AB7EA3846A7F2B7F43EA0223B6
:104800000122E38395F8273003F01F03A375637536
:104810000C4BDA727CE70622811804F1380006F0AE
:10482000BDF80028C8D0062205F10C0104F13800BB
:1048300006F0B4F80028BFD06AE700BF50040010AB
:104840006C1300103C0B00102DE9F0480E46154685
:104850001C46492800F27B83DFE810F013014A0070
:10486000500055005B006100660069006E00720038
:104870007700CE00D900180183007D0088008D00EC
:10488000920094009A00C400C700CA0011011501EB
:1048900079031B019E00A600B300B000B6004701DB
:1048A00039016501690170017201CE01080225021A
:1048B000650275028002810087028B0291029802D4
:1048C000A4020C021A02AD02E5025701FA027903B2
:1048D000B40266036A03F101040230027903C902DB
:1048E000CB023601DB0237026203EF026F0376036D
:1048F0000120B24B9874002323609EE10222AF4B4B
:104900009A729A74BDE0AE4B1B68C3F340032B70E0
:1049100048E002230A88E2B1AA4A13601FE0A84BCC
:104920001B68C3F30013F2E710230A88F3E7A44BD4
:104930001B68C3F30023EAE74FF480730A88EAE7B1
:104940009F4B1B68C3F34023E1E74FF400730A88D1
:10495000E1E79D4AE1E72146104605F09DFA012076
:104960006BE12146104605F0B1FAF8E7974B1B685A
:10497000C3F3C013CBE780230A883AB1944ACCE74B
:10498000924BD5E74FF480730A88F6E7914AC4E763
:1049900003228A4B9A74E2E7052005F0EFF800F055
:1049A000070028700120C0E00988072900F2CF82A3
:1049B000052041F0080105F0EAF8D0E705227F4B19
:1049C000E8E706227D4BE5E7834B1A782A705A7890
:1049D0006A709A78AA70DA78EA701B792B710523CD
:1049E0002360BCE70022754BD4E7744B1B788EE73D
:1049F0000A78724B1A70B2E7784BB3F84C202A70E1
:104A0000B3F84C30C3F307236B700223E8E70A883E
:104A100040F6EA21694BDA81DA8992B28A4218D9E2
:104A200001229A7240F66212DA81D9896B4A89B200
:104A3000A2F85010597C092991D0D98989B2A2F8DD
:104A40004C100021D981B2F84C0080B202F02CFC4D
:104A500085E700229A7240F6DC02D98989B2914238
:104A600040F6E92184BFDA8992B2DA81DA8992B21A
:104A70008A4296BFDA8940F6EA2292B2D4E705F07C
:104A800057FA0023ACE7564B564A1A600B224B4BA1
:104A900080E76FF400600A881318B3F5806F80F028
:104AA00056824B886FF400615918B1F5806F80F021
:104AB0004E829A4200F24B824849A1F85220A1F856
:104AC000543004223D4B1CE70F223C4B19E70B8866
:104AD000B3F5807F00F23B82404AC3F136035BB2FC
:104AE00082F856300722354B0BE700233E481370FF
:104AF000537006F01FF8C6B23246A8703A49E81C57
:104B000005F07CFF0336266029E7384806F012F8E6
:104B10000346C6B228463246344900F8013B05F048
:104B20006DFF0136EFE701201070206085E00A88F4
:104B30002F4B1A70294BB3F84C0086E72C4B55E7E6
:104B400000200021571E00222A4BC3E90001C3E9BF
:104B5000020117F801BFA2F12001C2F120042BFAD3
:104B600004F40BFA01F121430BFA02F00832D3E905
:104B70000064402A40EA060041EA0401C3E900015A
:104B8000E7D10021073515F801BFA1F12004C1F1DB
:104B900020072BFA07F70BFA04F43C430BFA01F653
:104BA0000831D3E90227402946EA020644EA07040D
:104BB000C3E90264E7D101F0C3FFD0E63C0B00106B
:104BC00034C0092038C009203CC0092054C0092045
:104BD00058C009205CC0092028180010500400109B
:104BE0001C00001021BB054394AB000063AC000027
:104BF000F01700106818001000229F4BE81C1A6084
:104C00006A1E19680902196012F8011F1C68904297
:104C100041EA04011960F4D102224FF080510120D1
:104C2000964B9A72964A1874116029796A7942EA09
:104C3000012294490A8008229A74BDE8F08805226E
:104C40008E4B91499A720E229A7400231A460133B0
:104C50000A2B01F8012BFAD101208C4B1A708C4BD6
:104C60001870EAE70120854BD872E6E71268894B95
:104C70001A605FE78449531E093513F8012FAB42D0
:104C800001F8012BF9D10120814B18700A2333E67A
:104C900000231A467C4901330A2B01F8012BFAD173
:104CA0007B490A709CE67B4B1B6813701A0A6A707A
:104CB0001A0C1B0EAA70EB70042391E612786B7825
:104CC00043EA02236F4A138049E6734A28786B78D7
:104CD000118843EA00230B441BB2138013886F49E9
:104CE00013F4004F6E4B0ED04FF4A0701288524256
:104CF00092B2B0FBF2F21A806A4A1B8812689BB229
:104D000013440B602BE6108800B2002807DD1288E0
:104D100010B24FF4A07292FBF0F292B2EBE70022D5
:104D20001A800A601BE600220B885F4D6B63534BB1
:104D30002260DA7203229A7209229A7402F0C2F98E
:104D4000B5F84C0081E60023551E574A1168D9403A
:104D50000833202B05F8011FF8D1ADE71068FFF7E5
:104D6000DBFA0120504B586467E713231370372395
:104D70004AE64D4B1B69003B18BF0123C7E50B8872
:104D8000494A003B18BF01231361E8E502F0C2F96C
:104D9000014628B14022284605F030FE40231FE698
:104DA0002870FFE50022354B22609A720A229A741D
:104DB00002F088F9BEE6087804F0E0FE030A2B70E2
:104DC000687022E649883078F5E502EB4203EA187C
:104DD00051789278E85C42EA012104F0D8FE23463B
:104DE0003188DAB28A4203F10104EED3B7E5002339
:104DF000F6E70026F7B2384604F0C0FE0136030A93
:104E00002E2E2F706B70A87005F10305F2D1872349
:104E1000E6E5927929460732D2B2244805F0EEFD44
:104E20001022164B6DE5154C0622294604F1200090
:104E300005F0E4FD0C23A37491E58A88FF2A00F2B3
:104E400086801948294682655C3005F0D7FD86E5E5
:104E50009479302C7BD85CBB134D2146062205F19A
:104E600038006C64FFF7BAF90622214605F13E00CE
:104E7000FFF7B4F973E500BF601300103C0B00109E
:104E800098C00920BA1400105313001051130010D9
:104E9000EF1700106C130010EC170010241800100E
:104EA00068130010641300105004001070130010F9
:104EB000284C931D224613F8011D9D4202F8011B48
:104EC000F9D1002106222448FFF788F9FF2605239F
:104ED0002249A87908281AD860B100210A46013170
:104EE000CDB25208A84242F08002F8D81B490B44C8
:104EF00083F83E20052314F8012B013B617913F060
:104F0000FF0302EA010204F8012CF4D129E7CA18D0
:104F100082F83E60AA79013B083ADBB2AA71D8E771
:104F200001200F4B986288E60A780D4BDA7416E57B
:104F30000A780B4B1A750D222CE529462268308819
:104F4000BDE8F04803F0E8BF1122054B22E5002040
:104F500073E600BF880400108E0400105004001097
:104F60003C0B00102DE9F04106460F46904602F03A
:104F7000B7F80F4D044628B96B7843F004036B7003
:104F8000BDE8F081067000260A4BC670B3F84C30BD
:104F9000C0F80480623B83704681322239460E306D
:104FA00005F02CFD6B78012063706E70E8E700BFA0
:104FB0003C0B00105004001010B54FF040231B684C
:104FC000DC0746D53F49404B0A6818680244013265
:104FD0001A6000220A603D4A1868947A114614B19A
:104FE000947A012C36D11A68500601D10122CA7276
:104FF0003749384A0868B8B1108880B2A0B91C682F
:105000000868844210D33448344C0088000454BFEC
:10501000012041F66900108018682060304800883F
:10502000246880B22044086040F63440118889B278
:10503000814282BF196802311960138829499BB2E5
:1050400003F634430B60002313804FF0402301220A
:105050001A6010BD917A022905D11968C907C7D411
:105060000121D172C4E7917A03291CD11E490C7D1C
:10507000032CBDD18C69001B8407B9D1888B013802
:1050800080B28883888B80B240B90120D0720A8CAC
:10509000024492B20A84CA8B8A83A9E74FF48071D2
:1050A000124A1160A4E7917A0529A1D10E4910484E
:1050B000B1F84E10046889B218682144814297D132
:1050C000CEE700BF601300106C1300103C0B001003
:1050D00024180010BA140010EC170010641300100C
:1050E0006813001018400040500400103CC0092014
:1050F000481300100422084B1A604FF08052074BEF
:105100001A600122064B1A70064B9A7A022A04BFD3
:1051100000221A74704700BFAC8002409CC0092076
:10512000651800103C0B001010B5294B5A7C012A61
:1051300011D05A7C082A0ED05A7C042A0BD05A7CF3
:10514000092A08D05A7C0A2A05D05A7C0C2A02D097
:105150005A7C0F2A3AD11F4A1268D10736D51E4A07
:105160001268D20727D501211C4A40F63544116048
:105170009A7A1B48022A02BF4FF08051194A1160E7
:1051800019490A680068C2F3130204FB02025A605C
:105190000A68C2F307529A70144AB2F84C2092B2CD
:1051A0001A81134A134B116818681060124A19606B
:1051B000136801331360114B1B68DB0706D501220E
:1051C0000F4B1A600F4A13680133136010BD00BF04
:1051D0003C0B0010004000500440005008400050BC
:1051E0000840004098C009206C13001050040010C3
:1051F000AC130010C81400104C1300100C400050E9
:10520000104000506018001008B5114B5B7C092B52
:105210001AD102F0BFFD0F4B1B68190617D50E4BB4
:105220001B681A0605D580220C4B1A6000220C4B15
:105230001A600C4B1B681B0609D580220A4B1A60AA
:1052400002220A4B1A60FEE7FFF76EFFE3E708BD94
:105250003C0B00100040005004400050084000503B
:10526000A81200100C4000501040005038C0092017
:105270002DE9F04FC1B00C46904604F093FB5E4E12
:105280000546B6F84C005D4F80B201F0ADFD4FF021
:105290007F09395CEE460020844272D847F6FF71E0
:1052A0000D2004F074FC42F62231122004F06FFC51
:1052B00041F24B31142004F06AFC40F6E141202019
:1052C00004F065FCB6F84C10022089B204F05FFCD3
:1052D0000B21052004F05BFC4021032004F057FC67
:1052E0001021232004F053FCA9B22C2004F04FFC21
:1052F000290C2D2004F04BFC082004F03FFCC0F3E7
:105300000801054641F49841082004F040FC04F0EF
:10531000D7FC4006FBD5612004F0D9FC04F0D0FC9A
:105320004107FBD54FF48072354B1A6080221A6218
:105330000E2004F023FC00F01F000F28F8D10027F6
:105340002023DFF8C880002C3FD10E2004F016FC8B
:1053500000F01F000F28F8D14FF48072294B642011
:105360001A6004F0B4FC04F0ABFC4307FBD48022C9
:10537000254B294608201A6004F009FC41B0BDE81D
:10538000F08F4FF0070C4FF0000A18F8002007EBE1
:10539000010B9BF828B002F0010301318BEA0303F3
:1053A000B1FBF9FB03FA0CF3CBEBCB1B43EA0A038B
:1053B000BCF1010CA1EB0B014FEA52025FFA83FA38
:1053C000E5D20EF801AB013066E7D8F800205207AD
:1053D000FBD59C4223BFE41AE6B21C4600262046B9
:1053E0000DEB070104F0E6FB632004F070FC27449A
:1053F00010233446A7E700BF50040010BCAB0000E8
:1054000038C009203CC009205CC0092054C00920D4
:1054100008B547F6FF710D2004F0B9FB42F62231C2
:10542000122004F0B4FB42F24B31142004F0AFFB25
:1054300040F60141202004F0AAFB0B21052004F0D6
:10544000A6FB4021032004F0A2FB04F039FC420635
:10545000FBD5612004F03BFC04F032FC4307FBD594
:105460004FF48072074B1A6080221A620E2004F0FB
:1054700085FB00F01F000F28F8D1BDE8084063202D
:1054800004F025BC38C00920F8B500236A4C6B4AEB
:10549000E3726B4B19681160A27A52B9022004F0D2
:1054A0006DFB684BB3F84C309BB2013B98423DD149
:1054B000F8BDA27A012A69D1624A634B10461E7870
:1054C000624B634D1F78B2F84C3020339BB2A2F888
:1054D0004C30B2F84C309BB2B3F51B6F81BFB2F8C1
:1054E0004C304F3B9BB2A2F84C30FEB1F7B1B0F854
:1054F0004CC0B0F84C301FFA8CFCACF6621100299D
:105500009BB2B8BFACF65B11A3F66213D3F1000CEB
:105510004FEAE101695C0CF0070C03F0070358BF88
:10552000CCF1000341FA03F3DB07CCD5642004F08F
:10553000CEFB04F0C5FB4207FBD4424D637CB5F8BB
:105540004C10022B18BF01F1FF31D8B20EBF89B247
:10555000022089B204F01BFBA37A23B1B5F84C00FA
:1055600080B201F0A1FE612004F0B1FB04F0A8FBC1
:105570004307FBD501232374637C022B08BF632000
:10558000BDE8F84018BF622004F0A1BBA27A052A4A
:1055900035D12C4A2C4B10461E782D4DB2F84C308C
:1055A00020339BB2A2F84C30B2F84C309BB2B3F52A
:1055B0001B6F81BFB2F84C304F3B9BB2A2F84C300E
:1055C0004F2EB3D0B0F84C70B0F84C30BFB2A7F645
:1055D000621100299BB2B8BFA7F65B11A3F6621354
:1055E0005F424FEAE101695C07F0070703F0070338
:1055F00058BF7B4241FA03F3D907CFD496E7A27A8A
:10560000022A06D1186801F043FB0E4BA3F84C00A8
:105610008CE7A37A032B06D10A4D284601F014FC2F
:10562000A5F84C0082E7A37A042B01BFA389054AA1
:105630009BB2A2F84C3079E73C0B001048130010E5
:105640006C1300105004001051130010EF170010DD
:10565000531300102DE9F84F10234D4E4D4F33607A
:1056600001F030FD3C4604F001FA01F00BFF01F0BF
:1056700085FFFEF75DFE01F045FEDFF834B1BB7C2F
:10568000012B08D0BB7C082B05D001F097FFBDE8AB
:10569000F84F01F04FBE1023336001F08BFD6FF027
:1056A0007F05DFF81081DFF81091D8F80030DFF8BF
:1056B0000CA1002B49D01023374DCBF800302B68BC
:1056C0001BB1637843F002036370D8F80030012BFC
:1056D00082BF637843F001036370237C2BB163784E
:1056E00043F020036370002323742C4BB3F84C0069
:1056F00080B201F09BFD2A4B99F800201B781343E0
:1057000006D0637843F008036370002389F8003003
:10571000244B254A93F9003092F900203533934207
:10572000B8BF63784FF00000BCBF43F01003637054
:105730001E4B1968FEF7AAFEDAF8000001F026FDFC
:105740000023C8F800302B6099E7062004F016FA11
:1057500099F8003040F307205BB115F1800F08D1B4
:10576000104B93F900503635A842B8BF284645B2D1
:10577000284601F03BFDDAF8000001F007FDE37A6E
:1057800013B1FFF781FE90E74FF4807333608CE72D
:105790003CC009203C0B00106018001050040010A1
:1057A000B81400106418001050130010C814001032
:1057B00038C009204C130010651800106C1300103D
:1057C0002DE9F04385B00024954B45F25557D3E9B8
:1057D0000265234606F0010213434AF6AA234FEA64
:1057E000D57208BF1F46002C08BF012AF0B20CBFBB
:1057F0004FF0AA084FF05508FEF77CFD8DF8000029
:10580000C6F30720FEF776FD8DF80100C6F30740CA
:10581000FEF770FD8DF80200300EFEF76BFD8DF87F
:105820000300E8B2FEF766FD8DF80400C5F307201B
:10583000FEF760FD8DF80500C5F30740FEF75AFD41
:105840008DF80600280EFEF755FD8DF8070040463E
:10585000FEF750FD8DF808007720FEF74BFD8DF820
:1058600009006620FEF746FD8DF80A005520FEF778
:1058700041FD8DF80B004420FEF73CFD8DF80C0037
:105880003320FEF737FD8DF80D002220FEF732FDA4
:105890008DF80E001120FEF72DFD23468DF80F0028
:1058A00047FA03F2C3F10F0102F001028A4001330B
:1058B0001443102BA4B2F3D147F6FF710D2004F06E
:1058C00066F942F62231122004F061F941F24B31BF
:1058D000142004F05CF940F60141202004F057F94F
:1058E00021462C2004F053F900212D2004F04FF91B
:1058F0004C4B0220B3F84C104B4C89B204F047F9E2
:105900000B21052004F043F92378BBBB2921032098
:1059100004F03DF901F060FD04F0D2F94506FBD535
:10592000612004F0D4F904F0CBF94007FBD58022C4
:105930003E4B1A600E2004F021F900F01F000F28E2
:10594000F8D1632004F0C3F91421232004F01FF9D7
:10595000082004F013F9C0F30801054641F49C4106
:10596000082004F014F90026314FDFF8D080A37C22
:10597000022B4AD1DFF8C890760808E02378012B83
:10598000E2D14021C3E7E27A1AB1FFF77DFD40F68C
:10599000C9033A68B6EB520FF5D0D9F800209A4205
:1059A000F1D94FF480733E6869461020C8F8003082
:1059B00004F000F90E2004F0E1F800F01F000F28B9
:1059C000F8D14FF480721B4B64201A6004F07FF909
:1059D00004F076F94107FBD404F072F94206FBD5D6
:1059E000612004F074F904F06BF94307FBD50E2035
:1059F00004F0C4F800F01F000F28F8D1632004F071
:105A000066F9386801F0C2FBB1E780220A4B2946EB
:105A100008201A6004F0BBF805B0BDE8F08300BFB1
:105A200068180010500400103C0B001058C00920EA
:105A30006C1300103CC009205CC0092038C009204C
:105A40000840004008B50E48FEF766FC00220D4BEA
:105A50000D480E499A83C3E902011A84C3E90A2258
:105A60009A641A619A829A759A61DA8383F822207D
:105A70009A8483F830205A86054BDA7208BD00BF3D
:105A8000D6BE898E5004001055555500AAAAAA000A
:105A90003C0B001010B5064C4FF4847200212046D8
:105AA000FEF79CFB4FF0FF33C4F8003110BD00BF80
:105AB000B01300102DE9F84F0123724C07462370F4
:105AC0006074FFF7BFFF4FF080726F4B6F4E1A602C
:105AD0001023336001F0F6FA002503F0C7FF01F050
:105AE000D1FC01F04BFDFEF723FC01F00BFCDFF8CD
:105AF000BCA1DFF8BC81A37CBB4240F09180E3896C
:105B00009BB2CBB1642004F0E2F804F0D9F842076C
:105B1000FBD4BAF84C100220013989B204F037F8EE
:105B2000612004F0D4F804F0CBF84307FBD56220E1
:105B300004F0CDF80023E381E37A002B7CD0FFF75B
:105B4000A3FC1023336001F035FB6FF07F0BDFF80F
:105B50006491D8F800301BB9D9F80030002B6FD011
:105B6000D9F800301BB1637843F002036370D8F8B2
:105B70000030002B7FD0D8F80030012B82BF637833
:105B800043F001036370BAF84C0080B201F04EFBA1
:105B90003F4A404B11781B780B4306D063780225AF
:105BA00043F008036370002313703B4B3B4A93F9A7
:105BB000003092F90020353393425ADA0225637897
:105BC00043F01003637036494FF4C872A1F5C870F2
:105BD00004F014FF4FF4C8700023013DDFF8D8E053
:105BE000EDB200212F4A00EB020CDEF8002001315B
:105BF000D25CDEF800B0D2090CF8012B1BF80320B0
:105C000008294FEA4202D2B20BF80320EDD101334A
:105C1000322B00F10800E4D1E36A2248984750BBD8
:105C20004FF08072204B1A60FEF77CFC01F0C6FC3E
:105C3000BDE8F84F01F07EBB4FF48073336080E71E
:105C4000062003F09BFF124B40F307201B786BB13B
:105C50001BF1800F0AD1104B93F900B00BF1360BFA
:105C60005845B8BF58464FFA80FB584601F0BEFA77
:105C70006FE7002DA7D10023C8F80030C9F8003025
:105C800039E700BF3C0B001000E100E03CC00920F8
:105C900065180010B814001064180010501300109C
:105CA0005C160010CC14001080E100E050040010DD
:105CB0004C13001060180010C81400102DE9F04FAC
:105CC00093B001234FF08072AB4CAC4D23702B7519
:105CD000AB4B60741A601023AA4E8046336001F00B
:105CE000F1F903F0C3FE01F011FC01F047FC286854
:105CF00003F058FEDFF8C8A2FEF76EFB0196A37C06
:105D0000434540F01481E3899BB2CBB1642003F09A
:105D1000DEFF03F0D5FF4707FBD4B5F84C10022097
:105D2000013989B203F033FF612003F0D0FF03F0A3
:105D3000C7FF4607FBD5622003F0C9FF0023E381BC
:105D40001023019ADFF87CB2136001F033FA8E4A17
:105D5000DBF8003033B9136823B9E37A13B9A37CB5
:105D60004345F5D0062003F009FF884B40F3072098
:105D70001870874B1870A37C434540F0D880824F41
:105D80003B681BB1637843F002036370E37A03F06E
:105D9000FF01002B40F09380DBF80030002BAED0E9
:105DA0004FF0300906A84A46FEF718FAB5F84C003D
:105DB0002B6880B2059301F017F809FB00F9754EC6
:105DC00006EB09030293744B93F800C059789A7854
:105DD0000904D87841EA0C61084340EA022003F044
:105DE000E1FD56F8096046400696C6F30526B21C4A
:105DF000272A64DC06F10809B9F12B0F664B07D995
:105E000066490B68D8070DD53B68002BF9D009E02F
:105E100029F0030162480B440168994202D23968B3
:105E20000029F9D00427DAF80030039223F00103A7
:105E30006120CAF8003003F04AFF5749039A7B1CDF
:105E400011F807E0C85CBB1C11F803C0FB1CCB5C5D
:105E5000039243EA0E6343EA004040EA0C2003F059
:105E6000A1FDBB1012AA02EB830C029A043752F870
:105E700023302C2F83EA00034749039A4CF8303C27
:105E8000DDD12B69002B5FD110224FF08076454B7E
:105E900005A81A60A3699847434B05A91E60012015
:105EA000FEF7F4FA40F63541354B404A1E60404B50
:105EB0001B681268C3F3130301FB0323AB64612067
:105EC00003F005FFDAF800303A4A23F00103CAF87C
:105ED0000030136859074BD440F63541344B334AF0
:105EE0001B681268C3F3130301FB0323A96C2A7D0B
:105EF000994288BF03F14343A2F1020288BF03F530
:105F0000A003012A03D82C4A5B1A934202D8E36902
:105F1000012B70D1FFF796FD4FF480720023019999
:105F2000E3610A60E27C012A4ED1E374A3744FF06E
:105F300080721D4B1A60FEF7F5FA01F03FFB01F08D
:105F4000F9F913B0BDE8F08FE86806A900F0D4FFB6
:105F500012AB99441E4419F8343C16F82D2C1B043E
:105F600043EA022316F82E2C134398428CD0A6E75E
:105F7000124B1B68ADE700BF3C0B00105004001033
:105F800000E100E03CC00920601800105013001030
:105F900052130010ACAC00002D180010104100503E
:105FA0000441005038C0092080E100E00840004072
:105FB0006C1300100C00034080F0FA02080003404C
:105FC000240003404C130010B8F10A0FAFD0012396
:105FD00064202B7503F07BFE03F072FE4207FBD4B6
:105FE000B5F850309BB203B3B5F850309BB2A5F86A
:105FF0004C30012323632C20E98803F0C8FD2D20B9
:10600000A98803F0C4FDE37A0BB1FFF73DFAE36919
:10601000002B0DDDFFF7FCF9E369013BE361002391
:106020000E4ACBF80030136069E640F66213DEE7F3
:1060300001F06CFA01F0A2FA236B3BB1286803F07F
:10604000B1FCFEF7C9F900232363E8E703F038FE4B
:106050004307FBD5622003F03AFEE0E7601800102A
:1060600070B58EB015460C46002106462E2202A8B9
:106070000191FEF7B3F8312D2A46214628BF31227F
:106080000DF105008DF8046004F0B8FC01A90520AD
:10609000FEF7FCF90EB070BD38B540F66411314B17
:1060A000314CB3F84C2092B28A4210D140F63541BF
:1060B0002E4B2F4A1B681268C3F3130301FB032303
:1060C000636340F66613A3810123E37244E040F664
:1060D0006610B3F84C2092B2824241D140F635406E
:1060E000224A234912680968C2F3130200FB021214
:1060F00041F66A01656BD88BAA423CBF02F143426C
:1061000002F5A00201FB002243F2D4014143521BDD
:10611000B2FBF1F2242A20D82525164940080A446A
:1061200092F8702898839A750132B2FBF5F000213D
:1061300005FB10220320198499615A75196118759D
:106140000D4BE17201220D49A361A072FFF788FF98
:10615000E37C0BB12823E36138BD40F66413B2E75A
:10616000A181B1E7500400103C0B00106C1300102B
:1061700008400040BCAB0000E1460000660400108F
:1061800038B540F63542244B244D1C68244BC4F3EB
:1061900013041B6802FB043446F2A712AB6BA34244
:1061A00082BF04F14344A4F56514A4F5A254E31A94
:1061B00093422AD91B4AD2F80011994288BFC2F8EB
:1061C0000031D2F80031184903F5613303F252333C
:1061D000B3FBF1F315499BB2C88B984216D1D2F8A4
:1061E00004310133052BC2F804310DD1104B0222CA
:1061F000AB6140F66413AB810423AB7201231046FC
:106200001E31EB72FFF72CFFAC6338BDCB8300234C
:10621000C2F80431F8E700BF6C1300103C0B00100B
:1062200008400040B0130010A40E070050040010F6
:106230009960000070B5174D2C6954BB0379012B90
:1062400027D143792BBBC379027A86791B0243EAB3
:106250000243011D022243EA060000F01FFE22460F
:10626000A86020FA04F3C4F1170103F0010301341C
:106270008B40182C42EA0302F3D10120EA60064B5E
:10628000064A28619A6106490322BDE87040FFF77B
:10629000E7BE70BD500400103C0B0010816100008F
:1062A0005804001070B5134A0023114652F83350B9
:1062B00002EBC304854203D163680133636070BDA0
:1062C0000133202BF2D14FF0FF32002314460A4E47
:1062D00056F83350A54201DB002C01DA1A462C4651
:1062E0000133202BF4D1012341F8320001EBC2022B
:1062F0005360E4E7B0130010B41300102DE9F04F21
:1063000097B006AA04469046694B03F1400615462D
:1063100018685968083303C5B3422A46F7D147467F
:106320000025DFF8AC91634EB9F84C0080B200F064
:106330005BFD1021335C4FF07F0C384606EB030EFB
:1063400002789EF828E0013382EA0E0200F8012B61
:10635000B3FBFCF20139C2EBC212A3EB0203EDD195
:106360000135042D07F11007DED1202704F1300597
:106370002034514B0DF1080C0FCB8CE80F0000239B
:1063800041469E460846224601E0AA4207D012F83E
:1063900001AB10F8019BCA45F7D04CF823E001335C
:1063A000042B01F11001EDD100235CF8042B002A2D
:1063B00071D10133042BF8D10137B7F53C7F05F1DA
:1063C000010504F10104D4D100233C4A52F83310F2
:1063D00003295BDD00243A4A52F83300FDF79CFFA5
:1063E000384B394A2046DA62384A9A61384B0422DF
:1063F00019461C61FFF734FE204617B0BDE8F08F48
:106400001AF8013F0329019310DD2A4B03EB020B1D
:106410009BF828B0019B83EA0B0302F1010B7F225A
:10642000BBFBF2F2C2EBC212ABEB020283400130C3
:1064300043EA0C0308285FFA83FCE1D1D9F8003065
:106440000EF1080E03F801C001310A2904D04FF003
:10645000000CF2466046D3E7D9F80030D978D9F875
:1064600000309B78D9F800201B045078D9F8002020
:1064700043EA01631278134343EA0020FFF712FF57
:10648000D9F800100120FEF701F895E70133202B21
:106490009CD10120B1E70E4BDFF83890B3F84C00E7
:1064A00080B200F0A1FC0021325CA5F1310ECEE7F4
:1064B00051B40000BCAB000094B40000B413001051
:1064C000B01300103C0B0010D145000035620000F5
:1064D00050040010C8140010F8B5174E174C35467C
:1064E000B37C0A2B00D0F8BDFFF7D4FAB4F84C30D7
:1064F000DB0744BF40F68813A4F84C30636C4BB9FB
:10650000B4F84C0080B200F0CFFE0D4B0A20EB62D5
:10651000FFF7D0FAAB7C0A2BDFB2E4D1042221468C
:106520000020FFF79DFD074B3846AB610023236138
:10653000FFF7C4FBD4E700BF3C0B00105004001071
:10654000FD62000035620000F0B589B00025314FD2
:106550001C22294601A80095FDF740FEBA6D2E4C7D
:10656000FF2A02D9A57409B0F0BDD6B2B31D8DF8CB
:10657000013094F8253007F15C018DF8023094F871
:10658000243002A88DF8033094F823308DF80430BD
:1065900094F822308DF8053094F821308DF80630CB
:1065A00094F820308DF8073004F028FA06F108023C
:1065B000D5B22A466946F86800F056FC08AB5A196D
:1065C00002F8200C030A000C02F81F3C02F81E0C13
:1065D00000F002FF4FF08072104B114F114D1A6006
:1065E000A37C0C2B04D04FF080720F4B1A60BAE7DB
:1065F00006F10B016A463846C9B2FEF739FE2B6830
:1066000023F07F4303F5A0732A6822F07F42934270
:10661000FAD8E5E7500400103C0B001000E100E060
:10662000D6BE898E6C13001080E100E0F0B58BB00F
:106630002D2003F0A3FA030A8DF805002C208DF815
:10664000043003F09BFA030A8DF806308DF807003A
:1066500000F038FD00F0C0FE03F032FB4106FBD530
:10666000612003F034FB03F02BFB4207FBD5102223
:106670008021134C02252260124A134F11604FF4FF
:106680008071124E11600E2003F078FA00F01F00A6
:106690000F28F8D1622003F01AFB3D6003F010FBD5
:1066A000C306FBD502A92020256003F0C3FA01A987
:1066B0000020FDF7EBFE306800F068FDE3E700BF67
:1066C00038C0092058C009203CC009206C130010B4
:1066D00008B5202003F052FA08B1FFF7A7FF032204
:1066E000024B1A70BDE80840FEF7B4BF3C0B001027
:1066F0002DE9F0411023354D2D206E7C6B7403F095
:106700003DFA80462C2003F039FA314C07462188A7
:106710002D2003F03CFA2C20618803F038FA572131
:10672000032003F034FA41F24B31142003F02FFA26
:1067300040F66171202003F02AFA0220A18803F0BC
:1067400026FA0520E179F6B203F021FA03F0B8FA4F
:106750004106FBD5612003F0BAFA03F0B1FA420713
:10676000FBD54FF480721B4B1A6080221A620E20F8
:1067700003F004FA00F01F000F28F8D1A0791649A1
:1067800003F018FA632003F0A2FA0E2003F0F6F9E2
:1067900000F01F000F28F8D14FF480720F4B6420D7
:1067A0001A6003F094FA03F08BFA4307FBD48022BB
:1067B0000B4B41462D201A6003F0E9F939462C2095
:1067C00003F0E5F9AE74BDE8F08100BF3C0B0010AA
:1067D0007013001038C00920781300103CC0092045
:1067E0005CC009202DE9F0478EB010223C4B1A60A6
:1067F00000F068FC00F0F0FD80223A4B42F62231B6
:106800001A60122003F0C3F941F24B31142003F057
:10681000BEF940F20111202003F0B9F9292103202B
:1068200003F0B5F903F04CFA4106FBD503F048FA42
:1068300010F00404FAD1DFF8B490DFF8B48099F8CE
:106840001230042B05D01022274B1A600EB0BDE881
:10685000F087B8F85270DFF89CA0BFB2B8F8543097
:106860009BB2BB42EBD3791E022089B203F08FF9B1
:10687000612003F02CFA03F023FA4207FBD56220D3
:1068800003F025FA4FF4FA730093009D013D009543
:10689000002DFAD104EB44060EAB1E4406203B0A41
:1068A00006F8343C06F8337C03F068F90134E4B2AE
:1068B000000A102C06F8320C08D101A90420FDF7BB
:1068C000E5FDDAF8000000F061FC2C46642003F0DE
:1068D000FEF903F0F5F94307FBD40137BFB2BDE77A
:1068E00038C0092058C009203CC009203C0B0010CA
:1068F000500400106C130010F0B585B0424B80229C
:10690000029340F69E13ADF80C30404B42F6223114
:106910001A60122003F03BF941F24B31142003F0CE
:1069200036F940F20111202003F031F9292103202A
:1069300003F02DF9F121062003F029F903F0C0F945
:106940004106FBD503F0BCF910F00404FAD1304F36
:10695000304D314EBB7C072B01D005B0F0BD04ABF0
:1069600003EB440333F8081C0220013989B203F019
:106970000EF9612003F0ABF903F0A2F94207FBD551
:10698000622003F0A4F94FF4FA730193019B013BD9
:106990000193002BFAD1062003F0F0F81F4B40F3CF
:1069A000072093F856305BB298421FDD012C19D0B6
:1069B000022C19D014B94FF48073336003230134CF
:1069C000B4FBF3F303EB4303E41A154BE4B218688A
:1069D00000F0DCFB642003F07AF903F071F943075F
:1069E000FBD4B7E71023E8E73460E7E7012C07D0D2
:1069F000022C07D0002CE1D14FF480732B60DDE72F
:106A00001023FBE72C60D9E76C09850958C00920E1
:106A10003C0B00103CC0092038C009205004001075
:106A20006C13001008B54FF4E0223E4B3E4D1A6047
:106A300003F00CFA00F0D6FC3C4800F01DFBFDF71B
:106A400071FD00F0EDFC002002F08EFA3849394863
:106A500002F0FAFA2C46384E306800F097FBAA7C18
:106A60006B7C9A42F8D0AB7C112BF5D8DFE803F0B1
:106A7000561416283D2F37401B1D220925430F4968
:106A80004E51012002F0A8FF03F0EAF9E4E70E23DB
:106A90006374FEF7DFFDDFE70123F9E70223637488
:106AA000FEF78EFED8E70823F2E70923637401F0AE
:106AB00039FBD1E7FFF710FDCEE7FFF745FDCBE748
:106AC000032328461D49637401F068FFC4E70523CA
:106AD0001A48637401F05AFD0023A374BCE706232F
:106AE0001648637401F094FEB6E7FFF77BFEB3E748
:106AF000FFF702FFB0E70D236374207D02F0D4F9A5
:106B0000AAE70F236374FFF7E3FDA5E7FFF7F0FDA6
:106B1000A2E71123637402F02DFE9DE7FDF702FD4D
:106B20009AE700BF24ED00E03C0B0010494800004C
:106B300063AC00009FAB00006C1300109C040010BD
:106B4000F0B500200021474A4F25C2E9000146491F
:106B500000220846454B1B68B2FBF5F405FB1424E4
:106B600002329E2A01F8014BF6D1414AC3F3C451C7
:106B70001170404AC3F3C3411170C3F30715C3F347
:106B8000C701C3F38707C3F3470601F0080205F006
:106B90001004144306F0020C07F0040242EA0C024F
:106BA000144403F001021444334A01F00401147048
:106BB000324AC3F38824148007F00207DA099C09DB
:106BC00002F0400204F02004394306F001065B099C
:106BD0002243314403F0100305F008050A442B4317
:106BE0001344274A1370274B1B787BB3264F0A2187
:106BF00000243E4600234FF0000C17F8012B52EA08
:106C0000030E5FFA8CF50CF1010C20D101392C44F4
:106C100011F0FF01E4B2EDD10A464F251B4B1C7069
:106C2000B2FBF5F305FB1323C3F3C404345DDFB2F9
:106C300003F0070344FA03F3DB0748BF4B1C02F1E0
:106C4000020244BF4754D9B29E2AE9D1F0BD12F1E5
:106C5000FF3E43F1FF3502EA0E0E1D4072462B4601
:106C6000CDE700BFC0140010CD1800106818001048
:106C7000CB18001078180010CC1800107A180010EB
:106C80001C190010EF1700105313001051130010BF
:106C90002DE9F04387B0494B494C1E884F2304EA45
:106CA000D004B4FBF3F203FB1241464BC0F3400C9B
:106CB0001A784FEA4C1782EA1042A7EB0C0302F055
:106CC0001F025A40404B86EAD0161B780DF1080C83
:106CD00083EA505303EB90003C4B3D461B786746DC
:106CE00058400023C6F3080600F01F0046FA03FED2
:106CF00001330EF0010E092B0CF801EBF6D1002345
:106D00000DF1110C42FA03F6013306F00106052BD2
:106D10000CF8016BF6D16E460023B44640FA03F23C
:106D2000013302F00102052B0CF8012BF6D10D22E4
:106D3000DFF8B0C00CF10E0EBB5C83B112F80C0092
:106D400006AB184412F80E300DF118094B4410F838
:106D5000188C13F8189C00F8189C03F8188C013A4A
:106D6000EAD20022104616F8013B834001301A4453
:106D70000528D2B2F7D1164B1B789E186A184F21FE
:106D80003244B2FBF1F301FB1322124B985C124B1D
:106D90001B786BB1114B1978B4FBF1F301FB134372
:106DA0002B443344B3FBF1F201FB12330C4AD05CA9
:106DB00000F6621007B0BDE8F08300BF7A1800103B
:106DC000F0FFFF01CC180010CB180010781800104D
:106DD0001C190010CD180010EF17001051130010EF
:106DE0007C180010A4B40000A0F6621303EBD37368
:106DF0005810C3F34F0353B10B2B02D80138C0B264
:106E000070470C2B05D0262B05D80238F7E7252034
:106E1000704726207047272070470A2803D800F2C1
:106E2000B24040007047242802D800F2B340F8E78F
:106E3000252806D0262840F67A1018BF4FF41B608C
:106E4000704740F66210704710B5417D0346084612
:106E5000FFF7E3FF25249A7D0A44B2FBF4F104FB1B
:106E600011225A7510BD0000F0B500230A4F20F022
:106E70007F40934200DBF0BD0824CD5C85EA00062C
:106E800016F0010F4FEA500018BF7840013C4FEA5E
:106E90005505F3D10133ECE70060DA00F0B50346A5
:106EA000144E013A002A0EDA0022104623FA02F1AB
:106EB000C2F1170401F001010132A140182A40EA91
:106EC0000100F3D1F0BD07248F5C47FA04F05D00A8
:106ED00000F001004FEAD35C25F07F4580EAD353F0
:106EE0002B43BCF1000F00D07340013CEDD2013ABE
:106EF000D8E700BF00C0B40030B50024074D20F033
:106F00007F40944200DB30BD0B5D01344340DBB277
:106F100055F8233083EA1020F3E700BFAC050010DA
:106F2000F8B5044690B2FFF75FFF144E7F27325C3E
:106F300020462144814200D1F8BD4FF0000E744636
:106F400090F800C0C4F107054CFA05F303F0010501
:106F5000B31893F8283001326B40B2FBF7F5A34029
:106F60000134C5EBC5154EEA0303082CA2EB05025C
:106F70005FFA83FEE6D100F801EBDBE7C0B4000066
:106F8000F8B50C460546C02200212046FDF726F93B
:106F900001260023681E043510F8012F03F10807AD
:106FA00012F001011BBF44F82360D4F8BC1044F870
:106FB000231004EB010C1CBF8CF89430013103F159
:106FC000010318BFC4F8BC10252B4FEA520201D0B0
:106FD0009F42E5D1A842DFD1F8BD51F8203043B936
:106FE000D1F8BC20B0FBF2F302FB1300014491F88E
:106FF0009400704713B50B4641881268ADF8001035
:107000008188ADF80210C1884078ADF804100449B9
:107010000C686946A047431E5842584102B010BD53
:10702000243A001070B586B06946044601A802F003
:107030004DFF9DF80410E9B920460E4601AA04F15F
:107040004005537880F87D101C099F2B03F00F0337
:107050008CBF57343034092B8CBF5733303380F812
:107060007C4080F87E3080F87F600430A84202F1D6
:107070000102E6D106B070BD38B504460C4D02F0F1
:10708000F9FF2846FFF7CEFF284603F02BFA094BFD
:10709000094A022009491C6002F0E2FF0849FF206A
:1070A00003F00AFA012003F07CF8002038BD00BF8D
:1070B000AC090010243A001020390010F56F0000D0
:1070C00067B500000021044B4FF4005203481960DB
:1070D0005960FDF783B800BF780B0010201900102D
:1070E00010B50A4A1468536804F07F0003F07F0368
:1070F000591C01F07F0188421DBF516804480131CD
:1071000000201CBF516000EB831010BD780B0010F5
:1071100020190010084A1368516803F07F0301F03A
:107120007F018B421FBF11680448013100EB8310BF
:1071300014BF116000207047780B00102019001058
:1071400037B50546FFF7E6FF0E4B044640B1014652
:10715000402282209D6003F055F8012003B030BD2D
:107160009A680949AA1A8A4209D9032282208DF80D
:1071700007200DF1070101229D6003F043F820462E
:10718000ECE700BF780B0010801A060038B5044603
:10719000822003F011F88206054602D42046FFF74C
:1071A000CFFF6B0602D42046FFF7CAFFBDE8384088
:1071B00003F08EB808B59E2200210748FDF70EF8AF
:1071C0000023064A1370064A13608022054B1A708A
:1071D0007F22054B1A7008BD840B0010EE170010BB
:1071E000283A001050130010521300100B4A92F965
:1071F00000308342B8BF03461370094A92F9003049
:107200008342A8BF03461370064A136803EB0020AD
:107210001060054A13780133137070475013001043
:1072200052130010283A0010EE17001010B540F667
:107230006213B0F51B6F38BF18460D4BA0F66210F5
:107240001B7823B10B4A1268803292FBF3F3FD24C2
:10725000094903EB430331F9102004FB023313F116
:10726000800248BF03F27F12121221F8102010BDD5
:10727000EE170010283A0010840B001040F662133D
:10728000B0F51B6F38BF1846064BA0F6621033F9F5
:10729000103013F1800048BF03F27F1040F3072045
:1072A000704700BF840B001038B5134D95F90040AE
:1072B000002C05DDFFF7E2FF2C78363C044464B275
:1072C0006FF07705A542B8BF25466FF013039D42C6
:1072D000A8BF1D4605F1380141F003010620C9B2DF
:1072E00002F055FC14F1770FACBF00240124034BCE
:1072F0001D70034B1C7038BDF0170010641800108F
:10730000B81400100022074B1A704FF40012064BFD
:107310001A600422054B1A60054A136843F00403FF
:10732000136070476518001000E100E0AC80024077
:10733000B4800240074A136823F004031360042258
:10734000054B1A604FF40012044B1A600022044BE4
:107350001A707047B4800240AC80024080E100E0C7
:107360006518001008B5FFF7E5FF0022034B1A70FF
:107370008823034A1370034A137008BDB814001021
:10738000F01700106418001002220A4B1A60002344
:10739000094A1360094A1360094A1360094A1380B5
:1073A000094A1380094A1380094A1360094A136085
:1073B000704700BF044000406C13001048130010D9
:1073C00060130010BA140010EC17001068130010BE
:1073D00064130010241800100122014B1A6070473A
:1073E0000440004008B5FFF7CFFF0422054B1A60A8
:1073F00040F63442DA6003229A600222024B1A609D
:1074000008BD00BF0C40004000E100E008B5FFF7F8
:10741000BBFF0222014B1A6008BD00BF80E100E003
:10742000134A136843F000531360124A136843F47D
:10743000780313604FF080620F4B1A6000230F4AED
:107440001360136213641366C2F88030C2F8A03070
:10745000C2F8C030C2F8E030FF23A2F58472136096
:1074600093600122064B1A601A68D207FCD5704758
:10747000C4C00F4018E400E000E100E010410050FB
:107480003040005030B50123134A14481360144CA7
:1074900093601449144A154B154D1460C3E9015209
:1074A00093605160D060134A1C60D86014605160D2
:1074B00093604DF20602104B18605A6000220F488C
:1074C00002600F4802600F4A11600F4A15605A6847
:1074D00042F001025A6030BD0840005032900088EE
:1074E000080003402D180010EC3A0010DC3A0010A0
:1074F000F1170010004100500C4100504C130010D7
:1075000060180010AC130010C814001030B501232F
:10751000124A1349136093600022124B124D134814
:107520000A2A14BF1C46002401320B2A43E90451E5
:1075300043E9024001F1040103F11003F0D10C4BC7
:107540000C4A196811605968516099689160DA684D
:10755000094B1A604DF206025A6030BD08400050D7
:107560002D1800103C3A0010080003400410008859
:107570002C3A0010004100500C4100504FF0805256
:107580000A4B0B491A600B6843F001030B6051F87A
:10759000203C43F0020341F8203C06490B6843F0CD
:1075A00001030B60044B1A60704700BF98C00920AC
:1075B00024000340104100509CC009204FF080522D
:1075C0000A4B1A600A4A136823F00103136052F849
:1075D000203C23F0020342F8203C0022054B1A60B5
:1075E0000123054A13609360704700BF98C00920CB
:1075F00024000340104100500840005030B50C4BAF
:107600000C490D4A0D4803F110044D1CC3E9032039
:10761000186059609C60DA61C3E90553084B186033
:1076200059609C60DA604DF206021A6130BD00BFFD
:10763000240C0010403B00100100008008000340B3
:1076400000410050034B044A1860136843F00103E3
:10765000136070471880004014800040054B064AB4
:107660001B681E33136052F80C3C43F0400342F891
:107670000C3C70470880004020800040064B074AC1
:107680001B6803F57A73136052F8103C43F40073DF
:1076900042F8103C704700BF088000402480004042
:1076A00030B501440020034611F8014BDD000133E1
:1076B000AC409A4240EA0400F6D130BD70B50A49A8
:1076C000421E05300B468E7912F8014F1D7804EAF0
:1076D00006039D4201F1010103D18242F2D1012052
:1076E00070BD0020FCE700BF8804001010B5054CF9
:1076F0004FF4E472002104F12000FCF76FFD024B0F
:10770000236210BD240C0010D6BE898EF8B5124A33
:1077100000231146D2F81841C4B14FF492740026E8
:107720005C430E4D4FF4827225440C442046314692
:10773000C5E9BB66C5F80063FCF750FD48F27F035E
:10774000C5F80863A5F804332046F8BD0133042BBF
:1077500002F59272DED1F7E70C0E0010240C001037
:1077600010B51B4B186A02F01DF9044647F6FE716E
:107770000D2002F00CFA42F62231122002F007FA34
:1077800041F24B21142002F002FA44F2E1412020A0
:1077900002F0FDF92C20A1B202F0F9F92D20210C04
:1077A00002F0F5F90B4B02201988013989B202F079
:1077B000EEF94021032002F0EAF902F081FA4306D3
:1077C000FBD5612002F083FABDE81040FFF746BF09
:1077D000240C00102C3B001070B5642002F077FAE6
:1077E000264A13681C3A23F00103D361244B1C681A
:1077F00014F004042CD1234D4FF48272D5F878662E
:1078000021463046C6E94144FCF7E8FC48F27F03D4
:10781000C6F82041A6F81C31FFF7F0FEFFF7AEFED8
:107820002A6A194B9A4215D140F67A12174B1B88D7
:107830009BB2934220D0B3F51B6F14BF25202720A5
:10784000FFF7EBFABDE87040114B1880FFF788BFD7
:107850001168CCE7252295F82C0095F82D3005F11C
:1078600040010344B3FBF2F002FB1030C0B285F8D4
:107870002C00FFF7B2FBE3E72620E1E724000340FA
:107880000C000340240C0010D6BE898EA00400100A
:107890002C3B001070B5294A294B54682948022C0A
:1078A0001ED115680121C3F80051C3F8041114B1A9
:1078B0000168C3F808110021C2E90111B3F80C21D5
:1078C0000132A3F80C210268D3F80801121A586B90
:1078D000824223D9FFF70AFFBDE87040FFF77CBF63
:1078E000012CD3F8041110D189B1D3F800111E6B0B
:1078F000156831441E31491B3B29D3D9D3F80011F7
:107900001D6B2944C3F80011D1E70029F6D1116895
:10791000C3F800110168C3F80811C8E70A4A1068E3
:1079200008B11160D6E7D3F800011B6BBDE87040C9
:107930001844A0F6B830FFF785BE00BF303B0010FA
:10794000240C001008800040640B001008B5114A98
:10795000114BD2F87C161B68994204DB0F4801F0EA
:1079600073FB002008BD0E48D2F880360068405CEA
:1079700018410133072BC4BF03F00703013100F0A6
:107980000100D2BFC2F88036C2F88036C2F87C1639
:10799000E8E700BF240C00103C3B00108EB500004F
:1079A000443B0010094A0A49D2F87C360968013381
:1079B0008B4207DB08D1D2F880060628CCBF002016
:1079C000012070470120704700207047240C0010F0
:1079D0003C3B0010034BD3F88026D3F87C36C260C2
:1079E00083607047240C0010034BD3F88026D3F833
:1079F0007C36426003607047240C001008B5094BC8
:107A0000094AD3F87C161268914204DB074801F05A
:107A10001BFB002008BD064A1268505C0131C3F808
:107A20007C16F7E7240C00103C3B0010B1B50000B9
:107A3000443B001070B50E460546D0B1042902DD66
:107A40000D4801F0EFFA00252C46B5420BDAFFF79E
:107A5000D5FF01350402F8E7FFF778FF044364001F
:107A60000135B542F8DB2146044801F0EDFA204625
:107A700070BD0446F5E700BFD1B50000E9B50000D0
:107A800070B516460546B0B1042A02DD0B4801F078
:107A9000C9FA00252C46AE420BDDFFF7AFFF0135DA
:107AA0000402F8E7FFF752FF044364000135B542D2
:107AB000F8DB204670BD0446F9E700BFD1B50000F1
:107AC0002DE9F04385B06F469146064628480D469D
:107AD0001C46DDF8308001F0A5FA3846FFF784FF38
:107AE000B9F1FF3F2ED185B10025A54226DB24EA5E
:107AF000E47444450FDCFFF755FF60B9FFF77EFFE4
:107B00000134F6E7FFF722FF0135A542FADB24EA4C
:107B1000E47444450ADD3846FFF75CFF97E80F0040
:107B200086E80F00304605B0BDE8F083FFF73AFF66
:107B30000028F0D1FFF70AFF0134EAE7FFF75EFF04
:107B40000135D2E795B9B9F1080F02DD094801F016
:107B500069FA00244C45DEDAFFF7F8FE0134F9E754
:107B6000FFF74CFF01344C45FADBD4E70024FAE779
:107B7000F8B500000CB6000030B5B3B00024764B69
:107B8000C3F88046C3F87C46744B1860744B20469B
:107B900019600421FFF74EFF012105462046FFF73B
:107BA00049FF01212046FFF745FF01212046FFF74D
:107BB00041FF01212046FFF73DFFFFF71FFFFFF7C1
:107BC0001DFF2A460102674801F03EFA082D00F227
:107BD000BF80DFE805F022059320B931BB95B700DF
:107BE00061484FF0FF3401F01DFA6FF001030622E7
:107BF000012100942AA8FFF763FF6FF0010306221A
:107C0000009401212EA8FFF75BFF584801F00AFA03
:107C1000002033B030BD5648E3E756484FF0FF34FC
:107C200001F000FA6FF001030622012100942AA856
:107C3000FFF746FF1F2380E04FF0FF344E4801F06E
:107C4000F1F96FF001030622012102A80094FFF769
:107C500037FF6FF001030622012106A80094FFF709
:107C60002FFF6FF00103042201210AA80094FFF7FF
:107C700027FF6FF00103032201210EA80094FFF7F4
:107C80001FFF01226FF00103114612A80094FFF7B5
:107C900017FF6FF001030222012116A80094FFF7DD
:107CA0000FFF6FF00103022201211AA80094FFF7D1
:107CB00007FF6FF00103022201211EA80094FFF7C5
:107CC000FFFE6FF001030222012122A80094FFF7BA
:107CD000F7FE6FF001030522012126A80094FFF7AB
:107CE000EFFE6FF001030522012100942AA8FFF79F
:107CF000E7FE6FF001030322009482E71F488DE73F
:107D00001F4801F08FF9002106220846FFF7B8FE50
:107D10004FF0FF330446009302226FF0010301216C
:107D20002AA8FFF7CDFE3CB13F2322460093012154
:107D300000232EA8FFF7C4FEFE2300934FF0FF326E
:107D400000235EE70F48DCE70F4867E70F4865E769
:107D50000F4801F067F958E7240C0010443B00106D
:107D60003C3B001022B600003EB600001DB70000EC
:107D70005DB6000076B600008CB600009DB600002F
:107D8000B2B60000C3B60000D8B60000E6B60000E8
:107D9000F8B60000F8B56A4D6A4B2E681B68DF071D
:107DA00049D5694B1B68DC073ED50123674F062088
:107DB0003B6001F0E3FE664C40F30720D4F87836D0
:107DC000D3F820210244C3F8202193F91C218242D8
:107DD00093F91D21C8BF83F81C018242D3F8082102
:107DE000B8BF83F81D015B4802F00101415C995462
:107DF0000132012AC3F808211ED15749A6F5C876D9
:107E00000A88088892B2C3F81021226AC3F80C616C
:107E1000C3F8142180B2FEF7E7FF242804D84F4AA4
:107E2000136823F0010313604D4B1B68DB0742BF4F
:107E300001224C4B1A60F8BD022A3FD0F4D9D3F886
:107E400004319342F0D8612001F041FF0022464BFB
:107E500046491A600123464A3B601368183A23F0EA
:107E6000010393611368580757D44FF08062414B68
:107E7000D4F878161A60404800F06AFB364B188830
:107E800080B2FEF7B1FF24280FD83C4A5368013373
:107E9000012B536043D1D4F87836D3F80C311360FA
:107EA000286800F6B830FFF7CDFBFFF72FFCC4F8C9
:107EB0007806002840D1FFF7E1FBB5E7B3F81001E1
:107EC0005E78FEF791FF7F2700212D4D2B5CAC469D
:107ED0000833B3FBF7F20846C2EBC2129B1AC0F19B
:107EE000070246FA02F202F001050CEB030292F8D7
:107EF000282001336A40B3FBF7F582400130C5EB1F
:107F0000C5150A430828A3EB0503D1B2E7D1D4F87D
:107F100078360531C3F8041186E70B68A2E7022B17
:107F2000C3D1642001F0D3FEFFF7F0FBC4F878065C
:107F3000BDE8F840FFF7AEBCFFF790FB74E700BF69
:107F400008800040004000500440005008400050AD
:107F5000240C0010403B00102C3B0010148000400B
:107F60000C400050104000501041005008000340E9
:107F70002400034080E100E0FC3A0010303B001098
:107F800044B70000F8B55E4B1A68D50756D50127EF
:107F90001F605C4B5C49D3F810210D461C468E686F
:107FA0006AB3B3F80C01B3F81C21904227D1DA6B05
:107FB000D3F80001104446B93AB11B6BA0F6B830B3
:107FC0001844FFF73FFB8F60F8BD01230022AB6030
:107FD00000F5A540D4F8143150302363184494F8C8
:107FE0003830D4F818111844C4F804216163C4F877
:107FF0001021FFF727FBBDE8F840FFF7EDBBD4F8F1
:10800000203173B1B4F80C21B4F824319A4208D16C
:108010003E49C022A1F1E80002F0F0FC0023C4F8C0
:108020002031002E4CD10123AB60394B186800F58C
:10803000BD400830FFF706FBFFF7CEFB304B1A6858
:1080400094070DD5022233491A600B6823F0080308
:108050000B604FF48071304B1960102119601A6069
:10806000274B1A6850071BD504221A6001F028FE1E
:10807000410728D5FFF7C2FAFFF780FA4FF0806278
:10808000264B62201A6001F022FE8022244B1A60E7
:108090004FF480721A601F4A136823F04003136084
:1080A000174B1A6812078FD508221A60FFF72EFBAC
:1080B000144BC3F8780648B9BDE8F840FFF7DEBABC
:1080C000FFF7E8FBBAE7FFF7C9FAE9E701F0F8FDC7
:1080D000430711D5FFF792FAFFF750FA4FF080628D
:1080E0000E4B62201A6001F0F2FD80220C4B1A60E8
:1080F0004FF480721A6067E7BDE8F840FFF7AEBA48
:1081000000800040240C0010303B00104C0D00108B
:1081100008800040148000403CC0092000E100E0DD
:1081200058C009202DE9F04F87B04FF0807301252A
:10813000BD4FBE4C3B60FFF769F9BD48C4F8005322
:10814000C4F82454C4F84855C4F86C5600F0FCF93F
:108150000223B84EB84A336004231360B74A35602F
:108160001360FFF7D3FAB64BB64A1B88C4F87806FB
:108170009BB21380B44BDFF804B32362FEF7A2FF77
:1081800001F074FCFFF73AFAFFF7F8F9FFF7E8FAA5
:10819000AE4B00229846CDE901761A60AC4B1B78B5
:1081A000092B11D00222029B01991A6004230B6053
:1081B0001021A84B19604FF4807119601A60FFF705
:1081C00011F907B0BDE8F08F0023994805A9059380
:1081D00000F0CCF9002800F012810598D0F81021A9
:1081E000D0F80411FEF79CFEDBF84430002B40F081
:1081F000E580994800F016FF0598D0F80411FFF7C4
:10820000BBFC78B91022954B1A60954B954A1B68B8
:1082100003F5C333A033136052F8083C43F008035E
:1082200042F8083C059EFEF75BFF054650B3002769
:108230000123C7700370D6F80C3106F58A714360CC
:10824000D6F810310E30623B00F80C3CD6F8042111
:10825000D6F82031B3FBF2F300F8043C96F81C3159
:10826000042200F8053C96F81D3100F8037C00F864
:10827000063C02F0C3FB2E22314605F1120002F04B
:10828000BDFB6F70059DB5F81001FEF7ADFD24280C
:10829000297840F2F58001F00F01052940F0AB800C
:1082A000DBF83430002B00F0A680D5F80431272B02
:1082B00040F0A180D8F8003013B10023C8F8003096
:1082C00004220E212846FFF7EBF903221221206237
:1082D0002846FFF7E5F9606201F064FB01221521F1
:1082E000A0622846FFF7DCF90222162184F8380044
:1082F00081462846FFF7D4F902221821E063074699
:108300002846FFF7CDF9022206461C2120632846A5
:10831000FFF7C6F901226063824623212846FFF752
:10832000BFF940F67A43B21F00F01F009A4284F86A
:108330002D0075D843F2D4035E435F43BE422663EB
:10834000E7636DD343F2D3025FFA89F903FB09F3C4
:10835000934265DD4448A6F54356143E864228BF45
:108360000646B3425CD800FB0AF0404BA0F5742AE5
:10837000AAF5107A9A45606352D83D4905F11E006E
:10838000FEF7FEFDD4F8FC30002B49D0394A1368C3
:1083900023F0400313600022374BE06BC3E9012256
:1083A0005022D5F80C3100F51A502C301844D5F86D
:1083B000043102FB0300FFF745F91CE0059DB5F809
:1083C0001001FEF711FD24287FF613AF2B7803F080
:1083D0000F03062B0FD8DFE803F00416041604166B
:1083E0000400D5F80431072B05D9A81CFFF766F95E
:1083F00000287FF4FEAE0122059BC3F8182100205F
:10840000FEF7C4FECAE6D5F804310D2BF3D9A81C3B
:10841000FFF754F900287FF4ECAE05F10800E5E71A
:10842000FFF764F9E7E700BF80E100E0240C0010EB
:10843000FC3A0010048000400C80004000E100E0A5
:10844000A00400102C3B0010D6BE898E640B0010D7
:108450004E0B00103CC009202EB7000038C0092088
:10846000088000401C800040A0860100C08D0313DE
:10847000640C001014800040303B001050040010C9
:1084800001F003010329B6D195F80190B9F1000F6D
:10849000B1D0AB7893B1012BADD1B9F1080FAAD10E
:1084A000494602222846C4F82031FFF7F9F824494A
:1084B000A4F82401E81CFEF763FD9CE7B9F10C0F5A
:1084C00099D101222846FFF7EBF80222C6B2042117
:1084D000284684F83860FFF7E3F8022207460621B1
:1084E000E0632846FFF7DCF802220A21C4F81401F1
:1084F00003902846FFF7D4F802228246C4F81801F8
:1085000049462846FFF7CCF843F2D402039BA4F86F
:108510001C015343C4F81431012306EB460006EB5B
:10852000800006EB80060748574300FB0AF0B600C0
:1085300084F83860E763C4F81801C4F810315AE7CA
:108540004C0D0010A08601000023C0E90A337047DB
:10855000C36A826A01330A2B28BF00239A421DBFD7
:1085600040F82310C362012000207047D0E90A328E
:10857000934209D001330A2B28BF002350F823204F
:108580000A60836201207047002070472DE9F04F98
:1085900099B000AF15233B863A23BB60964B064645
:1085A0001B6807F11C0107F10800C7F804D09847C1
:1085B0003C7F002C40F01B813B6A3A8C190E1B0C4F
:1085C00087F833307B6A87F83210190E1B0C87F856
:1085D0003730BB6A87F83610190E1B0C87F83B3012
:1085E000FB6A87F83A10190E1B0C87F83F304FF6DC
:1085F000FF7352BABA86BA8C122052BA3A873A8DB1
:1086000087F83E1052BABA87BA8D42F6223152BA72
:10861000A7F84020A7F8443001F0B9FA41F24B31F5
:10862000142001F0B4FA40F6F151202001F0AFFA25
:108630003188022089B201F0AAFA4FF6AE112D203E
:1086400001F0A5FA41F284512C2001F0A0FA082192
:10865000052001F09CFA2921032001F098FA01F08D
:108660002FFB4106FBD5612001F031FB01F028FB17
:108670004207FBD54FF48072604B802198461A6008
:108680005F4A11604FF00009E5B2052045F008018E
:1086900001F07DFA87F8425087F843900E2001F0F0
:1086A0006DFA00F01F000F28F8D107F13005AB4636
:1086B0004FF0000A70201BF8011B0AF1010A01F0BB
:1086C00074FABAF1160FF5D1632009F1010901F02E
:1086D000FEFAB9F1100FDFD10134082CD2D10E20EF
:1086E00001F04CFA00F01F000F28F8D14FF480730E
:1086F000444C6420236001F0EAFA01F0E1FA4307F8
:10870000FBD431880220013989B201F040FA01F02E
:10871000D7FA4006FBD5612001F0D9FA01F0D0FA72
:108720004107FBD510234FF0020AC8F800300E2095
:1087300001F024FA00F01F000F28F8D1622001F0A8
:10874000C6FA01F0BDFAC206FBD507F14806B346EA
:108750004FF00009C8F800A0702001F01DFA09F1DF
:108760000109B9F1160F0BF8010BF5D101F0A8FAC8
:10877000030702D4C4F800A0D9E70E2001F0FEF9E7
:1087800000F01F000F28F8D1642001F0A0FA01F0DA
:1087900097FA10F00400FAD180221B4B1A601023C4
:1087A000236097F85A10194B0122597097F85B1003
:1087B0001A70997097F85C1087F83120D97097F883
:1087C0005D101971022116F801EB15F801CBE64591
:1087D00018BF0A4601F10101C9B218BF01201429CE
:1087E000F1D100B11A7002232360D7F804D06437A6
:1087F000BD46BDE8F08F00BF90B8000038C009202A
:1088000058C009203CC009205CC00920281800106D
:108810002DE9F04F89B0DFF880A105460226D34646
:1088200042F62231122001F0B2F941F24B3114200C
:1088300001F0ADF929880220013989B201F0A7F9C8
:108840004FF6AE112D2001F0A2F941F284512C20F7
:1088500001F09DF90821052001F099F92921032053
:1088600001F095F901F02CFA4106FBD5612001F0E9
:108870002EFA01F025FA4207FBD51023CAF8003082
:108880004FF48073424C8022A0462360414B266007
:108890001A600E2001F072F900F01F000F28F8D1C5
:1088A0006220C8F8006001F012FA01F009FAC3066C
:1088B000FBD50027CBF800600DF10809702001F00E
:1088C0006BF90137162F09F8010BF7D101F0F8F910
:1088D0000707DED5102326606420236001F0F7F936
:1088E00001F0EEF94007FBD401F0EAF94106FBD5AF
:1088F0002988022089B201F04AF901F0E1F9420623
:10890000FBD5612001F0E3F94FF48073CBF8003020
:1089100040F215130027ADF808305FFA87F848F0E9
:108920000801052001F033F98DF81C804FF0000894
:108930008DF81D800E2001F021F900F01F000F2896
:10894000F8D14FF0000902AB13F8011B702009F1B8
:108950000109CDE9003301F028F9B9F1160F009BA8
:10896000F2D1632008F1010801F0B1F9B8F1100F5C
:10897000DED10137082FD0D14FF4807364202360FB
:1089800001F0A5F901F09CF94307FBD448E700BFCB
:108990003CC0092058C0092038C0092038B50378E8
:1089A0000C468BB30378012B2DD1402542F62231A2
:1089B000122001F0ECF843F24B31142001F0E7F8FB
:1089C00040F6F151202001F0E2F82188022089B21E
:1089D00001F0DDF82946032001F0D9F801F070F923
:1089E0004206FBD5612001F072F901F069F94307F5
:1089F000FBD54FF48072054B63201A6001F067F9D4
:108A00008022034B1A6038BD2925CFE738C00920E2
:108A100058C009204FF08052034B1A60034A136874
:108A200023F002031360704798C00920040003403C
:108A300030B5074B07491A780023074C9A4200DCEF
:108A400030BD0D686D07FCD52568C5540133F5E7C9
:108A50006C0A00100C0003400800034010B540F6FB
:108A60003544074B074A1B681268C3F3130304FB22
:108A70000323836042F210734B43C36010BD00BFF9
:108A80006C1300100840004040F635410A4B0B4A79
:108A90001B681268C3F3130301FB03238268C068D9
:108AA0009A4284BF03F1434303F5A0039B1A834218
:108AB00034BF0020012070476C13001008400040B4
:108AC00070470000002340F668124360024B1A8092
:108AD00001230370704700BF9C0400100123037042
:108AE0007047000030B58FB034220446002101A841
:108AF000FBF774FB40F635411B4B1C4A1B681268A0
:108B0000C3F3130301FB032320460D93FFF7BCFFC0
:108B100028B104212046FFF7A1FF0323237001F0B1
:108B2000CFF8C3061AD51025114B01A81D60FFF719
:108B30007FFF0D9A01A90620FCF714FA0D4B0621C0
:108B40001D602046FFF78AFF03232370642001F095
:108B5000BEF8FFF75FFF0123236102E02378022BB9
:108B6000F4D10FB030BD00BF6C13001008400040BE
:108B700038C009203CC0092038B547F6FF710446CB
:108B80000D2001F004F842F62231122000F0FFFF20
:108B900041F24B31142000F0FAFF4FF49C61202089
:108BA00000F0F5FF1D4B022019881D4D013989B2D7
:108BB00000F0EDFF4021032000F0E9FF0321212018
:108BC00000F0E5FF2D20E98800F0E1FF2C20A988C6
:108BD00000F0DDFF01F074F84206FBD54FF0805243
:108BE000104B11491A600B68612043F002030B60BF
:108BF0000E4B1A6001F06BF801F062F84307FBD5E9
:108C00000E2000F0BBFF00F01F000F28F8D16220FB
:108C100001F05DF80223237038BD00BF9C040010F2
:108C20006C0A001098C00920040003409CC0092071
:108C300010B547F6FF7104460D2000F0A8FF42F67C
:108C40002231122000F0A3FF43F24B31142000F038
:108C50009EFF4FF49861202000F099FF1A4B0220EC
:108C6000198889B200F093FF2621032000F08FFFBE
:108C70000321212000F08BFF0F21052000F087FF4A
:108C800001F01EF84206FBD5612001F020F801F04A
:108C900017F84307FBD50E2000F070FF00F01F000F
:108CA0000F28F8D18022094B63201A6001F00FF8D9
:108CB0004FF48072064B1A6005232370A369A360EA
:108CC00044F62063E36010BD9C04001058C00920E6
:108CD00038C0092010B50446FFF7D6FEA8B1636876
:108CE000072101335A4202F0030203F0030358BF85
:108CF0005342064A636032F81320054B20461A801F
:108D0000FFF7ACFE01232361237010BDECB7000018
:108D10009C04001010B50446FFF7B6FE30B10123E5
:108D200023702361A369A360014BE36010BD00BF02
:108D3000B0AD010010B50446FFF7A6FEF8B16420FF
:108D400000F0C5FF80220E4B1A604FF4807243F88A
:108D5000202C636801335A4202F0030203F003033C
:108D600058BF5342074A636032F81320064B1A80FB
:108D700003232370A369A3604EF66023E36010BD54
:108D80005CC00920ECB700009C04001010B504463C
:108D900000F096FFC3060ED504232370012340F68E
:108DA00035416361104B114A1B681268C3F313030A
:108DB00001FB0323A36123695BB12046FFF764FE37
:108DC00038B10423237000230B2120466361FFF791
:108DD00045FE2378022B06D0642000F078FFBDE822
:108DE0001040FFF717BE10BD6C1300100840004084
:108DF00010B58EB03422002101A8FBF7EFF940F640
:108E00003541204B204A1B681268C3F3130301FB52
:108E100003230D9300F054FFC1062FD510241B4BE4
:108E200001A81C60FFF704FE0D9A01A90620FCF7BB
:108E300099F8174B1C60FFF7EDFD612000F047FF2C
:108E400000F03EFF4207FBD50E2000F097FE00F039
:108E50001F000F28F8D10F4A0F4913685B070FD482
:108E60004FF080520D4B0E491A600B68622043F0A0
:108E700002030B600B4B1A6000F029FF0EB010BD0F
:108E80000B68EAE76C1300100840004038C0092066
:108E90003CC009200C0003400800034098C0092092
:108EA000040003409CC0092030B589B004461C2250
:108EB000002101A8FBF792F9FEF78EFA022C124D61
:108EC00013D84FF080721148114B00EB84041A60E4
:108ED000A46800F0CBFD2B780D2B0AD19DF804304F
:108EE00001A854F823309847F5E700232B7009B008
:108EF00030BD642000F0EBFEFFF78CFD4FF0807278
:108F0000044B1A60F3E700BF4E0B0010ECB70000F3
:108F100000E100E080E100E070B50346012B10465F
:108F200003D0022B18D0002015E0531E032BFAD8D3
:108F300000220C4B9E685C6896424FEA04245C60F9
:108F4000C8BF8D5C02F10102C4BF2C435C60042ADF
:108F5000F1D19860012070BD012AE4D10A78014B5B
:108F60001A70F8E76C0A0010284A0B21136843F0C6
:108F7000100313608322264B1A60264A04331160C3
:108F800000215160D321916253F8042C22F0800219
:108F900043F8042C002836D0C0221A6009221E4B48
:108FA0001A601E4A1368043223F0404343F08043A2
:108FB00042F8043CD36B23F04043D363136823F09F
:108FC000030343F001031360154B196821F00301FB
:108FD0001960B8B1116821F00C0141F00401116071
:108FE000196821F00C0141F008011960116821F4A1
:108FF000405141F4805111601A6822F4405242F409
:1090000000521A6070471860C8E700BFC4C00F4024
:109010000C000140000001400800014000C0024077
:1090200044C0024010B5064A0649013810F8013F15
:1090300003B910BD1468A406FCD50B60F6E700BFA9
:1090400014000140000001400FB437B5134B1D68F8
:10905000FDB90122124C1A60FF2107AB069A204687
:10906000019300F0A1FA204684F8FF5001F062FD60
:109070000C4B0D4A1C605A604CF68022C0F30B006A
:1090800040F004409D60D8601A611A6942F0010204
:109090001A6103B0BDE8304004B07047A812001058
:1090A000483B0010E0410050000001402DE9F74F1F
:1090B0004FF00009D2E9033607468A4693469846A0
:1090C0000124002522462B463846514601F0EAFA93
:1090D000494508BF404509D24FF0000954EA05034D
:1090E0000CD10023337003B0BDE8F08F04FB09F30B
:1090F00008FB0533A4FB08451D44E3E73846514609
:1091000022462B4601F0CEFA9A46DBF80C30174681
:10911000194600228046CDE90012134620460A4631
:10912000294601F0BFFAB9F1000F0BD1B8F1000FD9
:1091300008DCDDE900239D4208BF944212D30446B7
:109140000D46CBE7B8F1090F0CDD9BF8003013F0AA
:10915000040F14BF37235723984406F8018B09F1F5
:109160000109ECE73023F7E7F0B50123D1E9034229
:10917000B0FBF3F5A54203D200251BB91370F0BD77
:109180006343F5E7B0FBF3F4CE6803FB1400B3FBD5
:10919000F6F72DB9002C03DC9E420ED83B46ECE7D7
:1091A000092C0ADD0B7813F0040F14BF3723572363
:1091B000234402F8013B0135F0E73023F8E7F0B52E
:1091C0000123D1E90342B0FBF3F5A54203D2002508
:1091D0001BB91370F0BD6343F5E7B0FBF3F4CE6841
:1091E00003FB1400B3FBF6F72DB9002C03DC9E4201
:1091F0000ED83B46ECE7092C0ADD0B7813F0040F80
:1092000014BF37235723234402F8013B0135F0E70D
:109210003023F8E72DE9F04106460F46154654681D
:10922000136913F8012B0AB1002C44DC2B7A03B12B
:10923000013C2B78990703D5EA68102A3DD1023CFE
:1092400013F0090F08D1A046B8F1000F3ADC631EF5
:10925000002CB4BF1C461C1B297A09B13046B84704
:109260002B789A070DD5EB68102B31D13021304681
:10927000B8472B7813F0040F14BF582178213046DB
:10928000B8472B78DB0708D5A046B8F1000F23DCE0
:10929000631E002CB4BF1C461C1BD5F8108018F8A8
:1092A000011BF9B92B7803F00903082B01D1002C1D
:1092B0001BDCBDE8F081013CB3E7082A08BF04F1DC
:1092C000FF34BDE720213046B84708F1FF38BBE73F
:1092D000082BD6D13021D2E730213046B84708F1EB
:1092E000FF38D2E73046B847D9E720213046B847A3
:1092F000013CDCE78368026893423CBF4268D1547A
:1093000083680133836070472DE9F04F8DB04FF0D3
:1093100000090746884615461C46CA4606AE05960D
:1093200015F801BBBBF1000F76D0BBF1250F09D0BA
:10933000BBF10A0F02D10D213846C04759463846C5
:10934000C047EDE79DF80430CDF808A023F00B03EB
:109350008DF8043000231A4618468DF80C9015F845
:10936000011B29B12D291FD030291FD023291FD03F
:1093700028B19DF8040040F008008DF804002AB1DF
:109380009DF8042042F001028DF804202BB19DF8D5
:10939000043043F002038DF80430A1F13003092BAF
:1093A0001CD800220A2009E00120D8E70122D6E7D4
:1093B0000123D4E700FB023215F8011BA1F13003B1
:1093C0005FFA83FCBCF1090FF4D9A1F16103052B0D
:1093D00025D8A1F157030A2BECD002922E290BD1EC
:1093E0009DF8043043F001038DF8043015F8011B9B
:1093F000A1F13003092BF9D97A2917D115F8011BEE
:10940000012378298CD862291DD8252997D058297D
:1094100000F09F80002983D10DB0BDE8F08FA1F14D
:109420004103052BD9D8A1F13703D4E76C2908D122
:1094300029786C2901D00135E2E7697802230235E9
:10944000DFE70023DDE7A1F16302152A3FF668AFED
:1094500001A050F822F000BF8D950000D5940000C7
:10946000219300002193000021930000219300002C
:10947000D594000021930000219300002193000067
:1094800021930000219300007D9500004595000088
:109490002193000021930000959500002193000086
:1094A000B194000021930000219300005395000027
:1094B0000A220492022B59D1073424F0070401AA8E
:1094C000F4E80201FFF7F2FD4146384601AAFFF732
:1094D000A1FE25E70A22022B049218D1073424F0BA
:1094E000070BFBE80201002871F1000305DA2D23C8
:1094F000404261EB41018DF80C3001AAFFF7D6FD27
:109500004146384601AAFFF785FE5C4608E7012B75
:10951000206804F1040B0AD10028BCBF2D2340426F
:1095200001A9B8BF8DF80C30FFF71EFEE8E7002850
:10953000BCBF2D23404201A9B8BF8DF80C30FFF706
:109540003EFEDDE79DF8043043F002038DF8043061
:10955000002310220492A1F15802514251419DF87A
:10956000042061F382028DF80420A3E7012B54F854
:10957000040B01A907D1FFF7F7FDA5E7082354F86D
:10958000040B049301A9FFF71AFE9DE754F8041B8E
:10959000C9B2D4E654F8043B4146384601AA0593C3
:1095A000FFF738FE0596BBE61FB5002489B10139E7
:1095B0000290019101A808490394FFF7A5FE0399C1
:1095C000019B029A994234BF5454D454039804B076
:1095D00010BD0846FBE700BFF592000082B00023F3
:1095E000054A0193019B934201DD02B07047019B44
:1095F00001330193F6E700BFBFC62D002DE9F0410E
:1096000002270021B8460D4C10264FF48075C4F88F
:10961000008026602560FFF7E1FF094B1F601E6098
:109620001D60FFF7DBFF01318842EDD1FFF7D6FF68
:10963000FFF7D4FFBDE8F041FFF7D0BF38C00920E5
:109640003CC0092038B50C4B1C6804F0020504F03E
:1096500080440220FFF7D2FF4DB10320FFF7CEFF79
:10966000FFF7BCFFFFF7BAFFFFF7B8FFF1E7002CE9
:10967000F6D00420F2E700BF2CED00E030B587B053
:10968000104D01AC0FCD0FC42B6823600E4B1C781E
:10969000E4B20320FFF7B2FF002001AA52F8043B16
:1096A000013044FA03F3DB0708D5FFF7A7FFFFF704
:1096B00095FFFFF793FFFFF791FFEAE70528EDD14C
:1096C000F5E700BF4CB8000028ED00E030B587B0EA
:1096D0006C46114D0FCD0FC495E8030084E80300DC
:1096E0000E4B1C78E4B20420FFF788FF6A46002086
:1096F00052F8043B013044FA03F3DB0708D5FFF7C7
:109700007DFFFFF76BFFFFF769FFFFF767FFEAE7F2
:109710000628EDD1F5E700BF60B8000029ED00E0B4
:1097200030B587B06C46114D0FCD0FC495E80300DE
:109730000F4B84E803001C88A4B20520FFF75EFFEE
:109740006A46002052F8043B013044FA03F3DB0779
:1097500008D5FFF753FFFFF741FFFFF73FFFFFF784
:109760003DFFEAE70628EDD1F5E700BF78B8000035
:109770002AED00E02DE9F0414FF08073294A2A4D8F
:1097800013602B684CF24F3143F480032B600223AB
:10979000264E274F3360274B4FF496641960012300
:1097A000336008231360D7F8008001F0A5F990FB1F
:1097B000F4F303FB1403204A08F5C878434413600C
:1097C000D7F8008001F098F990FBF4F303FB140341
:1097D0001A4A08F5C878434413603F6801F08CF9D1
:1097E00090FBF4F303FB140407F5C877144B154AF8
:1097F0003C441C60136843F049031360124A137819
:10980000112B0DD0022333600823104A13602B68FC
:1098100023F480032B604FF080731360BDE8F08168
:1098200030BFECE700E100E0C4C00F400400094095
:10983000080009400C000940180009401C000940BC
:1098400020000940140009404E0B001080E100E0A8
:1098500010B52F4B1A68D0071AD501221A602D4B6C
:109860001B6813F0020F4FF0020314BF2A4A2B4A61
:1098700013602B4B1C6801F03FF94FF4966390FB8B
:10988000F3F202FB130304F5C874264A2344136061
:109890001F4B1A6891071AD502221A601D4B1B68CC
:1098A00013F0100F4FF0100314BF1B4A1B4A136034
:1098B0001B4B1C6801F020F94FF4966390FBF3F208
:1098C00002FB130304F5C874174A23441360104BBA
:1098D0001A6852071AD504221A600E4B1B6813F43B
:1098E000807F4FF4807314BF0B4A0C4A13600C4BFB
:1098F0001C6801F001F94FF4966390FBF3F202FB50
:10990000130304F5C874094A2344136010BD00BF53
:109910000000094034C009203CC0092038C009209B
:1099200008000940180009401C00094020000940B7
:1099300000F0CEBC08B50D4B0D4A0E498B420CD33E
:1099400000210D4B0D4A93420CD3FAF723FC0C4A2D
:109950000C4B1A60FDF766F8FEE752F8040B43F86B
:10996000040BEBE743F8041BEDE700BF20000010F9
:10997000E8B800001C0B0010200B0010483C001041
:109980000040000008ED00E0FEE700000A22044B62
:109990001A601A68013A1A60002AFAD1704700BFAB
:1099A000AC12001090FAA0F070470000C30803EB5F
:1099B000900303EB901303EBD01303EB902303EB23
:1099C000D020044B58605A68013A5A60002AFAD1F4
:1099D000704700BFAC120010014B5843FFF7E6BFC1
:1099E00040420F000023104A136053609360D3601D
:1099F0001361D361536293620C4A13601362136460
:109A00001366C2F880300A4A136053609360D360D3
:109A10001361D3615362074A1360136213641366C0
:109A2000C2F88030704700BF00C0024000C009206B
:109A300040C0024014C0092008B5FFF7D3FF00233F
:109A40004CF21271084A1360116240F2B1111164B4
:109A50004FF040511366C2F8801053615363536551
:109A60005367C2F8943008BD00C00920114B1A6832
:109A700022F4404242F400421A601A6822F4405232
:109A800042F400521A601A6822F4403242F4003262
:109A90001A601A6822F4402242F400221A604FF041
:109AA0008052054B1A60C722044B1A600C225A6080
:109AB000704700BF00C0024098C00920000003406A
:109AC000094A136823F470131360084A136823F0DB
:109AD000C0631360064B1A6842F420121A601A68B9
