S01300006363323430305F746573742E7372656366
S1134000E03F001085420000D9420000D942000080
S1134010D9420000D9420000D9420000000000004B
S1134020000000000000000000000000D942000071
S1134030D942000000000000D9420000D94200002B
S1134040D9420000D9420000D9420000D942000000
S1134050D9420000D9420000D9420000D9420000F0
S1134060D9420000D9420000D9420000D9420000E0
S1134070D9420000D9420000D9420000D9420000D0
S1134080D9420000D9420000D9420000D9420000C0
S1134090D9420000D9420000D9420000D9420000B0
S11340A0D9420000D9420000D9420000D9420000A0
S11340B0D9420000D9420000D9420000D942000090
S11340C0D9420000D9420000D94200000348044B01
S11340D0834202D0034B03B11847704750040010C9
S11340E05004001000000000054806490B1AD90FBF
S11340F001EBA301491002D0034B03B118477047E9
S113410050040010500400100000000010B5064CCC
S1134110237843B9FFF7DAFF044B13B10448AFF334
S113412000800123237010BD500400100000000023
S11341309044000008B5044B1BB104490448AFF394
S11341400080BDE80840CFE70000000054040010E0
S113415090440000002301461A46184600F03EB879
S113416038B50A4C0A4D641BA4100AD004F18043EC
S1134170013B05EB8305013C55F804399847002CB5
S1134180F9D1BDE8384000F08DB900BFB444000057
S1134190B044000070B50D4E0D4D761BB61006D020
S11341A00024013455F8043B9847A642F9D1094E3E
S11341B0094D00F06DF9761BB61006D000240134C9
S11341C055F8043B9847A642F9D170BD9C440000C1
S11341D09C440000A44400009C440000F0B4174C2C
S11341E02568D5F848410CB365681F2D23DC38B920
S11341F000206B1C0235636044F82510F0BC704746
S1134200012604EB850CCCF88820D4F8887106FAD2
S113421005F217430228C4F88871CCF80831E7D1B5
S1134220D4F88C311A43C4F88C21E1E705F5A6745F
S1134230C5F84841D8E74FF0FF30DFE78C44000071
S1134240024B13B10248FFF785BF7047000000001E
S11342506141000008B500F081F84FF48073084C08
S1134260236000F0D7F81023236000F0F8F804204E
S113427000F0ECF8B0F5774FF9D102232360FEE7A4
S113428038C0092008B50D4B0D4A0E498B420CD39A
S113429000210D4B0D4A93420CD3FFF77BFF0C4AD0
S11342A00C4B1A60FFF7D6FFFEE752F8040B43F8F5
S11342B0040BEBE743F8041BEDE700BF20000010FC
S11342C0B84400005004001050040010740400109E
S11342D00040000008ED00E0FEE70000C30803EB27
S11342E0900303EB901303EBD01303EB902303EB46
S11342F0D020044B58605A68013A5A60002AFAD117
S1134300704700BF6C0400100023104A1360536010
S11343109360D3601361D361536293620C4A136058
S1134320136213641366C2F880300A4A1360536040
S11343309360D3601361D3615362074A13601362BD
S113434013641366C2F88030704700BF00C0024097
S113435000C0092040C0024014C0092008B5FFF77E
S1134360D3FF00234CF21271084A1360116240F229
S1134370B11111644FF040511366C2F880105361BB
S1134380536353655367C2F8943008BD00C00920D5
S1134390094A136823F470131360084A136823F05E
S11343A0C0631360064B1A6842F420121A601A683C
S11343B022F4A0121A60704704C0024000C0092011
S11343C044C00240F0B5451E0346202001241027B6
S11343D00D4ADFF83CC0106008460C4904FA05F5A4
S11343E0013BDBB2FF2B02D120230B60F0BD28423E
S11343F014BF0C6014600F60DCF800601760C6F333
S1134400400646EA4000EBE75CC0092058C009209A
S113441054C0092008B5FFF7BBFF4FF400730849E7
S113442032200B60FFF75AFF2022064B18201A6037
S11344304FF480430B600449BDE80840FFF7C2BF56
S113444038C0092058C00920FF7F0D0008B540F08E
S1134450800109041820FFF7B5FF80B208BD08B534
S113446000211820FFF7AEFF0020FFF7EFFF002820
S1134470FAD14FF400411820FFF7A4FF0020FFF702
S1134480E5FFB0F5004FF9D108BD00002800001089
S1134490F8B500BFF8BC08BC9E4670474142000016
S11344A035410000F8B500BFF8BC08BC9E46704713
S10B44B00D41000000000000B2
S11344B82800001000000000000000001403001091
S11344C87C030010E403001000000000000000005A
S11344D800000000000000000000000000000000D0
S11344E800000000000000000000000000000000C0
S11344F800000000000000000000000000000000B0
S1134508000000000000000000000000000000009F
S1134518000000000000000000000000000000008F
S1134528000000000000000000000000000000007F
S1134538000000000000000000000000000000006F
S1134548000000000000000000000000000000005F
S1134558000000000000000000000000000000004F
S113456801000000000000000E33CDAB34126DE6EC
S1134578ECDE05000B000000000000000000000055
S1134588000000000000000000000000000000001F
S1134598000000000000000000000000000000000F
S11345A800000000000000000000000000000000FF
S11345B800000000000000000000000000000000EF
S903428535
